{
	"UniswapV2/UniswapV2Pair.sol": {
		"UniswapV2Pair": {
			"abi": [
				{
					"inputs": [],
					"stateMutability": "nonpayable",
					"type": "constructor"
				},
				{
					"anonymous": false,
					"inputs": [
						{
							"indexed": true,
							"internalType": "address",
							"name": "owner",
							"type": "address"
						},
						{
							"indexed": true,
							"internalType": "address",
							"name": "spender",
							"type": "address"
						},
						{
							"indexed": false,
							"internalType": "uint256",
							"name": "value",
							"type": "uint256"
						}
					],
					"name": "Approval",
					"type": "event"
				},
				{
					"anonymous": false,
					"inputs": [
						{
							"indexed": true,
							"internalType": "address",
							"name": "sender",
							"type": "address"
						},
						{
							"indexed": false,
							"internalType": "uint256",
							"name": "amount0",
							"type": "uint256"
						},
						{
							"indexed": false,
							"internalType": "uint256",
							"name": "amount1",
							"type": "uint256"
						},
						{
							"indexed": true,
							"internalType": "address",
							"name": "to",
							"type": "address"
						}
					],
					"name": "Burn",
					"type": "event"
				},
				{
					"anonymous": false,
					"inputs": [
						{
							"indexed": true,
							"internalType": "address",
							"name": "sender",
							"type": "address"
						},
						{
							"indexed": false,
							"internalType": "uint256",
							"name": "amount0",
							"type": "uint256"
						},
						{
							"indexed": false,
							"internalType": "uint256",
							"name": "amount1",
							"type": "uint256"
						}
					],
					"name": "Mint",
					"type": "event"
				},
				{
					"anonymous": false,
					"inputs": [
						{
							"indexed": true,
							"internalType": "address",
							"name": "sender",
							"type": "address"
						},
						{
							"indexed": false,
							"internalType": "uint256",
							"name": "amount0In",
							"type": "uint256"
						},
						{
							"indexed": false,
							"internalType": "uint256",
							"name": "amount1In",
							"type": "uint256"
						},
						{
							"indexed": false,
							"internalType": "uint256",
							"name": "amount0Out",
							"type": "uint256"
						},
						{
							"indexed": false,
							"internalType": "uint256",
							"name": "amount1Out",
							"type": "uint256"
						},
						{
							"indexed": true,
							"internalType": "address",
							"name": "to",
							"type": "address"
						}
					],
					"name": "Swap",
					"type": "event"
				},
				{
					"anonymous": false,
					"inputs": [
						{
							"indexed": false,
							"internalType": "uint112",
							"name": "reserve0",
							"type": "uint112"
						},
						{
							"indexed": false,
							"internalType": "uint112",
							"name": "reserve1",
							"type": "uint112"
						}
					],
					"name": "Sync",
					"type": "event"
				},
				{
					"anonymous": false,
					"inputs": [
						{
							"indexed": true,
							"internalType": "address",
							"name": "from",
							"type": "address"
						},
						{
							"indexed": true,
							"internalType": "address",
							"name": "to",
							"type": "address"
						},
						{
							"indexed": false,
							"internalType": "uint256",
							"name": "value",
							"type": "uint256"
						}
					],
					"name": "Transfer",
					"type": "event"
				},
				{
					"inputs": [],
					"name": "MINIMUM_LIQUIDITY",
					"outputs": [
						{
							"internalType": "uint256",
							"name": "",
							"type": "uint256"
						}
					],
					"stateMutability": "view",
					"type": "function"
				},
				{
					"inputs": [
						{
							"internalType": "address",
							"name": "",
							"type": "address"
						},
						{
							"internalType": "address",
							"name": "",
							"type": "address"
						}
					],
					"name": "allowance",
					"outputs": [
						{
							"internalType": "uint256",
							"name": "",
							"type": "uint256"
						}
					],
					"stateMutability": "view",
					"type": "function"
				},
				{
					"inputs": [
						{
							"internalType": "address",
							"name": "spender",
							"type": "address"
						},
						{
							"internalType": "uint256",
							"name": "value",
							"type": "uint256"
						}
					],
					"name": "approve",
					"outputs": [
						{
							"internalType": "bool",
							"name": "",
							"type": "bool"
						}
					],
					"stateMutability": "nonpayable",
					"type": "function"
				},
				{
					"inputs": [
						{
							"internalType": "address",
							"name": "",
							"type": "address"
						}
					],
					"name": "balanceOf",
					"outputs": [
						{
							"internalType": "uint256",
							"name": "",
							"type": "uint256"
						}
					],
					"stateMutability": "view",
					"type": "function"
				},
				{
					"inputs": [
						{
							"internalType": "address",
							"name": "to",
							"type": "address"
						}
					],
					"name": "burn",
					"outputs": [
						{
							"internalType": "uint256",
							"name": "amount0",
							"type": "uint256"
						},
						{
							"internalType": "uint256",
							"name": "amount1",
							"type": "uint256"
						}
					],
					"stateMutability": "nonpayable",
					"type": "function"
				},
				{
					"inputs": [],
					"name": "decimals",
					"outputs": [
						{
							"internalType": "uint8",
							"name": "",
							"type": "uint8"
						}
					],
					"stateMutability": "view",
					"type": "function"
				},
				{
					"inputs": [],
					"name": "factory",
					"outputs": [
						{
							"internalType": "address",
							"name": "",
							"type": "address"
						}
					],
					"stateMutability": "view",
					"type": "function"
				},
				{
					"inputs": [],
					"name": "getReserves",
					"outputs": [
						{
							"internalType": "uint112",
							"name": "_reserve0",
							"type": "uint112"
						},
						{
							"internalType": "uint112",
							"name": "_reserve1",
							"type": "uint112"
						},
						{
							"internalType": "uint32",
							"name": "_blockTimestampLast",
							"type": "uint32"
						}
					],
					"stateMutability": "view",
					"type": "function"
				},
				{
					"inputs": [
						{
							"internalType": "address",
							"name": "_token0",
							"type": "address"
						},
						{
							"internalType": "address",
							"name": "_token1",
							"type": "address"
						}
					],
					"name": "initialize",
					"outputs": [],
					"stateMutability": "nonpayable",
					"type": "function"
				},
				{
					"inputs": [],
					"name": "kLast",
					"outputs": [
						{
							"internalType": "uint256",
							"name": "",
							"type": "uint256"
						}
					],
					"stateMutability": "view",
					"type": "function"
				},
				{
					"inputs": [
						{
							"internalType": "address",
							"name": "to",
							"type": "address"
						}
					],
					"name": "mint",
					"outputs": [
						{
							"internalType": "uint256",
							"name": "liquidity",
							"type": "uint256"
						}
					],
					"stateMutability": "nonpayable",
					"type": "function"
				},
				{
					"inputs": [],
					"name": "name",
					"outputs": [
						{
							"internalType": "string",
							"name": "",
							"type": "string"
						}
					],
					"stateMutability": "view",
					"type": "function"
				},
				{
					"inputs": [
						{
							"internalType": "address",
							"name": "",
							"type": "address"
						}
					],
					"name": "nonces",
					"outputs": [
						{
							"internalType": "uint256",
							"name": "",
							"type": "uint256"
						}
					],
					"stateMutability": "view",
					"type": "function"
				},
				{
					"inputs": [],
					"name": "price0CumulativeLast",
					"outputs": [
						{
							"internalType": "uint256",
							"name": "",
							"type": "uint256"
						}
					],
					"stateMutability": "view",
					"type": "function"
				},
				{
					"inputs": [],
					"name": "price1CumulativeLast",
					"outputs": [
						{
							"internalType": "uint256",
							"name": "",
							"type": "uint256"
						}
					],
					"stateMutability": "view",
					"type": "function"
				},
				{
					"inputs": [
						{
							"internalType": "address",
							"name": "to",
							"type": "address"
						}
					],
					"name": "skim",
					"outputs": [],
					"stateMutability": "nonpayable",
					"type": "function"
				},
				{
					"inputs": [
						{
							"internalType": "uint256",
							"name": "amount0Out",
							"type": "uint256"
						},
						{
							"internalType": "uint256",
							"name": "amount1Out",
							"type": "uint256"
						},
						{
							"internalType": "address",
							"name": "to",
							"type": "address"
						},
						{
							"internalType": "bytes",
							"name": "data",
							"type": "bytes"
						}
					],
					"name": "swap",
					"outputs": [],
					"stateMutability": "nonpayable",
					"type": "function"
				},
				{
					"inputs": [],
					"name": "symbol",
					"outputs": [
						{
							"internalType": "string",
							"name": "",
							"type": "string"
						}
					],
					"stateMutability": "view",
					"type": "function"
				},
				{
					"inputs": [],
					"name": "sync",
					"outputs": [],
					"stateMutability": "nonpayable",
					"type": "function"
				},
				{
					"inputs": [],
					"name": "token0",
					"outputs": [
						{
							"internalType": "address",
							"name": "",
							"type": "address"
						}
					],
					"stateMutability": "view",
					"type": "function"
				},
				{
					"inputs": [],
					"name": "token1",
					"outputs": [
						{
							"internalType": "address",
							"name": "",
							"type": "address"
						}
					],
					"stateMutability": "view",
					"type": "function"
				},
				{
					"inputs": [],
					"name": "totalSupply",
					"outputs": [
						{
							"internalType": "uint256",
							"name": "",
							"type": "uint256"
						}
					],
					"stateMutability": "view",
					"type": "function"
				},
				{
					"inputs": [
						{
							"internalType": "address",
							"name": "to",
							"type": "address"
						},
						{
							"internalType": "uint256",
							"name": "value",
							"type": "uint256"
						}
					],
					"name": "transfer",
					"outputs": [
						{
							"internalType": "bool",
							"name": "",
							"type": "bool"
						}
					],
					"stateMutability": "nonpayable",
					"type": "function"
				},
				{
					"inputs": [
						{
							"internalType": "address",
							"name": "from",
							"type": "address"
						},
						{
							"internalType": "address",
							"name": "to",
							"type": "address"
						},
						{
							"internalType": "uint256",
							"name": "value",
							"type": "uint256"
						}
					],
					"name": "transferFrom",
					"outputs": [
						{
							"internalType": "bool",
							"name": "",
							"type": "bool"
						}
					],
					"stateMutability": "nonpayable",
					"type": "function"
				}
			],
			"devdoc": {
				"methods": {}
			},
			"evm": {
				"assembly": "    /* \"UniswapV2/UniswapV2Pair.sol\":382:10029  contract UniswapV2Pair is IUniswapV2Pair, UniswapV2ERC20 {... */\n  mstore(0x40, 0x80)\n    /* \"UniswapV2/UniswapV2Pair.sol\":1304:1305  1 */\n  0x01\n    /* \"UniswapV2/UniswapV2Pair.sol\":1280:1305  uint private unlocked = 1 */\n  0x0b\n  sstore\n    /* \"UniswapV2/UniswapV2Pair.sol\":2369:2427  constructor() public {... */\n  callvalue\n    /* \"--CODEGEN--\":5:14   */\n  dup1\n    /* \"--CODEGEN--\":2:4   */\n  iszero\n  tag_1\n  jumpi\n    /* \"--CODEGEN--\":27:28   */\n  0x00\n    /* \"--CODEGEN--\":24:25   */\n  dup1\n    /* \"--CODEGEN--\":17:29   */\n  revert\n    /* \"--CODEGEN--\":2:4   */\ntag_1:\n    /* \"UniswapV2/UniswapV2Pair.sol\":2369:2427  constructor() public {... */\n  pop\n    /* \"UniswapV2/UniswapV2Pair.sol\":2410:2420  msg.sender */\n  caller\n    /* \"UniswapV2/UniswapV2Pair.sol\":2400:2407  factory */\n  0x04\n  0x00\n    /* \"UniswapV2/UniswapV2Pair.sol\":2400:2420  factory = msg.sender */\n  0x0100\n  exp\n  dup2\n  sload\n  dup2\n  0xffffffffffffffffffffffffffffffffffffffff\n  mul\n  not\n  and\n  swap1\n  dup4\n  0xffffffffffffffffffffffffffffffffffffffff\n  and\n  mul\n  or\n  swap1\n  sstore\n  pop\n    /* \"UniswapV2/UniswapV2Pair.sol\":382:10029  contract UniswapV2Pair is IUniswapV2Pair, UniswapV2ERC20 {... */\n  dataSize(sub_0)\n  dup1\n  dataOffset(sub_0)\n  0x00\n  codecopy\n  0x00\n  return\nstop\n\nsub_0: assembly {\n        /* \"UniswapV2/UniswapV2Pair.sol\":382:10029  contract UniswapV2Pair is IUniswapV2Pair, UniswapV2ERC20 {... */\n      mstore(0x40, 0x80)\n      callvalue\n        /* \"--CODEGEN--\":5:14   */\n      dup1\n        /* \"--CODEGEN--\":2:4   */\n      iszero\n      tag_1\n      jumpi\n        /* \"--CODEGEN--\":27:28   */\n      0x00\n        /* \"--CODEGEN--\":24:25   */\n      dup1\n        /* \"--CODEGEN--\":17:29   */\n      revert\n        /* \"--CODEGEN--\":2:4   */\n    tag_1:\n        /* \"UniswapV2/UniswapV2Pair.sol\":382:10029  contract UniswapV2Pair is IUniswapV2Pair, UniswapV2ERC20 {... */\n      pop\n      jumpi(tag_2, lt(calldatasize, 0x04))\n      shr(0xe0, calldataload(0x00))\n      dup1\n      0x70a08231\n      gt\n      tag_27\n      jumpi\n      dup1\n      0xba9a7a56\n      gt\n      tag_28\n      jumpi\n      dup1\n      0xba9a7a56\n      eq\n      tag_21\n      jumpi\n      dup1\n      0xbc25cf77\n      eq\n      tag_22\n      jumpi\n      dup1\n      0xc45a0155\n      eq\n      tag_23\n      jumpi\n      dup1\n      0xd21220a7\n      eq\n      tag_24\n      jumpi\n      dup1\n      0xdd62ed3e\n      eq\n      tag_25\n      jumpi\n      dup1\n      0xfff6cae9\n      eq\n      tag_26\n      jumpi\n      jump(tag_2)\n    tag_28:\n      dup1\n      0x70a08231\n      eq\n      tag_15\n      jumpi\n      dup1\n      0x7464fc3d\n      eq\n      tag_16\n      jumpi\n      dup1\n      0x7ecebe00\n      eq\n      tag_17\n      jumpi\n      dup1\n      0x89afcb44\n      eq\n      tag_18\n      jumpi\n      dup1\n      0x95d89b41\n      eq\n      tag_19\n      jumpi\n      dup1\n      0xa9059cbb\n      eq\n      tag_20\n      jumpi\n      jump(tag_2)\n    tag_27:\n      dup1\n      0x23b872dd\n      gt\n      tag_29\n      jumpi\n      dup1\n      0x23b872dd\n      eq\n      tag_9\n      jumpi\n      dup1\n      0x313ce567\n      eq\n      tag_10\n      jumpi\n      dup1\n      0x485cc955\n      eq\n      tag_11\n      jumpi\n      dup1\n      0x5909c0d5\n      eq\n      tag_12\n      jumpi\n      dup1\n      0x5a3d5493\n      eq\n      tag_13\n      jumpi\n      dup1\n      0x6a627842\n      eq\n      tag_14\n      jumpi\n      jump(tag_2)\n    tag_29:\n      dup1\n      0x022c0d9f\n      eq\n      tag_3\n      jumpi\n      dup1\n      0x06fdde03\n      eq\n      tag_4\n      jumpi\n      dup1\n      0x0902f1ac\n      eq\n      tag_5\n      jumpi\n      dup1\n      0x095ea7b3\n      eq\n      tag_6\n      jumpi\n      dup1\n      0x0dfe1681\n      eq\n      tag_7\n      jumpi\n      dup1\n      0x18160ddd\n      eq\n      tag_8\n      jumpi\n    tag_2:\n        /* \"--CODEGEN--\":12:13   */\n      0x00\n        /* \"--CODEGEN--\":9:10   */\n      dup1\n        /* \"--CODEGEN--\":2:14   */\n      revert\n        /* \"UniswapV2/UniswapV2Pair.sol\":7562:9432  function swap(uint amount0Out, uint amount1Out, address to, bytes calldata data) external override lock {... */\n    tag_3:\n      tag_30\n      0x04\n      dup1\n      calldatasize\n      sub\n        /* \"--CODEGEN--\":15:18   */\n      0x80\n        /* \"--CODEGEN--\":10:13   */\n      dup2\n        /* \"--CODEGEN--\":7:19   */\n      lt\n        /* \"--CODEGEN--\":4:6   */\n      iszero\n      tag_31\n      jumpi\n        /* \"--CODEGEN--\":32:33   */\n      0x00\n        /* \"--CODEGEN--\":29:30   */\n      dup1\n        /* \"--CODEGEN--\":22:34   */\n      revert\n        /* \"--CODEGEN--\":4:6   */\n    tag_31:\n        /* \"UniswapV2/UniswapV2Pair.sol\":7562:9432  function swap(uint amount0Out, uint amount1Out, address to, bytes calldata data) external override lock {... */\n      dup2\n      add\n      swap1\n      dup1\n      dup1\n      calldataload\n      swap1\n      0x20\n      add\n      swap1\n      swap3\n      swap2\n      swap1\n      dup1\n      calldataload\n      swap1\n      0x20\n      add\n      swap1\n      swap3\n      swap2\n      swap1\n      dup1\n      calldataload\n      0xffffffffffffffffffffffffffffffffffffffff\n      and\n      swap1\n      0x20\n      add\n      swap1\n      swap3\n      swap2\n      swap1\n      dup1\n      calldataload\n      swap1\n      0x20\n      add\n      swap1\n        /* \"--CODEGEN--\":27:38   */\n      0x0100000000\n        /* \"--CODEGEN--\":14:25   */\n      dup2\n        /* \"--CODEGEN--\":11:39   */\n      gt\n        /* \"--CODEGEN--\":8:10   */\n      iszero\n      tag_32\n      jumpi\n        /* \"--CODEGEN--\":52:53   */\n      0x00\n        /* \"--CODEGEN--\":49:50   */\n      dup1\n        /* \"--CODEGEN--\":42:54   */\n      revert\n        /* \"--CODEGEN--\":8:10   */\n    tag_32:\n        /* \"UniswapV2/UniswapV2Pair.sol\":7562:9432  function swap(uint amount0Out, uint amount1Out, address to, bytes calldata data) external override lock {... */\n      dup3\n      add\n        /* \"--CODEGEN--\":41:50   */\n      dup4\n        /* \"--CODEGEN--\":34:38   */\n      0x20\n        /* \"--CODEGEN--\":18:32   */\n      dup3\n        /* \"--CODEGEN--\":14:39   */\n      add\n        /* \"--CODEGEN--\":11:51   */\n      gt\n        /* \"--CODEGEN--\":8:10   */\n      iszero\n      tag_33\n      jumpi\n        /* \"--CODEGEN--\":64:65   */\n      0x00\n        /* \"--CODEGEN--\":61:62   */\n      dup1\n        /* \"--CODEGEN--\":54:66   */\n      revert\n        /* \"--CODEGEN--\":8:10   */\n    tag_33:\n        /* \"UniswapV2/UniswapV2Pair.sol\":7562:9432  function swap(uint amount0Out, uint amount1Out, address to, bytes calldata data) external override lock {... */\n      dup1\n      calldataload\n      swap1\n      0x20\n      add\n      swap2\n        /* \"--CODEGEN--\":100:109   */\n      dup5\n        /* \"--CODEGEN--\":95:96   */\n      0x01\n        /* \"--CODEGEN--\":81:93   */\n      dup4\n        /* \"--CODEGEN--\":77:97   */\n      mul\n        /* \"--CODEGEN--\":67:75   */\n      dup5\n        /* \"--CODEGEN--\":63:98   */\n      add\n        /* \"--CODEGEN--\":60:110   */\n      gt\n        /* \"--CODEGEN--\":39:50   */\n      0x0100000000\n        /* \"--CODEGEN--\":25:37   */\n      dup4\n        /* \"--CODEGEN--\":22:51   */\n      gt\n        /* \"--CODEGEN--\":11:118   */\n      or\n        /* \"--CODEGEN--\":8:10   */\n      iszero\n      tag_34\n      jumpi\n        /* \"--CODEGEN--\":131:132   */\n      0x00\n        /* \"--CODEGEN--\":128:129   */\n      dup1\n        /* \"--CODEGEN--\":121:133   */\n      revert\n        /* \"--CODEGEN--\":8:10   */\n    tag_34:\n        /* \"UniswapV2/UniswapV2Pair.sol\":7562:9432  function swap(uint amount0Out, uint amount1Out, address to, bytes calldata data) external override lock {... */\n      swap1\n      swap2\n      swap3\n      swap4\n      swap2\n      swap3\n      swap4\n      swap1\n      pop\n      pop\n      pop\n      tag_35\n      jump\t// in\n    tag_30:\n      stop\n        /* \"UniswapV2/UniswapV2ERC20.sol\":189:237  string public override constant name = 'LPtoken' */\n    tag_4:\n      tag_36\n      tag_37\n      jump\t// in\n    tag_36:\n      mload(0x40)\n      dup1\n      dup1\n      0x20\n      add\n      dup3\n      dup2\n      sub\n      dup3\n      mstore\n      dup4\n      dup2\n      dup2\n      mload\n      dup2\n      mstore\n      0x20\n      add\n      swap2\n      pop\n      dup1\n      mload\n      swap1\n      0x20\n      add\n      swap1\n      dup1\n      dup4\n      dup4\n        /* \"--CODEGEN--\":23:24   */\n      0x00\n        /* \"--CODEGEN--\":8:108   */\n    tag_38:\n        /* \"--CODEGEN--\":33:36   */\n      dup4\n        /* \"--CODEGEN--\":30:31   */\n      dup2\n        /* \"--CODEGEN--\":27:37   */\n      lt\n        /* \"--CODEGEN--\":8:108   */\n      iszero\n      tag_40\n      jumpi\n        /* \"--CODEGEN--\":99:100   */\n      dup1\n        /* \"--CODEGEN--\":94:97   */\n      dup3\n        /* \"--CODEGEN--\":90:101   */\n      add\n        /* \"--CODEGEN--\":84:102   */\n      mload\n        /* \"--CODEGEN--\":80:81   */\n      dup2\n        /* \"--CODEGEN--\":75:78   */\n      dup5\n        /* \"--CODEGEN--\":71:82   */\n      add\n        /* \"--CODEGEN--\":64:103   */\n      mstore\n        /* \"--CODEGEN--\":52:54   */\n      0x20\n        /* \"--CODEGEN--\":49:50   */\n      dup2\n        /* \"--CODEGEN--\":45:55   */\n      add\n        /* \"--CODEGEN--\":40:55   */\n      swap1\n      pop\n        /* \"--CODEGEN--\":8:108   */\n      jump(tag_38)\n    tag_40:\n        /* \"--CODEGEN--\":12:26   */\n      pop\n        /* \"UniswapV2/UniswapV2ERC20.sol\":189:237  string public override constant name = 'LPtoken' */\n      pop\n      pop\n      pop\n      swap1\n      pop\n      swap1\n      dup2\n      add\n      swap1\n      0x1f\n      and\n      dup1\n      iszero\n      tag_41\n      jumpi\n      dup1\n      dup3\n      sub\n      dup1\n      mload\n      0x01\n      dup4\n      0x20\n      sub\n      0x0100\n      exp\n      sub\n      not\n      and\n      dup2\n      mstore\n      0x20\n      add\n      swap2\n      pop\n    tag_41:\n      pop\n      swap3\n      pop\n      pop\n      pop\n      mload(0x40)\n      dup1\n      swap2\n      sub\n      swap1\n      return\n        /* \"UniswapV2/UniswapV2Pair.sol\":1448:1684  function getReserves() public override view returns (uint112 _reserve0, uint112 _reserve1, uint32 _blockTimestampLast) {... */\n    tag_5:\n      tag_42\n      tag_43\n      jump\t// in\n    tag_42:\n      mload(0x40)\n      dup1\n      dup5\n      0xffffffffffffffffffffffffffff\n      and\n      0xffffffffffffffffffffffffffff\n      and\n      dup2\n      mstore\n      0x20\n      add\n      dup4\n      0xffffffffffffffffffffffffffff\n      and\n      0xffffffffffffffffffffffffffff\n      and\n      dup2\n      mstore\n      0x20\n      add\n      dup3\n      0xffffffff\n      and\n      0xffffffff\n      and\n      dup2\n      mstore\n      0x20\n      add\n      swap4\n      pop\n      pop\n      pop\n      pop\n      mload(0x40)\n      dup1\n      swap2\n      sub\n      swap1\n      return\n        /* \"UniswapV2/UniswapV2ERC20.sol\":1524:1677  function approve(address spender, uint value) external override returns (bool) {... */\n    tag_6:\n      tag_44\n      0x04\n      dup1\n      calldatasize\n      sub\n        /* \"--CODEGEN--\":15:17   */\n      0x40\n        /* \"--CODEGEN--\":10:13   */\n      dup2\n        /* \"--CODEGEN--\":7:18   */\n      lt\n        /* \"--CODEGEN--\":4:6   */\n      iszero\n      tag_45\n      jumpi\n        /* \"--CODEGEN--\":31:32   */\n      0x00\n        /* \"--CODEGEN--\":28:29   */\n      dup1\n        /* \"--CODEGEN--\":21:33   */\n      revert\n        /* \"--CODEGEN--\":4:6   */\n    tag_45:\n        /* \"UniswapV2/UniswapV2ERC20.sol\":1524:1677  function approve(address spender, uint value) external override returns (bool) {... */\n      dup2\n      add\n      swap1\n      dup1\n      dup1\n      calldataload\n      0xffffffffffffffffffffffffffffffffffffffff\n      and\n      swap1\n      0x20\n      add\n      swap1\n      swap3\n      swap2\n      swap1\n      dup1\n      calldataload\n      swap1\n      0x20\n      add\n      swap1\n      swap3\n      swap2\n      swap1\n      pop\n      pop\n      pop\n      tag_46\n      jump\t// in\n    tag_44:\n      mload(0x40)\n      dup1\n      dup3\n      iszero\n      iszero\n      iszero\n      iszero\n      dup2\n      mstore\n      0x20\n      add\n      swap2\n      pop\n      pop\n      mload(0x40)\n      dup1\n      swap2\n      sub\n      swap1\n      return\n        /* \"UniswapV2/UniswapV2Pair.sol\":711:741  address public override token0 */\n    tag_7:\n      tag_47\n      tag_48\n      jump\t// in\n    tag_47:\n      mload(0x40)\n      dup1\n      dup3\n      0xffffffffffffffffffffffffffffffffffffffff\n      and\n      0xffffffffffffffffffffffffffffffffffffffff\n      and\n      dup2\n      mstore\n      0x20\n      add\n      swap2\n      pop\n      pop\n      mload(0x40)\n      dup1\n      swap2\n      sub\n      swap1\n      return\n        /* \"UniswapV2/UniswapV2ERC20.sol\":344:377  uint  public override totalSupply */\n    tag_8:\n      tag_49\n      tag_50\n      jump\t// in\n    tag_49:\n      mload(0x40)\n      dup1\n      dup3\n      dup2\n      mstore\n      0x20\n      add\n      swap2\n      pop\n      pop\n      mload(0x40)\n      dup1\n      swap2\n      sub\n      swap1\n      return\n        /* \"UniswapV2/UniswapV2ERC20.sol\":1834:2138  function transferFrom(address from, address to, uint value) external override returns (bool) {... */\n    tag_9:\n      tag_51\n      0x04\n      dup1\n      calldatasize\n      sub\n        /* \"--CODEGEN--\":15:17   */\n      0x60\n        /* \"--CODEGEN--\":10:13   */\n      dup2\n        /* \"--CODEGEN--\":7:18   */\n      lt\n        /* \"--CODEGEN--\":4:6   */\n      iszero\n      tag_52\n      jumpi\n        /* \"--CODEGEN--\":31:32   */\n      0x00\n        /* \"--CODEGEN--\":28:29   */\n      dup1\n        /* \"--CODEGEN--\":21:33   */\n      revert\n        /* \"--CODEGEN--\":4:6   */\n    tag_52:\n        /* \"UniswapV2/UniswapV2ERC20.sol\":1834:2138  function transferFrom(address from, address to, uint value) external override returns (bool) {... */\n      dup2\n      add\n      swap1\n      dup1\n      dup1\n      calldataload\n      0xffffffffffffffffffffffffffffffffffffffff\n      and\n      swap1\n      0x20\n      add\n      swap1\n      swap3\n      swap2\n      swap1\n      dup1\n      calldataload\n      0xffffffffffffffffffffffffffffffffffffffff\n      and\n      swap1\n      0x20\n      add\n      swap1\n      swap3\n      swap2\n      swap1\n      dup1\n      calldataload\n      swap1\n      0x20\n      add\n      swap1\n      swap3\n      swap2\n      swap1\n      pop\n      pop\n      pop\n      tag_53\n      jump\t// in\n    tag_51:\n      mload(0x40)\n      dup1\n      dup3\n      iszero\n      iszero\n      iszero\n      iszero\n      dup2\n      mstore\n      0x20\n      add\n      swap2\n      pop\n      pop\n      mload(0x40)\n      dup1\n      swap2\n      sub\n      swap1\n      return\n        /* \"UniswapV2/UniswapV2ERC20.sol\":294:338  uint8 public override constant decimals = 18 */\n    tag_10:\n      tag_54\n      tag_55\n      jump\t// in\n    tag_54:\n      mload(0x40)\n      dup1\n      dup3\n      0xff\n      and\n      0xff\n      and\n      dup2\n      mstore\n      0x20\n      add\n      swap2\n      pop\n      pop\n      mload(0x40)\n      dup1\n      swap2\n      sub\n      swap1\n      return\n        /* \"UniswapV2/UniswapV2Pair.sol\":2489:2704  function initialize(address _token0, address _token1) external override {... */\n    tag_11:\n      tag_56\n      0x04\n      dup1\n      calldatasize\n      sub\n        /* \"--CODEGEN--\":15:17   */\n      0x40\n        /* \"--CODEGEN--\":10:13   */\n      dup2\n        /* \"--CODEGEN--\":7:18   */\n      lt\n        /* \"--CODEGEN--\":4:6   */\n      iszero\n      tag_57\n      jumpi\n        /* \"--CODEGEN--\":31:32   */\n      0x00\n        /* \"--CODEGEN--\":28:29   */\n      dup1\n        /* \"--CODEGEN--\":21:33   */\n      revert\n        /* \"--CODEGEN--\":4:6   */\n    tag_57:\n        /* \"UniswapV2/UniswapV2Pair.sol\":2489:2704  function initialize(address _token0, address _token1) external override {... */\n      dup2\n      add\n      swap1\n      dup1\n      dup1\n      calldataload\n      0xffffffffffffffffffffffffffffffffffffffff\n      and\n      swap1\n      0x20\n      add\n      swap1\n      swap3\n      swap2\n      swap1\n      dup1\n      calldataload\n      0xffffffffffffffffffffffffffffffffffffffff\n      and\n      swap1\n      0x20\n      add\n      swap1\n      swap3\n      swap2\n      swap1\n      pop\n      pop\n      pop\n      tag_58\n      jump\t// in\n    tag_56:\n      stop\n        /* \"UniswapV2/UniswapV2Pair.sol\":1073:1114  uint public override price0CumulativeLast */\n    tag_12:\n      tag_59\n      tag_60\n      jump\t// in\n    tag_59:\n      mload(0x40)\n      dup1\n      dup3\n      dup2\n      mstore\n      0x20\n      add\n      swap2\n      pop\n      pop\n      mload(0x40)\n      dup1\n      swap2\n      sub\n      swap1\n      return\n        /* \"UniswapV2/UniswapV2Pair.sol\":1120:1161  uint public override price1CumulativeLast */\n    tag_13:\n      tag_61\n      tag_62\n      jump\t// in\n    tag_61:\n      mload(0x40)\n      dup1\n      dup3\n      dup2\n      mstore\n      0x20\n      add\n      swap2\n      pop\n      pop\n      mload(0x40)\n      dup1\n      swap2\n      sub\n      swap1\n      return\n        /* \"UniswapV2/UniswapV2Pair.sol\":4656:5892  function mint(address to) external override lock returns (uint liquidity) {... */\n    tag_14:\n      tag_63\n      0x04\n      dup1\n      calldatasize\n      sub\n        /* \"--CODEGEN--\":15:17   */\n      0x20\n        /* \"--CODEGEN--\":10:13   */\n      dup2\n        /* \"--CODEGEN--\":7:18   */\n      lt\n        /* \"--CODEGEN--\":4:6   */\n      iszero\n      tag_64\n      jumpi\n        /* \"--CODEGEN--\":31:32   */\n      0x00\n        /* \"--CODEGEN--\":28:29   */\n      dup1\n        /* \"--CODEGEN--\":21:33   */\n      revert\n        /* \"--CODEGEN--\":4:6   */\n    tag_64:\n        /* \"UniswapV2/UniswapV2Pair.sol\":4656:5892  function mint(address to) external override lock returns (uint liquidity) {... */\n      dup2\n      add\n      swap1\n      dup1\n      dup1\n      calldataload\n      0xffffffffffffffffffffffffffffffffffffffff\n      and\n      swap1\n      0x20\n      add\n      swap1\n      swap3\n      swap2\n      swap1\n      pop\n      pop\n      pop\n      tag_65\n      jump\t// in\n    tag_63:\n      mload(0x40)\n      dup1\n      dup3\n      dup2\n      mstore\n      0x20\n      add\n      swap2\n      pop\n      pop\n      mload(0x40)\n      dup1\n      swap2\n      sub\n      swap1\n      return\n        /* \"UniswapV2/UniswapV2ERC20.sol\":383:433  mapping(address => uint) public override balanceOf */\n    tag_15:\n      tag_66\n      0x04\n      dup1\n      calldatasize\n      sub\n        /* \"--CODEGEN--\":15:17   */\n      0x20\n        /* \"--CODEGEN--\":10:13   */\n      dup2\n        /* \"--CODEGEN--\":7:18   */\n      lt\n        /* \"--CODEGEN--\":4:6   */\n      iszero\n      tag_67\n      jumpi\n        /* \"--CODEGEN--\":31:32   */\n      0x00\n        /* \"--CODEGEN--\":28:29   */\n      dup1\n        /* \"--CODEGEN--\":21:33   */\n      revert\n        /* \"--CODEGEN--\":4:6   */\n    tag_67:\n        /* \"UniswapV2/UniswapV2ERC20.sol\":383:433  mapping(address => uint) public override balanceOf */\n      dup2\n      add\n      swap1\n      dup1\n      dup1\n      calldataload\n      0xffffffffffffffffffffffffffffffffffffffff\n      and\n      swap1\n      0x20\n      add\n      swap1\n      swap3\n      swap2\n      swap1\n      pop\n      pop\n      pop\n      tag_68\n      jump\t// in\n    tag_66:\n      mload(0x40)\n      dup1\n      dup3\n      dup2\n      mstore\n      0x20\n      add\n      swap2\n      pop\n      pop\n      mload(0x40)\n      dup1\n      swap2\n      sub\n      swap1\n      return\n        /* \"UniswapV2/UniswapV2Pair.sol\":1167:1193  uint public override kLast */\n    tag_16:\n      tag_69\n      tag_70\n      jump\t// in\n    tag_69:\n      mload(0x40)\n      dup1\n      dup3\n      dup2\n      mstore\n      0x20\n      add\n      swap2\n      pop\n      pop\n      mload(0x40)\n      dup1\n      swap2\n      sub\n      swap1\n      return\n        /* \"UniswapV2/UniswapV2ERC20.sol\":515:553  mapping(address => uint) public nonces */\n    tag_17:\n      tag_71\n      0x04\n      dup1\n      calldatasize\n      sub\n        /* \"--CODEGEN--\":15:17   */\n      0x20\n        /* \"--CODEGEN--\":10:13   */\n      dup2\n        /* \"--CODEGEN--\":7:18   */\n      lt\n        /* \"--CODEGEN--\":4:6   */\n      iszero\n      tag_72\n      jumpi\n        /* \"--CODEGEN--\":31:32   */\n      0x00\n        /* \"--CODEGEN--\":28:29   */\n      dup1\n        /* \"--CODEGEN--\":21:33   */\n      revert\n        /* \"--CODEGEN--\":4:6   */\n    tag_72:\n        /* \"UniswapV2/UniswapV2ERC20.sol\":515:553  mapping(address => uint) public nonces */\n      dup2\n      add\n      swap1\n      dup1\n      dup1\n      calldataload\n      0xffffffffffffffffffffffffffffffffffffffff\n      and\n      swap1\n      0x20\n      add\n      swap1\n      swap3\n      swap2\n      swap1\n      pop\n      pop\n      pop\n      tag_73\n      jump\t// in\n    tag_71:\n      mload(0x40)\n      dup1\n      dup3\n      dup2\n      mstore\n      0x20\n      add\n      swap2\n      pop\n      pop\n      mload(0x40)\n      dup1\n      swap2\n      sub\n      swap1\n      return\n        /* \"UniswapV2/UniswapV2Pair.sol\":6001:7453  function burn(address to) external override lock returns (uint amount0, uint amount1) {... */\n    tag_18:\n      tag_74\n      0x04\n      dup1\n      calldatasize\n      sub\n        /* \"--CODEGEN--\":15:17   */\n      0x20\n        /* \"--CODEGEN--\":10:13   */\n      dup2\n        /* \"--CODEGEN--\":7:18   */\n      lt\n        /* \"--CODEGEN--\":4:6   */\n      iszero\n      tag_75\n      jumpi\n        /* \"--CODEGEN--\":31:32   */\n      0x00\n        /* \"--CODEGEN--\":28:29   */\n      dup1\n        /* \"--CODEGEN--\":21:33   */\n      revert\n        /* \"--CODEGEN--\":4:6   */\n    tag_75:\n        /* \"UniswapV2/UniswapV2Pair.sol\":6001:7453  function burn(address to) external override lock returns (uint amount0, uint amount1) {... */\n      dup2\n      add\n      swap1\n      dup1\n      dup1\n      calldataload\n      0xffffffffffffffffffffffffffffffffffffffff\n      and\n      swap1\n      0x20\n      add\n      swap1\n      swap3\n      swap2\n      swap1\n      pop\n      pop\n      pop\n      tag_76\n      jump\t// in\n    tag_74:\n      mload(0x40)\n      dup1\n      dup4\n      dup2\n      mstore\n      0x20\n      add\n      dup3\n      dup2\n      mstore\n      0x20\n      add\n      swap3\n      pop\n      pop\n      pop\n      mload(0x40)\n      dup1\n      swap2\n      sub\n      swap1\n      return\n        /* \"UniswapV2/UniswapV2ERC20.sol\":243:288  string public override constant symbol = 'LP' */\n    tag_19:\n      tag_77\n      tag_78\n      jump\t// in\n    tag_77:\n      mload(0x40)\n      dup1\n      dup1\n      0x20\n      add\n      dup3\n      dup2\n      sub\n      dup3\n      mstore\n      dup4\n      dup2\n      dup2\n      mload\n      dup2\n      mstore\n      0x20\n      add\n      swap2\n      pop\n      dup1\n      mload\n      swap1\n      0x20\n      add\n      swap1\n      dup1\n      dup4\n      dup4\n        /* \"--CODEGEN--\":23:24   */\n      0x00\n        /* \"--CODEGEN--\":8:108   */\n    tag_79:\n        /* \"--CODEGEN--\":33:36   */\n      dup4\n        /* \"--CODEGEN--\":30:31   */\n      dup2\n        /* \"--CODEGEN--\":27:37   */\n      lt\n        /* \"--CODEGEN--\":8:108   */\n      iszero\n      tag_81\n      jumpi\n        /* \"--CODEGEN--\":99:100   */\n      dup1\n        /* \"--CODEGEN--\":94:97   */\n      dup3\n        /* \"--CODEGEN--\":90:101   */\n      add\n        /* \"--CODEGEN--\":84:102   */\n      mload\n        /* \"--CODEGEN--\":80:81   */\n      dup2\n        /* \"--CODEGEN--\":75:78   */\n      dup5\n        /* \"--CODEGEN--\":71:82   */\n      add\n        /* \"--CODEGEN--\":64:103   */\n      mstore\n        /* \"--CODEGEN--\":52:54   */\n      0x20\n        /* \"--CODEGEN--\":49:50   */\n      dup2\n        /* \"--CODEGEN--\":45:55   */\n      add\n        /* \"--CODEGEN--\":40:55   */\n      swap1\n      pop\n        /* \"--CODEGEN--\":8:108   */\n      jump(tag_79)\n    tag_81:\n        /* \"--CODEGEN--\":12:26   */\n      pop\n        /* \"UniswapV2/UniswapV2ERC20.sol\":243:288  string public override constant symbol = 'LP' */\n      pop\n      pop\n      pop\n      swap1\n      pop\n      swap1\n      dup2\n      add\n      swap1\n      0x1f\n      and\n      dup1\n      iszero\n      tag_82\n      jumpi\n      dup1\n      dup3\n      sub\n      dup1\n      mload\n      0x01\n      dup4\n      0x20\n      sub\n      0x0100\n      exp\n      sub\n      not\n      and\n      dup2\n      mstore\n      0x20\n      add\n      swap2\n      pop\n    tag_82:\n      pop\n      swap3\n      pop\n      pop\n      pop\n      mload(0x40)\n      dup1\n      swap2\n      sub\n      swap1\n      return\n        /* \"UniswapV2/UniswapV2ERC20.sol\":1683:1828  function transfer(address to, uint value) external override returns (bool) {... */\n    tag_20:\n      tag_83\n      0x04\n      dup1\n      calldatasize\n      sub\n        /* \"--CODEGEN--\":15:17   */\n      0x40\n        /* \"--CODEGEN--\":10:13   */\n      dup2\n        /* \"--CODEGEN--\":7:18   */\n      lt\n        /* \"--CODEGEN--\":4:6   */\n      iszero\n      tag_84\n      jumpi\n        /* \"--CODEGEN--\":31:32   */\n      0x00\n        /* \"--CODEGEN--\":28:29   */\n      dup1\n        /* \"--CODEGEN--\":21:33   */\n      revert\n        /* \"--CODEGEN--\":4:6   */\n    tag_84:\n        /* \"UniswapV2/UniswapV2ERC20.sol\":1683:1828  function transfer(address to, uint value) external override returns (bool) {... */\n      dup2\n      add\n      swap1\n      dup1\n      dup1\n      calldataload\n      0xffffffffffffffffffffffffffffffffffffffff\n      and\n      swap1\n      0x20\n      add\n      swap1\n      swap3\n      swap2\n      swap1\n      dup1\n      calldataload\n      swap1\n      0x20\n      add\n      swap1\n      swap3\n      swap2\n      swap1\n      pop\n      pop\n      pop\n      tag_85\n      jump\t// in\n    tag_83:\n      mload(0x40)\n      dup1\n      dup3\n      iszero\n      iszero\n      iszero\n      iszero\n      dup2\n      mstore\n      0x20\n      add\n      swap2\n      pop\n      pop\n      mload(0x40)\n      dup1\n      swap2\n      sub\n      swap1\n      return\n        /* \"UniswapV2/UniswapV2Pair.sol\":509:564  uint public constant override MINIMUM_LIQUIDITY = 10**3 */\n    tag_21:\n      tag_86\n      tag_87\n      jump\t// in\n    tag_86:\n      mload(0x40)\n      dup1\n      dup3\n      dup2\n      mstore\n      0x20\n      add\n      swap2\n      pop\n      pop\n      mload(0x40)\n      dup1\n      swap2\n      sub\n      swap1\n      return\n        /* \"UniswapV2/UniswapV2Pair.sol\":9478:9816  function skim(address to) external override lock {... */\n    tag_22:\n      tag_88\n      0x04\n      dup1\n      calldatasize\n      sub\n        /* \"--CODEGEN--\":15:17   */\n      0x20\n        /* \"--CODEGEN--\":10:13   */\n      dup2\n        /* \"--CODEGEN--\":7:18   */\n      lt\n        /* \"--CODEGEN--\":4:6   */\n      iszero\n      tag_89\n      jumpi\n        /* \"--CODEGEN--\":31:32   */\n      0x00\n        /* \"--CODEGEN--\":28:29   */\n      dup1\n        /* \"--CODEGEN--\":21:33   */\n      revert\n        /* \"--CODEGEN--\":4:6   */\n    tag_89:\n        /* \"UniswapV2/UniswapV2Pair.sol\":9478:9816  function skim(address to) external override lock {... */\n      dup2\n      add\n      swap1\n      dup1\n      dup1\n      calldataload\n      0xffffffffffffffffffffffffffffffffffffffff\n      and\n      swap1\n      0x20\n      add\n      swap1\n      swap3\n      swap2\n      swap1\n      pop\n      pop\n      pop\n      tag_90\n      jump\t// in\n    tag_88:\n      stop\n        /* \"UniswapV2/UniswapV2Pair.sol\":674:705  address public override factory */\n    tag_23:\n      tag_91\n      tag_92\n      jump\t// in\n    tag_91:\n      mload(0x40)\n      dup1\n      dup3\n      0xffffffffffffffffffffffffffffffffffffffff\n      and\n      0xffffffffffffffffffffffffffffffffffffffff\n      and\n      dup2\n      mstore\n      0x20\n      add\n      swap2\n      pop\n      pop\n      mload(0x40)\n      dup1\n      swap2\n      sub\n      swap1\n      return\n        /* \"UniswapV2/UniswapV2Pair.sol\":747:777  address public override token1 */\n    tag_24:\n      tag_93\n      tag_94\n      jump\t// in\n    tag_93:\n      mload(0x40)\n      dup1\n      dup3\n      0xffffffffffffffffffffffffffffffffffffffff\n      and\n      0xffffffffffffffffffffffffffffffffffffffff\n      and\n      dup2\n      mstore\n      0x20\n      add\n      swap2\n      pop\n      pop\n      mload(0x40)\n      dup1\n      swap2\n      sub\n      swap1\n      return\n        /* \"UniswapV2/UniswapV2ERC20.sol\":439:509  mapping(address => mapping(address => uint)) public override allowance */\n    tag_25:\n      tag_95\n      0x04\n      dup1\n      calldatasize\n      sub\n        /* \"--CODEGEN--\":15:17   */\n      0x40\n        /* \"--CODEGEN--\":10:13   */\n      dup2\n        /* \"--CODEGEN--\":7:18   */\n      lt\n        /* \"--CODEGEN--\":4:6   */\n      iszero\n      tag_96\n      jumpi\n        /* \"--CODEGEN--\":31:32   */\n      0x00\n        /* \"--CODEGEN--\":28:29   */\n      dup1\n        /* \"--CODEGEN--\":21:33   */\n      revert\n        /* \"--CODEGEN--\":4:6   */\n    tag_96:\n        /* \"UniswapV2/UniswapV2ERC20.sol\":439:509  mapping(address => mapping(address => uint)) public override allowance */\n      dup2\n      add\n      swap1\n      dup1\n      dup1\n      calldataload\n      0xffffffffffffffffffffffffffffffffffffffff\n      and\n      swap1\n      0x20\n      add\n      swap1\n      swap3\n      swap2\n      swap1\n      dup1\n      calldataload\n      0xffffffffffffffffffffffffffffffffffffffff\n      and\n      swap1\n      0x20\n      add\n      swap1\n      swap3\n      swap2\n      swap1\n      pop\n      pop\n      pop\n      tag_97\n      jump\t// in\n    tag_95:\n      mload(0x40)\n      dup1\n      dup3\n      dup2\n      mstore\n      0x20\n      add\n      swap2\n      pop\n      pop\n      mload(0x40)\n      dup1\n      swap2\n      sub\n      swap1\n      return\n        /* \"UniswapV2/UniswapV2Pair.sol\":9862:10027  function sync() external override lock {... */\n    tag_26:\n      tag_98\n      tag_99\n      jump\t// in\n    tag_98:\n      stop\n        /* \"UniswapV2/UniswapV2Pair.sol\":7562:9432  function swap(uint amount0Out, uint amount1Out, address to, bytes calldata data) external override lock {... */\n    tag_35:\n        /* \"UniswapV2/UniswapV2Pair.sol\":1357:1358  1 */\n      0x01\n        /* \"UniswapV2/UniswapV2Pair.sol\":1345:1353  unlocked */\n      sload(0x0b)\n        /* \"UniswapV2/UniswapV2Pair.sol\":1345:1358  unlocked == 1 */\n      eq\n        /* \"UniswapV2/UniswapV2Pair.sol\":1337:1380  require(unlocked == 1, 'UniswapV2: LOCKED') */\n      tag_101\n      jumpi\n      mload(0x40)\n      0x08c379a000000000000000000000000000000000000000000000000000000000\n      dup2\n      mstore\n      0x04\n      add\n      dup1\n      dup1\n      0x20\n      add\n      dup3\n      dup2\n      sub\n      dup3\n      mstore\n      0x11\n      dup2\n      mstore\n      0x20\n      add\n      dup1\n      0x556e697377617056323a204c4f434b4544000000000000000000000000000000\n      dup2\n      mstore\n      pop\n      0x20\n      add\n      swap2\n      pop\n      pop\n      mload(0x40)\n      dup1\n      swap2\n      sub\n      swap1\n      revert\n    tag_101:\n        /* \"UniswapV2/UniswapV2Pair.sol\":1401:1402  0 */\n      0x00\n        /* \"UniswapV2/UniswapV2Pair.sol\":1390:1398  unlocked */\n      0x0b\n        /* \"UniswapV2/UniswapV2Pair.sol\":1390:1402  unlocked = 0 */\n      dup2\n      swap1\n      sstore\n      pop\n        /* \"UniswapV2/UniswapV2Pair.sol\":7697:7698  0 */\n      0x00\n        /* \"UniswapV2/UniswapV2Pair.sol\":7684:7694  amount0Out */\n      dup6\n        /* \"UniswapV2/UniswapV2Pair.sol\":7684:7698  amount0Out > 0 */\n      gt\n        /* \"UniswapV2/UniswapV2Pair.sol\":7684:7716  amount0Out > 0 || amount1Out > 0 */\n      dup1\n      tag_103\n      jumpi\n      pop\n        /* \"UniswapV2/UniswapV2Pair.sol\":7715:7716  0 */\n      0x00\n        /* \"UniswapV2/UniswapV2Pair.sol\":7702:7712  amount1Out */\n      dup5\n        /* \"UniswapV2/UniswapV2Pair.sol\":7702:7716  amount1Out > 0 */\n      gt\n        /* \"UniswapV2/UniswapV2Pair.sol\":7684:7716  amount0Out > 0 || amount1Out > 0 */\n    tag_103:\n        /* \"UniswapV2/UniswapV2Pair.sol\":7676:7758  require(amount0Out > 0 || amount1Out > 0, 'UniswapV2: INSUFFICIENT_OUTPUT_AMOUNT') */\n      tag_104\n      jumpi\n      mload(0x40)\n      0x08c379a000000000000000000000000000000000000000000000000000000000\n      dup2\n      mstore\n      0x04\n      add\n      dup1\n      dup1\n      0x20\n      add\n      dup3\n      dup2\n      sub\n      dup3\n      mstore\n      0x25\n      dup2\n      mstore\n      0x20\n      add\n      dup1\n      data_05339493da7e2cbe77e17beadf6b91132eb307939495f5f1797bf88d95539e83\n      0x25\n      swap2\n      codecopy\n      0x40\n      add\n      swap2\n      pop\n      pop\n      mload(0x40)\n      dup1\n      swap2\n      sub\n      swap1\n      revert\n    tag_104:\n        /* \"UniswapV2/UniswapV2Pair.sol\":7769:7786  uint112 _reserve0 */\n      0x00\n        /* \"UniswapV2/UniswapV2Pair.sol\":7788:7805  uint112 _reserve1 */\n      dup1\n        /* \"UniswapV2/UniswapV2Pair.sol\":7810:7823  getReserves() */\n      tag_105\n        /* \"UniswapV2/UniswapV2Pair.sol\":7810:7821  getReserves */\n      tag_43\n        /* \"UniswapV2/UniswapV2Pair.sol\":7810:7823  getReserves() */\n      jump\t// in\n    tag_105:\n        /* \"UniswapV2/UniswapV2Pair.sol\":7768:7823  (uint112 _reserve0, uint112 _reserve1,) = getReserves() */\n      pop\n      swap2\n      pop\n      swap2\n      pop\n        /* \"UniswapV2/UniswapV2Pair.sol\":7869:7878  _reserve0 */\n      dup2\n        /* \"UniswapV2/UniswapV2Pair.sol\":7856:7878  amount0Out < _reserve0 */\n      0xffffffffffffffffffffffffffff\n      and\n        /* \"UniswapV2/UniswapV2Pair.sol\":7856:7866  amount0Out */\n      dup8\n        /* \"UniswapV2/UniswapV2Pair.sol\":7856:7878  amount0Out < _reserve0 */\n      lt\n        /* \"UniswapV2/UniswapV2Pair.sol\":7856:7904  amount0Out < _reserve0 && amount1Out < _reserve1 */\n      dup1\n      iszero\n      tag_106\n      jumpi\n      pop\n        /* \"UniswapV2/UniswapV2Pair.sol\":7895:7904  _reserve1 */\n      dup1\n        /* \"UniswapV2/UniswapV2Pair.sol\":7882:7904  amount1Out < _reserve1 */\n      0xffffffffffffffffffffffffffff\n      and\n        /* \"UniswapV2/UniswapV2Pair.sol\":7882:7892  amount1Out */\n      dup7\n        /* \"UniswapV2/UniswapV2Pair.sol\":7882:7904  amount1Out < _reserve1 */\n      lt\n        /* \"UniswapV2/UniswapV2Pair.sol\":7856:7904  amount0Out < _reserve0 && amount1Out < _reserve1 */\n    tag_106:\n        /* \"UniswapV2/UniswapV2Pair.sol\":7848:7942  require(amount0Out < _reserve0 && amount1Out < _reserve1, 'UniswapV2: INSUFFICIENT_LIQUIDITY') */\n      tag_107\n      jumpi\n      mload(0x40)\n      0x08c379a000000000000000000000000000000000000000000000000000000000\n      dup2\n      mstore\n      0x04\n      add\n      dup1\n      dup1\n      0x20\n      add\n      dup3\n      dup2\n      sub\n      dup3\n      mstore\n      0x21\n      dup2\n      mstore\n      0x20\n      add\n      dup1\n      data_3f354ef449b2a9b081220ce21f57691008110b653edc191d8288e60cef58bb5f\n      0x21\n      swap2\n      codecopy\n      0x40\n      add\n      swap2\n      pop\n      pop\n      mload(0x40)\n      dup1\n      swap2\n      sub\n      swap1\n      revert\n    tag_107:\n        /* \"UniswapV2/UniswapV2Pair.sol\":7953:7966  uint balance0 */\n      0x00\n        /* \"UniswapV2/UniswapV2Pair.sol\":7976:7989  uint balance1 */\n      dup1\n        /* \"UniswapV2/UniswapV2Pair.sol\":8064:8079  address _token0 */\n      0x00\n        /* \"UniswapV2/UniswapV2Pair.sol\":8082:8088  token0 */\n      0x05\n      0x00\n      swap1\n      sload\n      swap1\n      0x0100\n      exp\n      swap1\n      div\n      0xffffffffffffffffffffffffffffffffffffffff\n      and\n        /* \"UniswapV2/UniswapV2Pair.sol\":8064:8088  address _token0 = token0 */\n      swap1\n      pop\n        /* \"UniswapV2/UniswapV2Pair.sol\":8098:8113  address _token1 */\n      0x00\n        /* \"UniswapV2/UniswapV2Pair.sol\":8116:8122  token1 */\n      0x06\n      0x00\n      swap1\n      sload\n      swap1\n      0x0100\n      exp\n      swap1\n      div\n      0xffffffffffffffffffffffffffffffffffffffff\n      and\n        /* \"UniswapV2/UniswapV2Pair.sol\":8098:8122  address _token1 = token1 */\n      swap1\n      pop\n        /* \"UniswapV2/UniswapV2Pair.sol\":8146:8153  _token0 */\n      dup2\n        /* \"UniswapV2/UniswapV2Pair.sol\":8140:8153  to != _token0 */\n      0xffffffffffffffffffffffffffffffffffffffff\n      and\n        /* \"UniswapV2/UniswapV2Pair.sol\":8140:8142  to */\n      dup10\n        /* \"UniswapV2/UniswapV2Pair.sol\":8140:8153  to != _token0 */\n      0xffffffffffffffffffffffffffffffffffffffff\n      and\n      eq\n      iszero\n        /* \"UniswapV2/UniswapV2Pair.sol\":8140:8170  to != _token0 && to != _token1 */\n      dup1\n      iszero\n      tag_108\n      jumpi\n      pop\n        /* \"UniswapV2/UniswapV2Pair.sol\":8163:8170  _token1 */\n      dup1\n        /* \"UniswapV2/UniswapV2Pair.sol\":8157:8170  to != _token1 */\n      0xffffffffffffffffffffffffffffffffffffffff\n      and\n        /* \"UniswapV2/UniswapV2Pair.sol\":8157:8159  to */\n      dup10\n        /* \"UniswapV2/UniswapV2Pair.sol\":8157:8170  to != _token1 */\n      0xffffffffffffffffffffffffffffffffffffffff\n      and\n      eq\n      iszero\n        /* \"UniswapV2/UniswapV2Pair.sol\":8140:8170  to != _token0 && to != _token1 */\n    tag_108:\n        /* \"UniswapV2/UniswapV2Pair.sol\":8132:8196  require(to != _token0 && to != _token1, 'UniswapV2: INVALID_TO') */\n      tag_109\n      jumpi\n      mload(0x40)\n      0x08c379a000000000000000000000000000000000000000000000000000000000\n      dup2\n      mstore\n      0x04\n      add\n      dup1\n      dup1\n      0x20\n      add\n      dup3\n      dup2\n      sub\n      dup3\n      mstore\n      0x15\n      dup2\n      mstore\n      0x20\n      add\n      dup1\n      0x556e697377617056323a20494e56414c49445f544f0000000000000000000000\n      dup2\n      mstore\n      pop\n      0x20\n      add\n      swap2\n      pop\n      pop\n      mload(0x40)\n      dup1\n      swap2\n      sub\n      swap1\n      revert\n    tag_109:\n        /* \"UniswapV2/UniswapV2Pair.sol\":8223:8224  0 */\n      0x00\n        /* \"UniswapV2/UniswapV2Pair.sol\":8210:8220  amount0Out */\n      dup12\n        /* \"UniswapV2/UniswapV2Pair.sol\":8210:8224  amount0Out > 0 */\n      gt\n        /* \"UniswapV2/UniswapV2Pair.sol\":8206:8264  if (amount0Out > 0) _safeTransfer(_token0, to, amount0Out) */\n      iszero\n      tag_110\n      jumpi\n        /* \"UniswapV2/UniswapV2Pair.sol\":8226:8264  _safeTransfer(_token0, to, amount0Out) */\n      tag_111\n        /* \"UniswapV2/UniswapV2Pair.sol\":8240:8247  _token0 */\n      dup3\n        /* \"UniswapV2/UniswapV2Pair.sol\":8249:8251  to */\n      dup11\n        /* \"UniswapV2/UniswapV2Pair.sol\":8253:8263  amount0Out */\n      dup14\n        /* \"UniswapV2/UniswapV2Pair.sol\":8226:8239  _safeTransfer */\n      tag_112\n        /* \"UniswapV2/UniswapV2Pair.sol\":8226:8264  _safeTransfer(_token0, to, amount0Out) */\n      jump\t// in\n    tag_111:\n        /* \"UniswapV2/UniswapV2Pair.sol\":8206:8264  if (amount0Out > 0) _safeTransfer(_token0, to, amount0Out) */\n    tag_110:\n        /* \"UniswapV2/UniswapV2Pair.sol\":8325:8326  0 */\n      0x00\n        /* \"UniswapV2/UniswapV2Pair.sol\":8312:8322  amount1Out */\n      dup11\n        /* \"UniswapV2/UniswapV2Pair.sol\":8312:8326  amount1Out > 0 */\n      gt\n        /* \"UniswapV2/UniswapV2Pair.sol\":8308:8366  if (amount1Out > 0) _safeTransfer(_token1, to, amount1Out) */\n      iszero\n      tag_113\n      jumpi\n        /* \"UniswapV2/UniswapV2Pair.sol\":8328:8366  _safeTransfer(_token1, to, amount1Out) */\n      tag_114\n        /* \"UniswapV2/UniswapV2Pair.sol\":8342:8349  _token1 */\n      dup2\n        /* \"UniswapV2/UniswapV2Pair.sol\":8351:8353  to */\n      dup11\n        /* \"UniswapV2/UniswapV2Pair.sol\":8355:8365  amount1Out */\n      dup13\n        /* \"UniswapV2/UniswapV2Pair.sol\":8328:8341  _safeTransfer */\n      tag_112\n        /* \"UniswapV2/UniswapV2Pair.sol\":8328:8366  _safeTransfer(_token1, to, amount1Out) */\n      jump\t// in\n    tag_114:\n        /* \"UniswapV2/UniswapV2Pair.sol\":8308:8366  if (amount1Out > 0) _safeTransfer(_token1, to, amount1Out) */\n    tag_113:\n        /* \"UniswapV2/UniswapV2Pair.sol\":8428:8429  0 */\n      0x00\n        /* \"UniswapV2/UniswapV2Pair.sol\":8414:8418  data */\n      dup9\n      dup9\n        /* \"UniswapV2/UniswapV2Pair.sol\":8414:8425  data.length */\n      swap1\n      pop\n        /* \"UniswapV2/UniswapV2Pair.sol\":8414:8429  data.length > 0 */\n      gt\n        /* \"UniswapV2/UniswapV2Pair.sol\":8410:8507  if (data.length > 0) IUniswapV2Callee(to).uniswapV2Call(msg.sender, amount0Out, amount1Out, data) */\n      iszero\n      tag_115\n      jumpi\n        /* \"UniswapV2/UniswapV2Pair.sol\":8448:8450  to */\n      dup9\n        /* \"UniswapV2/UniswapV2Pair.sol\":8431:8465  IUniswapV2Callee(to).uniswapV2Call */\n      0xffffffffffffffffffffffffffffffffffffffff\n      and\n      0x10d1e85c\n        /* \"UniswapV2/UniswapV2Pair.sol\":8466:8476  msg.sender */\n      caller\n        /* \"UniswapV2/UniswapV2Pair.sol\":8478:8488  amount0Out */\n      dup14\n        /* \"UniswapV2/UniswapV2Pair.sol\":8490:8500  amount1Out */\n      dup14\n        /* \"UniswapV2/UniswapV2Pair.sol\":8502:8506  data */\n      dup13\n      dup13\n        /* \"UniswapV2/UniswapV2Pair.sol\":8431:8507  IUniswapV2Callee(to).uniswapV2Call(msg.sender, amount0Out, amount1Out, data) */\n      mload(0x40)\n      dup7\n      0xffffffff\n      and\n      0xe0\n      shl\n      dup2\n      mstore\n      0x04\n      add\n      dup1\n      dup7\n      0xffffffffffffffffffffffffffffffffffffffff\n      and\n      0xffffffffffffffffffffffffffffffffffffffff\n      and\n      dup2\n      mstore\n      0x20\n      add\n      dup6\n      dup2\n      mstore\n      0x20\n      add\n      dup5\n      dup2\n      mstore\n      0x20\n      add\n      dup1\n      0x20\n      add\n      dup3\n      dup2\n      sub\n      dup3\n      mstore\n      dup5\n      dup5\n      dup3\n      dup2\n      dup2\n      mstore\n      0x20\n      add\n      swap3\n      pop\n        /* \"--CODEGEN--\":30:33   */\n      dup1\n        /* \"--CODEGEN--\":22:28   */\n      dup3\n        /* \"--CODEGEN--\":14:20   */\n      dup5\n        /* \"--CODEGEN--\":1:34   */\n      calldatacopy\n        /* \"--CODEGEN--\":99:100   */\n      0x00\n        /* \"--CODEGEN--\":93:96   */\n      dup2\n        /* \"--CODEGEN--\":85:91   */\n      dup5\n        /* \"--CODEGEN--\":81:97   */\n      add\n        /* \"--CODEGEN--\":74:101   */\n      mstore\n        /* \"--CODEGEN--\":137:141   */\n      0x1f\n        /* \"--CODEGEN--\":133:142   */\n      not\n        /* \"--CODEGEN--\":126:130   */\n      0x1f\n        /* \"--CODEGEN--\":121:124   */\n      dup3\n        /* \"--CODEGEN--\":117:131   */\n      add\n        /* \"--CODEGEN--\":113:143   */\n      and\n        /* \"--CODEGEN--\":106:143   */\n      swap1\n      pop\n        /* \"--CODEGEN--\":169:172   */\n      dup1\n        /* \"--CODEGEN--\":161:167   */\n      dup4\n        /* \"--CODEGEN--\":157:173   */\n      add\n        /* \"--CODEGEN--\":147:173   */\n      swap3\n      pop\n        /* \"UniswapV2/UniswapV2Pair.sol\":8431:8507  IUniswapV2Callee(to).uniswapV2Call(msg.sender, amount0Out, amount1Out, data) */\n      pop\n      pop\n      swap7\n      pop\n      pop\n      pop\n      pop\n      pop\n      pop\n      pop\n      0x00\n      mload(0x40)\n      dup1\n      dup4\n      sub\n      dup2\n      0x00\n      dup8\n      dup1\n      extcodesize\n      iszero\n        /* \"--CODEGEN--\":5:14   */\n      dup1\n        /* \"--CODEGEN--\":2:4   */\n      iszero\n      tag_116\n      jumpi\n        /* \"--CODEGEN--\":27:28   */\n      0x00\n        /* \"--CODEGEN--\":24:25   */\n      dup1\n        /* \"--CODEGEN--\":17:29   */\n      revert\n        /* \"--CODEGEN--\":2:4   */\n    tag_116:\n        /* \"UniswapV2/UniswapV2Pair.sol\":8431:8507  IUniswapV2Callee(to).uniswapV2Call(msg.sender, amount0Out, amount1Out, data) */\n      pop\n      gas\n      call\n      iszero\n        /* \"--CODEGEN--\":8:17   */\n      dup1\n        /* \"--CODEGEN--\":5:7   */\n      iszero\n      tag_118\n      jumpi\n        /* \"--CODEGEN--\":45:61   */\n      returndatasize\n        /* \"--CODEGEN--\":42:43   */\n      0x00\n        /* \"--CODEGEN--\":39:40   */\n      dup1\n        /* \"--CODEGEN--\":24:62   */\n      returndatacopy\n        /* \"--CODEGEN--\":77:93   */\n      returndatasize\n        /* \"--CODEGEN--\":74:75   */\n      0x00\n        /* \"--CODEGEN--\":67:94   */\n      revert\n        /* \"--CODEGEN--\":5:7   */\n    tag_118:\n        /* \"UniswapV2/UniswapV2Pair.sol\":8431:8507  IUniswapV2Callee(to).uniswapV2Call(msg.sender, amount0Out, amount1Out, data) */\n      pop\n      pop\n      pop\n      pop\n        /* \"UniswapV2/UniswapV2Pair.sol\":8410:8507  if (data.length > 0) IUniswapV2Callee(to).uniswapV2Call(msg.sender, amount0Out, amount1Out, data) */\n    tag_115:\n        /* \"UniswapV2/UniswapV2Pair.sol\":8535:8542  _token0 */\n      dup2\n        /* \"UniswapV2/UniswapV2Pair.sol\":8528:8553  IERC20(_token0).balanceOf */\n      0xffffffffffffffffffffffffffffffffffffffff\n      and\n      0x70a08231\n        /* \"UniswapV2/UniswapV2Pair.sol\":8562:8566  this */\n      address\n        /* \"UniswapV2/UniswapV2Pair.sol\":8528:8568  IERC20(_token0).balanceOf(address(this)) */\n      mload(0x40)\n      dup3\n      0xffffffff\n      and\n      0xe0\n      shl\n      dup2\n      mstore\n      0x04\n      add\n      dup1\n      dup3\n      0xffffffffffffffffffffffffffffffffffffffff\n      and\n      0xffffffffffffffffffffffffffffffffffffffff\n      and\n      dup2\n      mstore\n      0x20\n      add\n      swap2\n      pop\n      pop\n      0x20\n      mload(0x40)\n      dup1\n      dup4\n      sub\n      dup2\n      dup7\n      dup1\n      extcodesize\n      iszero\n        /* \"--CODEGEN--\":5:14   */\n      dup1\n        /* \"--CODEGEN--\":2:4   */\n      iszero\n      tag_119\n      jumpi\n        /* \"--CODEGEN--\":27:28   */\n      0x00\n        /* \"--CODEGEN--\":24:25   */\n      dup1\n        /* \"--CODEGEN--\":17:29   */\n      revert\n        /* \"--CODEGEN--\":2:4   */\n    tag_119:\n        /* \"UniswapV2/UniswapV2Pair.sol\":8528:8568  IERC20(_token0).balanceOf(address(this)) */\n      pop\n      gas\n      staticcall\n      iszero\n        /* \"--CODEGEN--\":8:17   */\n      dup1\n        /* \"--CODEGEN--\":5:7   */\n      iszero\n      tag_121\n      jumpi\n        /* \"--CODEGEN--\":45:61   */\n      returndatasize\n        /* \"--CODEGEN--\":42:43   */\n      0x00\n        /* \"--CODEGEN--\":39:40   */\n      dup1\n        /* \"--CODEGEN--\":24:62   */\n      returndatacopy\n        /* \"--CODEGEN--\":77:93   */\n      returndatasize\n        /* \"--CODEGEN--\":74:75   */\n      0x00\n        /* \"--CODEGEN--\":67:94   */\n      revert\n        /* \"--CODEGEN--\":5:7   */\n    tag_121:\n        /* \"UniswapV2/UniswapV2Pair.sol\":8528:8568  IERC20(_token0).balanceOf(address(this)) */\n      pop\n      pop\n      pop\n      pop\n      mload(0x40)\n      returndatasize\n        /* \"--CODEGEN--\":15:17   */\n      0x20\n        /* \"--CODEGEN--\":10:13   */\n      dup2\n        /* \"--CODEGEN--\":7:18   */\n      lt\n        /* \"--CODEGEN--\":4:6   */\n      iszero\n      tag_122\n      jumpi\n        /* \"--CODEGEN--\":31:32   */\n      0x00\n        /* \"--CODEGEN--\":28:29   */\n      dup1\n        /* \"--CODEGEN--\":21:33   */\n      revert\n        /* \"--CODEGEN--\":4:6   */\n    tag_122:\n        /* \"UniswapV2/UniswapV2Pair.sol\":8528:8568  IERC20(_token0).balanceOf(address(this)) */\n      dup2\n      add\n      swap1\n      dup1\n      dup1\n      mload\n      swap1\n      0x20\n      add\n      swap1\n      swap3\n      swap2\n      swap1\n      pop\n      pop\n      pop\n        /* \"UniswapV2/UniswapV2Pair.sol\":8517:8568  balance0 = IERC20(_token0).balanceOf(address(this)) */\n      swap4\n      pop\n        /* \"UniswapV2/UniswapV2Pair.sol\":8596:8603  _token1 */\n      dup1\n        /* \"UniswapV2/UniswapV2Pair.sol\":8589:8614  IERC20(_token1).balanceOf */\n      0xffffffffffffffffffffffffffffffffffffffff\n      and\n      0x70a08231\n        /* \"UniswapV2/UniswapV2Pair.sol\":8623:8627  this */\n      address\n        /* \"UniswapV2/UniswapV2Pair.sol\":8589:8629  IERC20(_token1).balanceOf(address(this)) */\n      mload(0x40)\n      dup3\n      0xffffffff\n      and\n      0xe0\n      shl\n      dup2\n      mstore\n      0x04\n      add\n      dup1\n      dup3\n      0xffffffffffffffffffffffffffffffffffffffff\n      and\n      0xffffffffffffffffffffffffffffffffffffffff\n      and\n      dup2\n      mstore\n      0x20\n      add\n      swap2\n      pop\n      pop\n      0x20\n      mload(0x40)\n      dup1\n      dup4\n      sub\n      dup2\n      dup7\n      dup1\n      extcodesize\n      iszero\n        /* \"--CODEGEN--\":5:14   */\n      dup1\n        /* \"--CODEGEN--\":2:4   */\n      iszero\n      tag_123\n      jumpi\n        /* \"--CODEGEN--\":27:28   */\n      0x00\n        /* \"--CODEGEN--\":24:25   */\n      dup1\n        /* \"--CODEGEN--\":17:29   */\n      revert\n        /* \"--CODEGEN--\":2:4   */\n    tag_123:\n        /* \"UniswapV2/UniswapV2Pair.sol\":8589:8629  IERC20(_token1).balanceOf(address(this)) */\n      pop\n      gas\n      staticcall\n      iszero\n        /* \"--CODEGEN--\":8:17   */\n      dup1\n        /* \"--CODEGEN--\":5:7   */\n      iszero\n      tag_125\n      jumpi\n        /* \"--CODEGEN--\":45:61   */\n      returndatasize\n        /* \"--CODEGEN--\":42:43   */\n      0x00\n        /* \"--CODEGEN--\":39:40   */\n      dup1\n        /* \"--CODEGEN--\":24:62   */\n      returndatacopy\n        /* \"--CODEGEN--\":77:93   */\n      returndatasize\n        /* \"--CODEGEN--\":74:75   */\n      0x00\n        /* \"--CODEGEN--\":67:94   */\n      revert\n        /* \"--CODEGEN--\":5:7   */\n    tag_125:\n        /* \"UniswapV2/UniswapV2Pair.sol\":8589:8629  IERC20(_token1).balanceOf(address(this)) */\n      pop\n      pop\n      pop\n      pop\n      mload(0x40)\n      returndatasize\n        /* \"--CODEGEN--\":15:17   */\n      0x20\n        /* \"--CODEGEN--\":10:13   */\n      dup2\n        /* \"--CODEGEN--\":7:18   */\n      lt\n        /* \"--CODEGEN--\":4:6   */\n      iszero\n      tag_126\n      jumpi\n        /* \"--CODEGEN--\":31:32   */\n      0x00\n        /* \"--CODEGEN--\":28:29   */\n      dup1\n        /* \"--CODEGEN--\":21:33   */\n      revert\n        /* \"--CODEGEN--\":4:6   */\n    tag_126:\n        /* \"UniswapV2/UniswapV2Pair.sol\":8589:8629  IERC20(_token1).balanceOf(address(this)) */\n      dup2\n      add\n      swap1\n      dup1\n      dup1\n      mload\n      swap1\n      0x20\n      add\n      swap1\n      swap3\n      swap2\n      swap1\n      pop\n      pop\n      pop\n        /* \"UniswapV2/UniswapV2Pair.sol\":8578:8629  balance1 = IERC20(_token1).balanceOf(address(this)) */\n      swap3\n      pop\n        /* \"UniswapV2/UniswapV2Pair.sol\":1412:1413  _ */\n      pop\n      pop\n        /* \"UniswapV2/UniswapV2Pair.sol\":8649:8663  uint amount0In */\n      0x00\n        /* \"UniswapV2/UniswapV2Pair.sol\":8689:8699  amount0Out */\n      dup10\n        /* \"UniswapV2/UniswapV2Pair.sol\":8677:8686  _reserve0 */\n      dup6\n        /* \"UniswapV2/UniswapV2Pair.sol\":8677:8699  _reserve0 - amount0Out */\n      0xffffffffffffffffffffffffffff\n      and\n      sub\n        /* \"UniswapV2/UniswapV2Pair.sol\":8666:8674  balance0 */\n      dup4\n        /* \"UniswapV2/UniswapV2Pair.sol\":8666:8699  balance0 > _reserve0 - amount0Out */\n      gt\n        /* \"UniswapV2/UniswapV2Pair.sol\":8666:8741  balance0 > _reserve0 - amount0Out ? balance0 - (_reserve0 - amount0Out) : 0 */\n      tag_127\n      jumpi\n        /* \"UniswapV2/UniswapV2Pair.sol\":8740:8741  0 */\n      0x00\n        /* \"UniswapV2/UniswapV2Pair.sol\":8666:8741  balance0 > _reserve0 - amount0Out ? balance0 - (_reserve0 - amount0Out) : 0 */\n      jump(tag_128)\n    tag_127:\n        /* \"UniswapV2/UniswapV2Pair.sol\":8726:8736  amount0Out */\n      dup10\n        /* \"UniswapV2/UniswapV2Pair.sol\":8714:8723  _reserve0 */\n      dup6\n        /* \"UniswapV2/UniswapV2Pair.sol\":8714:8736  _reserve0 - amount0Out */\n      0xffffffffffffffffffffffffffff\n      and\n      sub\n        /* \"UniswapV2/UniswapV2Pair.sol\":8702:8710  balance0 */\n      dup4\n        /* \"UniswapV2/UniswapV2Pair.sol\":8702:8737  balance0 - (_reserve0 - amount0Out) */\n      sub\n        /* \"UniswapV2/UniswapV2Pair.sol\":8666:8741  balance0 > _reserve0 - amount0Out ? balance0 - (_reserve0 - amount0Out) : 0 */\n    tag_128:\n        /* \"UniswapV2/UniswapV2Pair.sol\":8649:8741  uint amount0In = balance0 > _reserve0 - amount0Out ? balance0 - (_reserve0 - amount0Out) : 0 */\n      swap1\n      pop\n        /* \"UniswapV2/UniswapV2Pair.sol\":8751:8765  uint amount1In */\n      0x00\n        /* \"UniswapV2/UniswapV2Pair.sol\":8791:8801  amount1Out */\n      dup10\n        /* \"UniswapV2/UniswapV2Pair.sol\":8779:8788  _reserve1 */\n      dup6\n        /* \"UniswapV2/UniswapV2Pair.sol\":8779:8801  _reserve1 - amount1Out */\n      0xffffffffffffffffffffffffffff\n      and\n      sub\n        /* \"UniswapV2/UniswapV2Pair.sol\":8768:8776  balance1 */\n      dup4\n        /* \"UniswapV2/UniswapV2Pair.sol\":8768:8801  balance1 > _reserve1 - amount1Out */\n      gt\n        /* \"UniswapV2/UniswapV2Pair.sol\":8768:8843  balance1 > _reserve1 - amount1Out ? balance1 - (_reserve1 - amount1Out) : 0 */\n      tag_129\n      jumpi\n        /* \"UniswapV2/UniswapV2Pair.sol\":8842:8843  0 */\n      0x00\n        /* \"UniswapV2/UniswapV2Pair.sol\":8768:8843  balance1 > _reserve1 - amount1Out ? balance1 - (_reserve1 - amount1Out) : 0 */\n      jump(tag_130)\n    tag_129:\n        /* \"UniswapV2/UniswapV2Pair.sol\":8828:8838  amount1Out */\n      dup10\n        /* \"UniswapV2/UniswapV2Pair.sol\":8816:8825  _reserve1 */\n      dup6\n        /* \"UniswapV2/UniswapV2Pair.sol\":8816:8838  _reserve1 - amount1Out */\n      0xffffffffffffffffffffffffffff\n      and\n      sub\n        /* \"UniswapV2/UniswapV2Pair.sol\":8804:8812  balance1 */\n      dup4\n        /* \"UniswapV2/UniswapV2Pair.sol\":8804:8839  balance1 - (_reserve1 - amount1Out) */\n      sub\n        /* \"UniswapV2/UniswapV2Pair.sol\":8768:8843  balance1 > _reserve1 - amount1Out ? balance1 - (_reserve1 - amount1Out) : 0 */\n    tag_130:\n        /* \"UniswapV2/UniswapV2Pair.sol\":8751:8843  uint amount1In = balance1 > _reserve1 - amount1Out ? balance1 - (_reserve1 - amount1Out) : 0 */\n      swap1\n      pop\n        /* \"UniswapV2/UniswapV2Pair.sol\":8873:8874  0 */\n      0x00\n        /* \"UniswapV2/UniswapV2Pair.sol\":8861:8870  amount0In */\n      dup3\n        /* \"UniswapV2/UniswapV2Pair.sol\":8861:8874  amount0In > 0 */\n      gt\n        /* \"UniswapV2/UniswapV2Pair.sol\":8861:8891  amount0In > 0 || amount1In > 0 */\n      dup1\n      tag_131\n      jumpi\n      pop\n        /* \"UniswapV2/UniswapV2Pair.sol\":8890:8891  0 */\n      0x00\n        /* \"UniswapV2/UniswapV2Pair.sol\":8878:8887  amount1In */\n      dup2\n        /* \"UniswapV2/UniswapV2Pair.sol\":8878:8891  amount1In > 0 */\n      gt\n        /* \"UniswapV2/UniswapV2Pair.sol\":8861:8891  amount0In > 0 || amount1In > 0 */\n    tag_131:\n        /* \"UniswapV2/UniswapV2Pair.sol\":8853:8932  require(amount0In > 0 || amount1In > 0, 'UniswapV2: INSUFFICIENT_INPUT_AMOUNT') */\n      tag_132\n      jumpi\n      mload(0x40)\n      0x08c379a000000000000000000000000000000000000000000000000000000000\n      dup2\n      mstore\n      0x04\n      add\n      dup1\n      dup1\n      0x20\n      add\n      dup3\n      dup2\n      sub\n      dup3\n      mstore\n      0x24\n      dup2\n      mstore\n      0x20\n      add\n      dup1\n      data_10e2efc32d8a31d3b2c11a545b3ed09c2dbabc58ef6de4033929d0002e425b67\n      0x24\n      swap2\n      codecopy\n      0x40\n      add\n      swap2\n      pop\n      pop\n      mload(0x40)\n      dup1\n      swap2\n      sub\n      swap1\n      revert\n    tag_132:\n        /* \"UniswapV2/UniswapV2Pair.sol\":9016:9037  uint balance0Adjusted */\n      0x00\n        /* \"UniswapV2/UniswapV2Pair.sol\":9040:9080  balance0.mul(1000).sub(amount0In.mul(3)) */\n      tag_133\n        /* \"UniswapV2/UniswapV2Pair.sol\":9063:9079  amount0In.mul(3) */\n      tag_134\n        /* \"UniswapV2/UniswapV2Pair.sol\":9077:9078  3 */\n      0x03\n        /* \"UniswapV2/UniswapV2Pair.sol\":9063:9072  amount0In */\n      dup6\n        /* \"UniswapV2/UniswapV2Pair.sol\":9063:9076  amount0In.mul */\n      tag_135\n      swap1\n        /* \"UniswapV2/UniswapV2Pair.sol\":9063:9079  amount0In.mul(3) */\n      swap2\n      swap1\n      0xffffffff\n      and\n      jump\t// in\n    tag_134:\n        /* \"UniswapV2/UniswapV2Pair.sol\":9040:9058  balance0.mul(1000) */\n      tag_136\n        /* \"UniswapV2/UniswapV2Pair.sol\":9053:9057  1000 */\n      0x03e8\n        /* \"UniswapV2/UniswapV2Pair.sol\":9040:9048  balance0 */\n      dup9\n        /* \"UniswapV2/UniswapV2Pair.sol\":9040:9052  balance0.mul */\n      tag_135\n      swap1\n        /* \"UniswapV2/UniswapV2Pair.sol\":9040:9058  balance0.mul(1000) */\n      swap2\n      swap1\n      0xffffffff\n      and\n      jump\t// in\n    tag_136:\n        /* \"UniswapV2/UniswapV2Pair.sol\":9040:9062  balance0.mul(1000).sub */\n      tag_137\n      swap1\n        /* \"UniswapV2/UniswapV2Pair.sol\":9040:9080  balance0.mul(1000).sub(amount0In.mul(3)) */\n      swap2\n      swap1\n      0xffffffff\n      and\n      jump\t// in\n    tag_133:\n        /* \"UniswapV2/UniswapV2Pair.sol\":9016:9080  uint balance0Adjusted = balance0.mul(1000).sub(amount0In.mul(3)) */\n      swap1\n      pop\n        /* \"UniswapV2/UniswapV2Pair.sol\":9090:9111  uint balance1Adjusted */\n      0x00\n        /* \"UniswapV2/UniswapV2Pair.sol\":9114:9154  balance1.mul(1000).sub(amount1In.mul(3)) */\n      tag_138\n        /* \"UniswapV2/UniswapV2Pair.sol\":9137:9153  amount1In.mul(3) */\n      tag_139\n        /* \"UniswapV2/UniswapV2Pair.sol\":9151:9152  3 */\n      0x03\n        /* \"UniswapV2/UniswapV2Pair.sol\":9137:9146  amount1In */\n      dup6\n        /* \"UniswapV2/UniswapV2Pair.sol\":9137:9150  amount1In.mul */\n      tag_135\n      swap1\n        /* \"UniswapV2/UniswapV2Pair.sol\":9137:9153  amount1In.mul(3) */\n      swap2\n      swap1\n      0xffffffff\n      and\n      jump\t// in\n    tag_139:\n        /* \"UniswapV2/UniswapV2Pair.sol\":9114:9132  balance1.mul(1000) */\n      tag_140\n        /* \"UniswapV2/UniswapV2Pair.sol\":9127:9131  1000 */\n      0x03e8\n        /* \"UniswapV2/UniswapV2Pair.sol\":9114:9122  balance1 */\n      dup9\n        /* \"UniswapV2/UniswapV2Pair.sol\":9114:9126  balance1.mul */\n      tag_135\n      swap1\n        /* \"UniswapV2/UniswapV2Pair.sol\":9114:9132  balance1.mul(1000) */\n      swap2\n      swap1\n      0xffffffff\n      and\n      jump\t// in\n    tag_140:\n        /* \"UniswapV2/UniswapV2Pair.sol\":9114:9136  balance1.mul(1000).sub */\n      tag_137\n      swap1\n        /* \"UniswapV2/UniswapV2Pair.sol\":9114:9154  balance1.mul(1000).sub(amount1In.mul(3)) */\n      swap2\n      swap1\n      0xffffffff\n      and\n      jump\t// in\n    tag_138:\n        /* \"UniswapV2/UniswapV2Pair.sol\":9090:9154  uint balance1Adjusted = balance1.mul(1000).sub(amount1In.mul(3)) */\n      swap1\n      pop\n        /* \"UniswapV2/UniswapV2Pair.sol\":9214:9257  uint(_reserve0).mul(_reserve1).mul(1000**2) */\n      tag_141\n        /* \"UniswapV2/UniswapV2Pair.sol\":9249:9256  1000**2 */\n      0x0f4240\n        /* \"UniswapV2/UniswapV2Pair.sol\":9214:9244  uint(_reserve0).mul(_reserve1) */\n      tag_142\n        /* \"UniswapV2/UniswapV2Pair.sol\":9234:9243  _reserve1 */\n      dup10\n        /* \"UniswapV2/UniswapV2Pair.sol\":9214:9244  uint(_reserve0).mul(_reserve1) */\n      0xffffffffffffffffffffffffffff\n      and\n        /* \"UniswapV2/UniswapV2Pair.sol\":9219:9228  _reserve0 */\n      dup12\n        /* \"UniswapV2/UniswapV2Pair.sol\":9214:9229  uint(_reserve0) */\n      0xffffffffffffffffffffffffffff\n      and\n        /* \"UniswapV2/UniswapV2Pair.sol\":9214:9233  uint(_reserve0).mul */\n      tag_135\n      swap1\n        /* \"UniswapV2/UniswapV2Pair.sol\":9214:9244  uint(_reserve0).mul(_reserve1) */\n      swap2\n      swap1\n      0xffffffff\n      and\n      jump\t// in\n    tag_142:\n        /* \"UniswapV2/UniswapV2Pair.sol\":9214:9248  uint(_reserve0).mul(_reserve1).mul */\n      tag_135\n      swap1\n        /* \"UniswapV2/UniswapV2Pair.sol\":9214:9257  uint(_reserve0).mul(_reserve1).mul(1000**2) */\n      swap2\n      swap1\n      0xffffffff\n      and\n      jump\t// in\n    tag_141:\n        /* \"UniswapV2/UniswapV2Pair.sol\":9172:9210  balance0Adjusted.mul(balance1Adjusted) */\n      tag_143\n        /* \"UniswapV2/UniswapV2Pair.sol\":9193:9209  balance1Adjusted */\n      dup3\n        /* \"UniswapV2/UniswapV2Pair.sol\":9172:9188  balance0Adjusted */\n      dup5\n        /* \"UniswapV2/UniswapV2Pair.sol\":9172:9192  balance0Adjusted.mul */\n      tag_135\n      swap1\n        /* \"UniswapV2/UniswapV2Pair.sol\":9172:9210  balance0Adjusted.mul(balance1Adjusted) */\n      swap2\n      swap1\n      0xffffffff\n      and\n      jump\t// in\n    tag_143:\n        /* \"UniswapV2/UniswapV2Pair.sol\":9172:9257  balance0Adjusted.mul(balance1Adjusted) >= uint(_reserve0).mul(_reserve1).mul(1000**2) */\n      lt\n      iszero\n        /* \"UniswapV2/UniswapV2Pair.sol\":9164:9274  require(balance0Adjusted.mul(balance1Adjusted) >= uint(_reserve0).mul(_reserve1).mul(1000**2), 'UniswapV2: K') */\n      tag_144\n      jumpi\n      mload(0x40)\n      0x08c379a000000000000000000000000000000000000000000000000000000000\n      dup2\n      mstore\n      0x04\n      add\n      dup1\n      dup1\n      0x20\n      add\n      dup3\n      dup2\n      sub\n      dup3\n      mstore\n      0x0c\n      dup2\n      mstore\n      0x20\n      add\n      dup1\n      0x556e697377617056323a204b0000000000000000000000000000000000000000\n      dup2\n      mstore\n      pop\n      0x20\n      add\n      swap2\n      pop\n      pop\n      mload(0x40)\n      dup1\n      swap2\n      sub\n      swap1\n      revert\n    tag_144:\n        /* \"UniswapV2/UniswapV2Pair.sol\":1412:1413  _ */\n      pop\n      pop\n        /* \"UniswapV2/UniswapV2Pair.sol\":9295:9344  _update(balance0, balance1, _reserve0, _reserve1) */\n      tag_145\n        /* \"UniswapV2/UniswapV2Pair.sol\":9303:9311  balance0 */\n      dup5\n        /* \"UniswapV2/UniswapV2Pair.sol\":9313:9321  balance1 */\n      dup5\n        /* \"UniswapV2/UniswapV2Pair.sol\":9323:9332  _reserve0 */\n      dup9\n        /* \"UniswapV2/UniswapV2Pair.sol\":9334:9343  _reserve1 */\n      dup9\n        /* \"UniswapV2/UniswapV2Pair.sol\":9295:9302  _update */\n      tag_146\n        /* \"UniswapV2/UniswapV2Pair.sol\":9295:9344  _update(balance0, balance1, _reserve0, _reserve1) */\n      jump\t// in\n    tag_145:\n        /* \"UniswapV2/UniswapV2Pair.sol\":9422:9424  to */\n      dup9\n        /* \"UniswapV2/UniswapV2Pair.sol\":9359:9425  Swap(msg.sender, amount0In, amount1In, amount0Out, amount1Out, to) */\n      0xffffffffffffffffffffffffffffffffffffffff\n      and\n        /* \"UniswapV2/UniswapV2Pair.sol\":9364:9374  msg.sender */\n      caller\n        /* \"UniswapV2/UniswapV2Pair.sol\":9359:9425  Swap(msg.sender, amount0In, amount1In, amount0Out, amount1Out, to) */\n      0xffffffffffffffffffffffffffffffffffffffff\n      and\n      0xd78ad95fa46c994b6551d0da85fc275fe613ce37657fb8d5e3d130840159d822\n        /* \"UniswapV2/UniswapV2Pair.sol\":9376:9385  amount0In */\n      dup5\n        /* \"UniswapV2/UniswapV2Pair.sol\":9387:9396  amount1In */\n      dup5\n        /* \"UniswapV2/UniswapV2Pair.sol\":9398:9408  amount0Out */\n      dup16\n        /* \"UniswapV2/UniswapV2Pair.sol\":9410:9420  amount1Out */\n      dup16\n        /* \"UniswapV2/UniswapV2Pair.sol\":9359:9425  Swap(msg.sender, amount0In, amount1In, amount0Out, amount1Out, to) */\n      mload(0x40)\n      dup1\n      dup6\n      dup2\n      mstore\n      0x20\n      add\n      dup5\n      dup2\n      mstore\n      0x20\n      add\n      dup4\n      dup2\n      mstore\n      0x20\n      add\n      dup3\n      dup2\n      mstore\n      0x20\n      add\n      swap5\n      pop\n      pop\n      pop\n      pop\n      pop\n      mload(0x40)\n      dup1\n      swap2\n      sub\n      swap1\n      log3\n        /* \"UniswapV2/UniswapV2Pair.sol\":1412:1413  _ */\n      pop\n      pop\n      pop\n      pop\n      pop\n      pop\n        /* \"UniswapV2/UniswapV2Pair.sol\":1434:1435  1 */\n      0x01\n        /* \"UniswapV2/UniswapV2Pair.sol\":1423:1431  unlocked */\n      0x0b\n        /* \"UniswapV2/UniswapV2Pair.sol\":1423:1435  unlocked = 1 */\n      dup2\n      swap1\n      sstore\n      pop\n        /* \"UniswapV2/UniswapV2Pair.sol\":7562:9432  function swap(uint amount0Out, uint amount1Out, address to, bytes calldata data) external override lock {... */\n      pop\n      pop\n      pop\n      pop\n      pop\n      jump\t// out\n        /* \"UniswapV2/UniswapV2ERC20.sol\":189:237  string public override constant name = 'LPtoken' */\n    tag_37:\n      mload(0x40)\n      dup1\n      0x40\n      add\n      0x40\n      mstore\n      dup1\n      0x07\n      dup2\n      mstore\n      0x20\n      add\n      0x4c50746f6b656e00000000000000000000000000000000000000000000000000\n      dup2\n      mstore\n      pop\n      dup2\n      jump\t// out\n        /* \"UniswapV2/UniswapV2Pair.sol\":1448:1684  function getReserves() public override view returns (uint112 _reserve0, uint112 _reserve1, uint32 _blockTimestampLast) {... */\n    tag_43:\n        /* \"UniswapV2/UniswapV2Pair.sol\":1501:1518  uint112 _reserve0 */\n      0x00\n        /* \"UniswapV2/UniswapV2Pair.sol\":1520:1537  uint112 _reserve1 */\n      dup1\n        /* \"UniswapV2/UniswapV2Pair.sol\":1539:1565  uint32 _blockTimestampLast */\n      0x00\n        /* \"UniswapV2/UniswapV2Pair.sol\":1589:1597  reserve0 */\n      0x07\n      0x00\n      swap1\n      sload\n      swap1\n      0x0100\n      exp\n      swap1\n      div\n      0xffffffffffffffffffffffffffff\n      and\n        /* \"UniswapV2/UniswapV2Pair.sol\":1577:1597  _reserve0 = reserve0 */\n      swap3\n      pop\n        /* \"UniswapV2/UniswapV2Pair.sol\":1619:1627  reserve1 */\n      0x07\n      0x0e\n      swap1\n      sload\n      swap1\n      0x0100\n      exp\n      swap1\n      div\n      0xffffffffffffffffffffffffffff\n      and\n        /* \"UniswapV2/UniswapV2Pair.sol\":1607:1627  _reserve1 = reserve1 */\n      swap2\n      pop\n        /* \"UniswapV2/UniswapV2Pair.sol\":1659:1677  blockTimestampLast */\n      0x07\n      0x1c\n      swap1\n      sload\n      swap1\n      0x0100\n      exp\n      swap1\n      div\n      0xffffffff\n      and\n        /* \"UniswapV2/UniswapV2Pair.sol\":1637:1677  _blockTimestampLast = blockTimestampLast */\n      swap1\n      pop\n        /* \"UniswapV2/UniswapV2Pair.sol\":1448:1684  function getReserves() public override view returns (uint112 _reserve0, uint112 _reserve1, uint32 _blockTimestampLast) {... */\n      swap1\n      swap2\n      swap3\n      jump\t// out\n        /* \"UniswapV2/UniswapV2ERC20.sol\":1524:1677  function approve(address spender, uint value) external override returns (bool) {... */\n    tag_46:\n        /* \"UniswapV2/UniswapV2ERC20.sol\":1597:1601  bool */\n      0x00\n        /* \"UniswapV2/UniswapV2ERC20.sol\":1613:1649  _approve(msg.sender, spender, value) */\n      tag_149\n        /* \"UniswapV2/UniswapV2ERC20.sol\":1622:1632  msg.sender */\n      caller\n        /* \"UniswapV2/UniswapV2ERC20.sol\":1634:1641  spender */\n      dup5\n        /* \"UniswapV2/UniswapV2ERC20.sol\":1643:1648  value */\n      dup5\n        /* \"UniswapV2/UniswapV2ERC20.sol\":1613:1621  _approve */\n      tag_150\n        /* \"UniswapV2/UniswapV2ERC20.sol\":1613:1649  _approve(msg.sender, spender, value) */\n      jump\t// in\n    tag_149:\n        /* \"UniswapV2/UniswapV2ERC20.sol\":1666:1670  true */\n      0x01\n        /* \"UniswapV2/UniswapV2ERC20.sol\":1659:1670  return true */\n      swap1\n      pop\n        /* \"UniswapV2/UniswapV2ERC20.sol\":1524:1677  function approve(address spender, uint value) external override returns (bool) {... */\n      swap3\n      swap2\n      pop\n      pop\n      jump\t// out\n        /* \"UniswapV2/UniswapV2Pair.sol\":711:741  address public override token0 */\n    tag_48:\n      0x05\n      0x00\n      swap1\n      sload\n      swap1\n      0x0100\n      exp\n      swap1\n      div\n      0xffffffffffffffffffffffffffffffffffffffff\n      and\n      dup2\n      jump\t// out\n        /* \"UniswapV2/UniswapV2ERC20.sol\":344:377  uint  public override totalSupply */\n    tag_50:\n      sload(0x00)\n      dup2\n      jump\t// out\n        /* \"UniswapV2/UniswapV2ERC20.sol\":1834:2138  function transferFrom(address from, address to, uint value) external override returns (bool) {... */\n    tag_53:\n        /* \"UniswapV2/UniswapV2ERC20.sol\":1921:1925  bool */\n      0x00\n        /* \"UniswapV2/UniswapV2ERC20.sol\":1977:1979  -1 */\n      0xffffffffffffffffffffffffffffffffffffffffffffffffffffffffffffffff\n        /* \"UniswapV2/UniswapV2ERC20.sol\":1941:1950  allowance */\n      0x02\n        /* \"UniswapV2/UniswapV2ERC20.sol\":1941:1956  allowance[from] */\n      0x00\n        /* \"UniswapV2/UniswapV2ERC20.sol\":1951:1955  from */\n      dup7\n        /* \"UniswapV2/UniswapV2ERC20.sol\":1941:1956  allowance[from] */\n      0xffffffffffffffffffffffffffffffffffffffff\n      and\n      0xffffffffffffffffffffffffffffffffffffffff\n      and\n      dup2\n      mstore\n      0x20\n      add\n      swap1\n      dup2\n      mstore\n      0x20\n      add\n      0x00\n      keccak256\n        /* \"UniswapV2/UniswapV2ERC20.sol\":1941:1968  allowance[from][msg.sender] */\n      0x00\n        /* \"UniswapV2/UniswapV2ERC20.sol\":1957:1967  msg.sender */\n      caller\n        /* \"UniswapV2/UniswapV2ERC20.sol\":1941:1968  allowance[from][msg.sender] */\n      0xffffffffffffffffffffffffffffffffffffffff\n      and\n      0xffffffffffffffffffffffffffffffffffffffff\n      and\n      dup2\n      mstore\n      0x20\n      add\n      swap1\n      dup2\n      mstore\n      0x20\n      add\n      0x00\n      keccak256\n      sload\n        /* \"UniswapV2/UniswapV2ERC20.sol\":1941:1980  allowance[from][msg.sender] != uint(-1) */\n      eq\n        /* \"UniswapV2/UniswapV2ERC20.sol\":1937:2075  if (allowance[from][msg.sender] != uint(-1)) {... */\n      tag_152\n      jumpi\n        /* \"UniswapV2/UniswapV2ERC20.sol\":2026:2064  allowance[from][msg.sender].sub(value) */\n      tag_153\n        /* \"UniswapV2/UniswapV2ERC20.sol\":2058:2063  value */\n      dup3\n        /* \"UniswapV2/UniswapV2ERC20.sol\":2026:2035  allowance */\n      0x02\n        /* \"UniswapV2/UniswapV2ERC20.sol\":2026:2041  allowance[from] */\n      0x00\n        /* \"UniswapV2/UniswapV2ERC20.sol\":2036:2040  from */\n      dup8\n        /* \"UniswapV2/UniswapV2ERC20.sol\":2026:2041  allowance[from] */\n      0xffffffffffffffffffffffffffffffffffffffff\n      and\n      0xffffffffffffffffffffffffffffffffffffffff\n      and\n      dup2\n      mstore\n      0x20\n      add\n      swap1\n      dup2\n      mstore\n      0x20\n      add\n      0x00\n      keccak256\n        /* \"UniswapV2/UniswapV2ERC20.sol\":2026:2053  allowance[from][msg.sender] */\n      0x00\n        /* \"UniswapV2/UniswapV2ERC20.sol\":2042:2052  msg.sender */\n      caller\n        /* \"UniswapV2/UniswapV2ERC20.sol\":2026:2053  allowance[from][msg.sender] */\n      0xffffffffffffffffffffffffffffffffffffffff\n      and\n      0xffffffffffffffffffffffffffffffffffffffff\n      and\n      dup2\n      mstore\n      0x20\n      add\n      swap1\n      dup2\n      mstore\n      0x20\n      add\n      0x00\n      keccak256\n      sload\n        /* \"UniswapV2/UniswapV2ERC20.sol\":2026:2057  allowance[from][msg.sender].sub */\n      tag_137\n      swap1\n        /* \"UniswapV2/UniswapV2ERC20.sol\":2026:2064  allowance[from][msg.sender].sub(value) */\n      swap2\n      swap1\n      0xffffffff\n      and\n      jump\t// in\n    tag_153:\n        /* \"UniswapV2/UniswapV2ERC20.sol\":1996:2005  allowance */\n      0x02\n        /* \"UniswapV2/UniswapV2ERC20.sol\":1996:2011  allowance[from] */\n      0x00\n        /* \"UniswapV2/UniswapV2ERC20.sol\":2006:2010  from */\n      dup7\n        /* \"UniswapV2/UniswapV2ERC20.sol\":1996:2011  allowance[from] */\n      0xffffffffffffffffffffffffffffffffffffffff\n      and\n      0xffffffffffffffffffffffffffffffffffffffff\n      and\n      dup2\n      mstore\n      0x20\n      add\n      swap1\n      dup2\n      mstore\n      0x20\n      add\n      0x00\n      keccak256\n        /* \"UniswapV2/UniswapV2ERC20.sol\":1996:2023  allowance[from][msg.sender] */\n      0x00\n        /* \"UniswapV2/UniswapV2ERC20.sol\":2012:2022  msg.sender */\n      caller\n        /* \"UniswapV2/UniswapV2ERC20.sol\":1996:2023  allowance[from][msg.sender] */\n      0xffffffffffffffffffffffffffffffffffffffff\n      and\n      0xffffffffffffffffffffffffffffffffffffffff\n      and\n      dup2\n      mstore\n      0x20\n      add\n      swap1\n      dup2\n      mstore\n      0x20\n      add\n      0x00\n      keccak256\n        /* \"UniswapV2/UniswapV2ERC20.sol\":1996:2064  allowance[from][msg.sender] = allowance[from][msg.sender].sub(value) */\n      dup2\n      swap1\n      sstore\n      pop\n        /* \"UniswapV2/UniswapV2ERC20.sol\":1937:2075  if (allowance[from][msg.sender] != uint(-1)) {... */\n    tag_152:\n        /* \"UniswapV2/UniswapV2ERC20.sol\":2084:2110  _transfer(from, to, value) */\n      tag_154\n        /* \"UniswapV2/UniswapV2ERC20.sol\":2094:2098  from */\n      dup5\n        /* \"UniswapV2/UniswapV2ERC20.sol\":2100:2102  to */\n      dup5\n        /* \"UniswapV2/UniswapV2ERC20.sol\":2104:2109  value */\n      dup5\n        /* \"UniswapV2/UniswapV2ERC20.sol\":2084:2093  _transfer */\n      tag_155\n        /* \"UniswapV2/UniswapV2ERC20.sol\":2084:2110  _transfer(from, to, value) */\n      jump\t// in\n    tag_154:\n        /* \"UniswapV2/UniswapV2ERC20.sol\":2127:2131  true */\n      0x01\n        /* \"UniswapV2/UniswapV2ERC20.sol\":2120:2131  return true */\n      swap1\n      pop\n        /* \"UniswapV2/UniswapV2ERC20.sol\":1834:2138  function transferFrom(address from, address to, uint value) external override returns (bool) {... */\n      swap4\n      swap3\n      pop\n      pop\n      pop\n      jump\t// out\n        /* \"UniswapV2/UniswapV2ERC20.sol\":294:338  uint8 public override constant decimals = 18 */\n    tag_55:\n        /* \"UniswapV2/UniswapV2ERC20.sol\":336:338  18 */\n      0x12\n        /* \"UniswapV2/UniswapV2ERC20.sol\":294:338  uint8 public override constant decimals = 18 */\n      dup2\n      jump\t// out\n        /* \"UniswapV2/UniswapV2Pair.sol\":2489:2704  function initialize(address _token0, address _token1) external override {... */\n    tag_58:\n        /* \"UniswapV2/UniswapV2Pair.sol\":2593:2600  factory */\n      0x04\n      0x00\n      swap1\n      sload\n      swap1\n      0x0100\n      exp\n      swap1\n      div\n      0xffffffffffffffffffffffffffffffffffffffff\n      and\n        /* \"UniswapV2/UniswapV2Pair.sol\":2579:2600  msg.sender == factory */\n      0xffffffffffffffffffffffffffffffffffffffff\n      and\n        /* \"UniswapV2/UniswapV2Pair.sol\":2579:2589  msg.sender */\n      caller\n        /* \"UniswapV2/UniswapV2Pair.sol\":2579:2600  msg.sender == factory */\n      0xffffffffffffffffffffffffffffffffffffffff\n      and\n      eq\n        /* \"UniswapV2/UniswapV2Pair.sol\":2571:2625  require(msg.sender == factory, 'UniswapV2: FORBIDDEN') */\n      tag_157\n      jumpi\n      mload(0x40)\n      0x08c379a000000000000000000000000000000000000000000000000000000000\n      dup2\n      mstore\n      0x04\n      add\n      dup1\n      dup1\n      0x20\n      add\n      dup3\n      dup2\n      sub\n      dup3\n      mstore\n      0x14\n      dup2\n      mstore\n      0x20\n      add\n      dup1\n      0x556e697377617056323a20464f5242494444454e000000000000000000000000\n      dup2\n      mstore\n      pop\n      0x20\n      add\n      swap2\n      pop\n      pop\n      mload(0x40)\n      dup1\n      swap2\n      sub\n      swap1\n      revert\n    tag_157:\n        /* \"UniswapV2/UniswapV2Pair.sol\":2664:2671  _token0 */\n      dup2\n        /* \"UniswapV2/UniswapV2Pair.sol\":2655:2661  token0 */\n      0x05\n      0x00\n        /* \"UniswapV2/UniswapV2Pair.sol\":2655:2671  token0 = _token0 */\n      0x0100\n      exp\n      dup2\n      sload\n      dup2\n      0xffffffffffffffffffffffffffffffffffffffff\n      mul\n      not\n      and\n      swap1\n      dup4\n      0xffffffffffffffffffffffffffffffffffffffff\n      and\n      mul\n      or\n      swap1\n      sstore\n      pop\n        /* \"UniswapV2/UniswapV2Pair.sol\":2690:2697  _token1 */\n      dup1\n        /* \"UniswapV2/UniswapV2Pair.sol\":2681:2687  token1 */\n      0x06\n      0x00\n        /* \"UniswapV2/UniswapV2Pair.sol\":2681:2697  token1 = _token1 */\n      0x0100\n      exp\n      dup2\n      sload\n      dup2\n      0xffffffffffffffffffffffffffffffffffffffff\n      mul\n      not\n      and\n      swap1\n      dup4\n      0xffffffffffffffffffffffffffffffffffffffff\n      and\n      mul\n      or\n      swap1\n      sstore\n      pop\n        /* \"UniswapV2/UniswapV2Pair.sol\":2489:2704  function initialize(address _token0, address _token1) external override {... */\n      pop\n      pop\n      jump\t// out\n        /* \"UniswapV2/UniswapV2Pair.sol\":1073:1114  uint public override price0CumulativeLast */\n    tag_60:\n      sload(0x08)\n      dup2\n      jump\t// out\n        /* \"UniswapV2/UniswapV2Pair.sol\":1120:1161  uint public override price1CumulativeLast */\n    tag_62:\n      sload(0x09)\n      dup2\n      jump\t// out\n        /* \"UniswapV2/UniswapV2Pair.sol\":4656:5892  function mint(address to) external override lock returns (uint liquidity) {... */\n    tag_65:\n        /* \"UniswapV2/UniswapV2Pair.sol\":4714:4728  uint liquidity */\n      0x00\n        /* \"UniswapV2/UniswapV2Pair.sol\":1357:1358  1 */\n      0x01\n        /* \"UniswapV2/UniswapV2Pair.sol\":1345:1353  unlocked */\n      sload(0x0b)\n        /* \"UniswapV2/UniswapV2Pair.sol\":1345:1358  unlocked == 1 */\n      eq\n        /* \"UniswapV2/UniswapV2Pair.sol\":1337:1380  require(unlocked == 1, 'UniswapV2: LOCKED') */\n      tag_159\n      jumpi\n      mload(0x40)\n      0x08c379a000000000000000000000000000000000000000000000000000000000\n      dup2\n      mstore\n      0x04\n      add\n      dup1\n      dup1\n      0x20\n      add\n      dup3\n      dup2\n      sub\n      dup3\n      mstore\n      0x11\n      dup2\n      mstore\n      0x20\n      add\n      dup1\n      0x556e697377617056323a204c4f434b4544000000000000000000000000000000\n      dup2\n      mstore\n      pop\n      0x20\n      add\n      swap2\n      pop\n      pop\n      mload(0x40)\n      dup1\n      swap2\n      sub\n      swap1\n      revert\n    tag_159:\n        /* \"UniswapV2/UniswapV2Pair.sol\":1401:1402  0 */\n      0x00\n        /* \"UniswapV2/UniswapV2Pair.sol\":1390:1398  unlocked */\n      0x0b\n        /* \"UniswapV2/UniswapV2Pair.sol\":1390:1402  unlocked = 0 */\n      dup2\n      swap1\n      sstore\n      pop\n        /* \"UniswapV2/UniswapV2Pair.sol\":4741:4758  uint112 _reserve0 */\n      0x00\n        /* \"UniswapV2/UniswapV2Pair.sol\":4760:4777  uint112 _reserve1 */\n      dup1\n        /* \"UniswapV2/UniswapV2Pair.sol\":4782:4795  getReserves() */\n      tag_161\n        /* \"UniswapV2/UniswapV2Pair.sol\":4782:4793  getReserves */\n      tag_43\n        /* \"UniswapV2/UniswapV2Pair.sol\":4782:4795  getReserves() */\n      jump\t// in\n    tag_161:\n        /* \"UniswapV2/UniswapV2Pair.sol\":4740:4795  (uint112 _reserve0, uint112 _reserve1,) = getReserves() */\n      pop\n      swap2\n      pop\n      swap2\n      pop\n        /* \"UniswapV2/UniswapV2Pair.sol\":4820:4833  uint balance0 */\n      0x00\n        /* \"UniswapV2/UniswapV2Pair.sol\":4843:4849  token0 */\n      0x05\n      0x00\n      swap1\n      sload\n      swap1\n      0x0100\n      exp\n      swap1\n      div\n      0xffffffffffffffffffffffffffffffffffffffff\n      and\n        /* \"UniswapV2/UniswapV2Pair.sol\":4836:4860  IERC20(token0).balanceOf */\n      0xffffffffffffffffffffffffffffffffffffffff\n      and\n      0x70a08231\n        /* \"UniswapV2/UniswapV2Pair.sol\":4869:4873  this */\n      address\n        /* \"UniswapV2/UniswapV2Pair.sol\":4836:4875  IERC20(token0).balanceOf(address(this)) */\n      mload(0x40)\n      dup3\n      0xffffffff\n      and\n      0xe0\n      shl\n      dup2\n      mstore\n      0x04\n      add\n      dup1\n      dup3\n      0xffffffffffffffffffffffffffffffffffffffff\n      and\n      0xffffffffffffffffffffffffffffffffffffffff\n      and\n      dup2\n      mstore\n      0x20\n      add\n      swap2\n      pop\n      pop\n      0x20\n      mload(0x40)\n      dup1\n      dup4\n      sub\n      dup2\n      dup7\n      dup1\n      extcodesize\n      iszero\n        /* \"--CODEGEN--\":5:14   */\n      dup1\n        /* \"--CODEGEN--\":2:4   */\n      iszero\n      tag_162\n      jumpi\n        /* \"--CODEGEN--\":27:28   */\n      0x00\n        /* \"--CODEGEN--\":24:25   */\n      dup1\n        /* \"--CODEGEN--\":17:29   */\n      revert\n        /* \"--CODEGEN--\":2:4   */\n    tag_162:\n        /* \"UniswapV2/UniswapV2Pair.sol\":4836:4875  IERC20(token0).balanceOf(address(this)) */\n      pop\n      gas\n      staticcall\n      iszero\n        /* \"--CODEGEN--\":8:17   */\n      dup1\n        /* \"--CODEGEN--\":5:7   */\n      iszero\n      tag_164\n      jumpi\n        /* \"--CODEGEN--\":45:61   */\n      returndatasize\n        /* \"--CODEGEN--\":42:43   */\n      0x00\n        /* \"--CODEGEN--\":39:40   */\n      dup1\n        /* \"--CODEGEN--\":24:62   */\n      returndatacopy\n        /* \"--CODEGEN--\":77:93   */\n      returndatasize\n        /* \"--CODEGEN--\":74:75   */\n      0x00\n        /* \"--CODEGEN--\":67:94   */\n      revert\n        /* \"--CODEGEN--\":5:7   */\n    tag_164:\n        /* \"UniswapV2/UniswapV2Pair.sol\":4836:4875  IERC20(token0).balanceOf(address(this)) */\n      pop\n      pop\n      pop\n      pop\n      mload(0x40)\n      returndatasize\n        /* \"--CODEGEN--\":15:17   */\n      0x20\n        /* \"--CODEGEN--\":10:13   */\n      dup2\n        /* \"--CODEGEN--\":7:18   */\n      lt\n        /* \"--CODEGEN--\":4:6   */\n      iszero\n      tag_165\n      jumpi\n        /* \"--CODEGEN--\":31:32   */\n      0x00\n        /* \"--CODEGEN--\":28:29   */\n      dup1\n        /* \"--CODEGEN--\":21:33   */\n      revert\n        /* \"--CODEGEN--\":4:6   */\n    tag_165:\n        /* \"UniswapV2/UniswapV2Pair.sol\":4836:4875  IERC20(token0).balanceOf(address(this)) */\n      dup2\n      add\n      swap1\n      dup1\n      dup1\n      mload\n      swap1\n      0x20\n      add\n      swap1\n      swap3\n      swap2\n      swap1\n      pop\n      pop\n      pop\n        /* \"UniswapV2/UniswapV2Pair.sol\":4820:4875  uint balance0 = IERC20(token0).balanceOf(address(this)) */\n      swap1\n      pop\n        /* \"UniswapV2/UniswapV2Pair.sol\":4885:4898  uint balance1 */\n      0x00\n        /* \"UniswapV2/UniswapV2Pair.sol\":4908:4914  token1 */\n      0x06\n      0x00\n      swap1\n      sload\n      swap1\n      0x0100\n      exp\n      swap1\n      div\n      0xffffffffffffffffffffffffffffffffffffffff\n      and\n        /* \"UniswapV2/UniswapV2Pair.sol\":4901:4925  IERC20(token1).balanceOf */\n      0xffffffffffffffffffffffffffffffffffffffff\n      and\n      0x70a08231\n        /* \"UniswapV2/UniswapV2Pair.sol\":4934:4938  this */\n      address\n        /* \"UniswapV2/UniswapV2Pair.sol\":4901:4940  IERC20(token1).balanceOf(address(this)) */\n      mload(0x40)\n      dup3\n      0xffffffff\n      and\n      0xe0\n      shl\n      dup2\n      mstore\n      0x04\n      add\n      dup1\n      dup3\n      0xffffffffffffffffffffffffffffffffffffffff\n      and\n      0xffffffffffffffffffffffffffffffffffffffff\n      and\n      dup2\n      mstore\n      0x20\n      add\n      swap2\n      pop\n      pop\n      0x20\n      mload(0x40)\n      dup1\n      dup4\n      sub\n      dup2\n      dup7\n      dup1\n      extcodesize\n      iszero\n        /* \"--CODEGEN--\":5:14   */\n      dup1\n        /* \"--CODEGEN--\":2:4   */\n      iszero\n      tag_166\n      jumpi\n        /* \"--CODEGEN--\":27:28   */\n      0x00\n        /* \"--CODEGEN--\":24:25   */\n      dup1\n        /* \"--CODEGEN--\":17:29   */\n      revert\n        /* \"--CODEGEN--\":2:4   */\n    tag_166:\n        /* \"UniswapV2/UniswapV2Pair.sol\":4901:4940  IERC20(token1).balanceOf(address(this)) */\n      pop\n      gas\n      staticcall\n      iszero\n        /* \"--CODEGEN--\":8:17   */\n      dup1\n        /* \"--CODEGEN--\":5:7   */\n      iszero\n      tag_168\n      jumpi\n        /* \"--CODEGEN--\":45:61   */\n      returndatasize\n        /* \"--CODEGEN--\":42:43   */\n      0x00\n        /* \"--CODEGEN--\":39:40   */\n      dup1\n        /* \"--CODEGEN--\":24:62   */\n      returndatacopy\n        /* \"--CODEGEN--\":77:93   */\n      returndatasize\n        /* \"--CODEGEN--\":74:75   */\n      0x00\n        /* \"--CODEGEN--\":67:94   */\n      revert\n        /* \"--CODEGEN--\":5:7   */\n    tag_168:\n        /* \"UniswapV2/UniswapV2Pair.sol\":4901:4940  IERC20(token1).balanceOf(address(this)) */\n      pop\n      pop\n      pop\n      pop\n      mload(0x40)\n      returndatasize\n        /* \"--CODEGEN--\":15:17   */\n      0x20\n        /* \"--CODEGEN--\":10:13   */\n      dup2\n        /* \"--CODEGEN--\":7:18   */\n      lt\n        /* \"--CODEGEN--\":4:6   */\n      iszero\n      tag_169\n      jumpi\n        /* \"--CODEGEN--\":31:32   */\n      0x00\n        /* \"--CODEGEN--\":28:29   */\n      dup1\n        /* \"--CODEGEN--\":21:33   */\n      revert\n        /* \"--CODEGEN--\":4:6   */\n    tag_169:\n        /* \"UniswapV2/UniswapV2Pair.sol\":4901:4940  IERC20(token1).balanceOf(address(this)) */\n      dup2\n      add\n      swap1\n      dup1\n      dup1\n      mload\n      swap1\n      0x20\n      add\n      swap1\n      swap3\n      swap2\n      swap1\n      pop\n      pop\n      pop\n        /* \"UniswapV2/UniswapV2Pair.sol\":4885:4940  uint balance1 = IERC20(token1).balanceOf(address(this)) */\n      swap1\n      pop\n        /* \"UniswapV2/UniswapV2Pair.sol\":4950:4962  uint amount0 */\n      0x00\n        /* \"UniswapV2/UniswapV2Pair.sol\":4965:4988  balance0.sub(_reserve0) */\n      tag_170\n        /* \"UniswapV2/UniswapV2Pair.sol\":4978:4987  _reserve0 */\n      dup6\n        /* \"UniswapV2/UniswapV2Pair.sol\":4965:4988  balance0.sub(_reserve0) */\n      0xffffffffffffffffffffffffffff\n      and\n        /* \"UniswapV2/UniswapV2Pair.sol\":4965:4973  balance0 */\n      dup5\n        /* \"UniswapV2/UniswapV2Pair.sol\":4965:4977  balance0.sub */\n      tag_137\n      swap1\n        /* \"UniswapV2/UniswapV2Pair.sol\":4965:4988  balance0.sub(_reserve0) */\n      swap2\n      swap1\n      0xffffffff\n      and\n      jump\t// in\n    tag_170:\n        /* \"UniswapV2/UniswapV2Pair.sol\":4950:4988  uint amount0 = balance0.sub(_reserve0) */\n      swap1\n      pop\n        /* \"UniswapV2/UniswapV2Pair.sol\":4998:5010  uint amount1 */\n      0x00\n        /* \"UniswapV2/UniswapV2Pair.sol\":5013:5036  balance1.sub(_reserve1) */\n      tag_171\n        /* \"UniswapV2/UniswapV2Pair.sol\":5026:5035  _reserve1 */\n      dup6\n        /* \"UniswapV2/UniswapV2Pair.sol\":5013:5036  balance1.sub(_reserve1) */\n      0xffffffffffffffffffffffffffff\n      and\n        /* \"UniswapV2/UniswapV2Pair.sol\":5013:5021  balance1 */\n      dup5\n        /* \"UniswapV2/UniswapV2Pair.sol\":5013:5025  balance1.sub */\n      tag_137\n      swap1\n        /* \"UniswapV2/UniswapV2Pair.sol\":5013:5036  balance1.sub(_reserve1) */\n      swap2\n      swap1\n      0xffffffff\n      and\n      jump\t// in\n    tag_171:\n        /* \"UniswapV2/UniswapV2Pair.sol\":4998:5036  uint amount1 = balance1.sub(_reserve1) */\n      swap1\n      pop\n        /* \"UniswapV2/UniswapV2Pair.sol\":5047:5057  bool feeOn */\n      0x00\n        /* \"UniswapV2/UniswapV2Pair.sol\":5060:5090  _mintFee(_reserve0, _reserve1) */\n      tag_172\n        /* \"UniswapV2/UniswapV2Pair.sol\":5069:5078  _reserve0 */\n      dup8\n        /* \"UniswapV2/UniswapV2Pair.sol\":5080:5089  _reserve1 */\n      dup8\n        /* \"UniswapV2/UniswapV2Pair.sol\":5060:5068  _mintFee */\n      tag_173\n        /* \"UniswapV2/UniswapV2Pair.sol\":5060:5090  _mintFee(_reserve0, _reserve1) */\n      jump\t// in\n    tag_172:\n        /* \"UniswapV2/UniswapV2Pair.sol\":5047:5090  bool feeOn = _mintFee(_reserve0, _reserve1) */\n      swap1\n      pop\n        /* \"UniswapV2/UniswapV2Pair.sol\":5100:5117  uint _totalSupply */\n      0x00\n        /* \"UniswapV2/UniswapV2Pair.sol\":5120:5131  totalSupply */\n      dup1\n      sload\n        /* \"UniswapV2/UniswapV2Pair.sol\":5100:5131  uint _totalSupply = totalSupply */\n      swap1\n      pop\n        /* \"UniswapV2/UniswapV2Pair.sol\":5239:5240  0 */\n      0x00\n        /* \"UniswapV2/UniswapV2Pair.sol\":5223:5235  _totalSupply */\n      dup2\n        /* \"UniswapV2/UniswapV2Pair.sol\":5223:5240  _totalSupply == 0 */\n      eq\n        /* \"UniswapV2/UniswapV2Pair.sol\":5219:5574  if (_totalSupply == 0) {... */\n      iszero\n      tag_174\n      jumpi\n        /* \"UniswapV2/UniswapV2Pair.sol\":5268:5326  SafeMath.sqrt(amount0.mul(amount1)).sub(MINIMUM_LIQUIDITY) */\n      tag_175\n        /* \"UniswapV2/UniswapV2Pair.sol\":559:564  10**3 */\n      0x03e8\n        /* \"UniswapV2/UniswapV2Pair.sol\":5268:5303  SafeMath.sqrt(amount0.mul(amount1)) */\n      tag_176\n        /* \"UniswapV2/UniswapV2Pair.sol\":5282:5302  amount0.mul(amount1) */\n      tag_177\n        /* \"UniswapV2/UniswapV2Pair.sol\":5294:5301  amount1 */\n      dup7\n        /* \"UniswapV2/UniswapV2Pair.sol\":5282:5289  amount0 */\n      dup9\n        /* \"UniswapV2/UniswapV2Pair.sol\":5282:5293  amount0.mul */\n      tag_135\n      swap1\n        /* \"UniswapV2/UniswapV2Pair.sol\":5282:5302  amount0.mul(amount1) */\n      swap2\n      swap1\n      0xffffffff\n      and\n      jump\t// in\n    tag_177:\n        /* \"UniswapV2/UniswapV2Pair.sol\":5268:5281  SafeMath.sqrt */\n      tag_178\n        /* \"UniswapV2/UniswapV2Pair.sol\":5268:5303  SafeMath.sqrt(amount0.mul(amount1)) */\n      jump\t// in\n    tag_176:\n        /* \"UniswapV2/UniswapV2Pair.sol\":5268:5307  SafeMath.sqrt(amount0.mul(amount1)).sub */\n      tag_137\n      swap1\n        /* \"UniswapV2/UniswapV2Pair.sol\":5268:5326  SafeMath.sqrt(amount0.mul(amount1)).sub(MINIMUM_LIQUIDITY) */\n      swap2\n      swap1\n      0xffffffff\n      and\n      jump\t// in\n    tag_175:\n        /* \"UniswapV2/UniswapV2Pair.sol\":5256:5326  liquidity = SafeMath.sqrt(amount0.mul(amount1)).sub(MINIMUM_LIQUIDITY) */\n      swap9\n      pop\n        /* \"UniswapV2/UniswapV2Pair.sol\":5339:5375  _mint(address(0), MINIMUM_LIQUIDITY) */\n      tag_179\n        /* \"UniswapV2/UniswapV2Pair.sol\":5353:5354  0 */\n      0x00\n        /* \"UniswapV2/UniswapV2Pair.sol\":559:564  10**3 */\n      0x03e8\n        /* \"UniswapV2/UniswapV2Pair.sol\":5339:5344  _mint */\n      tag_180\n        /* \"UniswapV2/UniswapV2Pair.sol\":5339:5375  _mint(address(0), MINIMUM_LIQUIDITY) */\n      jump\t// in\n    tag_179:\n        /* \"UniswapV2/UniswapV2Pair.sol\":5219:5574  if (_totalSupply == 0) {... */\n      jump(tag_181)\n    tag_174:\n        /* \"UniswapV2/UniswapV2Pair.sol\":5473:5563  SafeMath.min(amount0.mul(_totalSupply) / _reserve0, amount1.mul(_totalSupply) / _reserve1) */\n      tag_182\n        /* \"UniswapV2/UniswapV2Pair.sol\":5514:5523  _reserve0 */\n      dup9\n        /* \"UniswapV2/UniswapV2Pair.sol\":5486:5523  amount0.mul(_totalSupply) / _reserve0 */\n      0xffffffffffffffffffffffffffff\n      and\n        /* \"UniswapV2/UniswapV2Pair.sol\":5486:5511  amount0.mul(_totalSupply) */\n      tag_183\n        /* \"UniswapV2/UniswapV2Pair.sol\":5498:5510  _totalSupply */\n      dup4\n        /* \"UniswapV2/UniswapV2Pair.sol\":5486:5493  amount0 */\n      dup8\n        /* \"UniswapV2/UniswapV2Pair.sol\":5486:5497  amount0.mul */\n      tag_135\n      swap1\n        /* \"UniswapV2/UniswapV2Pair.sol\":5486:5511  amount0.mul(_totalSupply) */\n      swap2\n      swap1\n      0xffffffff\n      and\n      jump\t// in\n    tag_183:\n        /* \"UniswapV2/UniswapV2Pair.sol\":5486:5523  amount0.mul(_totalSupply) / _reserve0 */\n      dup2\n      tag_184\n      jumpi\n      invalid\n    tag_184:\n      div\n        /* \"UniswapV2/UniswapV2Pair.sol\":5553:5562  _reserve1 */\n      dup9\n        /* \"UniswapV2/UniswapV2Pair.sol\":5525:5562  amount1.mul(_totalSupply) / _reserve1 */\n      0xffffffffffffffffffffffffffff\n      and\n        /* \"UniswapV2/UniswapV2Pair.sol\":5525:5550  amount1.mul(_totalSupply) */\n      tag_185\n        /* \"UniswapV2/UniswapV2Pair.sol\":5537:5549  _totalSupply */\n      dup5\n        /* \"UniswapV2/UniswapV2Pair.sol\":5525:5532  amount1 */\n      dup8\n        /* \"UniswapV2/UniswapV2Pair.sol\":5525:5536  amount1.mul */\n      tag_135\n      swap1\n        /* \"UniswapV2/UniswapV2Pair.sol\":5525:5550  amount1.mul(_totalSupply) */\n      swap2\n      swap1\n      0xffffffff\n      and\n      jump\t// in\n    tag_185:\n        /* \"UniswapV2/UniswapV2Pair.sol\":5525:5562  amount1.mul(_totalSupply) / _reserve1 */\n      dup2\n      tag_186\n      jumpi\n      invalid\n    tag_186:\n      div\n        /* \"UniswapV2/UniswapV2Pair.sol\":5473:5485  SafeMath.min */\n      tag_187\n        /* \"UniswapV2/UniswapV2Pair.sol\":5473:5563  SafeMath.min(amount0.mul(_totalSupply) / _reserve0, amount1.mul(_totalSupply) / _reserve1) */\n      jump\t// in\n    tag_182:\n        /* \"UniswapV2/UniswapV2Pair.sol\":5461:5563  liquidity = SafeMath.min(amount0.mul(_totalSupply) / _reserve0, amount1.mul(_totalSupply) / _reserve1) */\n      swap9\n      pop\n        /* \"UniswapV2/UniswapV2Pair.sol\":5219:5574  if (_totalSupply == 0) {... */\n    tag_181:\n        /* \"UniswapV2/UniswapV2Pair.sol\":5603:5604  0 */\n      0x00\n        /* \"UniswapV2/UniswapV2Pair.sol\":5591:5600  liquidity */\n      dup10\n        /* \"UniswapV2/UniswapV2Pair.sol\":5591:5604  liquidity > 0 */\n      gt\n        /* \"UniswapV2/UniswapV2Pair.sol\":5583:5649  require(liquidity > 0, 'UniswapV2: INSUFFICIENT_LIQUIDITY_MINTED') */\n      tag_188\n      jumpi\n      mload(0x40)\n      0x08c379a000000000000000000000000000000000000000000000000000000000\n      dup2\n      mstore\n      0x04\n      add\n      dup1\n      dup1\n      0x20\n      add\n      dup3\n      dup2\n      sub\n      dup3\n      mstore\n      0x28\n      dup2\n      mstore\n      0x20\n      add\n      dup1\n      data_6591c9f5bf1fefaad109b76a20e25c857b696080c952191f86220f001a83663e\n      0x28\n      swap2\n      codecopy\n      0x40\n      add\n      swap2\n      pop\n      pop\n      mload(0x40)\n      dup1\n      swap2\n      sub\n      swap1\n      revert\n    tag_188:\n        /* \"UniswapV2/UniswapV2Pair.sol\":5659:5679  _mint(to, liquidity) */\n      tag_189\n        /* \"UniswapV2/UniswapV2Pair.sol\":5665:5667  to */\n      dup11\n        /* \"UniswapV2/UniswapV2Pair.sol\":5669:5678  liquidity */\n      dup11\n        /* \"UniswapV2/UniswapV2Pair.sol\":5659:5664  _mint */\n      tag_180\n        /* \"UniswapV2/UniswapV2Pair.sol\":5659:5679  _mint(to, liquidity) */\n      jump\t// in\n    tag_189:\n        /* \"UniswapV2/UniswapV2Pair.sol\":5690:5739  _update(balance0, balance1, _reserve0, _reserve1) */\n      tag_190\n        /* \"UniswapV2/UniswapV2Pair.sol\":5698:5706  balance0 */\n      dup7\n        /* \"UniswapV2/UniswapV2Pair.sol\":5708:5716  balance1 */\n      dup7\n        /* \"UniswapV2/UniswapV2Pair.sol\":5718:5727  _reserve0 */\n      dup11\n        /* \"UniswapV2/UniswapV2Pair.sol\":5729:5738  _reserve1 */\n      dup11\n        /* \"UniswapV2/UniswapV2Pair.sol\":5690:5697  _update */\n      tag_146\n        /* \"UniswapV2/UniswapV2Pair.sol\":5690:5739  _update(balance0, balance1, _reserve0, _reserve1) */\n      jump\t// in\n    tag_190:\n        /* \"UniswapV2/UniswapV2Pair.sol\":5753:5758  feeOn */\n      dup2\n        /* \"UniswapV2/UniswapV2Pair.sol\":5749:5796  if (feeOn) kLast = uint(reserve0).mul(reserve1) */\n      iszero\n      tag_191\n      jumpi\n        /* \"UniswapV2/UniswapV2Pair.sol\":5768:5796  uint(reserve0).mul(reserve1) */\n      tag_192\n        /* \"UniswapV2/UniswapV2Pair.sol\":5787:5795  reserve1 */\n      0x07\n      0x0e\n      swap1\n      sload\n      swap1\n      0x0100\n      exp\n      swap1\n      div\n      0xffffffffffffffffffffffffffff\n      and\n        /* \"UniswapV2/UniswapV2Pair.sol\":5768:5796  uint(reserve0).mul(reserve1) */\n      0xffffffffffffffffffffffffffff\n      and\n        /* \"UniswapV2/UniswapV2Pair.sol\":5773:5781  reserve0 */\n      0x07\n      0x00\n      swap1\n      sload\n      swap1\n      0x0100\n      exp\n      swap1\n      div\n      0xffffffffffffffffffffffffffff\n      and\n        /* \"UniswapV2/UniswapV2Pair.sol\":5768:5782  uint(reserve0) */\n      0xffffffffffffffffffffffffffff\n      and\n        /* \"UniswapV2/UniswapV2Pair.sol\":5768:5786  uint(reserve0).mul */\n      tag_135\n      swap1\n        /* \"UniswapV2/UniswapV2Pair.sol\":5768:5796  uint(reserve0).mul(reserve1) */\n      swap2\n      swap1\n      0xffffffff\n      and\n      jump\t// in\n    tag_192:\n        /* \"UniswapV2/UniswapV2Pair.sol\":5760:5765  kLast */\n      0x0a\n        /* \"UniswapV2/UniswapV2Pair.sol\":5760:5796  kLast = uint(reserve0).mul(reserve1) */\n      dup2\n      swap1\n      sstore\n      pop\n        /* \"UniswapV2/UniswapV2Pair.sol\":5749:5796  if (feeOn) kLast = uint(reserve0).mul(reserve1) */\n    tag_191:\n        /* \"UniswapV2/UniswapV2Pair.sol\":5856:5866  msg.sender */\n      caller\n        /* \"UniswapV2/UniswapV2Pair.sol\":5851:5885  Mint(msg.sender, amount0, amount1) */\n      0xffffffffffffffffffffffffffffffffffffffff\n      and\n      0x4c209b5fc8ad50758f13e2e1088ba56a560dff690a1c6fef26394f4c03821c4f\n        /* \"UniswapV2/UniswapV2Pair.sol\":5868:5875  amount0 */\n      dup6\n        /* \"UniswapV2/UniswapV2Pair.sol\":5877:5884  amount1 */\n      dup6\n        /* \"UniswapV2/UniswapV2Pair.sol\":5851:5885  Mint(msg.sender, amount0, amount1) */\n      mload(0x40)\n      dup1\n      dup4\n      dup2\n      mstore\n      0x20\n      add\n      dup3\n      dup2\n      mstore\n      0x20\n      add\n      swap3\n      pop\n      pop\n      pop\n      mload(0x40)\n      dup1\n      swap2\n      sub\n      swap1\n      log2\n        /* \"UniswapV2/UniswapV2Pair.sol\":1412:1413  _ */\n      pop\n      pop\n      pop\n      pop\n      pop\n      pop\n      pop\n      pop\n        /* \"UniswapV2/UniswapV2Pair.sol\":1434:1435  1 */\n      0x01\n        /* \"UniswapV2/UniswapV2Pair.sol\":1423:1431  unlocked */\n      0x0b\n        /* \"UniswapV2/UniswapV2Pair.sol\":1423:1435  unlocked = 1 */\n      dup2\n      swap1\n      sstore\n      pop\n        /* \"UniswapV2/UniswapV2Pair.sol\":4656:5892  function mint(address to) external override lock returns (uint liquidity) {... */\n      swap2\n      swap1\n      pop\n      jump\t// out\n        /* \"UniswapV2/UniswapV2ERC20.sol\":383:433  mapping(address => uint) public override balanceOf */\n    tag_68:\n      mstore(0x20, 0x01)\n      dup1\n      0x00\n      mstore\n      keccak256(0x00, 0x40)\n      0x00\n      swap2\n      pop\n      swap1\n      pop\n      sload\n      dup2\n      jump\t// out\n        /* \"UniswapV2/UniswapV2Pair.sol\":1167:1193  uint public override kLast */\n    tag_70:\n      sload(0x0a)\n      dup2\n      jump\t// out\n        /* \"UniswapV2/UniswapV2ERC20.sol\":515:553  mapping(address => uint) public nonces */\n    tag_73:\n      mstore(0x20, 0x03)\n      dup1\n      0x00\n      mstore\n      keccak256(0x00, 0x40)\n      0x00\n      swap2\n      pop\n      swap1\n      pop\n      sload\n      dup2\n      jump\t// out\n        /* \"UniswapV2/UniswapV2Pair.sol\":6001:7453  function burn(address to) external override lock returns (uint amount0, uint amount1) {... */\n    tag_76:\n        /* \"UniswapV2/UniswapV2Pair.sol\":6059:6071  uint amount0 */\n      0x00\n        /* \"UniswapV2/UniswapV2Pair.sol\":6073:6085  uint amount1 */\n      dup1\n        /* \"UniswapV2/UniswapV2Pair.sol\":1357:1358  1 */\n      0x01\n        /* \"UniswapV2/UniswapV2Pair.sol\":1345:1353  unlocked */\n      sload(0x0b)\n        /* \"UniswapV2/UniswapV2Pair.sol\":1345:1358  unlocked == 1 */\n      eq\n        /* \"UniswapV2/UniswapV2Pair.sol\":1337:1380  require(unlocked == 1, 'UniswapV2: LOCKED') */\n      tag_194\n      jumpi\n      mload(0x40)\n      0x08c379a000000000000000000000000000000000000000000000000000000000\n      dup2\n      mstore\n      0x04\n      add\n      dup1\n      dup1\n      0x20\n      add\n      dup3\n      dup2\n      sub\n      dup3\n      mstore\n      0x11\n      dup2\n      mstore\n      0x20\n      add\n      dup1\n      0x556e697377617056323a204c4f434b4544000000000000000000000000000000\n      dup2\n      mstore\n      pop\n      0x20\n      add\n      swap2\n      pop\n      pop\n      mload(0x40)\n      dup1\n      swap2\n      sub\n      swap1\n      revert\n    tag_194:\n        /* \"UniswapV2/UniswapV2Pair.sol\":1401:1402  0 */\n      0x00\n        /* \"UniswapV2/UniswapV2Pair.sol\":1390:1398  unlocked */\n      0x0b\n        /* \"UniswapV2/UniswapV2Pair.sol\":1390:1402  unlocked = 0 */\n      dup2\n      swap1\n      sstore\n      pop\n        /* \"UniswapV2/UniswapV2Pair.sol\":6098:6115  uint112 _reserve0 */\n      0x00\n        /* \"UniswapV2/UniswapV2Pair.sol\":6117:6134  uint112 _reserve1 */\n      dup1\n        /* \"UniswapV2/UniswapV2Pair.sol\":6139:6152  getReserves() */\n      tag_196\n        /* \"UniswapV2/UniswapV2Pair.sol\":6139:6150  getReserves */\n      tag_43\n        /* \"UniswapV2/UniswapV2Pair.sol\":6139:6152  getReserves() */\n      jump\t// in\n    tag_196:\n        /* \"UniswapV2/UniswapV2Pair.sol\":6097:6152  (uint112 _reserve0, uint112 _reserve1,) = getReserves() */\n      pop\n      swap2\n      pop\n      swap2\n      pop\n        /* \"UniswapV2/UniswapV2Pair.sol\":6177:6192  address _token0 */\n      0x00\n        /* \"UniswapV2/UniswapV2Pair.sol\":6195:6201  token0 */\n      0x05\n      0x00\n      swap1\n      sload\n      swap1\n      0x0100\n      exp\n      swap1\n      div\n      0xffffffffffffffffffffffffffffffffffffffff\n      and\n        /* \"UniswapV2/UniswapV2Pair.sol\":6177:6201  address _token0 = token0 */\n      swap1\n      pop\n        /* \"UniswapV2/UniswapV2Pair.sol\":6257:6272  address _token1 */\n      0x00\n        /* \"UniswapV2/UniswapV2Pair.sol\":6275:6281  token1 */\n      0x06\n      0x00\n      swap1\n      sload\n      swap1\n      0x0100\n      exp\n      swap1\n      div\n      0xffffffffffffffffffffffffffffffffffffffff\n      and\n        /* \"UniswapV2/UniswapV2Pair.sol\":6257:6281  address _token1 = token1 */\n      swap1\n      pop\n        /* \"UniswapV2/UniswapV2Pair.sol\":6337:6350  uint balance0 */\n      0x00\n        /* \"UniswapV2/UniswapV2Pair.sol\":6360:6367  _token0 */\n      dup3\n        /* \"UniswapV2/UniswapV2Pair.sol\":6353:6378  IERC20(_token0).balanceOf */\n      0xffffffffffffffffffffffffffffffffffffffff\n      and\n      0x70a08231\n        /* \"UniswapV2/UniswapV2Pair.sol\":6387:6391  this */\n      address\n        /* \"UniswapV2/UniswapV2Pair.sol\":6353:6393  IERC20(_token0).balanceOf(address(this)) */\n      mload(0x40)\n      dup3\n      0xffffffff\n      and\n      0xe0\n      shl\n      dup2\n      mstore\n      0x04\n      add\n      dup1\n      dup3\n      0xffffffffffffffffffffffffffffffffffffffff\n      and\n      0xffffffffffffffffffffffffffffffffffffffff\n      and\n      dup2\n      mstore\n      0x20\n      add\n      swap2\n      pop\n      pop\n      0x20\n      mload(0x40)\n      dup1\n      dup4\n      sub\n      dup2\n      dup7\n      dup1\n      extcodesize\n      iszero\n        /* \"--CODEGEN--\":5:14   */\n      dup1\n        /* \"--CODEGEN--\":2:4   */\n      iszero\n      tag_197\n      jumpi\n        /* \"--CODEGEN--\":27:28   */\n      0x00\n        /* \"--CODEGEN--\":24:25   */\n      dup1\n        /* \"--CODEGEN--\":17:29   */\n      revert\n        /* \"--CODEGEN--\":2:4   */\n    tag_197:\n        /* \"UniswapV2/UniswapV2Pair.sol\":6353:6393  IERC20(_token0).balanceOf(address(this)) */\n      pop\n      gas\n      staticcall\n      iszero\n        /* \"--CODEGEN--\":8:17   */\n      dup1\n        /* \"--CODEGEN--\":5:7   */\n      iszero\n      tag_199\n      jumpi\n        /* \"--CODEGEN--\":45:61   */\n      returndatasize\n        /* \"--CODEGEN--\":42:43   */\n      0x00\n        /* \"--CODEGEN--\":39:40   */\n      dup1\n        /* \"--CODEGEN--\":24:62   */\n      returndatacopy\n        /* \"--CODEGEN--\":77:93   */\n      returndatasize\n        /* \"--CODEGEN--\":74:75   */\n      0x00\n        /* \"--CODEGEN--\":67:94   */\n      revert\n        /* \"--CODEGEN--\":5:7   */\n    tag_199:\n        /* \"UniswapV2/UniswapV2Pair.sol\":6353:6393  IERC20(_token0).balanceOf(address(this)) */\n      pop\n      pop\n      pop\n      pop\n      mload(0x40)\n      returndatasize\n        /* \"--CODEGEN--\":15:17   */\n      0x20\n        /* \"--CODEGEN--\":10:13   */\n      dup2\n        /* \"--CODEGEN--\":7:18   */\n      lt\n        /* \"--CODEGEN--\":4:6   */\n      iszero\n      tag_200\n      jumpi\n        /* \"--CODEGEN--\":31:32   */\n      0x00\n        /* \"--CODEGEN--\":28:29   */\n      dup1\n        /* \"--CODEGEN--\":21:33   */\n      revert\n        /* \"--CODEGEN--\":4:6   */\n    tag_200:\n        /* \"UniswapV2/UniswapV2Pair.sol\":6353:6393  IERC20(_token0).balanceOf(address(this)) */\n      dup2\n      add\n      swap1\n      dup1\n      dup1\n      mload\n      swap1\n      0x20\n      add\n      swap1\n      swap3\n      swap2\n      swap1\n      pop\n      pop\n      pop\n        /* \"UniswapV2/UniswapV2Pair.sol\":6337:6393  uint balance0 = IERC20(_token0).balanceOf(address(this)) */\n      swap1\n      pop\n        /* \"UniswapV2/UniswapV2Pair.sol\":6403:6416  uint balance1 */\n      0x00\n        /* \"UniswapV2/UniswapV2Pair.sol\":6426:6433  _token1 */\n      dup3\n        /* \"UniswapV2/UniswapV2Pair.sol\":6419:6444  IERC20(_token1).balanceOf */\n      0xffffffffffffffffffffffffffffffffffffffff\n      and\n      0x70a08231\n        /* \"UniswapV2/UniswapV2Pair.sol\":6453:6457  this */\n      address\n        /* \"UniswapV2/UniswapV2Pair.sol\":6419:6459  IERC20(_token1).balanceOf(address(this)) */\n      mload(0x40)\n      dup3\n      0xffffffff\n      and\n      0xe0\n      shl\n      dup2\n      mstore\n      0x04\n      add\n      dup1\n      dup3\n      0xffffffffffffffffffffffffffffffffffffffff\n      and\n      0xffffffffffffffffffffffffffffffffffffffff\n      and\n      dup2\n      mstore\n      0x20\n      add\n      swap2\n      pop\n      pop\n      0x20\n      mload(0x40)\n      dup1\n      dup4\n      sub\n      dup2\n      dup7\n      dup1\n      extcodesize\n      iszero\n        /* \"--CODEGEN--\":5:14   */\n      dup1\n        /* \"--CODEGEN--\":2:4   */\n      iszero\n      tag_201\n      jumpi\n        /* \"--CODEGEN--\":27:28   */\n      0x00\n        /* \"--CODEGEN--\":24:25   */\n      dup1\n        /* \"--CODEGEN--\":17:29   */\n      revert\n        /* \"--CODEGEN--\":2:4   */\n    tag_201:\n        /* \"UniswapV2/UniswapV2Pair.sol\":6419:6459  IERC20(_token1).balanceOf(address(this)) */\n      pop\n      gas\n      staticcall\n      iszero\n        /* \"--CODEGEN--\":8:17   */\n      dup1\n        /* \"--CODEGEN--\":5:7   */\n      iszero\n      tag_203\n      jumpi\n        /* \"--CODEGEN--\":45:61   */\n      returndatasize\n        /* \"--CODEGEN--\":42:43   */\n      0x00\n        /* \"--CODEGEN--\":39:40   */\n      dup1\n        /* \"--CODEGEN--\":24:62   */\n      returndatacopy\n        /* \"--CODEGEN--\":77:93   */\n      returndatasize\n        /* \"--CODEGEN--\":74:75   */\n      0x00\n        /* \"--CODEGEN--\":67:94   */\n      revert\n        /* \"--CODEGEN--\":5:7   */\n    tag_203:\n        /* \"UniswapV2/UniswapV2Pair.sol\":6419:6459  IERC20(_token1).balanceOf(address(this)) */\n      pop\n      pop\n      pop\n      pop\n      mload(0x40)\n      returndatasize\n        /* \"--CODEGEN--\":15:17   */\n      0x20\n        /* \"--CODEGEN--\":10:13   */\n      dup2\n        /* \"--CODEGEN--\":7:18   */\n      lt\n        /* \"--CODEGEN--\":4:6   */\n      iszero\n      tag_204\n      jumpi\n        /* \"--CODEGEN--\":31:32   */\n      0x00\n        /* \"--CODEGEN--\":28:29   */\n      dup1\n        /* \"--CODEGEN--\":21:33   */\n      revert\n        /* \"--CODEGEN--\":4:6   */\n    tag_204:\n        /* \"UniswapV2/UniswapV2Pair.sol\":6419:6459  IERC20(_token1).balanceOf(address(this)) */\n      dup2\n      add\n      swap1\n      dup1\n      dup1\n      mload\n      swap1\n      0x20\n      add\n      swap1\n      swap3\n      swap2\n      swap1\n      pop\n      pop\n      pop\n        /* \"UniswapV2/UniswapV2Pair.sol\":6403:6459  uint balance1 = IERC20(_token1).balanceOf(address(this)) */\n      swap1\n      pop\n        /* \"UniswapV2/UniswapV2Pair.sol\":6469:6483  uint liquidity */\n      0x00\n        /* \"UniswapV2/UniswapV2Pair.sol\":6486:6495  balanceOf */\n      0x01\n        /* \"UniswapV2/UniswapV2Pair.sol\":6486:6510  balanceOf[address(this)] */\n      0x00\n        /* \"UniswapV2/UniswapV2Pair.sol\":6504:6508  this */\n      address\n        /* \"UniswapV2/UniswapV2Pair.sol\":6486:6510  balanceOf[address(this)] */\n      0xffffffffffffffffffffffffffffffffffffffff\n      and\n      0xffffffffffffffffffffffffffffffffffffffff\n      and\n      dup2\n      mstore\n      0x20\n      add\n      swap1\n      dup2\n      mstore\n      0x20\n      add\n      0x00\n      keccak256\n      sload\n        /* \"UniswapV2/UniswapV2Pair.sol\":6469:6510  uint liquidity = balanceOf[address(this)] */\n      swap1\n      pop\n        /* \"UniswapV2/UniswapV2Pair.sol\":6521:6531  bool feeOn */\n      0x00\n        /* \"UniswapV2/UniswapV2Pair.sol\":6534:6564  _mintFee(_reserve0, _reserve1) */\n      tag_205\n        /* \"UniswapV2/UniswapV2Pair.sol\":6543:6552  _reserve0 */\n      dup9\n        /* \"UniswapV2/UniswapV2Pair.sol\":6554:6563  _reserve1 */\n      dup9\n        /* \"UniswapV2/UniswapV2Pair.sol\":6534:6542  _mintFee */\n      tag_173\n        /* \"UniswapV2/UniswapV2Pair.sol\":6534:6564  _mintFee(_reserve0, _reserve1) */\n      jump\t// in\n    tag_205:\n        /* \"UniswapV2/UniswapV2Pair.sol\":6521:6564  bool feeOn = _mintFee(_reserve0, _reserve1) */\n      swap1\n      pop\n        /* \"UniswapV2/UniswapV2Pair.sol\":6574:6591  uint _totalSupply */\n      0x00\n        /* \"UniswapV2/UniswapV2Pair.sol\":6594:6605  totalSupply */\n      dup1\n      sload\n        /* \"UniswapV2/UniswapV2Pair.sol\":6574:6605  uint _totalSupply = totalSupply */\n      swap1\n      pop\n        /* \"UniswapV2/UniswapV2Pair.sol\":6729:6741  _totalSupply */\n      dup1\n        /* \"UniswapV2/UniswapV2Pair.sol\":6703:6726  liquidity.mul(balance0) */\n      tag_206\n        /* \"UniswapV2/UniswapV2Pair.sol\":6717:6725  balance0 */\n      dup7\n        /* \"UniswapV2/UniswapV2Pair.sol\":6703:6712  liquidity */\n      dup6\n        /* \"UniswapV2/UniswapV2Pair.sol\":6703:6716  liquidity.mul */\n      tag_135\n      swap1\n        /* \"UniswapV2/UniswapV2Pair.sol\":6703:6726  liquidity.mul(balance0) */\n      swap2\n      swap1\n      0xffffffff\n      and\n      jump\t// in\n    tag_206:\n        /* \"UniswapV2/UniswapV2Pair.sol\":6703:6741  liquidity.mul(balance0) / _totalSupply */\n      dup2\n      tag_207\n      jumpi\n      invalid\n    tag_207:\n      div\n        /* \"UniswapV2/UniswapV2Pair.sol\":6693:6741  amount0 = liquidity.mul(balance0) / _totalSupply */\n      swap11\n      pop\n        /* \"UniswapV2/UniswapV2Pair.sol\":6835:6847  _totalSupply */\n      dup1\n        /* \"UniswapV2/UniswapV2Pair.sol\":6809:6832  liquidity.mul(balance1) */\n      tag_208\n        /* \"UniswapV2/UniswapV2Pair.sol\":6823:6831  balance1 */\n      dup6\n        /* \"UniswapV2/UniswapV2Pair.sol\":6809:6818  liquidity */\n      dup6\n        /* \"UniswapV2/UniswapV2Pair.sol\":6809:6822  liquidity.mul */\n      tag_135\n      swap1\n        /* \"UniswapV2/UniswapV2Pair.sol\":6809:6832  liquidity.mul(balance1) */\n      swap2\n      swap1\n      0xffffffff\n      and\n      jump\t// in\n    tag_208:\n        /* \"UniswapV2/UniswapV2Pair.sol\":6809:6847  liquidity.mul(balance1) / _totalSupply */\n      dup2\n      tag_209\n      jumpi\n      invalid\n    tag_209:\n      div\n        /* \"UniswapV2/UniswapV2Pair.sol\":6799:6847  amount1 = liquidity.mul(balance1) / _totalSupply */\n      swap10\n      pop\n        /* \"UniswapV2/UniswapV2Pair.sol\":6923:6924  0 */\n      0x00\n        /* \"UniswapV2/UniswapV2Pair.sol\":6913:6920  amount0 */\n      dup12\n        /* \"UniswapV2/UniswapV2Pair.sol\":6913:6924  amount0 > 0 */\n      gt\n        /* \"UniswapV2/UniswapV2Pair.sol\":6913:6939  amount0 > 0 && amount1 > 0 */\n      dup1\n      iszero\n      tag_210\n      jumpi\n      pop\n        /* \"UniswapV2/UniswapV2Pair.sol\":6938:6939  0 */\n      0x00\n        /* \"UniswapV2/UniswapV2Pair.sol\":6928:6935  amount1 */\n      dup11\n        /* \"UniswapV2/UniswapV2Pair.sol\":6928:6939  amount1 > 0 */\n      gt\n        /* \"UniswapV2/UniswapV2Pair.sol\":6913:6939  amount0 > 0 && amount1 > 0 */\n    tag_210:\n        /* \"UniswapV2/UniswapV2Pair.sol\":6905:6984  require(amount0 > 0 && amount1 > 0, 'UniswapV2: INSUFFICIENT_LIQUIDITY_BURNED') */\n      tag_211\n      jumpi\n      mload(0x40)\n      0x08c379a000000000000000000000000000000000000000000000000000000000\n      dup2\n      mstore\n      0x04\n      add\n      dup1\n      dup1\n      0x20\n      add\n      dup3\n      dup2\n      sub\n      dup3\n      mstore\n      0x28\n      dup2\n      mstore\n      0x20\n      add\n      dup1\n      data_57ebfb4dd8b5082cdba0f23c17077e3b0ecb9782a51e0e9a15e9bc8c4b30c562\n      0x28\n      swap2\n      codecopy\n      0x40\n      add\n      swap2\n      pop\n      pop\n      mload(0x40)\n      dup1\n      swap2\n      sub\n      swap1\n      revert\n    tag_211:\n        /* \"UniswapV2/UniswapV2Pair.sol\":6994:7025  _burn(address(this), liquidity) */\n      tag_212\n        /* \"UniswapV2/UniswapV2Pair.sol\":7008:7012  this */\n      address\n        /* \"UniswapV2/UniswapV2Pair.sol\":7015:7024  liquidity */\n      dup5\n        /* \"UniswapV2/UniswapV2Pair.sol\":6994:6999  _burn */\n      tag_213\n        /* \"UniswapV2/UniswapV2Pair.sol\":6994:7025  _burn(address(this), liquidity) */\n      jump\t// in\n    tag_212:\n        /* \"UniswapV2/UniswapV2Pair.sol\":7035:7070  _safeTransfer(_token0, to, amount0) */\n      tag_214\n        /* \"UniswapV2/UniswapV2Pair.sol\":7049:7056  _token0 */\n      dup8\n        /* \"UniswapV2/UniswapV2Pair.sol\":7058:7060  to */\n      dup14\n        /* \"UniswapV2/UniswapV2Pair.sol\":7062:7069  amount0 */\n      dup14\n        /* \"UniswapV2/UniswapV2Pair.sol\":7035:7048  _safeTransfer */\n      tag_112\n        /* \"UniswapV2/UniswapV2Pair.sol\":7035:7070  _safeTransfer(_token0, to, amount0) */\n      jump\t// in\n    tag_214:\n        /* \"UniswapV2/UniswapV2Pair.sol\":7080:7115  _safeTransfer(_token1, to, amount1) */\n      tag_215\n        /* \"UniswapV2/UniswapV2Pair.sol\":7094:7101  _token1 */\n      dup7\n        /* \"UniswapV2/UniswapV2Pair.sol\":7103:7105  to */\n      dup14\n        /* \"UniswapV2/UniswapV2Pair.sol\":7107:7114  amount1 */\n      dup13\n        /* \"UniswapV2/UniswapV2Pair.sol\":7080:7093  _safeTransfer */\n      tag_112\n        /* \"UniswapV2/UniswapV2Pair.sol\":7080:7115  _safeTransfer(_token1, to, amount1) */\n      jump\t// in\n    tag_215:\n        /* \"UniswapV2/UniswapV2Pair.sol\":7143:7150  _token0 */\n      dup7\n        /* \"UniswapV2/UniswapV2Pair.sol\":7136:7161  IERC20(_token0).balanceOf */\n      0xffffffffffffffffffffffffffffffffffffffff\n      and\n      0x70a08231\n        /* \"UniswapV2/UniswapV2Pair.sol\":7170:7174  this */\n      address\n        /* \"UniswapV2/UniswapV2Pair.sol\":7136:7176  IERC20(_token0).balanceOf(address(this)) */\n      mload(0x40)\n      dup3\n      0xffffffff\n      and\n      0xe0\n      shl\n      dup2\n      mstore\n      0x04\n      add\n      dup1\n      dup3\n      0xffffffffffffffffffffffffffffffffffffffff\n      and\n      0xffffffffffffffffffffffffffffffffffffffff\n      and\n      dup2\n      mstore\n      0x20\n      add\n      swap2\n      pop\n      pop\n      0x20\n      mload(0x40)\n      dup1\n      dup4\n      sub\n      dup2\n      dup7\n      dup1\n      extcodesize\n      iszero\n        /* \"--CODEGEN--\":5:14   */\n      dup1\n        /* \"--CODEGEN--\":2:4   */\n      iszero\n      tag_216\n      jumpi\n        /* \"--CODEGEN--\":27:28   */\n      0x00\n        /* \"--CODEGEN--\":24:25   */\n      dup1\n        /* \"--CODEGEN--\":17:29   */\n      revert\n        /* \"--CODEGEN--\":2:4   */\n    tag_216:\n        /* \"UniswapV2/UniswapV2Pair.sol\":7136:7176  IERC20(_token0).balanceOf(address(this)) */\n      pop\n      gas\n      staticcall\n      iszero\n        /* \"--CODEGEN--\":8:17   */\n      dup1\n        /* \"--CODEGEN--\":5:7   */\n      iszero\n      tag_218\n      jumpi\n        /* \"--CODEGEN--\":45:61   */\n      returndatasize\n        /* \"--CODEGEN--\":42:43   */\n      0x00\n        /* \"--CODEGEN--\":39:40   */\n      dup1\n        /* \"--CODEGEN--\":24:62   */\n      returndatacopy\n        /* \"--CODEGEN--\":77:93   */\n      returndatasize\n        /* \"--CODEGEN--\":74:75   */\n      0x00\n        /* \"--CODEGEN--\":67:94   */\n      revert\n        /* \"--CODEGEN--\":5:7   */\n    tag_218:\n        /* \"UniswapV2/UniswapV2Pair.sol\":7136:7176  IERC20(_token0).balanceOf(address(this)) */\n      pop\n      pop\n      pop\n      pop\n      mload(0x40)\n      returndatasize\n        /* \"--CODEGEN--\":15:17   */\n      0x20\n        /* \"--CODEGEN--\":10:13   */\n      dup2\n        /* \"--CODEGEN--\":7:18   */\n      lt\n        /* \"--CODEGEN--\":4:6   */\n      iszero\n      tag_219\n      jumpi\n        /* \"--CODEGEN--\":31:32   */\n      0x00\n        /* \"--CODEGEN--\":28:29   */\n      dup1\n        /* \"--CODEGEN--\":21:33   */\n      revert\n        /* \"--CODEGEN--\":4:6   */\n    tag_219:\n        /* \"UniswapV2/UniswapV2Pair.sol\":7136:7176  IERC20(_token0).balanceOf(address(this)) */\n      dup2\n      add\n      swap1\n      dup1\n      dup1\n      mload\n      swap1\n      0x20\n      add\n      swap1\n      swap3\n      swap2\n      swap1\n      pop\n      pop\n      pop\n        /* \"UniswapV2/UniswapV2Pair.sol\":7125:7176  balance0 = IERC20(_token0).balanceOf(address(this)) */\n      swap5\n      pop\n        /* \"UniswapV2/UniswapV2Pair.sol\":7204:7211  _token1 */\n      dup6\n        /* \"UniswapV2/UniswapV2Pair.sol\":7197:7222  IERC20(_token1).balanceOf */\n      0xffffffffffffffffffffffffffffffffffffffff\n      and\n      0x70a08231\n        /* \"UniswapV2/UniswapV2Pair.sol\":7231:7235  this */\n      address\n        /* \"UniswapV2/UniswapV2Pair.sol\":7197:7237  IERC20(_token1).balanceOf(address(this)) */\n      mload(0x40)\n      dup3\n      0xffffffff\n      and\n      0xe0\n      shl\n      dup2\n      mstore\n      0x04\n      add\n      dup1\n      dup3\n      0xffffffffffffffffffffffffffffffffffffffff\n      and\n      0xffffffffffffffffffffffffffffffffffffffff\n      and\n      dup2\n      mstore\n      0x20\n      add\n      swap2\n      pop\n      pop\n      0x20\n      mload(0x40)\n      dup1\n      dup4\n      sub\n      dup2\n      dup7\n      dup1\n      extcodesize\n      iszero\n        /* \"--CODEGEN--\":5:14   */\n      dup1\n        /* \"--CODEGEN--\":2:4   */\n      iszero\n      tag_220\n      jumpi\n        /* \"--CODEGEN--\":27:28   */\n      0x00\n        /* \"--CODEGEN--\":24:25   */\n      dup1\n        /* \"--CODEGEN--\":17:29   */\n      revert\n        /* \"--CODEGEN--\":2:4   */\n    tag_220:\n        /* \"UniswapV2/UniswapV2Pair.sol\":7197:7237  IERC20(_token1).balanceOf(address(this)) */\n      pop\n      gas\n      staticcall\n      iszero\n        /* \"--CODEGEN--\":8:17   */\n      dup1\n        /* \"--CODEGEN--\":5:7   */\n      iszero\n      tag_222\n      jumpi\n        /* \"--CODEGEN--\":45:61   */\n      returndatasize\n        /* \"--CODEGEN--\":42:43   */\n      0x00\n        /* \"--CODEGEN--\":39:40   */\n      dup1\n        /* \"--CODEGEN--\":24:62   */\n      returndatacopy\n        /* \"--CODEGEN--\":77:93   */\n      returndatasize\n        /* \"--CODEGEN--\":74:75   */\n      0x00\n        /* \"--CODEGEN--\":67:94   */\n      revert\n        /* \"--CODEGEN--\":5:7   */\n    tag_222:\n        /* \"UniswapV2/UniswapV2Pair.sol\":7197:7237  IERC20(_token1).balanceOf(address(this)) */\n      pop\n      pop\n      pop\n      pop\n      mload(0x40)\n      returndatasize\n        /* \"--CODEGEN--\":15:17   */\n      0x20\n        /* \"--CODEGEN--\":10:13   */\n      dup2\n        /* \"--CODEGEN--\":7:18   */\n      lt\n        /* \"--CODEGEN--\":4:6   */\n      iszero\n      tag_223\n      jumpi\n        /* \"--CODEGEN--\":31:32   */\n      0x00\n        /* \"--CODEGEN--\":28:29   */\n      dup1\n        /* \"--CODEGEN--\":21:33   */\n      revert\n        /* \"--CODEGEN--\":4:6   */\n    tag_223:\n        /* \"UniswapV2/UniswapV2Pair.sol\":7197:7237  IERC20(_token1).balanceOf(address(this)) */\n      dup2\n      add\n      swap1\n      dup1\n      dup1\n      mload\n      swap1\n      0x20\n      add\n      swap1\n      swap3\n      swap2\n      swap1\n      pop\n      pop\n      pop\n        /* \"UniswapV2/UniswapV2Pair.sol\":7186:7237  balance1 = IERC20(_token1).balanceOf(address(this)) */\n      swap4\n      pop\n        /* \"UniswapV2/UniswapV2Pair.sol\":7247:7296  _update(balance0, balance1, _reserve0, _reserve1) */\n      tag_224\n        /* \"UniswapV2/UniswapV2Pair.sol\":7255:7263  balance0 */\n      dup6\n        /* \"UniswapV2/UniswapV2Pair.sol\":7265:7273  balance1 */\n      dup6\n        /* \"UniswapV2/UniswapV2Pair.sol\":7275:7284  _reserve0 */\n      dup12\n        /* \"UniswapV2/UniswapV2Pair.sol\":7286:7295  _reserve1 */\n      dup12\n        /* \"UniswapV2/UniswapV2Pair.sol\":7247:7254  _update */\n      tag_146\n        /* \"UniswapV2/UniswapV2Pair.sol\":7247:7296  _update(balance0, balance1, _reserve0, _reserve1) */\n      jump\t// in\n    tag_224:\n        /* \"UniswapV2/UniswapV2Pair.sol\":7310:7315  feeOn */\n      dup2\n        /* \"UniswapV2/UniswapV2Pair.sol\":7306:7353  if (feeOn) kLast = uint(reserve0).mul(reserve1) */\n      iszero\n      tag_225\n      jumpi\n        /* \"UniswapV2/UniswapV2Pair.sol\":7325:7353  uint(reserve0).mul(reserve1) */\n      tag_226\n        /* \"UniswapV2/UniswapV2Pair.sol\":7344:7352  reserve1 */\n      0x07\n      0x0e\n      swap1\n      sload\n      swap1\n      0x0100\n      exp\n      swap1\n      div\n      0xffffffffffffffffffffffffffff\n      and\n        /* \"UniswapV2/UniswapV2Pair.sol\":7325:7353  uint(reserve0).mul(reserve1) */\n      0xffffffffffffffffffffffffffff\n      and\n        /* \"UniswapV2/UniswapV2Pair.sol\":7330:7338  reserve0 */\n      0x07\n      0x00\n      swap1\n      sload\n      swap1\n      0x0100\n      exp\n      swap1\n      div\n      0xffffffffffffffffffffffffffff\n      and\n        /* \"UniswapV2/UniswapV2Pair.sol\":7325:7339  uint(reserve0) */\n      0xffffffffffffffffffffffffffff\n      and\n        /* \"UniswapV2/UniswapV2Pair.sol\":7325:7343  uint(reserve0).mul */\n      tag_135\n      swap1\n        /* \"UniswapV2/UniswapV2Pair.sol\":7325:7353  uint(reserve0).mul(reserve1) */\n      swap2\n      swap1\n      0xffffffff\n      and\n      jump\t// in\n    tag_226:\n        /* \"UniswapV2/UniswapV2Pair.sol\":7317:7322  kLast */\n      0x0a\n        /* \"UniswapV2/UniswapV2Pair.sol\":7317:7353  kLast = uint(reserve0).mul(reserve1) */\n      dup2\n      swap1\n      sstore\n      pop\n        /* \"UniswapV2/UniswapV2Pair.sol\":7306:7353  if (feeOn) kLast = uint(reserve0).mul(reserve1) */\n    tag_225:\n        /* \"UniswapV2/UniswapV2Pair.sol\":7443:7445  to */\n      dup12\n        /* \"UniswapV2/UniswapV2Pair.sol\":7408:7446  Burn(msg.sender, amount0, amount1, to) */\n      0xffffffffffffffffffffffffffffffffffffffff\n      and\n        /* \"UniswapV2/UniswapV2Pair.sol\":7413:7423  msg.sender */\n      caller\n        /* \"UniswapV2/UniswapV2Pair.sol\":7408:7446  Burn(msg.sender, amount0, amount1, to) */\n      0xffffffffffffffffffffffffffffffffffffffff\n      and\n      0xdccd412f0b1252819cb1fd330b93224ca42612892bb3f4f789976e6d81936496\n        /* \"UniswapV2/UniswapV2Pair.sol\":7425:7432  amount0 */\n      dup14\n        /* \"UniswapV2/UniswapV2Pair.sol\":7434:7441  amount1 */\n      dup14\n        /* \"UniswapV2/UniswapV2Pair.sol\":7408:7446  Burn(msg.sender, amount0, amount1, to) */\n      mload(0x40)\n      dup1\n      dup4\n      dup2\n      mstore\n      0x20\n      add\n      dup3\n      dup2\n      mstore\n      0x20\n      add\n      swap3\n      pop\n      pop\n      pop\n      mload(0x40)\n      dup1\n      swap2\n      sub\n      swap1\n      log3\n        /* \"UniswapV2/UniswapV2Pair.sol\":1412:1413  _ */\n      pop\n      pop\n      pop\n      pop\n      pop\n      pop\n      pop\n      pop\n      pop\n        /* \"UniswapV2/UniswapV2Pair.sol\":1434:1435  1 */\n      0x01\n        /* \"UniswapV2/UniswapV2Pair.sol\":1423:1431  unlocked */\n      0x0b\n        /* \"UniswapV2/UniswapV2Pair.sol\":1423:1435  unlocked = 1 */\n      dup2\n      swap1\n      sstore\n      pop\n        /* \"UniswapV2/UniswapV2Pair.sol\":6001:7453  function burn(address to) external override lock returns (uint amount0, uint amount1) {... */\n      swap2\n      pop\n      swap2\n      jump\t// out\n        /* \"UniswapV2/UniswapV2ERC20.sol\":243:288  string public override constant symbol = 'LP' */\n    tag_78:\n      mload(0x40)\n      dup1\n      0x40\n      add\n      0x40\n      mstore\n      dup1\n      0x02\n      dup2\n      mstore\n      0x20\n      add\n      0x4c50000000000000000000000000000000000000000000000000000000000000\n      dup2\n      mstore\n      pop\n      dup2\n      jump\t// out\n        /* \"UniswapV2/UniswapV2ERC20.sol\":1683:1828  function transfer(address to, uint value) external override returns (bool) {... */\n    tag_85:\n        /* \"UniswapV2/UniswapV2ERC20.sol\":1752:1756  bool */\n      0x00\n        /* \"UniswapV2/UniswapV2ERC20.sol\":1768:1800  _transfer(msg.sender, to, value) */\n      tag_228\n        /* \"UniswapV2/UniswapV2ERC20.sol\":1778:1788  msg.sender */\n      caller\n        /* \"UniswapV2/UniswapV2ERC20.sol\":1790:1792  to */\n      dup5\n        /* \"UniswapV2/UniswapV2ERC20.sol\":1794:1799  value */\n      dup5\n        /* \"UniswapV2/UniswapV2ERC20.sol\":1768:1777  _transfer */\n      tag_155\n        /* \"UniswapV2/UniswapV2ERC20.sol\":1768:1800  _transfer(msg.sender, to, value) */\n      jump\t// in\n    tag_228:\n        /* \"UniswapV2/UniswapV2ERC20.sol\":1817:1821  true */\n      0x01\n        /* \"UniswapV2/UniswapV2ERC20.sol\":1810:1821  return true */\n      swap1\n      pop\n        /* \"UniswapV2/UniswapV2ERC20.sol\":1683:1828  function transfer(address to, uint value) external override returns (bool) {... */\n      swap3\n      swap2\n      pop\n      pop\n      jump\t// out\n        /* \"UniswapV2/UniswapV2Pair.sol\":509:564  uint public constant override MINIMUM_LIQUIDITY = 10**3 */\n    tag_87:\n        /* \"UniswapV2/UniswapV2Pair.sol\":559:564  10**3 */\n      0x03e8\n        /* \"UniswapV2/UniswapV2Pair.sol\":509:564  uint public constant override MINIMUM_LIQUIDITY = 10**3 */\n      dup2\n      jump\t// out\n        /* \"UniswapV2/UniswapV2Pair.sol\":9478:9816  function skim(address to) external override lock {... */\n    tag_90:\n        /* \"UniswapV2/UniswapV2Pair.sol\":1357:1358  1 */\n      0x01\n        /* \"UniswapV2/UniswapV2Pair.sol\":1345:1353  unlocked */\n      sload(0x0b)\n        /* \"UniswapV2/UniswapV2Pair.sol\":1345:1358  unlocked == 1 */\n      eq\n        /* \"UniswapV2/UniswapV2Pair.sol\":1337:1380  require(unlocked == 1, 'UniswapV2: LOCKED') */\n      tag_230\n      jumpi\n      mload(0x40)\n      0x08c379a000000000000000000000000000000000000000000000000000000000\n      dup2\n      mstore\n      0x04\n      add\n      dup1\n      dup1\n      0x20\n      add\n      dup3\n      dup2\n      sub\n      dup3\n      mstore\n      0x11\n      dup2\n      mstore\n      0x20\n      add\n      dup1\n      0x556e697377617056323a204c4f434b4544000000000000000000000000000000\n      dup2\n      mstore\n      pop\n      0x20\n      add\n      swap2\n      pop\n      pop\n      mload(0x40)\n      dup1\n      swap2\n      sub\n      swap1\n      revert\n    tag_230:\n        /* \"UniswapV2/UniswapV2Pair.sol\":1401:1402  0 */\n      0x00\n        /* \"UniswapV2/UniswapV2Pair.sol\":1390:1398  unlocked */\n      0x0b\n        /* \"UniswapV2/UniswapV2Pair.sol\":1390:1402  unlocked = 0 */\n      dup2\n      swap1\n      sstore\n      pop\n        /* \"UniswapV2/UniswapV2Pair.sol\":9537:9552  address _token0 */\n      0x00\n        /* \"UniswapV2/UniswapV2Pair.sol\":9555:9561  token0 */\n      0x05\n      0x00\n      swap1\n      sload\n      swap1\n      0x0100\n      exp\n      swap1\n      div\n      0xffffffffffffffffffffffffffffffffffffffff\n      and\n        /* \"UniswapV2/UniswapV2Pair.sol\":9537:9561  address _token0 = token0 */\n      swap1\n      pop\n        /* \"UniswapV2/UniswapV2Pair.sol\":9586:9601  address _token1 */\n      0x00\n        /* \"UniswapV2/UniswapV2Pair.sol\":9604:9610  token1 */\n      0x06\n      0x00\n      swap1\n      sload\n      swap1\n      0x0100\n      exp\n      swap1\n      div\n      0xffffffffffffffffffffffffffffffffffffffff\n      and\n        /* \"UniswapV2/UniswapV2Pair.sol\":9586:9610  address _token1 = token1 */\n      swap1\n      pop\n        /* \"UniswapV2/UniswapV2Pair.sol\":9635:9717  _safeTransfer(_token0, to, IERC20(_token0).balanceOf(address(this)).sub(reserve0)) */\n      tag_232\n        /* \"UniswapV2/UniswapV2Pair.sol\":9649:9656  _token0 */\n      dup3\n        /* \"UniswapV2/UniswapV2Pair.sol\":9658:9660  to */\n      dup5\n        /* \"UniswapV2/UniswapV2Pair.sol\":9662:9716  IERC20(_token0).balanceOf(address(this)).sub(reserve0) */\n      tag_233\n        /* \"UniswapV2/UniswapV2Pair.sol\":9707:9715  reserve0 */\n      0x07\n      0x00\n      swap1\n      sload\n      swap1\n      0x0100\n      exp\n      swap1\n      div\n      0xffffffffffffffffffffffffffff\n      and\n        /* \"UniswapV2/UniswapV2Pair.sol\":9662:9716  IERC20(_token0).balanceOf(address(this)).sub(reserve0) */\n      0xffffffffffffffffffffffffffff\n      and\n        /* \"UniswapV2/UniswapV2Pair.sol\":9669:9676  _token0 */\n      dup7\n        /* \"UniswapV2/UniswapV2Pair.sol\":9662:9687  IERC20(_token0).balanceOf */\n      0xffffffffffffffffffffffffffffffffffffffff\n      and\n      0x70a08231\n        /* \"UniswapV2/UniswapV2Pair.sol\":9696:9700  this */\n      address\n        /* \"UniswapV2/UniswapV2Pair.sol\":9662:9702  IERC20(_token0).balanceOf(address(this)) */\n      mload(0x40)\n      dup3\n      0xffffffff\n      and\n      0xe0\n      shl\n      dup2\n      mstore\n      0x04\n      add\n      dup1\n      dup3\n      0xffffffffffffffffffffffffffffffffffffffff\n      and\n      0xffffffffffffffffffffffffffffffffffffffff\n      and\n      dup2\n      mstore\n      0x20\n      add\n      swap2\n      pop\n      pop\n      0x20\n      mload(0x40)\n      dup1\n      dup4\n      sub\n      dup2\n      dup7\n      dup1\n      extcodesize\n      iszero\n        /* \"--CODEGEN--\":5:14   */\n      dup1\n        /* \"--CODEGEN--\":2:4   */\n      iszero\n      tag_234\n      jumpi\n        /* \"--CODEGEN--\":27:28   */\n      0x00\n        /* \"--CODEGEN--\":24:25   */\n      dup1\n        /* \"--CODEGEN--\":17:29   */\n      revert\n        /* \"--CODEGEN--\":2:4   */\n    tag_234:\n        /* \"UniswapV2/UniswapV2Pair.sol\":9662:9702  IERC20(_token0).balanceOf(address(this)) */\n      pop\n      gas\n      staticcall\n      iszero\n        /* \"--CODEGEN--\":8:17   */\n      dup1\n        /* \"--CODEGEN--\":5:7   */\n      iszero\n      tag_236\n      jumpi\n        /* \"--CODEGEN--\":45:61   */\n      returndatasize\n        /* \"--CODEGEN--\":42:43   */\n      0x00\n        /* \"--CODEGEN--\":39:40   */\n      dup1\n        /* \"--CODEGEN--\":24:62   */\n      returndatacopy\n        /* \"--CODEGEN--\":77:93   */\n      returndatasize\n        /* \"--CODEGEN--\":74:75   */\n      0x00\n        /* \"--CODEGEN--\":67:94   */\n      revert\n        /* \"--CODEGEN--\":5:7   */\n    tag_236:\n        /* \"UniswapV2/UniswapV2Pair.sol\":9662:9702  IERC20(_token0).balanceOf(address(this)) */\n      pop\n      pop\n      pop\n      pop\n      mload(0x40)\n      returndatasize\n        /* \"--CODEGEN--\":15:17   */\n      0x20\n        /* \"--CODEGEN--\":10:13   */\n      dup2\n        /* \"--CODEGEN--\":7:18   */\n      lt\n        /* \"--CODEGEN--\":4:6   */\n      iszero\n      tag_237\n      jumpi\n        /* \"--CODEGEN--\":31:32   */\n      0x00\n        /* \"--CODEGEN--\":28:29   */\n      dup1\n        /* \"--CODEGEN--\":21:33   */\n      revert\n        /* \"--CODEGEN--\":4:6   */\n    tag_237:\n        /* \"UniswapV2/UniswapV2Pair.sol\":9662:9702  IERC20(_token0).balanceOf(address(this)) */\n      dup2\n      add\n      swap1\n      dup1\n      dup1\n      mload\n      swap1\n      0x20\n      add\n      swap1\n      swap3\n      swap2\n      swap1\n      pop\n      pop\n      pop\n        /* \"UniswapV2/UniswapV2Pair.sol\":9662:9706  IERC20(_token0).balanceOf(address(this)).sub */\n      tag_137\n      swap1\n        /* \"UniswapV2/UniswapV2Pair.sol\":9662:9716  IERC20(_token0).balanceOf(address(this)).sub(reserve0) */\n      swap2\n      swap1\n      0xffffffff\n      and\n      jump\t// in\n    tag_233:\n        /* \"UniswapV2/UniswapV2Pair.sol\":9635:9648  _safeTransfer */\n      tag_112\n        /* \"UniswapV2/UniswapV2Pair.sol\":9635:9717  _safeTransfer(_token0, to, IERC20(_token0).balanceOf(address(this)).sub(reserve0)) */\n      jump\t// in\n    tag_232:\n        /* \"UniswapV2/UniswapV2Pair.sol\":9727:9809  _safeTransfer(_token1, to, IERC20(_token1).balanceOf(address(this)).sub(reserve1)) */\n      tag_238\n        /* \"UniswapV2/UniswapV2Pair.sol\":9741:9748  _token1 */\n      dup2\n        /* \"UniswapV2/UniswapV2Pair.sol\":9750:9752  to */\n      dup5\n        /* \"UniswapV2/UniswapV2Pair.sol\":9754:9808  IERC20(_token1).balanceOf(address(this)).sub(reserve1) */\n      tag_239\n        /* \"UniswapV2/UniswapV2Pair.sol\":9799:9807  reserve1 */\n      0x07\n      0x0e\n      swap1\n      sload\n      swap1\n      0x0100\n      exp\n      swap1\n      div\n      0xffffffffffffffffffffffffffff\n      and\n        /* \"UniswapV2/UniswapV2Pair.sol\":9754:9808  IERC20(_token1).balanceOf(address(this)).sub(reserve1) */\n      0xffffffffffffffffffffffffffff\n      and\n        /* \"UniswapV2/UniswapV2Pair.sol\":9761:9768  _token1 */\n      dup6\n        /* \"UniswapV2/UniswapV2Pair.sol\":9754:9779  IERC20(_token1).balanceOf */\n      0xffffffffffffffffffffffffffffffffffffffff\n      and\n      0x70a08231\n        /* \"UniswapV2/UniswapV2Pair.sol\":9788:9792  this */\n      address\n        /* \"UniswapV2/UniswapV2Pair.sol\":9754:9794  IERC20(_token1).balanceOf(address(this)) */\n      mload(0x40)\n      dup3\n      0xffffffff\n      and\n      0xe0\n      shl\n      dup2\n      mstore\n      0x04\n      add\n      dup1\n      dup3\n      0xffffffffffffffffffffffffffffffffffffffff\n      and\n      0xffffffffffffffffffffffffffffffffffffffff\n      and\n      dup2\n      mstore\n      0x20\n      add\n      swap2\n      pop\n      pop\n      0x20\n      mload(0x40)\n      dup1\n      dup4\n      sub\n      dup2\n      dup7\n      dup1\n      extcodesize\n      iszero\n        /* \"--CODEGEN--\":5:14   */\n      dup1\n        /* \"--CODEGEN--\":2:4   */\n      iszero\n      tag_240\n      jumpi\n        /* \"--CODEGEN--\":27:28   */\n      0x00\n        /* \"--CODEGEN--\":24:25   */\n      dup1\n        /* \"--CODEGEN--\":17:29   */\n      revert\n        /* \"--CODEGEN--\":2:4   */\n    tag_240:\n        /* \"UniswapV2/UniswapV2Pair.sol\":9754:9794  IERC20(_token1).balanceOf(address(this)) */\n      pop\n      gas\n      staticcall\n      iszero\n        /* \"--CODEGEN--\":8:17   */\n      dup1\n        /* \"--CODEGEN--\":5:7   */\n      iszero\n      tag_242\n      jumpi\n        /* \"--CODEGEN--\":45:61   */\n      returndatasize\n        /* \"--CODEGEN--\":42:43   */\n      0x00\n        /* \"--CODEGEN--\":39:40   */\n      dup1\n        /* \"--CODEGEN--\":24:62   */\n      returndatacopy\n        /* \"--CODEGEN--\":77:93   */\n      returndatasize\n        /* \"--CODEGEN--\":74:75   */\n      0x00\n        /* \"--CODEGEN--\":67:94   */\n      revert\n        /* \"--CODEGEN--\":5:7   */\n    tag_242:\n        /* \"UniswapV2/UniswapV2Pair.sol\":9754:9794  IERC20(_token1).balanceOf(address(this)) */\n      pop\n      pop\n      pop\n      pop\n      mload(0x40)\n      returndatasize\n        /* \"--CODEGEN--\":15:17   */\n      0x20\n        /* \"--CODEGEN--\":10:13   */\n      dup2\n        /* \"--CODEGEN--\":7:18   */\n      lt\n        /* \"--CODEGEN--\":4:6   */\n      iszero\n      tag_243\n      jumpi\n        /* \"--CODEGEN--\":31:32   */\n      0x00\n        /* \"--CODEGEN--\":28:29   */\n      dup1\n        /* \"--CODEGEN--\":21:33   */\n      revert\n        /* \"--CODEGEN--\":4:6   */\n    tag_243:\n        /* \"UniswapV2/UniswapV2Pair.sol\":9754:9794  IERC20(_token1).balanceOf(address(this)) */\n      dup2\n      add\n      swap1\n      dup1\n      dup1\n      mload\n      swap1\n      0x20\n      add\n      swap1\n      swap3\n      swap2\n      swap1\n      pop\n      pop\n      pop\n        /* \"UniswapV2/UniswapV2Pair.sol\":9754:9798  IERC20(_token1).balanceOf(address(this)).sub */\n      tag_137\n      swap1\n        /* \"UniswapV2/UniswapV2Pair.sol\":9754:9808  IERC20(_token1).balanceOf(address(this)).sub(reserve1) */\n      swap2\n      swap1\n      0xffffffff\n      and\n      jump\t// in\n    tag_239:\n        /* \"UniswapV2/UniswapV2Pair.sol\":9727:9740  _safeTransfer */\n      tag_112\n        /* \"UniswapV2/UniswapV2Pair.sol\":9727:9809  _safeTransfer(_token1, to, IERC20(_token1).balanceOf(address(this)).sub(reserve1)) */\n      jump\t// in\n    tag_238:\n        /* \"UniswapV2/UniswapV2Pair.sol\":1412:1413  _ */\n      pop\n      pop\n        /* \"UniswapV2/UniswapV2Pair.sol\":1434:1435  1 */\n      0x01\n        /* \"UniswapV2/UniswapV2Pair.sol\":1423:1431  unlocked */\n      0x0b\n        /* \"UniswapV2/UniswapV2Pair.sol\":1423:1435  unlocked = 1 */\n      dup2\n      swap1\n      sstore\n      pop\n        /* \"UniswapV2/UniswapV2Pair.sol\":9478:9816  function skim(address to) external override lock {... */\n      pop\n      jump\t// out\n        /* \"UniswapV2/UniswapV2Pair.sol\":674:705  address public override factory */\n    tag_92:\n      0x04\n      0x00\n      swap1\n      sload\n      swap1\n      0x0100\n      exp\n      swap1\n      div\n      0xffffffffffffffffffffffffffffffffffffffff\n      and\n      dup2\n      jump\t// out\n        /* \"UniswapV2/UniswapV2Pair.sol\":747:777  address public override token1 */\n    tag_94:\n      0x06\n      0x00\n      swap1\n      sload\n      swap1\n      0x0100\n      exp\n      swap1\n      div\n      0xffffffffffffffffffffffffffffffffffffffff\n      and\n      dup2\n      jump\t// out\n        /* \"UniswapV2/UniswapV2ERC20.sol\":439:509  mapping(address => mapping(address => uint)) public override allowance */\n    tag_97:\n      mstore(0x20, 0x02)\n      dup2\n      0x00\n      mstore\n      mstore(0x20, keccak256(0x00, 0x40))\n      dup1\n      0x00\n      mstore\n      keccak256(0x00, 0x40)\n      0x00\n      swap2\n      pop\n      swap2\n      pop\n      pop\n      sload\n      dup2\n      jump\t// out\n        /* \"UniswapV2/UniswapV2Pair.sol\":9862:10027  function sync() external override lock {... */\n    tag_99:\n        /* \"UniswapV2/UniswapV2Pair.sol\":1357:1358  1 */\n      0x01\n        /* \"UniswapV2/UniswapV2Pair.sol\":1345:1353  unlocked */\n      sload(0x0b)\n        /* \"UniswapV2/UniswapV2Pair.sol\":1345:1358  unlocked == 1 */\n      eq\n        /* \"UniswapV2/UniswapV2Pair.sol\":1337:1380  require(unlocked == 1, 'UniswapV2: LOCKED') */\n      tag_245\n      jumpi\n      mload(0x40)\n      0x08c379a000000000000000000000000000000000000000000000000000000000\n      dup2\n      mstore\n      0x04\n      add\n      dup1\n      dup1\n      0x20\n      add\n      dup3\n      dup2\n      sub\n      dup3\n      mstore\n      0x11\n      dup2\n      mstore\n      0x20\n      add\n      dup1\n      0x556e697377617056323a204c4f434b4544000000000000000000000000000000\n      dup2\n      mstore\n      pop\n      0x20\n      add\n      swap2\n      pop\n      pop\n      mload(0x40)\n      dup1\n      swap2\n      sub\n      swap1\n      revert\n    tag_245:\n        /* \"UniswapV2/UniswapV2Pair.sol\":1401:1402  0 */\n      0x00\n        /* \"UniswapV2/UniswapV2Pair.sol\":1390:1398  unlocked */\n      0x0b\n        /* \"UniswapV2/UniswapV2Pair.sol\":1390:1402  unlocked = 0 */\n      dup2\n      swap1\n      sstore\n      pop\n        /* \"UniswapV2/UniswapV2Pair.sol\":9911:10020  _update(IERC20(token0).balanceOf(address(this)), IERC20(token1).balanceOf(address(this)), reserve0, reserve1) */\n      tag_247\n        /* \"UniswapV2/UniswapV2Pair.sol\":9926:9932  token0 */\n      0x05\n      0x00\n      swap1\n      sload\n      swap1\n      0x0100\n      exp\n      swap1\n      div\n      0xffffffffffffffffffffffffffffffffffffffff\n      and\n        /* \"UniswapV2/UniswapV2Pair.sol\":9919:9943  IERC20(token0).balanceOf */\n      0xffffffffffffffffffffffffffffffffffffffff\n      and\n      0x70a08231\n        /* \"UniswapV2/UniswapV2Pair.sol\":9952:9956  this */\n      address\n        /* \"UniswapV2/UniswapV2Pair.sol\":9919:9958  IERC20(token0).balanceOf(address(this)) */\n      mload(0x40)\n      dup3\n      0xffffffff\n      and\n      0xe0\n      shl\n      dup2\n      mstore\n      0x04\n      add\n      dup1\n      dup3\n      0xffffffffffffffffffffffffffffffffffffffff\n      and\n      0xffffffffffffffffffffffffffffffffffffffff\n      and\n      dup2\n      mstore\n      0x20\n      add\n      swap2\n      pop\n      pop\n      0x20\n      mload(0x40)\n      dup1\n      dup4\n      sub\n      dup2\n      dup7\n      dup1\n      extcodesize\n      iszero\n        /* \"--CODEGEN--\":5:14   */\n      dup1\n        /* \"--CODEGEN--\":2:4   */\n      iszero\n      tag_248\n      jumpi\n        /* \"--CODEGEN--\":27:28   */\n      0x00\n        /* \"--CODEGEN--\":24:25   */\n      dup1\n        /* \"--CODEGEN--\":17:29   */\n      revert\n        /* \"--CODEGEN--\":2:4   */\n    tag_248:\n        /* \"UniswapV2/UniswapV2Pair.sol\":9919:9958  IERC20(token0).balanceOf(address(this)) */\n      pop\n      gas\n      staticcall\n      iszero\n        /* \"--CODEGEN--\":8:17   */\n      dup1\n        /* \"--CODEGEN--\":5:7   */\n      iszero\n      tag_250\n      jumpi\n        /* \"--CODEGEN--\":45:61   */\n      returndatasize\n        /* \"--CODEGEN--\":42:43   */\n      0x00\n        /* \"--CODEGEN--\":39:40   */\n      dup1\n        /* \"--CODEGEN--\":24:62   */\n      returndatacopy\n        /* \"--CODEGEN--\":77:93   */\n      returndatasize\n        /* \"--CODEGEN--\":74:75   */\n      0x00\n        /* \"--CODEGEN--\":67:94   */\n      revert\n        /* \"--CODEGEN--\":5:7   */\n    tag_250:\n        /* \"UniswapV2/UniswapV2Pair.sol\":9919:9958  IERC20(token0).balanceOf(address(this)) */\n      pop\n      pop\n      pop\n      pop\n      mload(0x40)\n      returndatasize\n        /* \"--CODEGEN--\":15:17   */\n      0x20\n        /* \"--CODEGEN--\":10:13   */\n      dup2\n        /* \"--CODEGEN--\":7:18   */\n      lt\n        /* \"--CODEGEN--\":4:6   */\n      iszero\n      tag_251\n      jumpi\n        /* \"--CODEGEN--\":31:32   */\n      0x00\n        /* \"--CODEGEN--\":28:29   */\n      dup1\n        /* \"--CODEGEN--\":21:33   */\n      revert\n        /* \"--CODEGEN--\":4:6   */\n    tag_251:\n        /* \"UniswapV2/UniswapV2Pair.sol\":9919:9958  IERC20(token0).balanceOf(address(this)) */\n      dup2\n      add\n      swap1\n      dup1\n      dup1\n      mload\n      swap1\n      0x20\n      add\n      swap1\n      swap3\n      swap2\n      swap1\n      pop\n      pop\n      pop\n        /* \"UniswapV2/UniswapV2Pair.sol\":9967:9973  token1 */\n      0x06\n      0x00\n      swap1\n      sload\n      swap1\n      0x0100\n      exp\n      swap1\n      div\n      0xffffffffffffffffffffffffffffffffffffffff\n      and\n        /* \"UniswapV2/UniswapV2Pair.sol\":9960:9984  IERC20(token1).balanceOf */\n      0xffffffffffffffffffffffffffffffffffffffff\n      and\n      0x70a08231\n        /* \"UniswapV2/UniswapV2Pair.sol\":9993:9997  this */\n      address\n        /* \"UniswapV2/UniswapV2Pair.sol\":9960:9999  IERC20(token1).balanceOf(address(this)) */\n      mload(0x40)\n      dup3\n      0xffffffff\n      and\n      0xe0\n      shl\n      dup2\n      mstore\n      0x04\n      add\n      dup1\n      dup3\n      0xffffffffffffffffffffffffffffffffffffffff\n      and\n      0xffffffffffffffffffffffffffffffffffffffff\n      and\n      dup2\n      mstore\n      0x20\n      add\n      swap2\n      pop\n      pop\n      0x20\n      mload(0x40)\n      dup1\n      dup4\n      sub\n      dup2\n      dup7\n      dup1\n      extcodesize\n      iszero\n        /* \"--CODEGEN--\":5:14   */\n      dup1\n        /* \"--CODEGEN--\":2:4   */\n      iszero\n      tag_252\n      jumpi\n        /* \"--CODEGEN--\":27:28   */\n      0x00\n        /* \"--CODEGEN--\":24:25   */\n      dup1\n        /* \"--CODEGEN--\":17:29   */\n      revert\n        /* \"--CODEGEN--\":2:4   */\n    tag_252:\n        /* \"UniswapV2/UniswapV2Pair.sol\":9960:9999  IERC20(token1).balanceOf(address(this)) */\n      pop\n      gas\n      staticcall\n      iszero\n        /* \"--CODEGEN--\":8:17   */\n      dup1\n        /* \"--CODEGEN--\":5:7   */\n      iszero\n      tag_254\n      jumpi\n        /* \"--CODEGEN--\":45:61   */\n      returndatasize\n        /* \"--CODEGEN--\":42:43   */\n      0x00\n        /* \"--CODEGEN--\":39:40   */\n      dup1\n        /* \"--CODEGEN--\":24:62   */\n      returndatacopy\n        /* \"--CODEGEN--\":77:93   */\n      returndatasize\n        /* \"--CODEGEN--\":74:75   */\n      0x00\n        /* \"--CODEGEN--\":67:94   */\n      revert\n        /* \"--CODEGEN--\":5:7   */\n    tag_254:\n        /* \"UniswapV2/UniswapV2Pair.sol\":9960:9999  IERC20(token1).balanceOf(address(this)) */\n      pop\n      pop\n      pop\n      pop\n      mload(0x40)\n      returndatasize\n        /* \"--CODEGEN--\":15:17   */\n      0x20\n        /* \"--CODEGEN--\":10:13   */\n      dup2\n        /* \"--CODEGEN--\":7:18   */\n      lt\n        /* \"--CODEGEN--\":4:6   */\n      iszero\n      tag_255\n      jumpi\n        /* \"--CODEGEN--\":31:32   */\n      0x00\n        /* \"--CODEGEN--\":28:29   */\n      dup1\n        /* \"--CODEGEN--\":21:33   */\n      revert\n        /* \"--CODEGEN--\":4:6   */\n    tag_255:\n        /* \"UniswapV2/UniswapV2Pair.sol\":9960:9999  IERC20(token1).balanceOf(address(this)) */\n      dup2\n      add\n      swap1\n      dup1\n      dup1\n      mload\n      swap1\n      0x20\n      add\n      swap1\n      swap3\n      swap2\n      swap1\n      pop\n      pop\n      pop\n        /* \"UniswapV2/UniswapV2Pair.sol\":10001:10009  reserve0 */\n      0x07\n      0x00\n      swap1\n      sload\n      swap1\n      0x0100\n      exp\n      swap1\n      div\n      0xffffffffffffffffffffffffffff\n      and\n        /* \"UniswapV2/UniswapV2Pair.sol\":10011:10019  reserve1 */\n      0x07\n      0x0e\n      swap1\n      sload\n      swap1\n      0x0100\n      exp\n      swap1\n      div\n      0xffffffffffffffffffffffffffff\n      and\n        /* \"UniswapV2/UniswapV2Pair.sol\":9911:9918  _update */\n      tag_146\n        /* \"UniswapV2/UniswapV2Pair.sol\":9911:10020  _update(IERC20(token0).balanceOf(address(this)), IERC20(token1).balanceOf(address(this)), reserve0, reserve1) */\n      jump\t// in\n    tag_247:\n        /* \"UniswapV2/UniswapV2Pair.sol\":1434:1435  1 */\n      0x01\n        /* \"UniswapV2/UniswapV2Pair.sol\":1423:1431  unlocked */\n      0x0b\n        /* \"UniswapV2/UniswapV2Pair.sol\":1423:1435  unlocked = 1 */\n      dup2\n      swap1\n      sstore\n      pop\n        /* \"UniswapV2/UniswapV2Pair.sol\":9862:10027  function sync() external override lock {... */\n      jump\t// out\n        /* \"UniswapV2/UniswapV2Pair.sol\":1690:1974  function _safeTransfer(address token, address to, uint value) private {... */\n    tag_112:\n        /* \"UniswapV2/UniswapV2Pair.sol\":1771:1783  bool success */\n      0x00\n        /* \"UniswapV2/UniswapV2Pair.sol\":1785:1802  bytes memory data */\n      0x60\n        /* \"UniswapV2/UniswapV2Pair.sol\":1806:1811  token */\n      dup5\n        /* \"UniswapV2/UniswapV2Pair.sol\":1806:1816  token.call */\n      0xffffffffffffffffffffffffffffffffffffffff\n      and\n        /* \"UniswapV2/UniswapV2Pair.sol\":631:665  bytes(\"transfer(address,uint256)\") */\n      mload(0x40)\n      dup1\n      0x40\n      add\n      0x40\n      mstore\n      dup1\n      0x19\n      dup2\n      mstore\n      0x20\n      add\n      0x7472616e7366657228616464726573732c75696e743235362900000000000000\n      dup2\n      mstore\n      pop\n        /* \"UniswapV2/UniswapV2Pair.sol\":621:666  keccak256(bytes(\"transfer(address,uint256)\")) */\n      dup1\n      mload\n      swap1\n      0x20\n      add\n      keccak256\n        /* \"UniswapV2/UniswapV2Pair.sol\":1850:1852  to */\n      dup6\n        /* \"UniswapV2/UniswapV2Pair.sol\":1854:1859  value */\n      dup6\n        /* \"UniswapV2/UniswapV2Pair.sol\":1817:1860  abi.encodeWithSelector(SELECTOR, to, value) */\n      add(0x24, mload(0x40))\n      dup1\n      dup4\n      0xffffffffffffffffffffffffffffffffffffffff\n      and\n      0xffffffffffffffffffffffffffffffffffffffff\n      and\n      dup2\n      mstore\n      0x20\n      add\n      dup3\n      dup2\n      mstore\n      0x20\n      add\n      swap3\n      pop\n      pop\n      pop\n      mload(0x40)\n        /* \"--CODEGEN--\":49:53   */\n      0x20\n        /* \"--CODEGEN--\":39:46   */\n      dup2\n        /* \"--CODEGEN--\":30:37   */\n      dup4\n        /* \"--CODEGEN--\":26:47   */\n      sub\n        /* \"--CODEGEN--\":22:54   */\n      sub\n        /* \"--CODEGEN--\":13:20   */\n      dup2\n        /* \"--CODEGEN--\":6:55   */\n      mstore\n        /* \"UniswapV2/UniswapV2Pair.sol\":1817:1860  abi.encodeWithSelector(SELECTOR, to, value) */\n      swap1\n      0x40\n      mstore\n      swap1\n      not(0xffffffffffffffffffffffffffffffffffffffffffffffffffffffff)\n      and\n        /* \"--CODEGEN--\":38:42   */\n      0x20\n        /* \"--CODEGEN--\":29:36   */\n      dup3\n        /* \"--CODEGEN--\":25:43   */\n      add\n        /* \"--CODEGEN--\":67:77   */\n      dup1\n        /* \"--CODEGEN--\":61:78   */\n      mload\n        /* \"--CODEGEN--\":96:154   */\n      0xffffffffffffffffffffffffffffffffffffffffffffffffffffffff\n        /* \"--CODEGEN--\":199:207   */\n      dup4\n        /* \"--CODEGEN--\":192:196   */\n      dup2\n        /* \"--CODEGEN--\":186:190   */\n      dup4\n        /* \"--CODEGEN--\":182:197   */\n      and\n        /* \"--CODEGEN--\":179:208   */\n      or\n        /* \"--CODEGEN--\":167:177   */\n      dup4\n        /* \"--CODEGEN--\":160:209   */\n      mstore\n        /* \"--CODEGEN--\":0:215   */\n      pop\n      pop\n      pop\n        /* \"UniswapV2/UniswapV2Pair.sol\":1817:1860  abi.encodeWithSelector(SELECTOR, to, value) */\n      pop\n        /* \"UniswapV2/UniswapV2Pair.sol\":1806:1861  token.call(abi.encodeWithSelector(SELECTOR, to, value)) */\n      mload(0x40)\n      dup1\n      dup3\n      dup1\n      mload\n      swap1\n      0x20\n      add\n      swap1\n      dup1\n      dup4\n      dup4\n        /* \"--CODEGEN--\":36:189   */\n    tag_257:\n        /* \"--CODEGEN--\":66:68   */\n      0x20\n        /* \"--CODEGEN--\":61:64   */\n      dup4\n        /* \"--CODEGEN--\":58:69   */\n      lt\n        /* \"--CODEGEN--\":36:189   */\n      tag_259\n      jumpi\n        /* \"--CODEGEN--\":182:185   */\n      dup1\n        /* \"--CODEGEN--\":176:186   */\n      mload\n        /* \"--CODEGEN--\":171:174   */\n      dup3\n        /* \"--CODEGEN--\":164:187   */\n      mstore\n        /* \"--CODEGEN--\":98:100   */\n      0x20\n        /* \"--CODEGEN--\":93:96   */\n      dup3\n        /* \"--CODEGEN--\":89:101   */\n      add\n        /* \"--CODEGEN--\":82:101   */\n      swap2\n      pop\n        /* \"--CODEGEN--\":123:125   */\n      0x20\n        /* \"--CODEGEN--\":118:121   */\n      dup2\n        /* \"--CODEGEN--\":114:126   */\n      add\n        /* \"--CODEGEN--\":107:126   */\n      swap1\n      pop\n        /* \"--CODEGEN--\":148:150   */\n      0x20\n        /* \"--CODEGEN--\":143:146   */\n      dup4\n        /* \"--CODEGEN--\":139:151   */\n      sub\n        /* \"--CODEGEN--\":132:151   */\n      swap3\n      pop\n        /* \"--CODEGEN--\":36:189   */\n      jump(tag_257)\n    tag_259:\n        /* \"--CODEGEN--\":274:275   */\n      0x01\n        /* \"--CODEGEN--\":267:270   */\n      dup4\n        /* \"--CODEGEN--\":263:265   */\n      0x20\n        /* \"--CODEGEN--\":259:271   */\n      sub\n        /* \"--CODEGEN--\":254:257   */\n      0x0100\n        /* \"--CODEGEN--\":250:272   */\n      exp\n        /* \"--CODEGEN--\":246:276   */\n      sub\n        /* \"--CODEGEN--\":315:319   */\n      dup1\n        /* \"--CODEGEN--\":311:320   */\n      not\n        /* \"--CODEGEN--\":305:308   */\n      dup3\n        /* \"--CODEGEN--\":299:309   */\n      mload\n        /* \"--CODEGEN--\":295:321   */\n      and\n        /* \"--CODEGEN--\":356:360   */\n      dup2\n        /* \"--CODEGEN--\":350:353   */\n      dup5\n        /* \"--CODEGEN--\":344:354   */\n      mload\n        /* \"--CODEGEN--\":340:361   */\n      and\n        /* \"--CODEGEN--\":389:396   */\n      dup1\n        /* \"--CODEGEN--\":380:387   */\n      dup3\n        /* \"--CODEGEN--\":377:397   */\n      or\n        /* \"--CODEGEN--\":372:375   */\n      dup6\n        /* \"--CODEGEN--\":365:398   */\n      mstore\n        /* \"--CODEGEN--\":3:402   */\n      pop\n      pop\n      pop\n        /* \"UniswapV2/UniswapV2Pair.sol\":1806:1861  token.call(abi.encodeWithSelector(SELECTOR, to, value)) */\n      pop\n      pop\n      pop\n      swap1\n      pop\n      add\n      swap2\n      pop\n      pop\n      0x00\n      mload(0x40)\n      dup1\n      dup4\n      sub\n      dup2\n      0x00\n      dup7\n      gas\n      call\n      swap2\n      pop\n      pop\n      returndatasize\n        /* \"--CODEGEN--\":12:13   */\n      dup1\n        /* \"--CODEGEN--\":19:20   */\n      0x00\n        /* \"--CODEGEN--\":14:41   */\n      dup2\n      eq\n      tag_262\n      jumpi\n        /* \"--CODEGEN--\":67:71   */\n      0x40\n        /* \"--CODEGEN--\":61:72   */\n      mload\n        /* \"--CODEGEN--\":56:72   */\n      swap2\n      pop\n        /* \"--CODEGEN--\":134:138   */\n      0x1f\n        /* \"--CODEGEN--\":130:139   */\n      not\n        /* \"--CODEGEN--\":123:127   */\n      0x3f\n        /* \"--CODEGEN--\":105:121   */\n      returndatasize\n        /* \"--CODEGEN--\":101:128   */\n      add\n        /* \"--CODEGEN--\":97:140   */\n      and\n        /* \"--CODEGEN--\":94:95   */\n      dup3\n        /* \"--CODEGEN--\":90:141   */\n      add\n        /* \"--CODEGEN--\":84:88   */\n      0x40\n        /* \"--CODEGEN--\":77:142   */\n      mstore\n        /* \"--CODEGEN--\":157:173   */\n      returndatasize\n        /* \"--CODEGEN--\":154:155   */\n      dup3\n        /* \"--CODEGEN--\":147:174   */\n      mstore\n        /* \"--CODEGEN--\":211:227   */\n      returndatasize\n        /* \"--CODEGEN--\":208:209   */\n      0x00\n        /* \"--CODEGEN--\":201:205   */\n      0x20\n        /* \"--CODEGEN--\":198:199   */\n      dup5\n        /* \"--CODEGEN--\":194:206   */\n      add\n        /* \"--CODEGEN--\":179:228   */\n      returndatacopy\n        /* \"--CODEGEN--\":5:233   */\n      jump(tag_261)\n        /* \"--CODEGEN--\":14:41   */\n    tag_262:\n        /* \"--CODEGEN--\":32:36   */\n      0x60\n        /* \"--CODEGEN--\":27:36   */\n      swap2\n      pop\n        /* \"--CODEGEN--\":5:233   */\n    tag_261:\n      pop\n        /* \"UniswapV2/UniswapV2Pair.sol\":1770:1861  (bool success, bytes memory data) = token.call(abi.encodeWithSelector(SELECTOR, to, value)) */\n      swap2\n      pop\n      swap2\n      pop\n        /* \"UniswapV2/UniswapV2Pair.sol\":1879:1886  success */\n      dup2\n        /* \"UniswapV2/UniswapV2Pair.sol\":1879:1936  success && (data.length == 0 || abi.decode(data, (bool))) */\n      dup1\n      iszero\n      tag_263\n      jumpi\n      pop\n        /* \"UniswapV2/UniswapV2Pair.sol\":1906:1907  0 */\n      0x00\n        /* \"UniswapV2/UniswapV2Pair.sol\":1891:1895  data */\n      dup2\n        /* \"UniswapV2/UniswapV2Pair.sol\":1891:1902  data.length */\n      mload\n        /* \"UniswapV2/UniswapV2Pair.sol\":1891:1907  data.length == 0 */\n      eq\n        /* \"UniswapV2/UniswapV2Pair.sol\":1891:1935  data.length == 0 || abi.decode(data, (bool)) */\n      dup1\n      tag_264\n      jumpi\n      pop\n        /* \"UniswapV2/UniswapV2Pair.sol\":1922:1926  data */\n      dup1\n        /* \"UniswapV2/UniswapV2Pair.sol\":1911:1935  abi.decode(data, (bool)) */\n      dup1\n      0x20\n      add\n      swap1\n      mload\n        /* \"--CODEGEN--\":15:17   */\n      0x20\n        /* \"--CODEGEN--\":10:13   */\n      dup2\n        /* \"--CODEGEN--\":7:18   */\n      lt\n        /* \"--CODEGEN--\":4:6   */\n      iszero\n      tag_265\n      jumpi\n        /* \"--CODEGEN--\":31:32   */\n      0x00\n        /* \"--CODEGEN--\":28:29   */\n      dup1\n        /* \"--CODEGEN--\":21:33   */\n      revert\n        /* \"--CODEGEN--\":4:6   */\n    tag_265:\n        /* \"UniswapV2/UniswapV2Pair.sol\":1911:1935  abi.decode(data, (bool)) */\n      dup2\n      add\n      swap1\n      dup1\n      dup1\n      mload\n      swap1\n      0x20\n      add\n      swap1\n      swap3\n      swap2\n      swap1\n      pop\n      pop\n      pop\n        /* \"UniswapV2/UniswapV2Pair.sol\":1891:1935  data.length == 0 || abi.decode(data, (bool)) */\n    tag_264:\n        /* \"UniswapV2/UniswapV2Pair.sol\":1879:1936  success && (data.length == 0 || abi.decode(data, (bool))) */\n    tag_263:\n        /* \"UniswapV2/UniswapV2Pair.sol\":1871:1967  require(success && (data.length == 0 || abi.decode(data, (bool))), 'UniswapV2: TRANSFER_FAILED') */\n      tag_266\n      jumpi\n      mload(0x40)\n      0x08c379a000000000000000000000000000000000000000000000000000000000\n      dup2\n      mstore\n      0x04\n      add\n      dup1\n      dup1\n      0x20\n      add\n      dup3\n      dup2\n      sub\n      dup3\n      mstore\n      0x1a\n      dup2\n      mstore\n      0x20\n      add\n      dup1\n      0x556e697377617056323a205452414e534645525f4641494c4544000000000000\n      dup2\n      mstore\n      pop\n      0x20\n      add\n      swap2\n      pop\n      pop\n      mload(0x40)\n      dup1\n      swap2\n      sub\n      swap1\n      revert\n    tag_266:\n        /* \"UniswapV2/UniswapV2Pair.sol\":1690:1974  function _safeTransfer(address token, address to, uint value) private {... */\n      pop\n      pop\n      pop\n      pop\n      pop\n      jump\t// out\n        /* \"UniswapV2/libraries/SafeMath.sol\":421:561  function mul(uint x, uint y) internal pure returns (uint z) {... */\n    tag_135:\n        /* \"UniswapV2/libraries/SafeMath.sol\":473:479  uint z */\n      0x00\n        /* \"UniswapV2/libraries/SafeMath.sol\":504:505  0 */\n      dup1\n        /* \"UniswapV2/libraries/SafeMath.sol\":499:500  y */\n      dup3\n        /* \"UniswapV2/libraries/SafeMath.sol\":499:505  y == 0 */\n      eq\n        /* \"UniswapV2/libraries/SafeMath.sol\":499:529  y == 0 || (z = x * y) / y == x */\n      dup1\n      tag_268\n      jumpi\n      pop\n        /* \"UniswapV2/libraries/SafeMath.sol\":528:529  x */\n      dup3\n        /* \"UniswapV2/libraries/SafeMath.sol\":523:524  y */\n      dup3\n        /* \"UniswapV2/libraries/SafeMath.sol\":518:519  y */\n      dup4\n        /* \"UniswapV2/libraries/SafeMath.sol\":514:515  x */\n      dup6\n        /* \"UniswapV2/libraries/SafeMath.sol\":514:519  x * y */\n      mul\n        /* \"UniswapV2/libraries/SafeMath.sol\":510:519  z = x * y */\n      swap3\n      pop\n      dup3\n        /* \"UniswapV2/libraries/SafeMath.sol\":509:524  (z = x * y) / y */\n      dup2\n      tag_269\n      jumpi\n      invalid\n    tag_269:\n      div\n        /* \"UniswapV2/libraries/SafeMath.sol\":509:529  (z = x * y) / y == x */\n      eq\n        /* \"UniswapV2/libraries/SafeMath.sol\":499:529  y == 0 || (z = x * y) / y == x */\n    tag_268:\n        /* \"UniswapV2/libraries/SafeMath.sol\":491:554  require(y == 0 || (z = x * y) / y == x, 'ds-math-mul-overflow') */\n      tag_270\n      jumpi\n      mload(0x40)\n      0x08c379a000000000000000000000000000000000000000000000000000000000\n      dup2\n      mstore\n      0x04\n      add\n      dup1\n      dup1\n      0x20\n      add\n      dup3\n      dup2\n      sub\n      dup3\n      mstore\n      0x14\n      dup2\n      mstore\n      0x20\n      add\n      dup1\n      0x64732d6d6174682d6d756c2d6f766572666c6f77000000000000000000000000\n      dup2\n      mstore\n      pop\n      0x20\n      add\n      swap2\n      pop\n      pop\n      mload(0x40)\n      dup1\n      swap2\n      sub\n      swap1\n      revert\n    tag_270:\n        /* \"UniswapV2/libraries/SafeMath.sol\":421:561  function mul(uint x, uint y) internal pure returns (uint z) {... */\n      swap3\n      swap2\n      pop\n      pop\n      jump\t// out\n        /* \"UniswapV2/libraries/SafeMath.sol\":288:415  function sub(uint x, uint y) internal pure returns (uint z) {... */\n    tag_137:\n        /* \"UniswapV2/libraries/SafeMath.sol\":340:346  uint z */\n      0x00\n        /* \"UniswapV2/libraries/SafeMath.sol\":381:382  x */\n      dup3\n        /* \"UniswapV2/libraries/SafeMath.sol\":375:376  y */\n      dup3\n        /* \"UniswapV2/libraries/SafeMath.sol\":371:372  x */\n      dup5\n        /* \"UniswapV2/libraries/SafeMath.sol\":371:376  x - y */\n      sub\n        /* \"UniswapV2/libraries/SafeMath.sol\":367:376  z = x - y */\n      swap2\n      pop\n      dup2\n        /* \"UniswapV2/libraries/SafeMath.sol\":366:382  (z = x - y) <= x */\n      gt\n      iszero\n        /* \"UniswapV2/libraries/SafeMath.sol\":358:408  require((z = x - y) <= x, 'ds-math-sub-underflow') */\n      tag_272\n      jumpi\n      mload(0x40)\n      0x08c379a000000000000000000000000000000000000000000000000000000000\n      dup2\n      mstore\n      0x04\n      add\n      dup1\n      dup1\n      0x20\n      add\n      dup3\n      dup2\n      sub\n      dup3\n      mstore\n      0x15\n      dup2\n      mstore\n      0x20\n      add\n      dup1\n      0x64732d6d6174682d7375622d756e646572666c6f770000000000000000000000\n      dup2\n      mstore\n      pop\n      0x20\n      add\n      swap2\n      pop\n      pop\n      mload(0x40)\n      dup1\n      swap2\n      sub\n      swap1\n      revert\n    tag_272:\n        /* \"UniswapV2/libraries/SafeMath.sol\":288:415  function sub(uint x, uint y) internal pure returns (uint z) {... */\n      swap3\n      swap2\n      pop\n      pop\n      jump\t// out\n        /* \"UniswapV2/UniswapV2Pair.sol\":2786:3633  function _update(uint balance0, uint balance1, uint112 _reserve0, uint112 _reserve1) private {... */\n    tag_146:\n        /* \"UniswapV2/UniswapV2Pair.sol\":2917:2919  -1 */\n      0xffffffffffffffffffffffffffffffffffffffffffffffffffffffffffffffff\n        /* \"UniswapV2/UniswapV2Pair.sol\":2897:2920  balance0 <= uint112(-1) */\n      0xffffffffffffffffffffffffffff\n      and\n        /* \"UniswapV2/UniswapV2Pair.sol\":2897:2905  balance0 */\n      dup5\n        /* \"UniswapV2/UniswapV2Pair.sol\":2897:2920  balance0 <= uint112(-1) */\n      gt\n      iszero\n        /* \"UniswapV2/UniswapV2Pair.sol\":2897:2947  balance0 <= uint112(-1) && balance1 <= uint112(-1) */\n      dup1\n      iszero\n      tag_274\n      jumpi\n      pop\n        /* \"UniswapV2/UniswapV2Pair.sol\":2944:2946  -1 */\n      0xffffffffffffffffffffffffffffffffffffffffffffffffffffffffffffffff\n        /* \"UniswapV2/UniswapV2Pair.sol\":2924:2947  balance1 <= uint112(-1) */\n      0xffffffffffffffffffffffffffff\n      and\n        /* \"UniswapV2/UniswapV2Pair.sol\":2924:2932  balance1 */\n      dup4\n        /* \"UniswapV2/UniswapV2Pair.sol\":2924:2947  balance1 <= uint112(-1) */\n      gt\n      iszero\n        /* \"UniswapV2/UniswapV2Pair.sol\":2897:2947  balance0 <= uint112(-1) && balance1 <= uint112(-1) */\n    tag_274:\n        /* \"UniswapV2/UniswapV2Pair.sol\":2889:2971  require(balance0 <= uint112(-1) && balance1 <= uint112(-1), 'UniswapV2: OVERFLOW') */\n      tag_275\n      jumpi\n      mload(0x40)\n      0x08c379a000000000000000000000000000000000000000000000000000000000\n      dup2\n      mstore\n      0x04\n      add\n      dup1\n      dup1\n      0x20\n      add\n      dup3\n      dup2\n      sub\n      dup3\n      mstore\n      0x13\n      dup2\n      mstore\n      0x20\n      add\n      dup1\n      0x556e697377617056323a204f564552464c4f5700000000000000000000000000\n      dup2\n      mstore\n      pop\n      0x20\n      add\n      swap2\n      pop\n      pop\n      mload(0x40)\n      dup1\n      swap2\n      sub\n      swap1\n      revert\n    tag_275:\n        /* \"UniswapV2/UniswapV2Pair.sol\":2981:3002  uint32 blockTimestamp */\n      0x00\n        /* \"UniswapV2/UniswapV2Pair.sol\":3030:3035  2**32 */\n      0x0100000000\n        /* \"UniswapV2/UniswapV2Pair.sol\":3012:3027  block.timestamp */\n      timestamp\n        /* \"UniswapV2/UniswapV2Pair.sol\":3012:3035  block.timestamp % 2**32 */\n      dup2\n      tag_276\n      jumpi\n      invalid\n    tag_276:\n      mod\n        /* \"UniswapV2/UniswapV2Pair.sol\":2981:3036  uint32 blockTimestamp = uint32(block.timestamp % 2**32) */\n      swap1\n      pop\n        /* \"UniswapV2/UniswapV2Pair.sol\":3046:3064  uint32 timeElapsed */\n      0x00\n        /* \"UniswapV2/UniswapV2Pair.sol\":3084:3102  blockTimestampLast */\n      0x07\n      0x1c\n      swap1\n      sload\n      swap1\n      0x0100\n      exp\n      swap1\n      div\n      0xffffffff\n      and\n        /* \"UniswapV2/UniswapV2Pair.sol\":3067:3081  blockTimestamp */\n      dup3\n        /* \"UniswapV2/UniswapV2Pair.sol\":3067:3102  blockTimestamp - blockTimestampLast */\n      sub\n        /* \"UniswapV2/UniswapV2Pair.sol\":3046:3102  uint32 timeElapsed = blockTimestamp - blockTimestampLast */\n      swap1\n      pop\n        /* \"UniswapV2/UniswapV2Pair.sol\":3153:3154  0 */\n      0x00\n        /* \"UniswapV2/UniswapV2Pair.sol\":3139:3150  timeElapsed */\n      dup2\n        /* \"UniswapV2/UniswapV2Pair.sol\":3139:3154  timeElapsed > 0 */\n      0xffffffff\n      and\n      gt\n        /* \"UniswapV2/UniswapV2Pair.sol\":3139:3172  timeElapsed > 0 && _reserve0 != 0 */\n      dup1\n      iszero\n      tag_277\n      jumpi\n      pop\n        /* \"UniswapV2/UniswapV2Pair.sol\":3171:3172  0 */\n      0x00\n        /* \"UniswapV2/UniswapV2Pair.sol\":3158:3167  _reserve0 */\n      dup5\n        /* \"UniswapV2/UniswapV2Pair.sol\":3158:3172  _reserve0 != 0 */\n      0xffffffffffffffffffffffffffff\n      and\n      eq\n      iszero\n        /* \"UniswapV2/UniswapV2Pair.sol\":3139:3172  timeElapsed > 0 && _reserve0 != 0 */\n    tag_277:\n        /* \"UniswapV2/UniswapV2Pair.sol\":3139:3190  timeElapsed > 0 && _reserve0 != 0 && _reserve1 != 0 */\n      dup1\n      iszero\n      tag_278\n      jumpi\n      pop\n        /* \"UniswapV2/UniswapV2Pair.sol\":3189:3190  0 */\n      0x00\n        /* \"UniswapV2/UniswapV2Pair.sol\":3176:3185  _reserve1 */\n      dup4\n        /* \"UniswapV2/UniswapV2Pair.sol\":3176:3190  _reserve1 != 0 */\n      0xffffffffffffffffffffffffffff\n      and\n      eq\n      iszero\n        /* \"UniswapV2/UniswapV2Pair.sol\":3139:3190  timeElapsed > 0 && _reserve0 != 0 && _reserve1 != 0 */\n    tag_278:\n        /* \"UniswapV2/UniswapV2Pair.sol\":3135:3467  if (timeElapsed > 0 && _reserve0 != 0 && _reserve1 != 0) {... */\n      iszero\n      tag_279\n      jumpi\n        /* \"UniswapV2/UniswapV2Pair.sol\":3343:3354  timeElapsed */\n      dup1\n        /* \"UniswapV2/UniswapV2Pair.sol\":3290:3354  uint(UQ112x112.encode(_reserve1).uqdiv(_reserve0)) * timeElapsed */\n      0xffffffff\n      and\n        /* \"UniswapV2/UniswapV2Pair.sol\":3295:3339  UQ112x112.encode(_reserve1).uqdiv(_reserve0) */\n      tag_280\n        /* \"UniswapV2/UniswapV2Pair.sol\":3329:3338  _reserve0 */\n      dup6\n        /* \"UniswapV2/UniswapV2Pair.sol\":3295:3322  UQ112x112.encode(_reserve1) */\n      tag_281\n        /* \"UniswapV2/UniswapV2Pair.sol\":3312:3321  _reserve1 */\n      dup7\n        /* \"UniswapV2/UniswapV2Pair.sol\":3295:3311  UQ112x112.encode */\n      tag_282\n        /* \"UniswapV2/UniswapV2Pair.sol\":3295:3322  UQ112x112.encode(_reserve1) */\n      jump\t// in\n    tag_281:\n        /* \"UniswapV2/UniswapV2Pair.sol\":3295:3328  UQ112x112.encode(_reserve1).uqdiv */\n      0xffffffffffffffffffffffffffffffffffffffffffffffffffffffff\n      and\n      tag_283\n      swap1\n        /* \"UniswapV2/UniswapV2Pair.sol\":3295:3339  UQ112x112.encode(_reserve1).uqdiv(_reserve0) */\n      swap2\n      swap1\n      0xffffffff\n      and\n      jump\t// in\n    tag_280:\n        /* \"UniswapV2/UniswapV2Pair.sol\":3290:3340  uint(UQ112x112.encode(_reserve1).uqdiv(_reserve0)) */\n      0xffffffffffffffffffffffffffffffffffffffffffffffffffffffff\n      and\n        /* \"UniswapV2/UniswapV2Pair.sol\":3290:3354  uint(UQ112x112.encode(_reserve1).uqdiv(_reserve0)) * timeElapsed */\n      mul\n        /* \"UniswapV2/UniswapV2Pair.sol\":3266:3286  price0CumulativeLast */\n      0x08\n      0x00\n        /* \"UniswapV2/UniswapV2Pair.sol\":3266:3354  price0CumulativeLast += uint(UQ112x112.encode(_reserve1).uqdiv(_reserve0)) * timeElapsed */\n      dup3\n      dup3\n      sload\n      add\n      swap3\n      pop\n      pop\n      dup2\n      swap1\n      sstore\n      pop\n        /* \"UniswapV2/UniswapV2Pair.sol\":3445:3456  timeElapsed */\n      dup1\n        /* \"UniswapV2/UniswapV2Pair.sol\":3392:3456  uint(UQ112x112.encode(_reserve0).uqdiv(_reserve1)) * timeElapsed */\n      0xffffffff\n      and\n        /* \"UniswapV2/UniswapV2Pair.sol\":3397:3441  UQ112x112.encode(_reserve0).uqdiv(_reserve1) */\n      tag_284\n        /* \"UniswapV2/UniswapV2Pair.sol\":3431:3440  _reserve1 */\n      dup5\n        /* \"UniswapV2/UniswapV2Pair.sol\":3397:3424  UQ112x112.encode(_reserve0) */\n      tag_285\n        /* \"UniswapV2/UniswapV2Pair.sol\":3414:3423  _reserve0 */\n      dup8\n        /* \"UniswapV2/UniswapV2Pair.sol\":3397:3413  UQ112x112.encode */\n      tag_282\n        /* \"UniswapV2/UniswapV2Pair.sol\":3397:3424  UQ112x112.encode(_reserve0) */\n      jump\t// in\n    tag_285:\n        /* \"UniswapV2/UniswapV2Pair.sol\":3397:3430  UQ112x112.encode(_reserve0).uqdiv */\n      0xffffffffffffffffffffffffffffffffffffffffffffffffffffffff\n      and\n      tag_283\n      swap1\n        /* \"UniswapV2/UniswapV2Pair.sol\":3397:3441  UQ112x112.encode(_reserve0).uqdiv(_reserve1) */\n      swap2\n      swap1\n      0xffffffff\n      and\n      jump\t// in\n    tag_284:\n        /* \"UniswapV2/UniswapV2Pair.sol\":3392:3442  uint(UQ112x112.encode(_reserve0).uqdiv(_reserve1)) */\n      0xffffffffffffffffffffffffffffffffffffffffffffffffffffffff\n      and\n        /* \"UniswapV2/UniswapV2Pair.sol\":3392:3456  uint(UQ112x112.encode(_reserve0).uqdiv(_reserve1)) * timeElapsed */\n      mul\n        /* \"UniswapV2/UniswapV2Pair.sol\":3368:3388  price1CumulativeLast */\n      0x09\n      0x00\n        /* \"UniswapV2/UniswapV2Pair.sol\":3368:3456  price1CumulativeLast += uint(UQ112x112.encode(_reserve0).uqdiv(_reserve1)) * timeElapsed */\n      dup3\n      dup3\n      sload\n      add\n      swap3\n      pop\n      pop\n      dup2\n      swap1\n      sstore\n      pop\n        /* \"UniswapV2/UniswapV2Pair.sol\":3135:3467  if (timeElapsed > 0 && _reserve0 != 0 && _reserve1 != 0) {... */\n    tag_279:\n        /* \"UniswapV2/UniswapV2Pair.sol\":3495:3503  balance0 */\n      dup6\n        /* \"UniswapV2/UniswapV2Pair.sol\":3476:3484  reserve0 */\n      0x07\n      0x00\n        /* \"UniswapV2/UniswapV2Pair.sol\":3476:3504  reserve0 = uint112(balance0) */\n      0x0100\n      exp\n      dup2\n      sload\n      dup2\n      0xffffffffffffffffffffffffffff\n      mul\n      not\n      and\n      swap1\n      dup4\n      0xffffffffffffffffffffffffffff\n      and\n      mul\n      or\n      swap1\n      sstore\n      pop\n        /* \"UniswapV2/UniswapV2Pair.sol\":3533:3541  balance1 */\n      dup5\n        /* \"UniswapV2/UniswapV2Pair.sol\":3514:3522  reserve1 */\n      0x07\n      0x0e\n        /* \"UniswapV2/UniswapV2Pair.sol\":3514:3542  reserve1 = uint112(balance1) */\n      0x0100\n      exp\n      dup2\n      sload\n      dup2\n      0xffffffffffffffffffffffffffff\n      mul\n      not\n      and\n      swap1\n      dup4\n      0xffffffffffffffffffffffffffff\n      and\n      mul\n      or\n      swap1\n      sstore\n      pop\n        /* \"UniswapV2/UniswapV2Pair.sol\":3573:3587  blockTimestamp */\n      dup2\n        /* \"UniswapV2/UniswapV2Pair.sol\":3552:3570  blockTimestampLast */\n      0x07\n      0x1c\n        /* \"UniswapV2/UniswapV2Pair.sol\":3552:3587  blockTimestampLast = blockTimestamp */\n      0x0100\n      exp\n      dup2\n      sload\n      dup2\n      0xffffffff\n      mul\n      not\n      and\n      swap1\n      dup4\n      0xffffffff\n      and\n      mul\n      or\n      swap1\n      sstore\n      pop\n        /* \"UniswapV2/UniswapV2Pair.sol\":3602:3626  Sync(reserve0, reserve1) */\n      0x1c411e9a96e071241c2f21f7726b17ae89e3cab4c78be50e062b03a9fffbbad1\n        /* \"UniswapV2/UniswapV2Pair.sol\":3607:3615  reserve0 */\n      0x07\n      0x00\n      swap1\n      sload\n      swap1\n      0x0100\n      exp\n      swap1\n      div\n      0xffffffffffffffffffffffffffff\n      and\n        /* \"UniswapV2/UniswapV2Pair.sol\":3617:3625  reserve1 */\n      0x07\n      0x0e\n      swap1\n      sload\n      swap1\n      0x0100\n      exp\n      swap1\n      div\n      0xffffffffffffffffffffffffffff\n      and\n        /* \"UniswapV2/UniswapV2Pair.sol\":3602:3626  Sync(reserve0, reserve1) */\n      mload(0x40)\n      dup1\n      dup4\n      0xffffffffffffffffffffffffffff\n      and\n      0xffffffffffffffffffffffffffff\n      and\n      dup2\n      mstore\n      0x20\n      add\n      dup3\n      0xffffffffffffffffffffffffffff\n      and\n      0xffffffffffffffffffffffffffff\n      and\n      dup2\n      mstore\n      0x20\n      add\n      swap3\n      pop\n      pop\n      pop\n      mload(0x40)\n      dup1\n      swap2\n      sub\n      swap1\n      log1\n        /* \"UniswapV2/UniswapV2Pair.sol\":2786:3633  function _update(uint balance0, uint balance1, uint112 _reserve0, uint112 _reserve1) private {... */\n      pop\n      pop\n      pop\n      pop\n      pop\n      pop\n      jump\t// out\n        /* \"UniswapV2/UniswapV2ERC20.sol\":1130:1296  function _approve(address owner, address spender, uint value) private {... */\n    tag_150:\n        /* \"UniswapV2/UniswapV2ERC20.sol\":1238:1243  value */\n      dup1\n        /* \"UniswapV2/UniswapV2ERC20.sol\":1210:1219  allowance */\n      0x02\n        /* \"UniswapV2/UniswapV2ERC20.sol\":1210:1226  allowance[owner] */\n      0x00\n        /* \"UniswapV2/UniswapV2ERC20.sol\":1220:1225  owner */\n      dup6\n        /* \"UniswapV2/UniswapV2ERC20.sol\":1210:1226  allowance[owner] */\n      0xffffffffffffffffffffffffffffffffffffffff\n      and\n      0xffffffffffffffffffffffffffffffffffffffff\n      and\n      dup2\n      mstore\n      0x20\n      add\n      swap1\n      dup2\n      mstore\n      0x20\n      add\n      0x00\n      keccak256\n        /* \"UniswapV2/UniswapV2ERC20.sol\":1210:1235  allowance[owner][spender] */\n      0x00\n        /* \"UniswapV2/UniswapV2ERC20.sol\":1227:1234  spender */\n      dup5\n        /* \"UniswapV2/UniswapV2ERC20.sol\":1210:1235  allowance[owner][spender] */\n      0xffffffffffffffffffffffffffffffffffffffff\n      and\n      0xffffffffffffffffffffffffffffffffffffffff\n      and\n      dup2\n      mstore\n      0x20\n      add\n      swap1\n      dup2\n      mstore\n      0x20\n      add\n      0x00\n      keccak256\n        /* \"UniswapV2/UniswapV2ERC20.sol\":1210:1243  allowance[owner][spender] = value */\n      dup2\n      swap1\n      sstore\n      pop\n        /* \"UniswapV2/UniswapV2ERC20.sol\":1274:1281  spender */\n      dup2\n        /* \"UniswapV2/UniswapV2ERC20.sol\":1258:1289  Approval(owner, spender, value) */\n      0xffffffffffffffffffffffffffffffffffffffff\n      and\n        /* \"UniswapV2/UniswapV2ERC20.sol\":1267:1272  owner */\n      dup4\n        /* \"UniswapV2/UniswapV2ERC20.sol\":1258:1289  Approval(owner, spender, value) */\n      0xffffffffffffffffffffffffffffffffffffffff\n      and\n      0x8c5be1e5ebec7d5bd14f71427d1e84f3dd0314c0f7b2291e5b200ac8c7c3b925\n        /* \"UniswapV2/UniswapV2ERC20.sol\":1283:1288  value */\n      dup4\n        /* \"UniswapV2/UniswapV2ERC20.sol\":1258:1289  Approval(owner, spender, value) */\n      mload(0x40)\n      dup1\n      dup3\n      dup2\n      mstore\n      0x20\n      add\n      swap2\n      pop\n      pop\n      mload(0x40)\n      dup1\n      swap2\n      sub\n      swap1\n      log3\n        /* \"UniswapV2/UniswapV2ERC20.sol\":1130:1296  function _approve(address owner, address spender, uint value) private {... */\n      pop\n      pop\n      pop\n      jump\t// out\n        /* \"UniswapV2/UniswapV2ERC20.sol\":1302:1518  function _transfer(address from, address to, uint value) private {... */\n    tag_155:\n        /* \"UniswapV2/UniswapV2ERC20.sol\":1395:1421  balanceOf[from].sub(value) */\n      tag_288\n        /* \"UniswapV2/UniswapV2ERC20.sol\":1415:1420  value */\n      dup2\n        /* \"UniswapV2/UniswapV2ERC20.sol\":1395:1404  balanceOf */\n      0x01\n        /* \"UniswapV2/UniswapV2ERC20.sol\":1395:1410  balanceOf[from] */\n      0x00\n        /* \"UniswapV2/UniswapV2ERC20.sol\":1405:1409  from */\n      dup7\n        /* \"UniswapV2/UniswapV2ERC20.sol\":1395:1410  balanceOf[from] */\n      0xffffffffffffffffffffffffffffffffffffffff\n      and\n      0xffffffffffffffffffffffffffffffffffffffff\n      and\n      dup2\n      mstore\n      0x20\n      add\n      swap1\n      dup2\n      mstore\n      0x20\n      add\n      0x00\n      keccak256\n      sload\n        /* \"UniswapV2/UniswapV2ERC20.sol\":1395:1414  balanceOf[from].sub */\n      tag_137\n      swap1\n        /* \"UniswapV2/UniswapV2ERC20.sol\":1395:1421  balanceOf[from].sub(value) */\n      swap2\n      swap1\n      0xffffffff\n      and\n      jump\t// in\n    tag_288:\n        /* \"UniswapV2/UniswapV2ERC20.sol\":1377:1386  balanceOf */\n      0x01\n        /* \"UniswapV2/UniswapV2ERC20.sol\":1377:1392  balanceOf[from] */\n      0x00\n        /* \"UniswapV2/UniswapV2ERC20.sol\":1387:1391  from */\n      dup6\n        /* \"UniswapV2/UniswapV2ERC20.sol\":1377:1392  balanceOf[from] */\n      0xffffffffffffffffffffffffffffffffffffffff\n      and\n      0xffffffffffffffffffffffffffffffffffffffff\n      and\n      dup2\n      mstore\n      0x20\n      add\n      swap1\n      dup2\n      mstore\n      0x20\n      add\n      0x00\n      keccak256\n        /* \"UniswapV2/UniswapV2ERC20.sol\":1377:1421  balanceOf[from] = balanceOf[from].sub(value) */\n      dup2\n      swap1\n      sstore\n      pop\n        /* \"UniswapV2/UniswapV2ERC20.sol\":1447:1471  balanceOf[to].add(value) */\n      tag_289\n        /* \"UniswapV2/UniswapV2ERC20.sol\":1465:1470  value */\n      dup2\n        /* \"UniswapV2/UniswapV2ERC20.sol\":1447:1456  balanceOf */\n      0x01\n        /* \"UniswapV2/UniswapV2ERC20.sol\":1447:1460  balanceOf[to] */\n      0x00\n        /* \"UniswapV2/UniswapV2ERC20.sol\":1457:1459  to */\n      dup6\n        /* \"UniswapV2/UniswapV2ERC20.sol\":1447:1460  balanceOf[to] */\n      0xffffffffffffffffffffffffffffffffffffffff\n      and\n      0xffffffffffffffffffffffffffffffffffffffff\n      and\n      dup2\n      mstore\n      0x20\n      add\n      swap1\n      dup2\n      mstore\n      0x20\n      add\n      0x00\n      keccak256\n      sload\n        /* \"UniswapV2/UniswapV2ERC20.sol\":1447:1464  balanceOf[to].add */\n      tag_290\n      swap1\n        /* \"UniswapV2/UniswapV2ERC20.sol\":1447:1471  balanceOf[to].add(value) */\n      swap2\n      swap1\n      0xffffffff\n      and\n      jump\t// in\n    tag_289:\n        /* \"UniswapV2/UniswapV2ERC20.sol\":1431:1440  balanceOf */\n      0x01\n        /* \"UniswapV2/UniswapV2ERC20.sol\":1431:1444  balanceOf[to] */\n      0x00\n        /* \"UniswapV2/UniswapV2ERC20.sol\":1441:1443  to */\n      dup5\n        /* \"UniswapV2/UniswapV2ERC20.sol\":1431:1444  balanceOf[to] */\n      0xffffffffffffffffffffffffffffffffffffffff\n      and\n      0xffffffffffffffffffffffffffffffffffffffff\n      and\n      dup2\n      mstore\n      0x20\n      add\n      swap1\n      dup2\n      mstore\n      0x20\n      add\n      0x00\n      keccak256\n        /* \"UniswapV2/UniswapV2ERC20.sol\":1431:1471  balanceOf[to] = balanceOf[to].add(value) */\n      dup2\n      swap1\n      sstore\n      pop\n        /* \"UniswapV2/UniswapV2ERC20.sol\":1501:1503  to */\n      dup2\n        /* \"UniswapV2/UniswapV2ERC20.sol\":1486:1511  Transfer(from, to, value) */\n      0xffffffffffffffffffffffffffffffffffffffff\n      and\n        /* \"UniswapV2/UniswapV2ERC20.sol\":1495:1499  from */\n      dup4\n        /* \"UniswapV2/UniswapV2ERC20.sol\":1486:1511  Transfer(from, to, value) */\n      0xffffffffffffffffffffffffffffffffffffffff\n      and\n      0xddf252ad1be2c89b69c2b068fc378daa952ba7f163c4a11628f55a4df523b3ef\n        /* \"UniswapV2/UniswapV2ERC20.sol\":1505:1510  value */\n      dup4\n        /* \"UniswapV2/UniswapV2ERC20.sol\":1486:1511  Transfer(from, to, value) */\n      mload(0x40)\n      dup1\n      dup3\n      dup2\n      mstore\n      0x20\n      add\n      swap2\n      pop\n      pop\n      mload(0x40)\n      dup1\n      swap2\n      sub\n      swap1\n      log3\n        /* \"UniswapV2/UniswapV2ERC20.sol\":1302:1518  function _transfer(address from, address to, uint value) private {... */\n      pop\n      pop\n      pop\n      jump\t// out\n        /* \"UniswapV2/UniswapV2Pair.sol\":3720:4547  function _mintFee(uint112 _reserve0, uint112 _reserve1) private returns (bool feeOn) {... */\n    tag_173:\n        /* \"UniswapV2/UniswapV2Pair.sol\":3793:3803  bool feeOn */\n      0x00\n        /* \"UniswapV2/UniswapV2Pair.sol\":3815:3828  address feeTo */\n      dup1\n        /* \"UniswapV2/UniswapV2Pair.sol\":3849:3856  factory */\n      0x04\n      0x00\n      swap1\n      sload\n      swap1\n      0x0100\n      exp\n      swap1\n      div\n      0xffffffffffffffffffffffffffffffffffffffff\n      and\n        /* \"UniswapV2/UniswapV2Pair.sol\":3831:3863  IUniswapV2Factory(factory).feeTo */\n      0xffffffffffffffffffffffffffffffffffffffff\n      and\n      0x017e7e58\n        /* \"UniswapV2/UniswapV2Pair.sol\":3831:3865  IUniswapV2Factory(factory).feeTo() */\n      mload(0x40)\n      dup2\n      0xffffffff\n      and\n      0xe0\n      shl\n      dup2\n      mstore\n      0x04\n      add\n      0x20\n      mload(0x40)\n      dup1\n      dup4\n      sub\n      dup2\n      dup7\n      dup1\n      extcodesize\n      iszero\n        /* \"--CODEGEN--\":5:14   */\n      dup1\n        /* \"--CODEGEN--\":2:4   */\n      iszero\n      tag_292\n      jumpi\n        /* \"--CODEGEN--\":27:28   */\n      0x00\n        /* \"--CODEGEN--\":24:25   */\n      dup1\n        /* \"--CODEGEN--\":17:29   */\n      revert\n        /* \"--CODEGEN--\":2:4   */\n    tag_292:\n        /* \"UniswapV2/UniswapV2Pair.sol\":3831:3865  IUniswapV2Factory(factory).feeTo() */\n      pop\n      gas\n      staticcall\n      iszero\n        /* \"--CODEGEN--\":8:17   */\n      dup1\n        /* \"--CODEGEN--\":5:7   */\n      iszero\n      tag_294\n      jumpi\n        /* \"--CODEGEN--\":45:61   */\n      returndatasize\n        /* \"--CODEGEN--\":42:43   */\n      0x00\n        /* \"--CODEGEN--\":39:40   */\n      dup1\n        /* \"--CODEGEN--\":24:62   */\n      returndatacopy\n        /* \"--CODEGEN--\":77:93   */\n      returndatasize\n        /* \"--CODEGEN--\":74:75   */\n      0x00\n        /* \"--CODEGEN--\":67:94   */\n      revert\n        /* \"--CODEGEN--\":5:7   */\n    tag_294:\n        /* \"UniswapV2/UniswapV2Pair.sol\":3831:3865  IUniswapV2Factory(factory).feeTo() */\n      pop\n      pop\n      pop\n      pop\n      mload(0x40)\n      returndatasize\n        /* \"--CODEGEN--\":15:17   */\n      0x20\n        /* \"--CODEGEN--\":10:13   */\n      dup2\n        /* \"--CODEGEN--\":7:18   */\n      lt\n        /* \"--CODEGEN--\":4:6   */\n      iszero\n      tag_295\n      jumpi\n        /* \"--CODEGEN--\":31:32   */\n      0x00\n        /* \"--CODEGEN--\":28:29   */\n      dup1\n        /* \"--CODEGEN--\":21:33   */\n      revert\n        /* \"--CODEGEN--\":4:6   */\n    tag_295:\n        /* \"UniswapV2/UniswapV2Pair.sol\":3831:3865  IUniswapV2Factory(factory).feeTo() */\n      dup2\n      add\n      swap1\n      dup1\n      dup1\n      mload\n      swap1\n      0x20\n      add\n      swap1\n      swap3\n      swap2\n      swap1\n      pop\n      pop\n      pop\n        /* \"UniswapV2/UniswapV2Pair.sol\":3815:3865  address feeTo = IUniswapV2Factory(factory).feeTo() */\n      swap1\n      pop\n        /* \"UniswapV2/UniswapV2Pair.sol\":3900:3901  0 */\n      0x00\n        /* \"UniswapV2/UniswapV2Pair.sol\":3883:3902  feeTo != address(0) */\n      0xffffffffffffffffffffffffffffffffffffffff\n      and\n        /* \"UniswapV2/UniswapV2Pair.sol\":3883:3888  feeTo */\n      dup2\n        /* \"UniswapV2/UniswapV2Pair.sol\":3883:3902  feeTo != address(0) */\n      0xffffffffffffffffffffffffffffffffffffffff\n      and\n      eq\n      iszero\n        /* \"UniswapV2/UniswapV2Pair.sol\":3875:3902  feeOn = feeTo != address(0) */\n      swap2\n      pop\n        /* \"UniswapV2/UniswapV2Pair.sol\":3912:3923  uint _kLast */\n      0x00\n        /* \"UniswapV2/UniswapV2Pair.sol\":3926:3931  kLast */\n      sload(0x0a)\n        /* \"UniswapV2/UniswapV2Pair.sol\":3912:3931  uint _kLast = kLast */\n      swap1\n      pop\n        /* \"UniswapV2/UniswapV2Pair.sol\":3960:3965  feeOn */\n      dup3\n        /* \"UniswapV2/UniswapV2Pair.sol\":3956:4541  if (feeOn) {... */\n      iszero\n      tag_296\n      jumpi\n        /* \"UniswapV2/UniswapV2Pair.sol\":3995:3996  0 */\n      0x00\n        /* \"UniswapV2/UniswapV2Pair.sol\":3985:3991  _kLast */\n      dup2\n        /* \"UniswapV2/UniswapV2Pair.sol\":3985:3996  _kLast != 0 */\n      eq\n        /* \"UniswapV2/UniswapV2Pair.sol\":3981:4474  if (_kLast != 0) {... */\n      tag_297\n      jumpi\n        /* \"UniswapV2/UniswapV2Pair.sol\":4016:4026  uint rootK */\n      0x00\n        /* \"UniswapV2/UniswapV2Pair.sol\":4029:4074  SafeMath.sqrt(uint(_reserve0).mul(_reserve1)) */\n      tag_298\n        /* \"UniswapV2/UniswapV2Pair.sol\":4043:4073  uint(_reserve0).mul(_reserve1) */\n      tag_299\n        /* \"UniswapV2/UniswapV2Pair.sol\":4063:4072  _reserve1 */\n      dup7\n        /* \"UniswapV2/UniswapV2Pair.sol\":4043:4073  uint(_reserve0).mul(_reserve1) */\n      0xffffffffffffffffffffffffffff\n      and\n        /* \"UniswapV2/UniswapV2Pair.sol\":4048:4057  _reserve0 */\n      dup9\n        /* \"UniswapV2/UniswapV2Pair.sol\":4043:4058  uint(_reserve0) */\n      0xffffffffffffffffffffffffffff\n      and\n        /* \"UniswapV2/UniswapV2Pair.sol\":4043:4062  uint(_reserve0).mul */\n      tag_135\n      swap1\n        /* \"UniswapV2/UniswapV2Pair.sol\":4043:4073  uint(_reserve0).mul(_reserve1) */\n      swap2\n      swap1\n      0xffffffff\n      and\n      jump\t// in\n    tag_299:\n        /* \"UniswapV2/UniswapV2Pair.sol\":4029:4042  SafeMath.sqrt */\n      tag_178\n        /* \"UniswapV2/UniswapV2Pair.sol\":4029:4074  SafeMath.sqrt(uint(_reserve0).mul(_reserve1)) */\n      jump\t// in\n    tag_298:\n        /* \"UniswapV2/UniswapV2Pair.sol\":4016:4074  uint rootK = SafeMath.sqrt(uint(_reserve0).mul(_reserve1)) */\n      swap1\n      pop\n        /* \"UniswapV2/UniswapV2Pair.sol\":4092:4106  uint rootKLast */\n      0x00\n        /* \"UniswapV2/UniswapV2Pair.sol\":4109:4130  SafeMath.sqrt(_kLast) */\n      tag_300\n        /* \"UniswapV2/UniswapV2Pair.sol\":4123:4129  _kLast */\n      dup4\n        /* \"UniswapV2/UniswapV2Pair.sol\":4109:4122  SafeMath.sqrt */\n      tag_178\n        /* \"UniswapV2/UniswapV2Pair.sol\":4109:4130  SafeMath.sqrt(_kLast) */\n      jump\t// in\n    tag_300:\n        /* \"UniswapV2/UniswapV2Pair.sol\":4092:4130  uint rootKLast = SafeMath.sqrt(_kLast) */\n      swap1\n      pop\n        /* \"UniswapV2/UniswapV2Pair.sol\":4160:4169  rootKLast */\n      dup1\n        /* \"UniswapV2/UniswapV2Pair.sol\":4152:4157  rootK */\n      dup3\n        /* \"UniswapV2/UniswapV2Pair.sol\":4152:4169  rootK > rootKLast */\n      gt\n        /* \"UniswapV2/UniswapV2Pair.sol\":4148:4460  if (rootK > rootKLast) {... */\n      iszero\n      tag_301\n      jumpi\n        /* \"UniswapV2/UniswapV2Pair.sol\":4193:4207  uint numerator */\n      0x00\n        /* \"UniswapV2/UniswapV2Pair.sol\":4210:4247  totalSupply.mul(rootK.sub(rootKLast)) */\n      tag_302\n        /* \"UniswapV2/UniswapV2Pair.sol\":4226:4246  rootK.sub(rootKLast) */\n      tag_303\n        /* \"UniswapV2/UniswapV2Pair.sol\":4236:4245  rootKLast */\n      dup4\n        /* \"UniswapV2/UniswapV2Pair.sol\":4226:4231  rootK */\n      dup6\n        /* \"UniswapV2/UniswapV2Pair.sol\":4226:4235  rootK.sub */\n      tag_137\n      swap1\n        /* \"UniswapV2/UniswapV2Pair.sol\":4226:4246  rootK.sub(rootKLast) */\n      swap2\n      swap1\n      0xffffffff\n      and\n      jump\t// in\n    tag_303:\n        /* \"UniswapV2/UniswapV2Pair.sol\":4210:4221  totalSupply */\n      sload(0x00)\n        /* \"UniswapV2/UniswapV2Pair.sol\":4210:4225  totalSupply.mul */\n      tag_135\n      swap1\n        /* \"UniswapV2/UniswapV2Pair.sol\":4210:4247  totalSupply.mul(rootK.sub(rootKLast)) */\n      swap2\n      swap1\n      0xffffffff\n      and\n      jump\t// in\n    tag_302:\n        /* \"UniswapV2/UniswapV2Pair.sol\":4193:4247  uint numerator = totalSupply.mul(rootK.sub(rootKLast)) */\n      swap1\n      pop\n        /* \"UniswapV2/UniswapV2Pair.sol\":4269:4285  uint denominator */\n      0x00\n        /* \"UniswapV2/UniswapV2Pair.sol\":4288:4315  rootK.mul(5).add(rootKLast) */\n      tag_304\n        /* \"UniswapV2/UniswapV2Pair.sol\":4305:4314  rootKLast */\n      dup4\n        /* \"UniswapV2/UniswapV2Pair.sol\":4288:4300  rootK.mul(5) */\n      tag_305\n        /* \"UniswapV2/UniswapV2Pair.sol\":4298:4299  5 */\n      0x05\n        /* \"UniswapV2/UniswapV2Pair.sol\":4288:4293  rootK */\n      dup8\n        /* \"UniswapV2/UniswapV2Pair.sol\":4288:4297  rootK.mul */\n      tag_135\n      swap1\n        /* \"UniswapV2/UniswapV2Pair.sol\":4288:4300  rootK.mul(5) */\n      swap2\n      swap1\n      0xffffffff\n      and\n      jump\t// in\n    tag_305:\n        /* \"UniswapV2/UniswapV2Pair.sol\":4288:4304  rootK.mul(5).add */\n      tag_290\n      swap1\n        /* \"UniswapV2/UniswapV2Pair.sol\":4288:4315  rootK.mul(5).add(rootKLast) */\n      swap2\n      swap1\n      0xffffffff\n      and\n      jump\t// in\n    tag_304:\n        /* \"UniswapV2/UniswapV2Pair.sol\":4269:4315  uint denominator = rootK.mul(5).add(rootKLast) */\n      swap1\n      pop\n        /* \"UniswapV2/UniswapV2Pair.sol\":4337:4351  uint liquidity */\n      0x00\n        /* \"UniswapV2/UniswapV2Pair.sol\":4366:4377  denominator */\n      dup2\n        /* \"UniswapV2/UniswapV2Pair.sol\":4354:4363  numerator */\n      dup4\n        /* \"UniswapV2/UniswapV2Pair.sol\":4354:4377  numerator / denominator */\n      dup2\n      tag_306\n      jumpi\n      invalid\n    tag_306:\n      div\n        /* \"UniswapV2/UniswapV2Pair.sol\":4337:4377  uint liquidity = numerator / denominator */\n      swap1\n      pop\n        /* \"UniswapV2/UniswapV2Pair.sol\":4415:4416  0 */\n      0x00\n        /* \"UniswapV2/UniswapV2Pair.sol\":4403:4412  liquidity */\n      dup2\n        /* \"UniswapV2/UniswapV2Pair.sol\":4403:4416  liquidity > 0 */\n      gt\n        /* \"UniswapV2/UniswapV2Pair.sol\":4399:4441  if (liquidity > 0) _mint(feeTo, liquidity) */\n      iszero\n      tag_307\n      jumpi\n        /* \"UniswapV2/UniswapV2Pair.sol\":4418:4441  _mint(feeTo, liquidity) */\n      tag_308\n        /* \"UniswapV2/UniswapV2Pair.sol\":4424:4429  feeTo */\n      dup8\n        /* \"UniswapV2/UniswapV2Pair.sol\":4431:4440  liquidity */\n      dup3\n        /* \"UniswapV2/UniswapV2Pair.sol\":4418:4423  _mint */\n      tag_180\n        /* \"UniswapV2/UniswapV2Pair.sol\":4418:4441  _mint(feeTo, liquidity) */\n      jump\t// in\n    tag_308:\n        /* \"UniswapV2/UniswapV2Pair.sol\":4399:4441  if (liquidity > 0) _mint(feeTo, liquidity) */\n    tag_307:\n        /* \"UniswapV2/UniswapV2Pair.sol\":4148:4460  if (rootK > rootKLast) {... */\n      pop\n      pop\n      pop\n    tag_301:\n        /* \"UniswapV2/UniswapV2Pair.sol\":3981:4474  if (_kLast != 0) {... */\n      pop\n      pop\n    tag_297:\n        /* \"UniswapV2/UniswapV2Pair.sol\":3956:4541  if (feeOn) {... */\n      jump(tag_309)\n    tag_296:\n        /* \"UniswapV2/UniswapV2Pair.sol\":4504:4505  0 */\n      0x00\n        /* \"UniswapV2/UniswapV2Pair.sol\":4494:4500  _kLast */\n      dup2\n        /* \"UniswapV2/UniswapV2Pair.sol\":4494:4505  _kLast != 0 */\n      eq\n        /* \"UniswapV2/UniswapV2Pair.sol\":4490:4541  if (_kLast != 0) {... */\n      tag_310\n      jumpi\n        /* \"UniswapV2/UniswapV2Pair.sol\":4529:4530  0 */\n      0x00\n        /* \"UniswapV2/UniswapV2Pair.sol\":4521:4526  kLast */\n      0x0a\n        /* \"UniswapV2/UniswapV2Pair.sol\":4521:4530  kLast = 0 */\n      dup2\n      swap1\n      sstore\n      pop\n        /* \"UniswapV2/UniswapV2Pair.sol\":4490:4541  if (_kLast != 0) {... */\n    tag_310:\n        /* \"UniswapV2/UniswapV2Pair.sol\":3956:4541  if (feeOn) {... */\n    tag_309:\n        /* \"UniswapV2/UniswapV2Pair.sol\":3720:4547  function _mintFee(uint112 _reserve0, uint112 _reserve1) private returns (bool feeOn) {... */\n      pop\n      pop\n      swap3\n      swap2\n      pop\n      pop\n      jump\t// out\n        /* \"UniswapV2/libraries/SafeMath.sol\":776:1068  function sqrt(uint y) internal pure returns (uint z) {... */\n    tag_178:\n        /* \"UniswapV2/libraries/SafeMath.sol\":821:827  uint z */\n      0x00\n        /* \"UniswapV2/libraries/SafeMath.sol\":847:848  3 */\n      0x03\n        /* \"UniswapV2/libraries/SafeMath.sol\":843:844  y */\n      dup3\n        /* \"UniswapV2/libraries/SafeMath.sol\":843:848  y > 3 */\n      gt\n        /* \"UniswapV2/libraries/SafeMath.sol\":839:1062  if (y > 3) {... */\n      iszero\n      tag_312\n      jumpi\n        /* \"UniswapV2/libraries/SafeMath.sol\":868:869  y */\n      dup2\n        /* \"UniswapV2/libraries/SafeMath.sol\":864:869  z = y */\n      swap1\n      pop\n        /* \"UniswapV2/libraries/SafeMath.sol\":883:889  uint x */\n      0x00\n        /* \"UniswapV2/libraries/SafeMath.sol\":900:901  1 */\n      0x01\n        /* \"UniswapV2/libraries/SafeMath.sol\":896:897  2 */\n      0x02\n        /* \"UniswapV2/libraries/SafeMath.sol\":892:893  y */\n      dup5\n        /* \"UniswapV2/libraries/SafeMath.sol\":892:897  y / 2 */\n      dup2\n      tag_313\n      jumpi\n      invalid\n    tag_313:\n      div\n        /* \"UniswapV2/libraries/SafeMath.sol\":892:901  y / 2 + 1 */\n      add\n        /* \"UniswapV2/libraries/SafeMath.sol\":883:901  uint x = y / 2 + 1 */\n      swap1\n      pop\n        /* \"UniswapV2/libraries/SafeMath.sol\":915:1004  while (x < z) {... */\n    tag_314:\n        /* \"UniswapV2/libraries/SafeMath.sol\":926:927  z */\n      dup2\n        /* \"UniswapV2/libraries/SafeMath.sol\":922:923  x */\n      dup2\n        /* \"UniswapV2/libraries/SafeMath.sol\":922:927  x < z */\n      lt\n        /* \"UniswapV2/libraries/SafeMath.sol\":915:1004  while (x < z) {... */\n      iszero\n      tag_315\n      jumpi\n        /* \"UniswapV2/libraries/SafeMath.sol\":951:952  x */\n      dup1\n        /* \"UniswapV2/libraries/SafeMath.sol\":947:952  z = x */\n      swap2\n      pop\n        /* \"UniswapV2/libraries/SafeMath.sol\":988:989  2 */\n      0x02\n        /* \"UniswapV2/libraries/SafeMath.sol\":983:984  x */\n      dup2\n        /* \"UniswapV2/libraries/SafeMath.sol\":979:980  x */\n      dup3\n        /* \"UniswapV2/libraries/SafeMath.sol\":975:976  y */\n      dup6\n        /* \"UniswapV2/libraries/SafeMath.sol\":975:980  y / x */\n      dup2\n      tag_316\n      jumpi\n      invalid\n    tag_316:\n      div\n        /* \"UniswapV2/libraries/SafeMath.sol\":975:984  y / x + x */\n      add\n        /* \"UniswapV2/libraries/SafeMath.sol\":974:989  (y / x + x) / 2 */\n      dup2\n      tag_317\n      jumpi\n      invalid\n    tag_317:\n      div\n        /* \"UniswapV2/libraries/SafeMath.sol\":970:989  x = (y / x + x) / 2 */\n      swap1\n      pop\n        /* \"UniswapV2/libraries/SafeMath.sol\":915:1004  while (x < z) {... */\n      jump(tag_314)\n    tag_315:\n        /* \"UniswapV2/libraries/SafeMath.sol\":839:1062  if (y > 3) {... */\n      pop\n      jump(tag_318)\n    tag_312:\n        /* \"UniswapV2/libraries/SafeMath.sol\":1029:1030  0 */\n      0x00\n        /* \"UniswapV2/libraries/SafeMath.sol\":1024:1025  y */\n      dup3\n        /* \"UniswapV2/libraries/SafeMath.sol\":1024:1030  y != 0 */\n      eq\n        /* \"UniswapV2/libraries/SafeMath.sol\":1020:1062  if (y != 0) {... */\n      tag_319\n      jumpi\n        /* \"UniswapV2/libraries/SafeMath.sol\":1050:1051  1 */\n      0x01\n        /* \"UniswapV2/libraries/SafeMath.sol\":1046:1051  z = 1 */\n      swap1\n      pop\n        /* \"UniswapV2/libraries/SafeMath.sol\":1020:1062  if (y != 0) {... */\n    tag_319:\n        /* \"UniswapV2/libraries/SafeMath.sol\":839:1062  if (y > 3) {... */\n    tag_318:\n        /* \"UniswapV2/libraries/SafeMath.sol\":776:1068  function sqrt(uint y) internal pure returns (uint z) {... */\n      swap2\n      swap1\n      pop\n      jump\t// out\n        /* \"UniswapV2/UniswapV2ERC20.sol\":716:913  function _mint(address to, uint value) internal {... */\n    tag_180:\n        /* \"UniswapV2/UniswapV2ERC20.sol\":788:810  totalSupply.add(value) */\n      tag_321\n        /* \"UniswapV2/UniswapV2ERC20.sol\":804:809  value */\n      dup2\n        /* \"UniswapV2/UniswapV2ERC20.sol\":788:799  totalSupply */\n      sload(0x00)\n        /* \"UniswapV2/UniswapV2ERC20.sol\":788:803  totalSupply.add */\n      tag_290\n      swap1\n        /* \"UniswapV2/UniswapV2ERC20.sol\":788:810  totalSupply.add(value) */\n      swap2\n      swap1\n      0xffffffff\n      and\n      jump\t// in\n    tag_321:\n        /* \"UniswapV2/UniswapV2ERC20.sol\":774:785  totalSupply */\n      0x00\n        /* \"UniswapV2/UniswapV2ERC20.sol\":774:810  totalSupply = totalSupply.add(value) */\n      dup2\n      swap1\n      sstore\n      pop\n        /* \"UniswapV2/UniswapV2ERC20.sol\":836:860  balanceOf[to].add(value) */\n      tag_322\n        /* \"UniswapV2/UniswapV2ERC20.sol\":854:859  value */\n      dup2\n        /* \"UniswapV2/UniswapV2ERC20.sol\":836:845  balanceOf */\n      0x01\n        /* \"UniswapV2/UniswapV2ERC20.sol\":836:849  balanceOf[to] */\n      0x00\n        /* \"UniswapV2/UniswapV2ERC20.sol\":846:848  to */\n      dup6\n        /* \"UniswapV2/UniswapV2ERC20.sol\":836:849  balanceOf[to] */\n      0xffffffffffffffffffffffffffffffffffffffff\n      and\n      0xffffffffffffffffffffffffffffffffffffffff\n      and\n      dup2\n      mstore\n      0x20\n      add\n      swap1\n      dup2\n      mstore\n      0x20\n      add\n      0x00\n      keccak256\n      sload\n        /* \"UniswapV2/UniswapV2ERC20.sol\":836:853  balanceOf[to].add */\n      tag_290\n      swap1\n        /* \"UniswapV2/UniswapV2ERC20.sol\":836:860  balanceOf[to].add(value) */\n      swap2\n      swap1\n      0xffffffff\n      and\n      jump\t// in\n    tag_322:\n        /* \"UniswapV2/UniswapV2ERC20.sol\":820:829  balanceOf */\n      0x01\n        /* \"UniswapV2/UniswapV2ERC20.sol\":820:833  balanceOf[to] */\n      0x00\n        /* \"UniswapV2/UniswapV2ERC20.sol\":830:832  to */\n      dup5\n        /* \"UniswapV2/UniswapV2ERC20.sol\":820:833  balanceOf[to] */\n      0xffffffffffffffffffffffffffffffffffffffff\n      and\n      0xffffffffffffffffffffffffffffffffffffffff\n      and\n      dup2\n      mstore\n      0x20\n      add\n      swap1\n      dup2\n      mstore\n      0x20\n      add\n      0x00\n      keccak256\n        /* \"UniswapV2/UniswapV2ERC20.sol\":820:860  balanceOf[to] = balanceOf[to].add(value) */\n      dup2\n      swap1\n      sstore\n      pop\n        /* \"UniswapV2/UniswapV2ERC20.sol\":896:898  to */\n      dup2\n        /* \"UniswapV2/UniswapV2ERC20.sol\":875:906  Transfer(address(0), to, value) */\n      0xffffffffffffffffffffffffffffffffffffffff\n      and\n        /* \"UniswapV2/UniswapV2ERC20.sol\":892:893  0 */\n      0x00\n        /* \"UniswapV2/UniswapV2ERC20.sol\":875:906  Transfer(address(0), to, value) */\n      0xffffffffffffffffffffffffffffffffffffffff\n      and\n      0xddf252ad1be2c89b69c2b068fc378daa952ba7f163c4a11628f55a4df523b3ef\n        /* \"UniswapV2/UniswapV2ERC20.sol\":900:905  value */\n      dup4\n        /* \"UniswapV2/UniswapV2ERC20.sol\":875:906  Transfer(address(0), to, value) */\n      mload(0x40)\n      dup1\n      dup3\n      dup2\n      mstore\n      0x20\n      add\n      swap2\n      pop\n      pop\n      mload(0x40)\n      dup1\n      swap2\n      sub\n      swap1\n      log3\n        /* \"UniswapV2/UniswapV2ERC20.sol\":716:913  function _mint(address to, uint value) internal {... */\n      pop\n      pop\n      jump\t// out\n        /* \"UniswapV2/libraries/SafeMath.sol\":567:661  function min(uint x, uint y) internal pure returns (uint z) {... */\n    tag_187:\n        /* \"UniswapV2/libraries/SafeMath.sol\":619:625  uint z */\n      0x00\n        /* \"UniswapV2/libraries/SafeMath.sol\":645:646  y */\n      dup2\n        /* \"UniswapV2/libraries/SafeMath.sol\":641:642  x */\n      dup4\n        /* \"UniswapV2/libraries/SafeMath.sol\":641:646  x < y */\n      lt\n        /* \"UniswapV2/libraries/SafeMath.sol\":641:654  x < y ? x : y */\n      tag_324\n      jumpi\n        /* \"UniswapV2/libraries/SafeMath.sol\":653:654  y */\n      dup2\n        /* \"UniswapV2/libraries/SafeMath.sol\":641:654  x < y ? x : y */\n      jump(tag_325)\n    tag_324:\n        /* \"UniswapV2/libraries/SafeMath.sol\":649:650  x */\n      dup3\n        /* \"UniswapV2/libraries/SafeMath.sol\":641:654  x < y ? x : y */\n    tag_325:\n        /* \"UniswapV2/libraries/SafeMath.sol\":637:654  z = x < y ? x : y */\n      swap1\n      pop\n        /* \"UniswapV2/libraries/SafeMath.sol\":567:661  function min(uint x, uint y) internal pure returns (uint z) {... */\n      swap3\n      swap2\n      pop\n      pop\n      jump\t// out\n        /* \"UniswapV2/UniswapV2ERC20.sol\":919:1124  function _burn(address from, uint value) internal {... */\n    tag_213:\n        /* \"UniswapV2/UniswapV2ERC20.sol\":997:1023  balanceOf[from].sub(value) */\n      tag_327\n        /* \"UniswapV2/UniswapV2ERC20.sol\":1017:1022  value */\n      dup2\n        /* \"UniswapV2/UniswapV2ERC20.sol\":997:1006  balanceOf */\n      0x01\n        /* \"UniswapV2/UniswapV2ERC20.sol\":997:1012  balanceOf[from] */\n      0x00\n        /* \"UniswapV2/UniswapV2ERC20.sol\":1007:1011  from */\n      dup6\n        /* \"UniswapV2/UniswapV2ERC20.sol\":997:1012  balanceOf[from] */\n      0xffffffffffffffffffffffffffffffffffffffff\n      and\n      0xffffffffffffffffffffffffffffffffffffffff\n      and\n      dup2\n      mstore\n      0x20\n      add\n      swap1\n      dup2\n      mstore\n      0x20\n      add\n      0x00\n      keccak256\n      sload\n        /* \"UniswapV2/UniswapV2ERC20.sol\":997:1016  balanceOf[from].sub */\n      tag_137\n      swap1\n        /* \"UniswapV2/UniswapV2ERC20.sol\":997:1023  balanceOf[from].sub(value) */\n      swap2\n      swap1\n      0xffffffff\n      and\n      jump\t// in\n    tag_327:\n        /* \"UniswapV2/UniswapV2ERC20.sol\":979:988  balanceOf */\n      0x01\n        /* \"UniswapV2/UniswapV2ERC20.sol\":979:994  balanceOf[from] */\n      0x00\n        /* \"UniswapV2/UniswapV2ERC20.sol\":989:993  from */\n      dup5\n        /* \"UniswapV2/UniswapV2ERC20.sol\":979:994  balanceOf[from] */\n      0xffffffffffffffffffffffffffffffffffffffff\n      and\n      0xffffffffffffffffffffffffffffffffffffffff\n      and\n      dup2\n      mstore\n      0x20\n      add\n      swap1\n      dup2\n      mstore\n      0x20\n      add\n      0x00\n      keccak256\n        /* \"UniswapV2/UniswapV2ERC20.sol\":979:1023  balanceOf[from] = balanceOf[from].sub(value) */\n      dup2\n      swap1\n      sstore\n      pop\n        /* \"UniswapV2/UniswapV2ERC20.sol\":1047:1069  totalSupply.sub(value) */\n      tag_328\n        /* \"UniswapV2/UniswapV2ERC20.sol\":1063:1068  value */\n      dup2\n        /* \"UniswapV2/UniswapV2ERC20.sol\":1047:1058  totalSupply */\n      sload(0x00)\n        /* \"UniswapV2/UniswapV2ERC20.sol\":1047:1062  totalSupply.sub */\n      tag_137\n      swap1\n        /* \"UniswapV2/UniswapV2ERC20.sol\":1047:1069  totalSupply.sub(value) */\n      swap2\n      swap1\n      0xffffffff\n      and\n      jump\t// in\n    tag_328:\n        /* \"UniswapV2/UniswapV2ERC20.sol\":1033:1044  totalSupply */\n      0x00\n        /* \"UniswapV2/UniswapV2ERC20.sol\":1033:1069  totalSupply = totalSupply.sub(value) */\n      dup2\n      swap1\n      sstore\n      pop\n        /* \"UniswapV2/UniswapV2ERC20.sol\":1107:1108  0 */\n      0x00\n        /* \"UniswapV2/UniswapV2ERC20.sol\":1084:1117  Transfer(from, address(0), value) */\n      0xffffffffffffffffffffffffffffffffffffffff\n      and\n        /* \"UniswapV2/UniswapV2ERC20.sol\":1093:1097  from */\n      dup3\n        /* \"UniswapV2/UniswapV2ERC20.sol\":1084:1117  Transfer(from, address(0), value) */\n      0xffffffffffffffffffffffffffffffffffffffff\n      and\n      0xddf252ad1be2c89b69c2b068fc378daa952ba7f163c4a11628f55a4df523b3ef\n        /* \"UniswapV2/UniswapV2ERC20.sol\":1111:1116  value */\n      dup4\n        /* \"UniswapV2/UniswapV2ERC20.sol\":1084:1117  Transfer(from, address(0), value) */\n      mload(0x40)\n      dup1\n      dup3\n      dup2\n      mstore\n      0x20\n      add\n      swap2\n      pop\n      pop\n      mload(0x40)\n      dup1\n      swap2\n      sub\n      swap1\n      log3\n        /* \"UniswapV2/UniswapV2ERC20.sol\":919:1124  function _burn(address from, uint value) internal {... */\n      pop\n      pop\n      jump\t// out\n        /* \"UniswapV2/libraries/UQ112x112.sol\":284:402  function encode(uint112 y) internal pure returns (uint224 z) {... */\n    tag_282:\n        /* \"UniswapV2/libraries/UQ112x112.sol\":334:343  uint224 z */\n      0x00\n        /* \"UniswapV2/libraries/UQ112x112.sol\":232:238  2**112 */\n      0x010000000000000000000000000000\n        /* \"UniswapV2/libraries/UQ112x112.sol\":367:368  y */\n      dup3\n        /* \"UniswapV2/libraries/UQ112x112.sol\":359:369  uint224(y) */\n      0xffffffffffffffffffffffffffff\n      and\n        /* \"UniswapV2/libraries/UQ112x112.sol\":359:376  uint224(y) * Q112 */\n      mul\n        /* \"UniswapV2/libraries/UQ112x112.sol\":355:376  z = uint224(y) * Q112 */\n      swap1\n      pop\n        /* \"UniswapV2/libraries/UQ112x112.sol\":284:402  function encode(uint112 y) internal pure returns (uint224 z) {... */\n      swap2\n      swap1\n      pop\n      jump\t// out\n        /* \"UniswapV2/libraries/UQ112x112.sol\":470:576  function uqdiv(uint224 x, uint112 y) internal pure returns (uint224 z) {... */\n    tag_283:\n        /* \"UniswapV2/libraries/UQ112x112.sol\":530:539  uint224 z */\n      0x00\n        /* \"UniswapV2/libraries/UQ112x112.sol\":567:568  y */\n      dup2\n        /* \"UniswapV2/libraries/UQ112x112.sol\":559:569  uint224(y) */\n      0xffffffffffffffffffffffffffff\n      and\n        /* \"UniswapV2/libraries/UQ112x112.sol\":555:569  x / uint224(y) */\n      0xffffffffffffffffffffffffffffffffffffffffffffffffffffffff\n      and\n        /* \"UniswapV2/libraries/UQ112x112.sol\":555:556  x */\n      dup4\n        /* \"UniswapV2/libraries/UQ112x112.sol\":555:569  x / uint224(y) */\n      0xffffffffffffffffffffffffffffffffffffffffffffffffffffffff\n      and\n      dup2\n      tag_331\n      jumpi\n      invalid\n    tag_331:\n      div\n        /* \"UniswapV2/libraries/UQ112x112.sol\":551:569  z = x / uint224(y) */\n      swap1\n      pop\n        /* \"UniswapV2/libraries/UQ112x112.sol\":470:576  function uqdiv(uint224 x, uint112 y) internal pure returns (uint224 z) {... */\n      swap3\n      swap2\n      pop\n      pop\n      jump\t// out\n        /* \"UniswapV2/libraries/SafeMath.sol\":156:282  function add(uint x, uint y) internal pure returns (uint z) {... */\n    tag_290:\n        /* \"UniswapV2/libraries/SafeMath.sol\":208:214  uint z */\n      0x00\n        /* \"UniswapV2/libraries/SafeMath.sol\":249:250  x */\n      dup3\n        /* \"UniswapV2/libraries/SafeMath.sol\":243:244  y */\n      dup3\n        /* \"UniswapV2/libraries/SafeMath.sol\":239:240  x */\n      dup5\n        /* \"UniswapV2/libraries/SafeMath.sol\":239:244  x + y */\n      add\n        /* \"UniswapV2/libraries/SafeMath.sol\":235:244  z = x + y */\n      swap2\n      pop\n      dup2\n        /* \"UniswapV2/libraries/SafeMath.sol\":234:250  (z = x + y) >= x */\n      lt\n      iszero\n        /* \"UniswapV2/libraries/SafeMath.sol\":226:275  require((z = x + y) >= x, 'ds-math-add-overflow') */\n      tag_333\n      jumpi\n      mload(0x40)\n      0x08c379a000000000000000000000000000000000000000000000000000000000\n      dup2\n      mstore\n      0x04\n      add\n      dup1\n      dup1\n      0x20\n      add\n      dup3\n      dup2\n      sub\n      dup3\n      mstore\n      0x14\n      dup2\n      mstore\n      0x20\n      add\n      dup1\n      0x64732d6d6174682d6164642d6f766572666c6f77000000000000000000000000\n      dup2\n      mstore\n      pop\n      0x20\n      add\n      swap2\n      pop\n      pop\n      mload(0x40)\n      dup1\n      swap2\n      sub\n      swap1\n      revert\n    tag_333:\n        /* \"UniswapV2/libraries/SafeMath.sol\":156:282  function add(uint x, uint y) internal pure returns (uint z) {... */\n      swap3\n      swap2\n      pop\n      pop\n      jump\t// out\n    stop\n    data_05339493da7e2cbe77e17beadf6b91132eb307939495f5f1797bf88d95539e83 556e697377617056323a20494e53554646494349454e545f4f55545055545f414d4f554e54\n    data_10e2efc32d8a31d3b2c11a545b3ed09c2dbabc58ef6de4033929d0002e425b67 556e697377617056323a20494e53554646494349454e545f494e5055545f414d4f554e54\n    data_3f354ef449b2a9b081220ce21f57691008110b653edc191d8288e60cef58bb5f 556e697377617056323a20494e53554646494349454e545f4c4951554944495459\n    data_57ebfb4dd8b5082cdba0f23c17077e3b0ecb9782a51e0e9a15e9bc8c4b30c562 556e697377617056323a20494e53554646494349454e545f4c49515549444954595f4255524e4544\n    data_6591c9f5bf1fefaad109b76a20e25c857b696080c952191f86220f001a83663e 556e697377617056323a20494e53554646494349454e545f4c49515549444954595f4d494e544544\n\n    auxdata: 0xa26469706673582212202e70fe774be96ef3ec549dd4f345c563ca65a62121ed0ab167ff3d35390dabbc64736f6c63430006060033\n}\n",
				"bytecode": {
					"linkReferences": {},
					"object": "60806040526001600b5534801561001557600080fd5b5033600460006101000a81548173ffffffffffffffffffffffffffffffffffffffff021916908373ffffffffffffffffffffffffffffffffffffffff1602179055506135d4806100666000396000f3fe608060405234801561001057600080fd5b50600436106101585760003560e01c806370a08231116100c3578063ba9a7a561161007c578063ba9a7a561461078b578063bc25cf77146107a9578063c45a0155146107ed578063d21220a714610837578063dd62ed3e14610881578063fff6cae9146108f957610158565b806370a08231146105755780637464fc3d146105cd5780637ecebe00146105eb57806389afcb441461064357806395d89b41146106a2578063a9059cbb1461072557610158565b806323b872dd1161011557806323b872dd146103d3578063313ce56714610459578063485cc9551461047d5780635909c0d5146104e15780635a3d5493146104ff5780636a6278421461051d57610158565b8063022c0d9f1461015d57806306fdde031461020a5780630902f1ac1461028d578063095ea7b3146103055780630dfe16811461036b57806318160ddd146103b5575b600080fd5b6102086004803603608081101561017357600080fd5b810190808035906020019092919080359060200190929190803573ffffffffffffffffffffffffffffffffffffffff169060200190929190803590602001906401000000008111156101c457600080fd5b8201836020820111156101d657600080fd5b803590602001918460018302840111640100000000831117156101f857600080fd5b9091929391929390505050610903565b005b6102126110f0565b6040518080602001828103825283818151815260200191508051906020019080838360005b83811015610252578082015181840152602081019050610237565b50505050905090810190601f16801561027f5780820380516001836020036101000a031916815260200191505b509250505060405180910390f35b610295611129565b60405180846dffffffffffffffffffffffffffff166dffffffffffffffffffffffffffff168152602001836dffffffffffffffffffffffffffff166dffffffffffffffffffffffffffff1681526020018263ffffffff1663ffffffff168152602001935050505060405180910390f35b6103516004803603604081101561031b57600080fd5b81019080803573ffffffffffffffffffffffffffffffffffffffff16906020019092919080359060200190929190505050611186565b604051808215151515815260200191505060405180910390f35b61037361119d565b604051808273ffffffffffffffffffffffffffffffffffffffff1673ffffffffffffffffffffffffffffffffffffffff16815260200191505060405180910390f35b6103bd6111c3565b6040518082815260200191505060405180910390f35b61043f600480360360608110156103e957600080fd5b81019080803573ffffffffffffffffffffffffffffffffffffffff169060200190929190803573ffffffffffffffffffffffffffffffffffffffff169060200190929190803590602001909291905050506111c9565b604051808215151515815260200191505060405180910390f35b610461611394565b604051808260ff1660ff16815260200191505060405180910390f35b6104df6004803603604081101561049357600080fd5b81019080803573ffffffffffffffffffffffffffffffffffffffff169060200190929190803573ffffffffffffffffffffffffffffffffffffffff169060200190929190505050611399565b005b6104e96114e2565b6040518082815260200191505060405180910390f35b6105076114e8565b6040518082815260200191505060405180910390f35b61055f6004803603602081101561053357600080fd5b81019080803573ffffffffffffffffffffffffffffffffffffffff1690602001909291905050506114ee565b6040518082815260200191505060405180910390f35b6105b76004803603602081101561058b57600080fd5b81019080803573ffffffffffffffffffffffffffffffffffffffff16906020019092919050505061199f565b6040518082815260200191505060405180910390f35b6105d56119b7565b6040518082815260200191505060405180910390f35b61062d6004803603602081101561060157600080fd5b81019080803573ffffffffffffffffffffffffffffffffffffffff1690602001909291905050506119bd565b6040518082815260200191505060405180910390f35b6106856004803603602081101561065957600080fd5b81019080803573ffffffffffffffffffffffffffffffffffffffff1690602001909291905050506119d5565b604051808381526020018281526020019250505060405180910390f35b6106aa611fc2565b6040518080602001828103825283818151815260200191508051906020019080838360005b838110156106ea5780820151818401526020810190506106cf565b50505050905090810190601f1680156107175780820380516001836020036101000a031916815260200191505b509250505060405180910390f35b6107716004803603604081101561073b57600080fd5b81019080803573ffffffffffffffffffffffffffffffffffffffff16906020019092919080359060200190929190505050611ffb565b604051808215151515815260200191505060405180910390f35b610793612012565b6040518082815260200191505060405180910390f35b6107eb600480360360208110156107bf57600080fd5b81019080803573ffffffffffffffffffffffffffffffffffffffff169060200190929190505050612018565b005b6107f56122f3565b604051808273ffffffffffffffffffffffffffffffffffffffff1673ffffffffffffffffffffffffffffffffffffffff16815260200191505060405180910390f35b61083f612319565b604051808273ffffffffffffffffffffffffffffffffffffffff1673ffffffffffffffffffffffffffffffffffffffff16815260200191505060405180910390f35b6108e36004803603604081101561089757600080fd5b81019080803573ffffffffffffffffffffffffffffffffffffffff169060200190929190803573ffffffffffffffffffffffffffffffffffffffff16906020019092919050505061233f565b6040518082815260200191505060405180910390f35b610901612364565b005b6001600b541461097b576040517f08c379a00000000000000000000000000000000000000000000000000000000081526004018080602001828103825260118152602001807f556e697377617056323a204c4f434b454400000000000000000000000000000081525060200191505060405180910390fd5b6000600b8190555060008511806109925750600084115b6109e7576040517f08c379a00000000000000000000000000000000000000000000000000000000081526004018080602001828103825260258152602001806134e56025913960400191505060405180910390fd5b6000806109f2611129565b5091509150816dffffffffffffffffffffffffffff1687108015610a255750806dffffffffffffffffffffffffffff1686105b610a7a576040517f08c379a000000000000000000000000000000000000000000000000000000000815260040180806020018281038252602181526020018061352e6021913960400191505060405180910390fd5b6000806000600560009054906101000a900473ffffffffffffffffffffffffffffffffffffffff1690506000600660009054906101000a900473ffffffffffffffffffffffffffffffffffffffff1690508173ffffffffffffffffffffffffffffffffffffffff168973ffffffffffffffffffffffffffffffffffffffff1614158015610b3357508073ffffffffffffffffffffffffffffffffffffffff168973ffffffffffffffffffffffffffffffffffffffff1614155b610ba5576040517f08c379a00000000000000000000000000000000000000000000000000000000081526004018080602001828103825260158152602001807f556e697377617056323a20494e56414c49445f544f000000000000000000000081525060200191505060405180910390fd5b60008b1115610bba57610bb9828a8d6125e4565b5b60008a1115610bcf57610bce818a8c6125e4565b5b6000888890501115610cb7578873ffffffffffffffffffffffffffffffffffffffff166310d1e85c338d8d8c8c6040518663ffffffff1660e01b8152600401808673ffffffffffffffffffffffffffffffffffffffff1673ffffffffffffffffffffffffffffffffffffffff168152602001858152602001848152602001806020018281038252848482818152602001925080828437600081840152601f19601f8201169050808301925050509650505050505050600060405180830381600087803b158015610c9e57600080fd5b505af1158015610cb2573d6000803e3d6000fd5b505050505b8173ffffffffffffffffffffffffffffffffffffffff166370a08231306040518263ffffffff1660e01b8152600401808273ffffffffffffffffffffffffffffffffffffffff1673ffffffffffffffffffffffffffffffffffffffff16815260200191505060206040518083038186803b158015610d3457600080fd5b505afa158015610d48573d6000803e3d6000fd5b505050506040513d6020811015610d5e57600080fd5b810190808051906020019092919050505093508073ffffffffffffffffffffffffffffffffffffffff166370a08231306040518263ffffffff1660e01b8152600401808273ffffffffffffffffffffffffffffffffffffffff1673ffffffffffffffffffffffffffffffffffffffff16815260200191505060206040518083038186803b158015610dee57600080fd5b505afa158015610e02573d6000803e3d6000fd5b505050506040513d6020811015610e1857600080fd5b810190808051906020019092919050505092505050600089856dffffffffffffffffffffffffffff16038311610e4f576000610e65565b89856dffffffffffffffffffffffffffff160383035b9050600089856dffffffffffffffffffffffffffff16038311610e89576000610e9f565b89856dffffffffffffffffffffffffffff160383035b90506000821180610eb05750600081115b610f05576040517f08c379a000000000000000000000000000000000000000000000000000000000815260040180806020018281038252602481526020018061350a6024913960400191505060405180910390fd5b6000610f41610f1e60038561283190919063ffffffff16565b610f336103e88861283190919063ffffffff16565b6128c690919063ffffffff16565b90506000610f7f610f5c60038561283190919063ffffffff16565b610f716103e88861283190919063ffffffff16565b6128c690919063ffffffff16565b9050610fc9620f4240610fbb896dffffffffffffffffffffffffffff168b6dffffffffffffffffffffffffffff1661283190919063ffffffff16565b61283190919063ffffffff16565b610fdc828461283190919063ffffffff16565b1015611050576040517f08c379a000000000000000000000000000000000000000000000000000000000815260040180806020018281038252600c8152602001807f556e697377617056323a204b000000000000000000000000000000000000000081525060200191505060405180910390fd5b505061105e84848888612949565b8873ffffffffffffffffffffffffffffffffffffffff163373ffffffffffffffffffffffffffffffffffffffff167fd78ad95fa46c994b6551d0da85fc275fe613ce37657fb8d5e3d130840159d82284848f8f6040518085815260200184815260200183815260200182815260200194505050505060405180910390a35050505050506001600b819055505050505050565b6040518060400160405280600781526020017f4c50746f6b656e0000000000000000000000000000000000000000000000000081525081565b6000806000600760009054906101000a90046dffffffffffffffffffffffffffff1692506007600e9054906101000a90046dffffffffffffffffffffffffffff1691506007601c9054906101000a900463ffffffff169050909192565b6000611193338484612cc7565b6001905092915050565b600560009054906101000a900473ffffffffffffffffffffffffffffffffffffffff1681565b60005481565b60007fffffffffffffffffffffffffffffffffffffffffffffffffffffffffffffffff600260008673ffffffffffffffffffffffffffffffffffffffff1673ffffffffffffffffffffffffffffffffffffffff16815260200190815260200160002060003373ffffffffffffffffffffffffffffffffffffffff1673ffffffffffffffffffffffffffffffffffffffff168152602001908152602001600020541461137e576112fd82600260008773ffffffffffffffffffffffffffffffffffffffff1673ffffffffffffffffffffffffffffffffffffffff16815260200190815260200160002060003373ffffffffffffffffffffffffffffffffffffffff1673ffffffffffffffffffffffffffffffffffffffff168152602001908152602001600020546128c690919063ffffffff16565b600260008673ffffffffffffffffffffffffffffffffffffffff1673ffffffffffffffffffffffffffffffffffffffff16815260200190815260200160002060003373ffffffffffffffffffffffffffffffffffffffff1673ffffffffffffffffffffffffffffffffffffffff168152602001908152602001600020819055505b611389848484612db2565b600190509392505050565b601281565b600460009054906101000a900473ffffffffffffffffffffffffffffffffffffffff1673ffffffffffffffffffffffffffffffffffffffff163373ffffffffffffffffffffffffffffffffffffffff161461145c576040517f08c379a00000000000000000000000000000000000000000000000000000000081526004018080602001828103825260148152602001807f556e697377617056323a20464f5242494444454e00000000000000000000000081525060200191505060405180910390fd5b81600560006101000a81548173ffffffffffffffffffffffffffffffffffffffff021916908373ffffffffffffffffffffffffffffffffffffffff16021790555080600660006101000a81548173ffffffffffffffffffffffffffffffffffffffff021916908373ffffffffffffffffffffffffffffffffffffffff1602179055505050565b60085481565b60095481565b60006001600b5414611568576040517f08c379a00000000000000000000000000000000000000000000000000000000081526004018080602001828103825260118152602001807f556e697377617056323a204c4f434b454400000000000000000000000000000081525060200191505060405180910390fd5b6000600b8190555060008061157b611129565b50915091506000600560009054906101000a900473ffffffffffffffffffffffffffffffffffffffff1673ffffffffffffffffffffffffffffffffffffffff166370a08231306040518263ffffffff1660e01b8152600401808273ffffffffffffffffffffffffffffffffffffffff1673ffffffffffffffffffffffffffffffffffffffff16815260200191505060206040518083038186803b15801561162157600080fd5b505afa158015611635573d6000803e3d6000fd5b505050506040513d602081101561164b57600080fd5b810190808051906020019092919050505090506000600660009054906101000a900473ffffffffffffffffffffffffffffffffffffffff1673ffffffffffffffffffffffffffffffffffffffff166370a08231306040518263ffffffff1660e01b8152600401808273ffffffffffffffffffffffffffffffffffffffff1673ffffffffffffffffffffffffffffffffffffffff16815260200191505060206040518083038186803b1580156116ff57600080fd5b505afa158015611713573d6000803e3d6000fd5b505050506040513d602081101561172957600080fd5b810190808051906020019092919050505090506000611761856dffffffffffffffffffffffffffff16846128c690919063ffffffff16565b90506000611788856dffffffffffffffffffffffffffff16846128c690919063ffffffff16565b905060006117968787612f46565b905060008054905060008114156117ea576117d66103e86117c86117c3868861283190919063ffffffff16565b613127565b6128c690919063ffffffff16565b98506117e560006103e8613189565b61184d565b61184a886dffffffffffffffffffffffffffff16611811838761283190919063ffffffff16565b8161181857fe5b04886dffffffffffffffffffffffffffff1661183d848761283190919063ffffffff16565b8161184457fe5b046132a3565b98505b600089116118a6576040517f08c379a00000000000000000000000000000000000000000000000000000000081526004018080602001828103825260288152602001806135776028913960400191505060405180910390fd5b6118b08a8a613189565b6118bc86868a8a612949565b81156119345761192d6007600e9054906101000a90046dffffffffffffffffffffffffffff166dffffffffffffffffffffffffffff16600760009054906101000a90046dffffffffffffffffffffffffffff166dffffffffffffffffffffffffffff1661283190919063ffffffff16565b600a819055505b3373ffffffffffffffffffffffffffffffffffffffff167f4c209b5fc8ad50758f13e2e1088ba56a560dff690a1c6fef26394f4c03821c4f8585604051808381526020018281526020019250505060405180910390a250505050505050506001600b81905550919050565b60016020528060005260406000206000915090505481565b600a5481565b60036020528060005260406000206000915090505481565b6000806001600b5414611a50576040517f08c379a00000000000000000000000000000000000000000000000000000000081526004018080602001828103825260118152602001807f556e697377617056323a204c4f434b454400000000000000000000000000000081525060200191505060405180910390fd5b6000600b81905550600080611a63611129565b50915091506000600560009054906101000a900473ffffffffffffffffffffffffffffffffffffffff1690506000600660009054906101000a900473ffffffffffffffffffffffffffffffffffffffff16905060008273ffffffffffffffffffffffffffffffffffffffff166370a08231306040518263ffffffff1660e01b8152600401808273ffffffffffffffffffffffffffffffffffffffff1673ffffffffffffffffffffffffffffffffffffffff16815260200191505060206040518083038186803b158015611b3557600080fd5b505afa158015611b49573d6000803e3d6000fd5b505050506040513d6020811015611b5f57600080fd5b8101908080519060200190929190505050905060008273ffffffffffffffffffffffffffffffffffffffff166370a08231306040518263ffffffff1660e01b8152600401808273ffffffffffffffffffffffffffffffffffffffff1673ffffffffffffffffffffffffffffffffffffffff16815260200191505060206040518083038186803b158015611bf157600080fd5b505afa158015611c05573d6000803e3d6000fd5b505050506040513d6020811015611c1b57600080fd5b810190808051906020019092919050505090506000600160003073ffffffffffffffffffffffffffffffffffffffff1673ffffffffffffffffffffffffffffffffffffffff1681526020019081526020016000205490506000611c7e8888612f46565b905060008054905080611c9a868561283190919063ffffffff16565b81611ca157fe5b049a5080611cb8858561283190919063ffffffff16565b81611cbf57fe5b04995060008b118015611cd2575060008a115b611d27576040517f08c379a000000000000000000000000000000000000000000000000000000000815260040180806020018281038252602881526020018061354f6028913960400191505060405180910390fd5b611d3130846132bc565b611d3c878d8d6125e4565b611d47868d8c6125e4565b8673ffffffffffffffffffffffffffffffffffffffff166370a08231306040518263ffffffff1660e01b8152600401808273ffffffffffffffffffffffffffffffffffffffff1673ffffffffffffffffffffffffffffffffffffffff16815260200191505060206040518083038186803b158015611dc457600080fd5b505afa158015611dd8573d6000803e3d6000fd5b505050506040513d6020811015611dee57600080fd5b810190808051906020019092919050505094508573ffffffffffffffffffffffffffffffffffffffff166370a08231306040518263ffffffff1660e01b8152600401808273ffffffffffffffffffffffffffffffffffffffff1673ffffffffffffffffffffffffffffffffffffffff16815260200191505060206040518083038186803b158015611e7e57600080fd5b505afa158015611e92573d6000803e3d6000fd5b505050506040513d6020811015611ea857600080fd5b81019080805190602001909291905050509350611ec785858b8b612949565b8115611f3f57611f386007600e9054906101000a90046dffffffffffffffffffffffffffff166dffffffffffffffffffffffffffff16600760009054906101000a90046dffffffffffffffffffffffffffff166dffffffffffffffffffffffffffff1661283190919063ffffffff16565b600a819055505b8b73ffffffffffffffffffffffffffffffffffffffff163373ffffffffffffffffffffffffffffffffffffffff167fdccd412f0b1252819cb1fd330b93224ca42612892bb3f4f789976e6d819364968d8d604051808381526020018281526020019250505060405180910390a35050505050505050506001600b81905550915091565b6040518060400160405280600281526020017f4c5000000000000000000000000000000000000000000000000000000000000081525081565b6000612008338484612db2565b6001905092915050565b6103e881565b6001600b5414612090576040517f08c379a00000000000000000000000000000000000000000000000000000000081526004018080602001828103825260118152602001807f556e697377617056323a204c4f434b454400000000000000000000000000000081525060200191505060405180910390fd5b6000600b819055506000600560009054906101000a900473ffffffffffffffffffffffffffffffffffffffff1690506000600660009054906101000a900473ffffffffffffffffffffffffffffffffffffffff1690506121e682846121e1600760009054906101000a90046dffffffffffffffffffffffffffff166dffffffffffffffffffffffffffff168673ffffffffffffffffffffffffffffffffffffffff166370a08231306040518263ffffffff1660e01b8152600401808273ffffffffffffffffffffffffffffffffffffffff1673ffffffffffffffffffffffffffffffffffffffff16815260200191505060206040518083038186803b15801561219857600080fd5b505afa1580156121ac573d6000803e3d6000fd5b505050506040513d60208110156121c257600080fd5b81019080805190602001909291905050506128c690919063ffffffff16565b6125e4565b6122e681846122e16007600e9054906101000a90046dffffffffffffffffffffffffffff166dffffffffffffffffffffffffffff168573ffffffffffffffffffffffffffffffffffffffff166370a08231306040518263ffffffff1660e01b8152600401808273ffffffffffffffffffffffffffffffffffffffff1673ffffffffffffffffffffffffffffffffffffffff16815260200191505060206040518083038186803b15801561229857600080fd5b505afa1580156122ac573d6000803e3d6000fd5b505050506040513d60208110156122c257600080fd5b81019080805190602001909291905050506128c690919063ffffffff16565b6125e4565b50506001600b8190555050565b600460009054906101000a900473ffffffffffffffffffffffffffffffffffffffff1681565b600660009054906101000a900473ffffffffffffffffffffffffffffffffffffffff1681565b6002602052816000526040600020602052806000526040600020600091509150505481565b6001600b54146123dc576040517f08c379a00000000000000000000000000000000000000000000000000000000081526004018080602001828103825260118152602001807f556e697377617056323a204c4f434b454400000000000000000000000000000081525060200191505060405180910390fd5b6000600b819055506125da600560009054906101000a900473ffffffffffffffffffffffffffffffffffffffff1673ffffffffffffffffffffffffffffffffffffffff166370a08231306040518263ffffffff1660e01b8152600401808273ffffffffffffffffffffffffffffffffffffffff1673ffffffffffffffffffffffffffffffffffffffff16815260200191505060206040518083038186803b15801561248657600080fd5b505afa15801561249a573d6000803e3d6000fd5b505050506040513d60208110156124b057600080fd5b8101908080519060200190929190505050600660009054906101000a900473ffffffffffffffffffffffffffffffffffffffff1673ffffffffffffffffffffffffffffffffffffffff166370a08231306040518263ffffffff1660e01b8152600401808273ffffffffffffffffffffffffffffffffffffffff1673ffffffffffffffffffffffffffffffffffffffff16815260200191505060206040518083038186803b15801561256057600080fd5b505afa158015612574573d6000803e3d6000fd5b505050506040513d602081101561258a57600080fd5b8101908080519060200190929190505050600760009054906101000a90046dffffffffffffffffffffffffffff166007600e9054906101000a90046dffffffffffffffffffffffffffff16612949565b6001600b81905550565b600060608473ffffffffffffffffffffffffffffffffffffffff166040518060400160405280601981526020017f7472616e7366657228616464726573732c75696e743235362900000000000000815250805190602001208585604051602401808373ffffffffffffffffffffffffffffffffffffffff1673ffffffffffffffffffffffffffffffffffffffff16815260200182815260200192505050604051602081830303815290604052907bffffffffffffffffffffffffffffffffffffffffffffffffffffffff19166020820180517bffffffffffffffffffffffffffffffffffffffffffffffffffffffff83818316178352505050506040518082805190602001908083835b6020831061271157805182526020820191506020810190506020830392506126ee565b6001836020036101000a0380198251168184511680821785525050505050509050019150506000604051808303816000865af19150503d8060008114612773576040519150601f19603f3d011682016040523d82523d6000602084013e612778565b606091505b50915091508180156127b857506000815114806127b757508080602001905160208110156127a557600080fd5b81019080805190602001909291905050505b5b61282a576040517f08c379a000000000000000000000000000000000000000000000000000000000815260040180806020018281038252601a8152602001807f556e697377617056323a205452414e534645525f4641494c454400000000000081525060200191505060405180910390fd5b5050505050565b60008082148061284e575082828385029250828161284b57fe5b04145b6128c0576040517f08c379a00000000000000000000000000000000000000000000000000000000081526004018080602001828103825260148152602001807f64732d6d6174682d6d756c2d6f766572666c6f7700000000000000000000000081525060200191505060405180910390fd5b92915050565b6000828284039150811115612943576040517f08c379a00000000000000000000000000000000000000000000000000000000081526004018080602001828103825260158152602001807f64732d6d6174682d7375622d756e646572666c6f77000000000000000000000081525060200191505060405180910390fd5b92915050565b7fffffffffffffffffffffffffffffffffffffffffffffffffffffffffffffffff6dffffffffffffffffffffffffffff1684111580156129b957507fffffffffffffffffffffffffffffffffffffffffffffffffffffffffffffffff6dffffffffffffffffffffffffffff168311155b612a2b576040517f08c379a00000000000000000000000000000000000000000000000000000000081526004018080602001828103825260138152602001807f556e697377617056323a204f564552464c4f570000000000000000000000000081525060200191505060405180910390fd5b60006401000000004281612a3b57fe5b06905060006007601c9054906101000a900463ffffffff168203905060008163ffffffff16118015612a7e57506000846dffffffffffffffffffffffffffff1614155b8015612a9b57506000836dffffffffffffffffffffffffffff1614155b15612b7d578063ffffffff16612ae085612ab4866133d6565b7bffffffffffffffffffffffffffffffffffffffffffffffffffffffff1661340190919063ffffffff16565b7bffffffffffffffffffffffffffffffffffffffffffffffffffffffff16026008600082825401925050819055508063ffffffff16612b4e84612b22876133d6565b7bffffffffffffffffffffffffffffffffffffffffffffffffffffffff1661340190919063ffffffff16565b7bffffffffffffffffffffffffffffffffffffffffffffffffffffffff16026009600082825401925050819055505b85600760006101000a8154816dffffffffffffffffffffffffffff02191690836dffffffffffffffffffffffffffff160217905550846007600e6101000a8154816dffffffffffffffffffffffffffff02191690836dffffffffffffffffffffffffffff160217905550816007601c6101000a81548163ffffffff021916908363ffffffff1602179055507f1c411e9a96e071241c2f21f7726b17ae89e3cab4c78be50e062b03a9fffbbad1600760009054906101000a90046dffffffffffffffffffffffffffff166007600e9054906101000a90046dffffffffffffffffffffffffffff1660405180836dffffffffffffffffffffffffffff166dffffffffffffffffffffffffffff168152602001826dffffffffffffffffffffffffffff166dffffffffffffffffffffffffffff1681526020019250505060405180910390a1505050505050565b80600260008573ffffffffffffffffffffffffffffffffffffffff1673ffffffffffffffffffffffffffffffffffffffff16815260200190815260200160002060008473ffffffffffffffffffffffffffffffffffffffff1673ffffffffffffffffffffffffffffffffffffffff168152602001908152602001600020819055508173ffffffffffffffffffffffffffffffffffffffff168373ffffffffffffffffffffffffffffffffffffffff167f8c5be1e5ebec7d5bd14f71427d1e84f3dd0314c0f7b2291e5b200ac8c7c3b925836040518082815260200191505060405180910390a3505050565b612e0481600160008673ffffffffffffffffffffffffffffffffffffffff1673ffffffffffffffffffffffffffffffffffffffff168152602001908152602001600020546128c690919063ffffffff16565b600160008573ffffffffffffffffffffffffffffffffffffffff1673ffffffffffffffffffffffffffffffffffffffff16815260200190815260200160002081905550612e9981600160008573ffffffffffffffffffffffffffffffffffffffff1673ffffffffffffffffffffffffffffffffffffffff1681526020019081526020016000205461346190919063ffffffff16565b600160008473ffffffffffffffffffffffffffffffffffffffff1673ffffffffffffffffffffffffffffffffffffffff168152602001908152602001600020819055508173ffffffffffffffffffffffffffffffffffffffff168373ffffffffffffffffffffffffffffffffffffffff167fddf252ad1be2c89b69c2b068fc378daa952ba7f163c4a11628f55a4df523b3ef836040518082815260200191505060405180910390a3505050565b600080600460009054906101000a900473ffffffffffffffffffffffffffffffffffffffff1673ffffffffffffffffffffffffffffffffffffffff1663017e7e586040518163ffffffff1660e01b815260040160206040518083038186803b158015612fb157600080fd5b505afa158015612fc5573d6000803e3d6000fd5b505050506040513d6020811015612fdb57600080fd5b81019080805190602001909291905050509050600073ffffffffffffffffffffffffffffffffffffffff168173ffffffffffffffffffffffffffffffffffffffff16141591506000600a549050821561310d576000811461310857600061307361306e866dffffffffffffffffffffffffffff16886dffffffffffffffffffffffffffff1661283190919063ffffffff16565b613127565b9050600061308083613127565b9050808211156131055760006130b36130a283856128c690919063ffffffff16565b60005461283190919063ffffffff16565b905060006130dd836130cf60058761283190919063ffffffff16565b61346190919063ffffffff16565b905060008183816130ea57fe5b0490506000811115613101576131008782613189565b5b5050505b50505b61311f565b6000811461311e576000600a819055505b5b505092915050565b6000600382111561317657819050600060016002848161314357fe5b040190505b818110156131705780915060028182858161315f57fe5b04018161316857fe5b049050613148565b50613184565b6000821461318357600190505b5b919050565b61319e8160005461346190919063ffffffff16565b6000819055506131f681600160008573ffffffffffffffffffffffffffffffffffffffff1673ffffffffffffffffffffffffffffffffffffffff1681526020019081526020016000205461346190919063ffffffff16565b600160008473ffffffffffffffffffffffffffffffffffffffff1673ffffffffffffffffffffffffffffffffffffffff168152602001908152602001600020819055508173ffffffffffffffffffffffffffffffffffffffff16600073ffffffffffffffffffffffffffffffffffffffff167fddf252ad1be2c89b69c2b068fc378daa952ba7f163c4a11628f55a4df523b3ef836040518082815260200191505060405180910390a35050565b60008183106132b257816132b4565b825b905092915050565b61330e81600160008573ffffffffffffffffffffffffffffffffffffffff1673ffffffffffffffffffffffffffffffffffffffff168152602001908152602001600020546128c690919063ffffffff16565b600160008473ffffffffffffffffffffffffffffffffffffffff1673ffffffffffffffffffffffffffffffffffffffff16815260200190815260200160002081905550613366816000546128c690919063ffffffff16565b600081905550600073ffffffffffffffffffffffffffffffffffffffff168273ffffffffffffffffffffffffffffffffffffffff167fddf252ad1be2c89b69c2b068fc378daa952ba7f163c4a11628f55a4df523b3ef836040518082815260200191505060405180910390a35050565b60006e010000000000000000000000000000826dffffffffffffffffffffffffffff16029050919050565b6000816dffffffffffffffffffffffffffff167bffffffffffffffffffffffffffffffffffffffffffffffffffffffff16837bffffffffffffffffffffffffffffffffffffffffffffffffffffffff168161345857fe5b04905092915050565b60008282840191508110156134de576040517f08c379a00000000000000000000000000000000000000000000000000000000081526004018080602001828103825260148152602001807f64732d6d6174682d6164642d6f766572666c6f7700000000000000000000000081525060200191505060405180910390fd5b9291505056fe556e697377617056323a20494e53554646494349454e545f4f55545055545f414d4f554e54556e697377617056323a20494e53554646494349454e545f494e5055545f414d4f554e54556e697377617056323a20494e53554646494349454e545f4c4951554944495459556e697377617056323a20494e53554646494349454e545f4c49515549444954595f4255524e4544556e697377617056323a20494e53554646494349454e545f4c49515549444954595f4d494e544544a26469706673582212202e70fe774be96ef3ec549dd4f345c563ca65a62121ed0ab167ff3d35390dabbc64736f6c63430006060033",
					"opcodes": "PUSH1 0x80 PUSH1 0x40 MSTORE PUSH1 0x1 PUSH1 0xB SSTORE CALLVALUE DUP1 ISZERO PUSH2 0x15 JUMPI PUSH1 0x0 DUP1 REVERT JUMPDEST POP CALLER PUSH1 0x4 PUSH1 0x0 PUSH2 0x100 EXP DUP2 SLOAD DUP2 PUSH20 0xFFFFFFFFFFFFFFFFFFFFFFFFFFFFFFFFFFFFFFFF MUL NOT AND SWAP1 DUP4 PUSH20 0xFFFFFFFFFFFFFFFFFFFFFFFFFFFFFFFFFFFFFFFF AND MUL OR SWAP1 SSTORE POP PUSH2 0x35D4 DUP1 PUSH2 0x66 PUSH1 0x0 CODECOPY PUSH1 0x0 RETURN INVALID PUSH1 0x80 PUSH1 0x40 MSTORE CALLVALUE DUP1 ISZERO PUSH2 0x10 JUMPI PUSH1 0x0 DUP1 REVERT JUMPDEST POP PUSH1 0x4 CALLDATASIZE LT PUSH2 0x158 JUMPI PUSH1 0x0 CALLDATALOAD PUSH1 0xE0 SHR DUP1 PUSH4 0x70A08231 GT PUSH2 0xC3 JUMPI DUP1 PUSH4 0xBA9A7A56 GT PUSH2 0x7C JUMPI DUP1 PUSH4 0xBA9A7A56 EQ PUSH2 0x78B JUMPI DUP1 PUSH4 0xBC25CF77 EQ PUSH2 0x7A9 JUMPI DUP1 PUSH4 0xC45A0155 EQ PUSH2 0x7ED JUMPI DUP1 PUSH4 0xD21220A7 EQ PUSH2 0x837 JUMPI DUP1 PUSH4 0xDD62ED3E EQ PUSH2 0x881 JUMPI DUP1 PUSH4 0xFFF6CAE9 EQ PUSH2 0x8F9 JUMPI PUSH2 0x158 JUMP JUMPDEST DUP1 PUSH4 0x70A08231 EQ PUSH2 0x575 JUMPI DUP1 PUSH4 0x7464FC3D EQ PUSH2 0x5CD JUMPI DUP1 PUSH4 0x7ECEBE00 EQ PUSH2 0x5EB JUMPI DUP1 PUSH4 0x89AFCB44 EQ PUSH2 0x643 JUMPI DUP1 PUSH4 0x95D89B41 EQ PUSH2 0x6A2 JUMPI DUP1 PUSH4 0xA9059CBB EQ PUSH2 0x725 JUMPI PUSH2 0x158 JUMP JUMPDEST DUP1 PUSH4 0x23B872DD GT PUSH2 0x115 JUMPI DUP1 PUSH4 0x23B872DD EQ PUSH2 0x3D3 JUMPI DUP1 PUSH4 0x313CE567 EQ PUSH2 0x459 JUMPI DUP1 PUSH4 0x485CC955 EQ PUSH2 0x47D JUMPI DUP1 PUSH4 0x5909C0D5 EQ PUSH2 0x4E1 JUMPI DUP1 PUSH4 0x5A3D5493 EQ PUSH2 0x4FF JUMPI DUP1 PUSH4 0x6A627842 EQ PUSH2 0x51D JUMPI PUSH2 0x158 JUMP JUMPDEST DUP1 PUSH4 0x22C0D9F EQ PUSH2 0x15D JUMPI DUP1 PUSH4 0x6FDDE03 EQ PUSH2 0x20A JUMPI DUP1 PUSH4 0x902F1AC EQ PUSH2 0x28D JUMPI DUP1 PUSH4 0x95EA7B3 EQ PUSH2 0x305 JUMPI DUP1 PUSH4 0xDFE1681 EQ PUSH2 0x36B JUMPI DUP1 PUSH4 0x18160DDD EQ PUSH2 0x3B5 JUMPI JUMPDEST PUSH1 0x0 DUP1 REVERT JUMPDEST PUSH2 0x208 PUSH1 0x4 DUP1 CALLDATASIZE SUB PUSH1 0x80 DUP2 LT ISZERO PUSH2 0x173 JUMPI PUSH1 0x0 DUP1 REVERT JUMPDEST DUP2 ADD SWAP1 DUP1 DUP1 CALLDATALOAD SWAP1 PUSH1 0x20 ADD SWAP1 SWAP3 SWAP2 SWAP1 DUP1 CALLDATALOAD SWAP1 PUSH1 0x20 ADD SWAP1 SWAP3 SWAP2 SWAP1 DUP1 CALLDATALOAD PUSH20 0xFFFFFFFFFFFFFFFFFFFFFFFFFFFFFFFFFFFFFFFF AND SWAP1 PUSH1 0x20 ADD SWAP1 SWAP3 SWAP2 SWAP1 DUP1 CALLDATALOAD SWAP1 PUSH1 0x20 ADD SWAP1 PUSH5 0x100000000 DUP2 GT ISZERO PUSH2 0x1C4 JUMPI PUSH1 0x0 DUP1 REVERT JUMPDEST DUP3 ADD DUP4 PUSH1 0x20 DUP3 ADD GT ISZERO PUSH2 0x1D6 JUMPI PUSH1 0x0 DUP1 REVERT JUMPDEST DUP1 CALLDATALOAD SWAP1 PUSH1 0x20 ADD SWAP2 DUP5 PUSH1 0x1 DUP4 MUL DUP5 ADD GT PUSH5 0x100000000 DUP4 GT OR ISZERO PUSH2 0x1F8 JUMPI PUSH1 0x0 DUP1 REVERT JUMPDEST SWAP1 SWAP2 SWAP3 SWAP4 SWAP2 SWAP3 SWAP4 SWAP1 POP POP POP PUSH2 0x903 JUMP JUMPDEST STOP JUMPDEST PUSH2 0x212 PUSH2 0x10F0 JUMP JUMPDEST PUSH1 0x40 MLOAD DUP1 DUP1 PUSH1 0x20 ADD DUP3 DUP2 SUB DUP3 MSTORE DUP4 DUP2 DUP2 MLOAD DUP2 MSTORE PUSH1 0x20 ADD SWAP2 POP DUP1 MLOAD SWAP1 PUSH1 0x20 ADD SWAP1 DUP1 DUP4 DUP4 PUSH1 0x0 JUMPDEST DUP4 DUP2 LT ISZERO PUSH2 0x252 JUMPI DUP1 DUP3 ADD MLOAD DUP2 DUP5 ADD MSTORE PUSH1 0x20 DUP2 ADD SWAP1 POP PUSH2 0x237 JUMP JUMPDEST POP POP POP POP SWAP1 POP SWAP1 DUP2 ADD SWAP1 PUSH1 0x1F AND DUP1 ISZERO PUSH2 0x27F JUMPI DUP1 DUP3 SUB DUP1 MLOAD PUSH1 0x1 DUP4 PUSH1 0x20 SUB PUSH2 0x100 EXP SUB NOT AND DUP2 MSTORE PUSH1 0x20 ADD SWAP2 POP JUMPDEST POP SWAP3 POP POP POP PUSH1 0x40 MLOAD DUP1 SWAP2 SUB SWAP1 RETURN JUMPDEST PUSH2 0x295 PUSH2 0x1129 JUMP JUMPDEST PUSH1 0x40 MLOAD DUP1 DUP5 PUSH14 0xFFFFFFFFFFFFFFFFFFFFFFFFFFFF AND PUSH14 0xFFFFFFFFFFFFFFFFFFFFFFFFFFFF AND DUP2 MSTORE PUSH1 0x20 ADD DUP4 PUSH14 0xFFFFFFFFFFFFFFFFFFFFFFFFFFFF AND PUSH14 0xFFFFFFFFFFFFFFFFFFFFFFFFFFFF AND DUP2 MSTORE PUSH1 0x20 ADD DUP3 PUSH4 0xFFFFFFFF AND PUSH4 0xFFFFFFFF AND DUP2 MSTORE PUSH1 0x20 ADD SWAP4 POP POP POP POP PUSH1 0x40 MLOAD DUP1 SWAP2 SUB SWAP1 RETURN JUMPDEST PUSH2 0x351 PUSH1 0x4 DUP1 CALLDATASIZE SUB PUSH1 0x40 DUP2 LT ISZERO PUSH2 0x31B JUMPI PUSH1 0x0 DUP1 REVERT JUMPDEST DUP2 ADD SWAP1 DUP1 DUP1 CALLDATALOAD PUSH20 0xFFFFFFFFFFFFFFFFFFFFFFFFFFFFFFFFFFFFFFFF AND SWAP1 PUSH1 0x20 ADD SWAP1 SWAP3 SWAP2 SWAP1 DUP1 CALLDATALOAD SWAP1 PUSH1 0x20 ADD SWAP1 SWAP3 SWAP2 SWAP1 POP POP POP PUSH2 0x1186 JUMP JUMPDEST PUSH1 0x40 MLOAD DUP1 DUP3 ISZERO ISZERO ISZERO ISZERO DUP2 MSTORE PUSH1 0x20 ADD SWAP2 POP POP PUSH1 0x40 MLOAD DUP1 SWAP2 SUB SWAP1 RETURN JUMPDEST PUSH2 0x373 PUSH2 0x119D JUMP JUMPDEST PUSH1 0x40 MLOAD DUP1 DUP3 PUSH20 0xFFFFFFFFFFFFFFFFFFFFFFFFFFFFFFFFFFFFFFFF AND PUSH20 0xFFFFFFFFFFFFFFFFFFFFFFFFFFFFFFFFFFFFFFFF AND DUP2 MSTORE PUSH1 0x20 ADD SWAP2 POP POP PUSH1 0x40 MLOAD DUP1 SWAP2 SUB SWAP1 RETURN JUMPDEST PUSH2 0x3BD PUSH2 0x11C3 JUMP JUMPDEST PUSH1 0x40 MLOAD DUP1 DUP3 DUP2 MSTORE PUSH1 0x20 ADD SWAP2 POP POP PUSH1 0x40 MLOAD DUP1 SWAP2 SUB SWAP1 RETURN JUMPDEST PUSH2 0x43F PUSH1 0x4 DUP1 CALLDATASIZE SUB PUSH1 0x60 DUP2 LT ISZERO PUSH2 0x3E9 JUMPI PUSH1 0x0 DUP1 REVERT JUMPDEST DUP2 ADD SWAP1 DUP1 DUP1 CALLDATALOAD PUSH20 0xFFFFFFFFFFFFFFFFFFFFFFFFFFFFFFFFFFFFFFFF AND SWAP1 PUSH1 0x20 ADD SWAP1 SWAP3 SWAP2 SWAP1 DUP1 CALLDATALOAD PUSH20 0xFFFFFFFFFFFFFFFFFFFFFFFFFFFFFFFFFFFFFFFF AND SWAP1 PUSH1 0x20 ADD SWAP1 SWAP3 SWAP2 SWAP1 DUP1 CALLDATALOAD SWAP1 PUSH1 0x20 ADD SWAP1 SWAP3 SWAP2 SWAP1 POP POP POP PUSH2 0x11C9 JUMP JUMPDEST PUSH1 0x40 MLOAD DUP1 DUP3 ISZERO ISZERO ISZERO ISZERO DUP2 MSTORE PUSH1 0x20 ADD SWAP2 POP POP PUSH1 0x40 MLOAD DUP1 SWAP2 SUB SWAP1 RETURN JUMPDEST PUSH2 0x461 PUSH2 0x1394 JUMP JUMPDEST PUSH1 0x40 MLOAD DUP1 DUP3 PUSH1 0xFF AND PUSH1 0xFF AND DUP2 MSTORE PUSH1 0x20 ADD SWAP2 POP POP PUSH1 0x40 MLOAD DUP1 SWAP2 SUB SWAP1 RETURN JUMPDEST PUSH2 0x4DF PUSH1 0x4 DUP1 CALLDATASIZE SUB PUSH1 0x40 DUP2 LT ISZERO PUSH2 0x493 JUMPI PUSH1 0x0 DUP1 REVERT JUMPDEST DUP2 ADD SWAP1 DUP1 DUP1 CALLDATALOAD PUSH20 0xFFFFFFFFFFFFFFFFFFFFFFFFFFFFFFFFFFFFFFFF AND SWAP1 PUSH1 0x20 ADD SWAP1 SWAP3 SWAP2 SWAP1 DUP1 CALLDATALOAD PUSH20 0xFFFFFFFFFFFFFFFFFFFFFFFFFFFFFFFFFFFFFFFF AND SWAP1 PUSH1 0x20 ADD SWAP1 SWAP3 SWAP2 SWAP1 POP POP POP PUSH2 0x1399 JUMP JUMPDEST STOP JUMPDEST PUSH2 0x4E9 PUSH2 0x14E2 JUMP JUMPDEST PUSH1 0x40 MLOAD DUP1 DUP3 DUP2 MSTORE PUSH1 0x20 ADD SWAP2 POP POP PUSH1 0x40 MLOAD DUP1 SWAP2 SUB SWAP1 RETURN JUMPDEST PUSH2 0x507 PUSH2 0x14E8 JUMP JUMPDEST PUSH1 0x40 MLOAD DUP1 DUP3 DUP2 MSTORE PUSH1 0x20 ADD SWAP2 POP POP PUSH1 0x40 MLOAD DUP1 SWAP2 SUB SWAP1 RETURN JUMPDEST PUSH2 0x55F PUSH1 0x4 DUP1 CALLDATASIZE SUB PUSH1 0x20 DUP2 LT ISZERO PUSH2 0x533 JUMPI PUSH1 0x0 DUP1 REVERT JUMPDEST DUP2 ADD SWAP1 DUP1 DUP1 CALLDATALOAD PUSH20 0xFFFFFFFFFFFFFFFFFFFFFFFFFFFFFFFFFFFFFFFF AND SWAP1 PUSH1 0x20 ADD SWAP1 SWAP3 SWAP2 SWAP1 POP POP POP PUSH2 0x14EE JUMP JUMPDEST PUSH1 0x40 MLOAD DUP1 DUP3 DUP2 MSTORE PUSH1 0x20 ADD SWAP2 POP POP PUSH1 0x40 MLOAD DUP1 SWAP2 SUB SWAP1 RETURN JUMPDEST PUSH2 0x5B7 PUSH1 0x4 DUP1 CALLDATASIZE SUB PUSH1 0x20 DUP2 LT ISZERO PUSH2 0x58B JUMPI PUSH1 0x0 DUP1 REVERT JUMPDEST DUP2 ADD SWAP1 DUP1 DUP1 CALLDATALOAD PUSH20 0xFFFFFFFFFFFFFFFFFFFFFFFFFFFFFFFFFFFFFFFF AND SWAP1 PUSH1 0x20 ADD SWAP1 SWAP3 SWAP2 SWAP1 POP POP POP PUSH2 0x199F JUMP JUMPDEST PUSH1 0x40 MLOAD DUP1 DUP3 DUP2 MSTORE PUSH1 0x20 ADD SWAP2 POP POP PUSH1 0x40 MLOAD DUP1 SWAP2 SUB SWAP1 RETURN JUMPDEST PUSH2 0x5D5 PUSH2 0x19B7 JUMP JUMPDEST PUSH1 0x40 MLOAD DUP1 DUP3 DUP2 MSTORE PUSH1 0x20 ADD SWAP2 POP POP PUSH1 0x40 MLOAD DUP1 SWAP2 SUB SWAP1 RETURN JUMPDEST PUSH2 0x62D PUSH1 0x4 DUP1 CALLDATASIZE SUB PUSH1 0x20 DUP2 LT ISZERO PUSH2 0x601 JUMPI PUSH1 0x0 DUP1 REVERT JUMPDEST DUP2 ADD SWAP1 DUP1 DUP1 CALLDATALOAD PUSH20 0xFFFFFFFFFFFFFFFFFFFFFFFFFFFFFFFFFFFFFFFF AND SWAP1 PUSH1 0x20 ADD SWAP1 SWAP3 SWAP2 SWAP1 POP POP POP PUSH2 0x19BD JUMP JUMPDEST PUSH1 0x40 MLOAD DUP1 DUP3 DUP2 MSTORE PUSH1 0x20 ADD SWAP2 POP POP PUSH1 0x40 MLOAD DUP1 SWAP2 SUB SWAP1 RETURN JUMPDEST PUSH2 0x685 PUSH1 0x4 DUP1 CALLDATASIZE SUB PUSH1 0x20 DUP2 LT ISZERO PUSH2 0x659 JUMPI PUSH1 0x0 DUP1 REVERT JUMPDEST DUP2 ADD SWAP1 DUP1 DUP1 CALLDATALOAD PUSH20 0xFFFFFFFFFFFFFFFFFFFFFFFFFFFFFFFFFFFFFFFF AND SWAP1 PUSH1 0x20 ADD SWAP1 SWAP3 SWAP2 SWAP1 POP POP POP PUSH2 0x19D5 JUMP JUMPDEST PUSH1 0x40 MLOAD DUP1 DUP4 DUP2 MSTORE PUSH1 0x20 ADD DUP3 DUP2 MSTORE PUSH1 0x20 ADD SWAP3 POP POP POP PUSH1 0x40 MLOAD DUP1 SWAP2 SUB SWAP1 RETURN JUMPDEST PUSH2 0x6AA PUSH2 0x1FC2 JUMP JUMPDEST PUSH1 0x40 MLOAD DUP1 DUP1 PUSH1 0x20 ADD DUP3 DUP2 SUB DUP3 MSTORE DUP4 DUP2 DUP2 MLOAD DUP2 MSTORE PUSH1 0x20 ADD SWAP2 POP DUP1 MLOAD SWAP1 PUSH1 0x20 ADD SWAP1 DUP1 DUP4 DUP4 PUSH1 0x0 JUMPDEST DUP4 DUP2 LT ISZERO PUSH2 0x6EA JUMPI DUP1 DUP3 ADD MLOAD DUP2 DUP5 ADD MSTORE PUSH1 0x20 DUP2 ADD SWAP1 POP PUSH2 0x6CF JUMP JUMPDEST POP POP POP POP SWAP1 POP SWAP1 DUP2 ADD SWAP1 PUSH1 0x1F AND DUP1 ISZERO PUSH2 0x717 JUMPI DUP1 DUP3 SUB DUP1 MLOAD PUSH1 0x1 DUP4 PUSH1 0x20 SUB PUSH2 0x100 EXP SUB NOT AND DUP2 MSTORE PUSH1 0x20 ADD SWAP2 POP JUMPDEST POP SWAP3 POP POP POP PUSH1 0x40 MLOAD DUP1 SWAP2 SUB SWAP1 RETURN JUMPDEST PUSH2 0x771 PUSH1 0x4 DUP1 CALLDATASIZE SUB PUSH1 0x40 DUP2 LT ISZERO PUSH2 0x73B JUMPI PUSH1 0x0 DUP1 REVERT JUMPDEST DUP2 ADD SWAP1 DUP1 DUP1 CALLDATALOAD PUSH20 0xFFFFFFFFFFFFFFFFFFFFFFFFFFFFFFFFFFFFFFFF AND SWAP1 PUSH1 0x20 ADD SWAP1 SWAP3 SWAP2 SWAP1 DUP1 CALLDATALOAD SWAP1 PUSH1 0x20 ADD SWAP1 SWAP3 SWAP2 SWAP1 POP POP POP PUSH2 0x1FFB JUMP JUMPDEST PUSH1 0x40 MLOAD DUP1 DUP3 ISZERO ISZERO ISZERO ISZERO DUP2 MSTORE PUSH1 0x20 ADD SWAP2 POP POP PUSH1 0x40 MLOAD DUP1 SWAP2 SUB SWAP1 RETURN JUMPDEST PUSH2 0x793 PUSH2 0x2012 JUMP JUMPDEST PUSH1 0x40 MLOAD DUP1 DUP3 DUP2 MSTORE PUSH1 0x20 ADD SWAP2 POP POP PUSH1 0x40 MLOAD DUP1 SWAP2 SUB SWAP1 RETURN JUMPDEST PUSH2 0x7EB PUSH1 0x4 DUP1 CALLDATASIZE SUB PUSH1 0x20 DUP2 LT ISZERO PUSH2 0x7BF JUMPI PUSH1 0x0 DUP1 REVERT JUMPDEST DUP2 ADD SWAP1 DUP1 DUP1 CALLDATALOAD PUSH20 0xFFFFFFFFFFFFFFFFFFFFFFFFFFFFFFFFFFFFFFFF AND SWAP1 PUSH1 0x20 ADD SWAP1 SWAP3 SWAP2 SWAP1 POP POP POP PUSH2 0x2018 JUMP JUMPDEST STOP JUMPDEST PUSH2 0x7F5 PUSH2 0x22F3 JUMP JUMPDEST PUSH1 0x40 MLOAD DUP1 DUP3 PUSH20 0xFFFFFFFFFFFFFFFFFFFFFFFFFFFFFFFFFFFFFFFF AND PUSH20 0xFFFFFFFFFFFFFFFFFFFFFFFFFFFFFFFFFFFFFFFF AND DUP2 MSTORE PUSH1 0x20 ADD SWAP2 POP POP PUSH1 0x40 MLOAD DUP1 SWAP2 SUB SWAP1 RETURN JUMPDEST PUSH2 0x83F PUSH2 0x2319 JUMP JUMPDEST PUSH1 0x40 MLOAD DUP1 DUP3 PUSH20 0xFFFFFFFFFFFFFFFFFFFFFFFFFFFFFFFFFFFFFFFF AND PUSH20 0xFFFFFFFFFFFFFFFFFFFFFFFFFFFFFFFFFFFFFFFF AND DUP2 MSTORE PUSH1 0x20 ADD SWAP2 POP POP PUSH1 0x40 MLOAD DUP1 SWAP2 SUB SWAP1 RETURN JUMPDEST PUSH2 0x8E3 PUSH1 0x4 DUP1 CALLDATASIZE SUB PUSH1 0x40 DUP2 LT ISZERO PUSH2 0x897 JUMPI PUSH1 0x0 DUP1 REVERT JUMPDEST DUP2 ADD SWAP1 DUP1 DUP1 CALLDATALOAD PUSH20 0xFFFFFFFFFFFFFFFFFFFFFFFFFFFFFFFFFFFFFFFF AND SWAP1 PUSH1 0x20 ADD SWAP1 SWAP3 SWAP2 SWAP1 DUP1 CALLDATALOAD PUSH20 0xFFFFFFFFFFFFFFFFFFFFFFFFFFFFFFFFFFFFFFFF AND SWAP1 PUSH1 0x20 ADD SWAP1 SWAP3 SWAP2 SWAP1 POP POP POP PUSH2 0x233F JUMP JUMPDEST PUSH1 0x40 MLOAD DUP1 DUP3 DUP2 MSTORE PUSH1 0x20 ADD SWAP2 POP POP PUSH1 0x40 MLOAD DUP1 SWAP2 SUB SWAP1 RETURN JUMPDEST PUSH2 0x901 PUSH2 0x2364 JUMP JUMPDEST STOP JUMPDEST PUSH1 0x1 PUSH1 0xB SLOAD EQ PUSH2 0x97B JUMPI PUSH1 0x40 MLOAD PUSH32 0x8C379A000000000000000000000000000000000000000000000000000000000 DUP2 MSTORE PUSH1 0x4 ADD DUP1 DUP1 PUSH1 0x20 ADD DUP3 DUP2 SUB DUP3 MSTORE PUSH1 0x11 DUP2 MSTORE PUSH1 0x20 ADD DUP1 PUSH32 0x556E697377617056323A204C4F434B4544000000000000000000000000000000 DUP2 MSTORE POP PUSH1 0x20 ADD SWAP2 POP POP PUSH1 0x40 MLOAD DUP1 SWAP2 SUB SWAP1 REVERT JUMPDEST PUSH1 0x0 PUSH1 0xB DUP2 SWAP1 SSTORE POP PUSH1 0x0 DUP6 GT DUP1 PUSH2 0x992 JUMPI POP PUSH1 0x0 DUP5 GT JUMPDEST PUSH2 0x9E7 JUMPI PUSH1 0x40 MLOAD PUSH32 0x8C379A000000000000000000000000000000000000000000000000000000000 DUP2 MSTORE PUSH1 0x4 ADD DUP1 DUP1 PUSH1 0x20 ADD DUP3 DUP2 SUB DUP3 MSTORE PUSH1 0x25 DUP2 MSTORE PUSH1 0x20 ADD DUP1 PUSH2 0x34E5 PUSH1 0x25 SWAP2 CODECOPY PUSH1 0x40 ADD SWAP2 POP POP PUSH1 0x40 MLOAD DUP1 SWAP2 SUB SWAP1 REVERT JUMPDEST PUSH1 0x0 DUP1 PUSH2 0x9F2 PUSH2 0x1129 JUMP JUMPDEST POP SWAP2 POP SWAP2 POP DUP2 PUSH14 0xFFFFFFFFFFFFFFFFFFFFFFFFFFFF AND DUP8 LT DUP1 ISZERO PUSH2 0xA25 JUMPI POP DUP1 PUSH14 0xFFFFFFFFFFFFFFFFFFFFFFFFFFFF AND DUP7 LT JUMPDEST PUSH2 0xA7A JUMPI PUSH1 0x40 MLOAD PUSH32 0x8C379A000000000000000000000000000000000000000000000000000000000 DUP2 MSTORE PUSH1 0x4 ADD DUP1 DUP1 PUSH1 0x20 ADD DUP3 DUP2 SUB DUP3 MSTORE PUSH1 0x21 DUP2 MSTORE PUSH1 0x20 ADD DUP1 PUSH2 0x352E PUSH1 0x21 SWAP2 CODECOPY PUSH1 0x40 ADD SWAP2 POP POP PUSH1 0x40 MLOAD DUP1 SWAP2 SUB SWAP1 REVERT JUMPDEST PUSH1 0x0 DUP1 PUSH1 0x0 PUSH1 0x5 PUSH1 0x0 SWAP1 SLOAD SWAP1 PUSH2 0x100 EXP SWAP1 DIV PUSH20 0xFFFFFFFFFFFFFFFFFFFFFFFFFFFFFFFFFFFFFFFF AND SWAP1 POP PUSH1 0x0 PUSH1 0x6 PUSH1 0x0 SWAP1 SLOAD SWAP1 PUSH2 0x100 EXP SWAP1 DIV PUSH20 0xFFFFFFFFFFFFFFFFFFFFFFFFFFFFFFFFFFFFFFFF AND SWAP1 POP DUP2 PUSH20 0xFFFFFFFFFFFFFFFFFFFFFFFFFFFFFFFFFFFFFFFF AND DUP10 PUSH20 0xFFFFFFFFFFFFFFFFFFFFFFFFFFFFFFFFFFFFFFFF AND EQ ISZERO DUP1 ISZERO PUSH2 0xB33 JUMPI POP DUP1 PUSH20 0xFFFFFFFFFFFFFFFFFFFFFFFFFFFFFFFFFFFFFFFF AND DUP10 PUSH20 0xFFFFFFFFFFFFFFFFFFFFFFFFFFFFFFFFFFFFFFFF AND EQ ISZERO JUMPDEST PUSH2 0xBA5 JUMPI PUSH1 0x40 MLOAD PUSH32 0x8C379A000000000000000000000000000000000000000000000000000000000 DUP2 MSTORE PUSH1 0x4 ADD DUP1 DUP1 PUSH1 0x20 ADD DUP3 DUP2 SUB DUP3 MSTORE PUSH1 0x15 DUP2 MSTORE PUSH1 0x20 ADD DUP1 PUSH32 0x556E697377617056323A20494E56414C49445F544F0000000000000000000000 DUP2 MSTORE POP PUSH1 0x20 ADD SWAP2 POP POP PUSH1 0x40 MLOAD DUP1 SWAP2 SUB SWAP1 REVERT JUMPDEST PUSH1 0x0 DUP12 GT ISZERO PUSH2 0xBBA JUMPI PUSH2 0xBB9 DUP3 DUP11 DUP14 PUSH2 0x25E4 JUMP JUMPDEST JUMPDEST PUSH1 0x0 DUP11 GT ISZERO PUSH2 0xBCF JUMPI PUSH2 0xBCE DUP2 DUP11 DUP13 PUSH2 0x25E4 JUMP JUMPDEST JUMPDEST PUSH1 0x0 DUP9 DUP9 SWAP1 POP GT ISZERO PUSH2 0xCB7 JUMPI DUP9 PUSH20 0xFFFFFFFFFFFFFFFFFFFFFFFFFFFFFFFFFFFFFFFF AND PUSH4 0x10D1E85C CALLER DUP14 DUP14 DUP13 DUP13 PUSH1 0x40 MLOAD DUP7 PUSH4 0xFFFFFFFF AND PUSH1 0xE0 SHL DUP2 MSTORE PUSH1 0x4 ADD DUP1 DUP7 PUSH20 0xFFFFFFFFFFFFFFFFFFFFFFFFFFFFFFFFFFFFFFFF AND PUSH20 0xFFFFFFFFFFFFFFFFFFFFFFFFFFFFFFFFFFFFFFFF AND DUP2 MSTORE PUSH1 0x20 ADD DUP6 DUP2 MSTORE PUSH1 0x20 ADD DUP5 DUP2 MSTORE PUSH1 0x20 ADD DUP1 PUSH1 0x20 ADD DUP3 DUP2 SUB DUP3 MSTORE DUP5 DUP5 DUP3 DUP2 DUP2 MSTORE PUSH1 0x20 ADD SWAP3 POP DUP1 DUP3 DUP5 CALLDATACOPY PUSH1 0x0 DUP2 DUP5 ADD MSTORE PUSH1 0x1F NOT PUSH1 0x1F DUP3 ADD AND SWAP1 POP DUP1 DUP4 ADD SWAP3 POP POP POP SWAP7 POP POP POP POP POP POP POP PUSH1 0x0 PUSH1 0x40 MLOAD DUP1 DUP4 SUB DUP2 PUSH1 0x0 DUP8 DUP1 EXTCODESIZE ISZERO DUP1 ISZERO PUSH2 0xC9E JUMPI PUSH1 0x0 DUP1 REVERT JUMPDEST POP GAS CALL ISZERO DUP1 ISZERO PUSH2 0xCB2 JUMPI RETURNDATASIZE PUSH1 0x0 DUP1 RETURNDATACOPY RETURNDATASIZE PUSH1 0x0 REVERT JUMPDEST POP POP POP POP JUMPDEST DUP2 PUSH20 0xFFFFFFFFFFFFFFFFFFFFFFFFFFFFFFFFFFFFFFFF AND PUSH4 0x70A08231 ADDRESS PUSH1 0x40 MLOAD DUP3 PUSH4 0xFFFFFFFF AND PUSH1 0xE0 SHL DUP2 MSTORE PUSH1 0x4 ADD DUP1 DUP3 PUSH20 0xFFFFFFFFFFFFFFFFFFFFFFFFFFFFFFFFFFFFFFFF AND PUSH20 0xFFFFFFFFFFFFFFFFFFFFFFFFFFFFFFFFFFFFFFFF AND DUP2 MSTORE PUSH1 0x20 ADD SWAP2 POP POP PUSH1 0x20 PUSH1 0x40 MLOAD DUP1 DUP4 SUB DUP2 DUP7 DUP1 EXTCODESIZE ISZERO DUP1 ISZERO PUSH2 0xD34 JUMPI PUSH1 0x0 DUP1 REVERT JUMPDEST POP GAS STATICCALL ISZERO DUP1 ISZERO PUSH2 0xD48 JUMPI RETURNDATASIZE PUSH1 0x0 DUP1 RETURNDATACOPY RETURNDATASIZE PUSH1 0x0 REVERT JUMPDEST POP POP POP POP PUSH1 0x40 MLOAD RETURNDATASIZE PUSH1 0x20 DUP2 LT ISZERO PUSH2 0xD5E JUMPI PUSH1 0x0 DUP1 REVERT JUMPDEST DUP2 ADD SWAP1 DUP1 DUP1 MLOAD SWAP1 PUSH1 0x20 ADD SWAP1 SWAP3 SWAP2 SWAP1 POP POP POP SWAP4 POP DUP1 PUSH20 0xFFFFFFFFFFFFFFFFFFFFFFFFFFFFFFFFFFFFFFFF AND PUSH4 0x70A08231 ADDRESS PUSH1 0x40 MLOAD DUP3 PUSH4 0xFFFFFFFF AND PUSH1 0xE0 SHL DUP2 MSTORE PUSH1 0x4 ADD DUP1 DUP3 PUSH20 0xFFFFFFFFFFFFFFFFFFFFFFFFFFFFFFFFFFFFFFFF AND PUSH20 0xFFFFFFFFFFFFFFFFFFFFFFFFFFFFFFFFFFFFFFFF AND DUP2 MSTORE PUSH1 0x20 ADD SWAP2 POP POP PUSH1 0x20 PUSH1 0x40 MLOAD DUP1 DUP4 SUB DUP2 DUP7 DUP1 EXTCODESIZE ISZERO DUP1 ISZERO PUSH2 0xDEE JUMPI PUSH1 0x0 DUP1 REVERT JUMPDEST POP GAS STATICCALL ISZERO DUP1 ISZERO PUSH2 0xE02 JUMPI RETURNDATASIZE PUSH1 0x0 DUP1 RETURNDATACOPY RETURNDATASIZE PUSH1 0x0 REVERT JUMPDEST POP POP POP POP PUSH1 0x40 MLOAD RETURNDATASIZE PUSH1 0x20 DUP2 LT ISZERO PUSH2 0xE18 JUMPI PUSH1 0x0 DUP1 REVERT JUMPDEST DUP2 ADD SWAP1 DUP1 DUP1 MLOAD SWAP1 PUSH1 0x20 ADD SWAP1 SWAP3 SWAP2 SWAP1 POP POP POP SWAP3 POP POP POP PUSH1 0x0 DUP10 DUP6 PUSH14 0xFFFFFFFFFFFFFFFFFFFFFFFFFFFF AND SUB DUP4 GT PUSH2 0xE4F JUMPI PUSH1 0x0 PUSH2 0xE65 JUMP JUMPDEST DUP10 DUP6 PUSH14 0xFFFFFFFFFFFFFFFFFFFFFFFFFFFF AND SUB DUP4 SUB JUMPDEST SWAP1 POP PUSH1 0x0 DUP10 DUP6 PUSH14 0xFFFFFFFFFFFFFFFFFFFFFFFFFFFF AND SUB DUP4 GT PUSH2 0xE89 JUMPI PUSH1 0x0 PUSH2 0xE9F JUMP JUMPDEST DUP10 DUP6 PUSH14 0xFFFFFFFFFFFFFFFFFFFFFFFFFFFF AND SUB DUP4 SUB JUMPDEST SWAP1 POP PUSH1 0x0 DUP3 GT DUP1 PUSH2 0xEB0 JUMPI POP PUSH1 0x0 DUP2 GT JUMPDEST PUSH2 0xF05 JUMPI PUSH1 0x40 MLOAD PUSH32 0x8C379A000000000000000000000000000000000000000000000000000000000 DUP2 MSTORE PUSH1 0x4 ADD DUP1 DUP1 PUSH1 0x20 ADD DUP3 DUP2 SUB DUP3 MSTORE PUSH1 0x24 DUP2 MSTORE PUSH1 0x20 ADD DUP1 PUSH2 0x350A PUSH1 0x24 SWAP2 CODECOPY PUSH1 0x40 ADD SWAP2 POP POP PUSH1 0x40 MLOAD DUP1 SWAP2 SUB SWAP1 REVERT JUMPDEST PUSH1 0x0 PUSH2 0xF41 PUSH2 0xF1E PUSH1 0x3 DUP6 PUSH2 0x2831 SWAP1 SWAP2 SWAP1 PUSH4 0xFFFFFFFF AND JUMP JUMPDEST PUSH2 0xF33 PUSH2 0x3E8 DUP9 PUSH2 0x2831 SWAP1 SWAP2 SWAP1 PUSH4 0xFFFFFFFF AND JUMP JUMPDEST PUSH2 0x28C6 SWAP1 SWAP2 SWAP1 PUSH4 0xFFFFFFFF AND JUMP JUMPDEST SWAP1 POP PUSH1 0x0 PUSH2 0xF7F PUSH2 0xF5C PUSH1 0x3 DUP6 PUSH2 0x2831 SWAP1 SWAP2 SWAP1 PUSH4 0xFFFFFFFF AND JUMP JUMPDEST PUSH2 0xF71 PUSH2 0x3E8 DUP9 PUSH2 0x2831 SWAP1 SWAP2 SWAP1 PUSH4 0xFFFFFFFF AND JUMP JUMPDEST PUSH2 0x28C6 SWAP1 SWAP2 SWAP1 PUSH4 0xFFFFFFFF AND JUMP JUMPDEST SWAP1 POP PUSH2 0xFC9 PUSH3 0xF4240 PUSH2 0xFBB DUP10 PUSH14 0xFFFFFFFFFFFFFFFFFFFFFFFFFFFF AND DUP12 PUSH14 0xFFFFFFFFFFFFFFFFFFFFFFFFFFFF AND PUSH2 0x2831 SWAP1 SWAP2 SWAP1 PUSH4 0xFFFFFFFF AND JUMP JUMPDEST PUSH2 0x2831 SWAP1 SWAP2 SWAP1 PUSH4 0xFFFFFFFF AND JUMP JUMPDEST PUSH2 0xFDC DUP3 DUP5 PUSH2 0x2831 SWAP1 SWAP2 SWAP1 PUSH4 0xFFFFFFFF AND JUMP JUMPDEST LT ISZERO PUSH2 0x1050 JUMPI PUSH1 0x40 MLOAD PUSH32 0x8C379A000000000000000000000000000000000000000000000000000000000 DUP2 MSTORE PUSH1 0x4 ADD DUP1 DUP1 PUSH1 0x20 ADD DUP3 DUP2 SUB DUP3 MSTORE PUSH1 0xC DUP2 MSTORE PUSH1 0x20 ADD DUP1 PUSH32 0x556E697377617056323A204B0000000000000000000000000000000000000000 DUP2 MSTORE POP PUSH1 0x20 ADD SWAP2 POP POP PUSH1 0x40 MLOAD DUP1 SWAP2 SUB SWAP1 REVERT JUMPDEST POP POP PUSH2 0x105E DUP5 DUP5 DUP9 DUP9 PUSH2 0x2949 JUMP JUMPDEST DUP9 PUSH20 0xFFFFFFFFFFFFFFFFFFFFFFFFFFFFFFFFFFFFFFFF AND CALLER PUSH20 0xFFFFFFFFFFFFFFFFFFFFFFFFFFFFFFFFFFFFFFFF AND PUSH32 0xD78AD95FA46C994B6551D0DA85FC275FE613CE37657FB8D5E3D130840159D822 DUP5 DUP5 DUP16 DUP16 PUSH1 0x40 MLOAD DUP1 DUP6 DUP2 MSTORE PUSH1 0x20 ADD DUP5 DUP2 MSTORE PUSH1 0x20 ADD DUP4 DUP2 MSTORE PUSH1 0x20 ADD DUP3 DUP2 MSTORE PUSH1 0x20 ADD SWAP5 POP POP POP POP POP PUSH1 0x40 MLOAD DUP1 SWAP2 SUB SWAP1 LOG3 POP POP POP POP POP POP PUSH1 0x1 PUSH1 0xB DUP2 SWAP1 SSTORE POP POP POP POP POP POP JUMP JUMPDEST PUSH1 0x40 MLOAD DUP1 PUSH1 0x40 ADD PUSH1 0x40 MSTORE DUP1 PUSH1 0x7 DUP2 MSTORE PUSH1 0x20 ADD PUSH32 0x4C50746F6B656E00000000000000000000000000000000000000000000000000 DUP2 MSTORE POP DUP2 JUMP JUMPDEST PUSH1 0x0 DUP1 PUSH1 0x0 PUSH1 0x7 PUSH1 0x0 SWAP1 SLOAD SWAP1 PUSH2 0x100 EXP SWAP1 DIV PUSH14 0xFFFFFFFFFFFFFFFFFFFFFFFFFFFF AND SWAP3 POP PUSH1 0x7 PUSH1 0xE SWAP1 SLOAD SWAP1 PUSH2 0x100 EXP SWAP1 DIV PUSH14 0xFFFFFFFFFFFFFFFFFFFFFFFFFFFF AND SWAP2 POP PUSH1 0x7 PUSH1 0x1C SWAP1 SLOAD SWAP1 PUSH2 0x100 EXP SWAP1 DIV PUSH4 0xFFFFFFFF AND SWAP1 POP SWAP1 SWAP2 SWAP3 JUMP JUMPDEST PUSH1 0x0 PUSH2 0x1193 CALLER DUP5 DUP5 PUSH2 0x2CC7 JUMP JUMPDEST PUSH1 0x1 SWAP1 POP SWAP3 SWAP2 POP POP JUMP JUMPDEST PUSH1 0x5 PUSH1 0x0 SWAP1 SLOAD SWAP1 PUSH2 0x100 EXP SWAP1 DIV PUSH20 0xFFFFFFFFFFFFFFFFFFFFFFFFFFFFFFFFFFFFFFFF AND DUP2 JUMP JUMPDEST PUSH1 0x0 SLOAD DUP2 JUMP JUMPDEST PUSH1 0x0 PUSH32 0xFFFFFFFFFFFFFFFFFFFFFFFFFFFFFFFFFFFFFFFFFFFFFFFFFFFFFFFFFFFFFFFF PUSH1 0x2 PUSH1 0x0 DUP7 PUSH20 0xFFFFFFFFFFFFFFFFFFFFFFFFFFFFFFFFFFFFFFFF AND PUSH20 0xFFFFFFFFFFFFFFFFFFFFFFFFFFFFFFFFFFFFFFFF AND DUP2 MSTORE PUSH1 0x20 ADD SWAP1 DUP2 MSTORE PUSH1 0x20 ADD PUSH1 0x0 KECCAK256 PUSH1 0x0 CALLER PUSH20 0xFFFFFFFFFFFFFFFFFFFFFFFFFFFFFFFFFFFFFFFF AND PUSH20 0xFFFFFFFFFFFFFFFFFFFFFFFFFFFFFFFFFFFFFFFF AND DUP2 MSTORE PUSH1 0x20 ADD SWAP1 DUP2 MSTORE PUSH1 0x20 ADD PUSH1 0x0 KECCAK256 SLOAD EQ PUSH2 0x137E JUMPI PUSH2 0x12FD DUP3 PUSH1 0x2 PUSH1 0x0 DUP8 PUSH20 0xFFFFFFFFFFFFFFFFFFFFFFFFFFFFFFFFFFFFFFFF AND PUSH20 0xFFFFFFFFFFFFFFFFFFFFFFFFFFFFFFFFFFFFFFFF AND DUP2 MSTORE PUSH1 0x20 ADD SWAP1 DUP2 MSTORE PUSH1 0x20 ADD PUSH1 0x0 KECCAK256 PUSH1 0x0 CALLER PUSH20 0xFFFFFFFFFFFFFFFFFFFFFFFFFFFFFFFFFFFFFFFF AND PUSH20 0xFFFFFFFFFFFFFFFFFFFFFFFFFFFFFFFFFFFFFFFF AND DUP2 MSTORE PUSH1 0x20 ADD SWAP1 DUP2 MSTORE PUSH1 0x20 ADD PUSH1 0x0 KECCAK256 SLOAD PUSH2 0x28C6 SWAP1 SWAP2 SWAP1 PUSH4 0xFFFFFFFF AND JUMP JUMPDEST PUSH1 0x2 PUSH1 0x0 DUP7 PUSH20 0xFFFFFFFFFFFFFFFFFFFFFFFFFFFFFFFFFFFFFFFF AND PUSH20 0xFFFFFFFFFFFFFFFFFFFFFFFFFFFFFFFFFFFFFFFF AND DUP2 MSTORE PUSH1 0x20 ADD SWAP1 DUP2 MSTORE PUSH1 0x20 ADD PUSH1 0x0 KECCAK256 PUSH1 0x0 CALLER PUSH20 0xFFFFFFFFFFFFFFFFFFFFFFFFFFFFFFFFFFFFFFFF AND PUSH20 0xFFFFFFFFFFFFFFFFFFFFFFFFFFFFFFFFFFFFFFFF AND DUP2 MSTORE PUSH1 0x20 ADD SWAP1 DUP2 MSTORE PUSH1 0x20 ADD PUSH1 0x0 KECCAK256 DUP2 SWAP1 SSTORE POP JUMPDEST PUSH2 0x1389 DUP5 DUP5 DUP5 PUSH2 0x2DB2 JUMP JUMPDEST PUSH1 0x1 SWAP1 POP SWAP4 SWAP3 POP POP POP JUMP JUMPDEST PUSH1 0x12 DUP2 JUMP JUMPDEST PUSH1 0x4 PUSH1 0x0 SWAP1 SLOAD SWAP1 PUSH2 0x100 EXP SWAP1 DIV PUSH20 0xFFFFFFFFFFFFFFFFFFFFFFFFFFFFFFFFFFFFFFFF AND PUSH20 0xFFFFFFFFFFFFFFFFFFFFFFFFFFFFFFFFFFFFFFFF AND CALLER PUSH20 0xFFFFFFFFFFFFFFFFFFFFFFFFFFFFFFFFFFFFFFFF AND EQ PUSH2 0x145C JUMPI PUSH1 0x40 MLOAD PUSH32 0x8C379A000000000000000000000000000000000000000000000000000000000 DUP2 MSTORE PUSH1 0x4 ADD DUP1 DUP1 PUSH1 0x20 ADD DUP3 DUP2 SUB DUP3 MSTORE PUSH1 0x14 DUP2 MSTORE PUSH1 0x20 ADD DUP1 PUSH32 0x556E697377617056323A20464F5242494444454E000000000000000000000000 DUP2 MSTORE POP PUSH1 0x20 ADD SWAP2 POP POP PUSH1 0x40 MLOAD DUP1 SWAP2 SUB SWAP1 REVERT JUMPDEST DUP2 PUSH1 0x5 PUSH1 0x0 PUSH2 0x100 EXP DUP2 SLOAD DUP2 PUSH20 0xFFFFFFFFFFFFFFFFFFFFFFFFFFFFFFFFFFFFFFFF MUL NOT AND SWAP1 DUP4 PUSH20 0xFFFFFFFFFFFFFFFFFFFFFFFFFFFFFFFFFFFFFFFF AND MUL OR SWAP1 SSTORE POP DUP1 PUSH1 0x6 PUSH1 0x0 PUSH2 0x100 EXP DUP2 SLOAD DUP2 PUSH20 0xFFFFFFFFFFFFFFFFFFFFFFFFFFFFFFFFFFFFFFFF MUL NOT AND SWAP1 DUP4 PUSH20 0xFFFFFFFFFFFFFFFFFFFFFFFFFFFFFFFFFFFFFFFF AND MUL OR SWAP1 SSTORE POP POP POP JUMP JUMPDEST PUSH1 0x8 SLOAD DUP2 JUMP JUMPDEST PUSH1 0x9 SLOAD DUP2 JUMP JUMPDEST PUSH1 0x0 PUSH1 0x1 PUSH1 0xB SLOAD EQ PUSH2 0x1568 JUMPI PUSH1 0x40 MLOAD PUSH32 0x8C379A000000000000000000000000000000000000000000000000000000000 DUP2 MSTORE PUSH1 0x4 ADD DUP1 DUP1 PUSH1 0x20 ADD DUP3 DUP2 SUB DUP3 MSTORE PUSH1 0x11 DUP2 MSTORE PUSH1 0x20 ADD DUP1 PUSH32 0x556E697377617056323A204C4F434B4544000000000000000000000000000000 DUP2 MSTORE POP PUSH1 0x20 ADD SWAP2 POP POP PUSH1 0x40 MLOAD DUP1 SWAP2 SUB SWAP1 REVERT JUMPDEST PUSH1 0x0 PUSH1 0xB DUP2 SWAP1 SSTORE POP PUSH1 0x0 DUP1 PUSH2 0x157B PUSH2 0x1129 JUMP JUMPDEST POP SWAP2 POP SWAP2 POP PUSH1 0x0 PUSH1 0x5 PUSH1 0x0 SWAP1 SLOAD SWAP1 PUSH2 0x100 EXP SWAP1 DIV PUSH20 0xFFFFFFFFFFFFFFFFFFFFFFFFFFFFFFFFFFFFFFFF AND PUSH20 0xFFFFFFFFFFFFFFFFFFFFFFFFFFFFFFFFFFFFFFFF AND PUSH4 0x70A08231 ADDRESS PUSH1 0x40 MLOAD DUP3 PUSH4 0xFFFFFFFF AND PUSH1 0xE0 SHL DUP2 MSTORE PUSH1 0x4 ADD DUP1 DUP3 PUSH20 0xFFFFFFFFFFFFFFFFFFFFFFFFFFFFFFFFFFFFFFFF AND PUSH20 0xFFFFFFFFFFFFFFFFFFFFFFFFFFFFFFFFFFFFFFFF AND DUP2 MSTORE PUSH1 0x20 ADD SWAP2 POP POP PUSH1 0x20 PUSH1 0x40 MLOAD DUP1 DUP4 SUB DUP2 DUP7 DUP1 EXTCODESIZE ISZERO DUP1 ISZERO PUSH2 0x1621 JUMPI PUSH1 0x0 DUP1 REVERT JUMPDEST POP GAS STATICCALL ISZERO DUP1 ISZERO PUSH2 0x1635 JUMPI RETURNDATASIZE PUSH1 0x0 DUP1 RETURNDATACOPY RETURNDATASIZE PUSH1 0x0 REVERT JUMPDEST POP POP POP POP PUSH1 0x40 MLOAD RETURNDATASIZE PUSH1 0x20 DUP2 LT ISZERO PUSH2 0x164B JUMPI PUSH1 0x0 DUP1 REVERT JUMPDEST DUP2 ADD SWAP1 DUP1 DUP1 MLOAD SWAP1 PUSH1 0x20 ADD SWAP1 SWAP3 SWAP2 SWAP1 POP POP POP SWAP1 POP PUSH1 0x0 PUSH1 0x6 PUSH1 0x0 SWAP1 SLOAD SWAP1 PUSH2 0x100 EXP SWAP1 DIV PUSH20 0xFFFFFFFFFFFFFFFFFFFFFFFFFFFFFFFFFFFFFFFF AND PUSH20 0xFFFFFFFFFFFFFFFFFFFFFFFFFFFFFFFFFFFFFFFF AND PUSH4 0x70A08231 ADDRESS PUSH1 0x40 MLOAD DUP3 PUSH4 0xFFFFFFFF AND PUSH1 0xE0 SHL DUP2 MSTORE PUSH1 0x4 ADD DUP1 DUP3 PUSH20 0xFFFFFFFFFFFFFFFFFFFFFFFFFFFFFFFFFFFFFFFF AND PUSH20 0xFFFFFFFFFFFFFFFFFFFFFFFFFFFFFFFFFFFFFFFF AND DUP2 MSTORE PUSH1 0x20 ADD SWAP2 POP POP PUSH1 0x20 PUSH1 0x40 MLOAD DUP1 DUP4 SUB DUP2 DUP7 DUP1 EXTCODESIZE ISZERO DUP1 ISZERO PUSH2 0x16FF JUMPI PUSH1 0x0 DUP1 REVERT JUMPDEST POP GAS STATICCALL ISZERO DUP1 ISZERO PUSH2 0x1713 JUMPI RETURNDATASIZE PUSH1 0x0 DUP1 RETURNDATACOPY RETURNDATASIZE PUSH1 0x0 REVERT JUMPDEST POP POP POP POP PUSH1 0x40 MLOAD RETURNDATASIZE PUSH1 0x20 DUP2 LT ISZERO PUSH2 0x1729 JUMPI PUSH1 0x0 DUP1 REVERT JUMPDEST DUP2 ADD SWAP1 DUP1 DUP1 MLOAD SWAP1 PUSH1 0x20 ADD SWAP1 SWAP3 SWAP2 SWAP1 POP POP POP SWAP1 POP PUSH1 0x0 PUSH2 0x1761 DUP6 PUSH14 0xFFFFFFFFFFFFFFFFFFFFFFFFFFFF AND DUP5 PUSH2 0x28C6 SWAP1 SWAP2 SWAP1 PUSH4 0xFFFFFFFF AND JUMP JUMPDEST SWAP1 POP PUSH1 0x0 PUSH2 0x1788 DUP6 PUSH14 0xFFFFFFFFFFFFFFFFFFFFFFFFFFFF AND DUP5 PUSH2 0x28C6 SWAP1 SWAP2 SWAP1 PUSH4 0xFFFFFFFF AND JUMP JUMPDEST SWAP1 POP PUSH1 0x0 PUSH2 0x1796 DUP8 DUP8 PUSH2 0x2F46 JUMP JUMPDEST SWAP1 POP PUSH1 0x0 DUP1 SLOAD SWAP1 POP PUSH1 0x0 DUP2 EQ ISZERO PUSH2 0x17EA JUMPI PUSH2 0x17D6 PUSH2 0x3E8 PUSH2 0x17C8 PUSH2 0x17C3 DUP7 DUP9 PUSH2 0x2831 SWAP1 SWAP2 SWAP1 PUSH4 0xFFFFFFFF AND JUMP JUMPDEST PUSH2 0x3127 JUMP JUMPDEST PUSH2 0x28C6 SWAP1 SWAP2 SWAP1 PUSH4 0xFFFFFFFF AND JUMP JUMPDEST SWAP9 POP PUSH2 0x17E5 PUSH1 0x0 PUSH2 0x3E8 PUSH2 0x3189 JUMP JUMPDEST PUSH2 0x184D JUMP JUMPDEST PUSH2 0x184A DUP9 PUSH14 0xFFFFFFFFFFFFFFFFFFFFFFFFFFFF AND PUSH2 0x1811 DUP4 DUP8 PUSH2 0x2831 SWAP1 SWAP2 SWAP1 PUSH4 0xFFFFFFFF AND JUMP JUMPDEST DUP2 PUSH2 0x1818 JUMPI INVALID JUMPDEST DIV DUP9 PUSH14 0xFFFFFFFFFFFFFFFFFFFFFFFFFFFF AND PUSH2 0x183D DUP5 DUP8 PUSH2 0x2831 SWAP1 SWAP2 SWAP1 PUSH4 0xFFFFFFFF AND JUMP JUMPDEST DUP2 PUSH2 0x1844 JUMPI INVALID JUMPDEST DIV PUSH2 0x32A3 JUMP JUMPDEST SWAP9 POP JUMPDEST PUSH1 0x0 DUP10 GT PUSH2 0x18A6 JUMPI PUSH1 0x40 MLOAD PUSH32 0x8C379A000000000000000000000000000000000000000000000000000000000 DUP2 MSTORE PUSH1 0x4 ADD DUP1 DUP1 PUSH1 0x20 ADD DUP3 DUP2 SUB DUP3 MSTORE PUSH1 0x28 DUP2 MSTORE PUSH1 0x20 ADD DUP1 PUSH2 0x3577 PUSH1 0x28 SWAP2 CODECOPY PUSH1 0x40 ADD SWAP2 POP POP PUSH1 0x40 MLOAD DUP1 SWAP2 SUB SWAP1 REVERT JUMPDEST PUSH2 0x18B0 DUP11 DUP11 PUSH2 0x3189 JUMP JUMPDEST PUSH2 0x18BC DUP7 DUP7 DUP11 DUP11 PUSH2 0x2949 JUMP JUMPDEST DUP2 ISZERO PUSH2 0x1934 JUMPI PUSH2 0x192D PUSH1 0x7 PUSH1 0xE SWAP1 SLOAD SWAP1 PUSH2 0x100 EXP SWAP1 DIV PUSH14 0xFFFFFFFFFFFFFFFFFFFFFFFFFFFF AND PUSH14 0xFFFFFFFFFFFFFFFFFFFFFFFFFFFF AND PUSH1 0x7 PUSH1 0x0 SWAP1 SLOAD SWAP1 PUSH2 0x100 EXP SWAP1 DIV PUSH14 0xFFFFFFFFFFFFFFFFFFFFFFFFFFFF AND PUSH14 0xFFFFFFFFFFFFFFFFFFFFFFFFFFFF AND PUSH2 0x2831 SWAP1 SWAP2 SWAP1 PUSH4 0xFFFFFFFF AND JUMP JUMPDEST PUSH1 0xA DUP2 SWAP1 SSTORE POP JUMPDEST CALLER PUSH20 0xFFFFFFFFFFFFFFFFFFFFFFFFFFFFFFFFFFFFFFFF AND PUSH32 0x4C209B5FC8AD50758F13E2E1088BA56A560DFF690A1C6FEF26394F4C03821C4F DUP6 DUP6 PUSH1 0x40 MLOAD DUP1 DUP4 DUP2 MSTORE PUSH1 0x20 ADD DUP3 DUP2 MSTORE PUSH1 0x20 ADD SWAP3 POP POP POP PUSH1 0x40 MLOAD DUP1 SWAP2 SUB SWAP1 LOG2 POP POP POP POP POP POP POP POP PUSH1 0x1 PUSH1 0xB DUP2 SWAP1 SSTORE POP SWAP2 SWAP1 POP JUMP JUMPDEST PUSH1 0x1 PUSH1 0x20 MSTORE DUP1 PUSH1 0x0 MSTORE PUSH1 0x40 PUSH1 0x0 KECCAK256 PUSH1 0x0 SWAP2 POP SWAP1 POP SLOAD DUP2 JUMP JUMPDEST PUSH1 0xA SLOAD DUP2 JUMP JUMPDEST PUSH1 0x3 PUSH1 0x20 MSTORE DUP1 PUSH1 0x0 MSTORE PUSH1 0x40 PUSH1 0x0 KECCAK256 PUSH1 0x0 SWAP2 POP SWAP1 POP SLOAD DUP2 JUMP JUMPDEST PUSH1 0x0 DUP1 PUSH1 0x1 PUSH1 0xB SLOAD EQ PUSH2 0x1A50 JUMPI PUSH1 0x40 MLOAD PUSH32 0x8C379A000000000000000000000000000000000000000000000000000000000 DUP2 MSTORE PUSH1 0x4 ADD DUP1 DUP1 PUSH1 0x20 ADD DUP3 DUP2 SUB DUP3 MSTORE PUSH1 0x11 DUP2 MSTORE PUSH1 0x20 ADD DUP1 PUSH32 0x556E697377617056323A204C4F434B4544000000000000000000000000000000 DUP2 MSTORE POP PUSH1 0x20 ADD SWAP2 POP POP PUSH1 0x40 MLOAD DUP1 SWAP2 SUB SWAP1 REVERT JUMPDEST PUSH1 0x0 PUSH1 0xB DUP2 SWAP1 SSTORE POP PUSH1 0x0 DUP1 PUSH2 0x1A63 PUSH2 0x1129 JUMP JUMPDEST POP SWAP2 POP SWAP2 POP PUSH1 0x0 PUSH1 0x5 PUSH1 0x0 SWAP1 SLOAD SWAP1 PUSH2 0x100 EXP SWAP1 DIV PUSH20 0xFFFFFFFFFFFFFFFFFFFFFFFFFFFFFFFFFFFFFFFF AND SWAP1 POP PUSH1 0x0 PUSH1 0x6 PUSH1 0x0 SWAP1 SLOAD SWAP1 PUSH2 0x100 EXP SWAP1 DIV PUSH20 0xFFFFFFFFFFFFFFFFFFFFFFFFFFFFFFFFFFFFFFFF AND SWAP1 POP PUSH1 0x0 DUP3 PUSH20 0xFFFFFFFFFFFFFFFFFFFFFFFFFFFFFFFFFFFFFFFF AND PUSH4 0x70A08231 ADDRESS PUSH1 0x40 MLOAD DUP3 PUSH4 0xFFFFFFFF AND PUSH1 0xE0 SHL DUP2 MSTORE PUSH1 0x4 ADD DUP1 DUP3 PUSH20 0xFFFFFFFFFFFFFFFFFFFFFFFFFFFFFFFFFFFFFFFF AND PUSH20 0xFFFFFFFFFFFFFFFFFFFFFFFFFFFFFFFFFFFFFFFF AND DUP2 MSTORE PUSH1 0x20 ADD SWAP2 POP POP PUSH1 0x20 PUSH1 0x40 MLOAD DUP1 DUP4 SUB DUP2 DUP7 DUP1 EXTCODESIZE ISZERO DUP1 ISZERO PUSH2 0x1B35 JUMPI PUSH1 0x0 DUP1 REVERT JUMPDEST POP GAS STATICCALL ISZERO DUP1 ISZERO PUSH2 0x1B49 JUMPI RETURNDATASIZE PUSH1 0x0 DUP1 RETURNDATACOPY RETURNDATASIZE PUSH1 0x0 REVERT JUMPDEST POP POP POP POP PUSH1 0x40 MLOAD RETURNDATASIZE PUSH1 0x20 DUP2 LT ISZERO PUSH2 0x1B5F JUMPI PUSH1 0x0 DUP1 REVERT JUMPDEST DUP2 ADD SWAP1 DUP1 DUP1 MLOAD SWAP1 PUSH1 0x20 ADD SWAP1 SWAP3 SWAP2 SWAP1 POP POP POP SWAP1 POP PUSH1 0x0 DUP3 PUSH20 0xFFFFFFFFFFFFFFFFFFFFFFFFFFFFFFFFFFFFFFFF AND PUSH4 0x70A08231 ADDRESS PUSH1 0x40 MLOAD DUP3 PUSH4 0xFFFFFFFF AND PUSH1 0xE0 SHL DUP2 MSTORE PUSH1 0x4 ADD DUP1 DUP3 PUSH20 0xFFFFFFFFFFFFFFFFFFFFFFFFFFFFFFFFFFFFFFFF AND PUSH20 0xFFFFFFFFFFFFFFFFFFFFFFFFFFFFFFFFFFFFFFFF AND DUP2 MSTORE PUSH1 0x20 ADD SWAP2 POP POP PUSH1 0x20 PUSH1 0x40 MLOAD DUP1 DUP4 SUB DUP2 DUP7 DUP1 EXTCODESIZE ISZERO DUP1 ISZERO PUSH2 0x1BF1 JUMPI PUSH1 0x0 DUP1 REVERT JUMPDEST POP GAS STATICCALL ISZERO DUP1 ISZERO PUSH2 0x1C05 JUMPI RETURNDATASIZE PUSH1 0x0 DUP1 RETURNDATACOPY RETURNDATASIZE PUSH1 0x0 REVERT JUMPDEST POP POP POP POP PUSH1 0x40 MLOAD RETURNDATASIZE PUSH1 0x20 DUP2 LT ISZERO PUSH2 0x1C1B JUMPI PUSH1 0x0 DUP1 REVERT JUMPDEST DUP2 ADD SWAP1 DUP1 DUP1 MLOAD SWAP1 PUSH1 0x20 ADD SWAP1 SWAP3 SWAP2 SWAP1 POP POP POP SWAP1 POP PUSH1 0x0 PUSH1 0x1 PUSH1 0x0 ADDRESS PUSH20 0xFFFFFFFFFFFFFFFFFFFFFFFFFFFFFFFFFFFFFFFF AND PUSH20 0xFFFFFFFFFFFFFFFFFFFFFFFFFFFFFFFFFFFFFFFF AND DUP2 MSTORE PUSH1 0x20 ADD SWAP1 DUP2 MSTORE PUSH1 0x20 ADD PUSH1 0x0 KECCAK256 SLOAD SWAP1 POP PUSH1 0x0 PUSH2 0x1C7E DUP9 DUP9 PUSH2 0x2F46 JUMP JUMPDEST SWAP1 POP PUSH1 0x0 DUP1 SLOAD SWAP1 POP DUP1 PUSH2 0x1C9A DUP7 DUP6 PUSH2 0x2831 SWAP1 SWAP2 SWAP1 PUSH4 0xFFFFFFFF AND JUMP JUMPDEST DUP2 PUSH2 0x1CA1 JUMPI INVALID JUMPDEST DIV SWAP11 POP DUP1 PUSH2 0x1CB8 DUP6 DUP6 PUSH2 0x2831 SWAP1 SWAP2 SWAP1 PUSH4 0xFFFFFFFF AND JUMP JUMPDEST DUP2 PUSH2 0x1CBF JUMPI INVALID JUMPDEST DIV SWAP10 POP PUSH1 0x0 DUP12 GT DUP1 ISZERO PUSH2 0x1CD2 JUMPI POP PUSH1 0x0 DUP11 GT JUMPDEST PUSH2 0x1D27 JUMPI PUSH1 0x40 MLOAD PUSH32 0x8C379A000000000000000000000000000000000000000000000000000000000 DUP2 MSTORE PUSH1 0x4 ADD DUP1 DUP1 PUSH1 0x20 ADD DUP3 DUP2 SUB DUP3 MSTORE PUSH1 0x28 DUP2 MSTORE PUSH1 0x20 ADD DUP1 PUSH2 0x354F PUSH1 0x28 SWAP2 CODECOPY PUSH1 0x40 ADD SWAP2 POP POP PUSH1 0x40 MLOAD DUP1 SWAP2 SUB SWAP1 REVERT JUMPDEST PUSH2 0x1D31 ADDRESS DUP5 PUSH2 0x32BC JUMP JUMPDEST PUSH2 0x1D3C DUP8 DUP14 DUP14 PUSH2 0x25E4 JUMP JUMPDEST PUSH2 0x1D47 DUP7 DUP14 DUP13 PUSH2 0x25E4 JUMP JUMPDEST DUP7 PUSH20 0xFFFFFFFFFFFFFFFFFFFFFFFFFFFFFFFFFFFFFFFF AND PUSH4 0x70A08231 ADDRESS PUSH1 0x40 MLOAD DUP3 PUSH4 0xFFFFFFFF AND PUSH1 0xE0 SHL DUP2 MSTORE PUSH1 0x4 ADD DUP1 DUP3 PUSH20 0xFFFFFFFFFFFFFFFFFFFFFFFFFFFFFFFFFFFFFFFF AND PUSH20 0xFFFFFFFFFFFFFFFFFFFFFFFFFFFFFFFFFFFFFFFF AND DUP2 MSTORE PUSH1 0x20 ADD SWAP2 POP POP PUSH1 0x20 PUSH1 0x40 MLOAD DUP1 DUP4 SUB DUP2 DUP7 DUP1 EXTCODESIZE ISZERO DUP1 ISZERO PUSH2 0x1DC4 JUMPI PUSH1 0x0 DUP1 REVERT JUMPDEST POP GAS STATICCALL ISZERO DUP1 ISZERO PUSH2 0x1DD8 JUMPI RETURNDATASIZE PUSH1 0x0 DUP1 RETURNDATACOPY RETURNDATASIZE PUSH1 0x0 REVERT JUMPDEST POP POP POP POP PUSH1 0x40 MLOAD RETURNDATASIZE PUSH1 0x20 DUP2 LT ISZERO PUSH2 0x1DEE JUMPI PUSH1 0x0 DUP1 REVERT JUMPDEST DUP2 ADD SWAP1 DUP1 DUP1 MLOAD SWAP1 PUSH1 0x20 ADD SWAP1 SWAP3 SWAP2 SWAP1 POP POP POP SWAP5 POP DUP6 PUSH20 0xFFFFFFFFFFFFFFFFFFFFFFFFFFFFFFFFFFFFFFFF AND PUSH4 0x70A08231 ADDRESS PUSH1 0x40 MLOAD DUP3 PUSH4 0xFFFFFFFF AND PUSH1 0xE0 SHL DUP2 MSTORE PUSH1 0x4 ADD DUP1 DUP3 PUSH20 0xFFFFFFFFFFFFFFFFFFFFFFFFFFFFFFFFFFFFFFFF AND PUSH20 0xFFFFFFFFFFFFFFFFFFFFFFFFFFFFFFFFFFFFFFFF AND DUP2 MSTORE PUSH1 0x20 ADD SWAP2 POP POP PUSH1 0x20 PUSH1 0x40 MLOAD DUP1 DUP4 SUB DUP2 DUP7 DUP1 EXTCODESIZE ISZERO DUP1 ISZERO PUSH2 0x1E7E JUMPI PUSH1 0x0 DUP1 REVERT JUMPDEST POP GAS STATICCALL ISZERO DUP1 ISZERO PUSH2 0x1E92 JUMPI RETURNDATASIZE PUSH1 0x0 DUP1 RETURNDATACOPY RETURNDATASIZE PUSH1 0x0 REVERT JUMPDEST POP POP POP POP PUSH1 0x40 MLOAD RETURNDATASIZE PUSH1 0x20 DUP2 LT ISZERO PUSH2 0x1EA8 JUMPI PUSH1 0x0 DUP1 REVERT JUMPDEST DUP2 ADD SWAP1 DUP1 DUP1 MLOAD SWAP1 PUSH1 0x20 ADD SWAP1 SWAP3 SWAP2 SWAP1 POP POP POP SWAP4 POP PUSH2 0x1EC7 DUP6 DUP6 DUP12 DUP12 PUSH2 0x2949 JUMP JUMPDEST DUP2 ISZERO PUSH2 0x1F3F JUMPI PUSH2 0x1F38 PUSH1 0x7 PUSH1 0xE SWAP1 SLOAD SWAP1 PUSH2 0x100 EXP SWAP1 DIV PUSH14 0xFFFFFFFFFFFFFFFFFFFFFFFFFFFF AND PUSH14 0xFFFFFFFFFFFFFFFFFFFFFFFFFFFF AND PUSH1 0x7 PUSH1 0x0 SWAP1 SLOAD SWAP1 PUSH2 0x100 EXP SWAP1 DIV PUSH14 0xFFFFFFFFFFFFFFFFFFFFFFFFFFFF AND PUSH14 0xFFFFFFFFFFFFFFFFFFFFFFFFFFFF AND PUSH2 0x2831 SWAP1 SWAP2 SWAP1 PUSH4 0xFFFFFFFF AND JUMP JUMPDEST PUSH1 0xA DUP2 SWAP1 SSTORE POP JUMPDEST DUP12 PUSH20 0xFFFFFFFFFFFFFFFFFFFFFFFFFFFFFFFFFFFFFFFF AND CALLER PUSH20 0xFFFFFFFFFFFFFFFFFFFFFFFFFFFFFFFFFFFFFFFF AND PUSH32 0xDCCD412F0B1252819CB1FD330B93224CA42612892BB3F4F789976E6D81936496 DUP14 DUP14 PUSH1 0x40 MLOAD DUP1 DUP4 DUP2 MSTORE PUSH1 0x20 ADD DUP3 DUP2 MSTORE PUSH1 0x20 ADD SWAP3 POP POP POP PUSH1 0x40 MLOAD DUP1 SWAP2 SUB SWAP1 LOG3 POP POP POP POP POP POP POP POP POP PUSH1 0x1 PUSH1 0xB DUP2 SWAP1 SSTORE POP SWAP2 POP SWAP2 JUMP JUMPDEST PUSH1 0x40 MLOAD DUP1 PUSH1 0x40 ADD PUSH1 0x40 MSTORE DUP1 PUSH1 0x2 DUP2 MSTORE PUSH1 0x20 ADD PUSH32 0x4C50000000000000000000000000000000000000000000000000000000000000 DUP2 MSTORE POP DUP2 JUMP JUMPDEST PUSH1 0x0 PUSH2 0x2008 CALLER DUP5 DUP5 PUSH2 0x2DB2 JUMP JUMPDEST PUSH1 0x1 SWAP1 POP SWAP3 SWAP2 POP POP JUMP JUMPDEST PUSH2 0x3E8 DUP2 JUMP JUMPDEST PUSH1 0x1 PUSH1 0xB SLOAD EQ PUSH2 0x2090 JUMPI PUSH1 0x40 MLOAD PUSH32 0x8C379A000000000000000000000000000000000000000000000000000000000 DUP2 MSTORE PUSH1 0x4 ADD DUP1 DUP1 PUSH1 0x20 ADD DUP3 DUP2 SUB DUP3 MSTORE PUSH1 0x11 DUP2 MSTORE PUSH1 0x20 ADD DUP1 PUSH32 0x556E697377617056323A204C4F434B4544000000000000000000000000000000 DUP2 MSTORE POP PUSH1 0x20 ADD SWAP2 POP POP PUSH1 0x40 MLOAD DUP1 SWAP2 SUB SWAP1 REVERT JUMPDEST PUSH1 0x0 PUSH1 0xB DUP2 SWAP1 SSTORE POP PUSH1 0x0 PUSH1 0x5 PUSH1 0x0 SWAP1 SLOAD SWAP1 PUSH2 0x100 EXP SWAP1 DIV PUSH20 0xFFFFFFFFFFFFFFFFFFFFFFFFFFFFFFFFFFFFFFFF AND SWAP1 POP PUSH1 0x0 PUSH1 0x6 PUSH1 0x0 SWAP1 SLOAD SWAP1 PUSH2 0x100 EXP SWAP1 DIV PUSH20 0xFFFFFFFFFFFFFFFFFFFFFFFFFFFFFFFFFFFFFFFF AND SWAP1 POP PUSH2 0x21E6 DUP3 DUP5 PUSH2 0x21E1 PUSH1 0x7 PUSH1 0x0 SWAP1 SLOAD SWAP1 PUSH2 0x100 EXP SWAP1 DIV PUSH14 0xFFFFFFFFFFFFFFFFFFFFFFFFFFFF AND PUSH14 0xFFFFFFFFFFFFFFFFFFFFFFFFFFFF AND DUP7 PUSH20 0xFFFFFFFFFFFFFFFFFFFFFFFFFFFFFFFFFFFFFFFF AND PUSH4 0x70A08231 ADDRESS PUSH1 0x40 MLOAD DUP3 PUSH4 0xFFFFFFFF AND PUSH1 0xE0 SHL DUP2 MSTORE PUSH1 0x4 ADD DUP1 DUP3 PUSH20 0xFFFFFFFFFFFFFFFFFFFFFFFFFFFFFFFFFFFFFFFF AND PUSH20 0xFFFFFFFFFFFFFFFFFFFFFFFFFFFFFFFFFFFFFFFF AND DUP2 MSTORE PUSH1 0x20 ADD SWAP2 POP POP PUSH1 0x20 PUSH1 0x40 MLOAD DUP1 DUP4 SUB DUP2 DUP7 DUP1 EXTCODESIZE ISZERO DUP1 ISZERO PUSH2 0x2198 JUMPI PUSH1 0x0 DUP1 REVERT JUMPDEST POP GAS STATICCALL ISZERO DUP1 ISZERO PUSH2 0x21AC JUMPI RETURNDATASIZE PUSH1 0x0 DUP1 RETURNDATACOPY RETURNDATASIZE PUSH1 0x0 REVERT JUMPDEST POP POP POP POP PUSH1 0x40 MLOAD RETURNDATASIZE PUSH1 0x20 DUP2 LT ISZERO PUSH2 0x21C2 JUMPI PUSH1 0x0 DUP1 REVERT JUMPDEST DUP2 ADD SWAP1 DUP1 DUP1 MLOAD SWAP1 PUSH1 0x20 ADD SWAP1 SWAP3 SWAP2 SWAP1 POP POP POP PUSH2 0x28C6 SWAP1 SWAP2 SWAP1 PUSH4 0xFFFFFFFF AND JUMP JUMPDEST PUSH2 0x25E4 JUMP JUMPDEST PUSH2 0x22E6 DUP2 DUP5 PUSH2 0x22E1 PUSH1 0x7 PUSH1 0xE SWAP1 SLOAD SWAP1 PUSH2 0x100 EXP SWAP1 DIV PUSH14 0xFFFFFFFFFFFFFFFFFFFFFFFFFFFF AND PUSH14 0xFFFFFFFFFFFFFFFFFFFFFFFFFFFF AND DUP6 PUSH20 0xFFFFFFFFFFFFFFFFFFFFFFFFFFFFFFFFFFFFFFFF AND PUSH4 0x70A08231 ADDRESS PUSH1 0x40 MLOAD DUP3 PUSH4 0xFFFFFFFF AND PUSH1 0xE0 SHL DUP2 MSTORE PUSH1 0x4 ADD DUP1 DUP3 PUSH20 0xFFFFFFFFFFFFFFFFFFFFFFFFFFFFFFFFFFFFFFFF AND PUSH20 0xFFFFFFFFFFFFFFFFFFFFFFFFFFFFFFFFFFFFFFFF AND DUP2 MSTORE PUSH1 0x20 ADD SWAP2 POP POP PUSH1 0x20 PUSH1 0x40 MLOAD DUP1 DUP4 SUB DUP2 DUP7 DUP1 EXTCODESIZE ISZERO DUP1 ISZERO PUSH2 0x2298 JUMPI PUSH1 0x0 DUP1 REVERT JUMPDEST POP GAS STATICCALL ISZERO DUP1 ISZERO PUSH2 0x22AC JUMPI RETURNDATASIZE PUSH1 0x0 DUP1 RETURNDATACOPY RETURNDATASIZE PUSH1 0x0 REVERT JUMPDEST POP POP POP POP PUSH1 0x40 MLOAD RETURNDATASIZE PUSH1 0x20 DUP2 LT ISZERO PUSH2 0x22C2 JUMPI PUSH1 0x0 DUP1 REVERT JUMPDEST DUP2 ADD SWAP1 DUP1 DUP1 MLOAD SWAP1 PUSH1 0x20 ADD SWAP1 SWAP3 SWAP2 SWAP1 POP POP POP PUSH2 0x28C6 SWAP1 SWAP2 SWAP1 PUSH4 0xFFFFFFFF AND JUMP JUMPDEST PUSH2 0x25E4 JUMP JUMPDEST POP POP PUSH1 0x1 PUSH1 0xB DUP2 SWAP1 SSTORE POP POP JUMP JUMPDEST PUSH1 0x4 PUSH1 0x0 SWAP1 SLOAD SWAP1 PUSH2 0x100 EXP SWAP1 DIV PUSH20 0xFFFFFFFFFFFFFFFFFFFFFFFFFFFFFFFFFFFFFFFF AND DUP2 JUMP JUMPDEST PUSH1 0x6 PUSH1 0x0 SWAP1 SLOAD SWAP1 PUSH2 0x100 EXP SWAP1 DIV PUSH20 0xFFFFFFFFFFFFFFFFFFFFFFFFFFFFFFFFFFFFFFFF AND DUP2 JUMP JUMPDEST PUSH1 0x2 PUSH1 0x20 MSTORE DUP2 PUSH1 0x0 MSTORE PUSH1 0x40 PUSH1 0x0 KECCAK256 PUSH1 0x20 MSTORE DUP1 PUSH1 0x0 MSTORE PUSH1 0x40 PUSH1 0x0 KECCAK256 PUSH1 0x0 SWAP2 POP SWAP2 POP POP SLOAD DUP2 JUMP JUMPDEST PUSH1 0x1 PUSH1 0xB SLOAD EQ PUSH2 0x23DC JUMPI PUSH1 0x40 MLOAD PUSH32 0x8C379A000000000000000000000000000000000000000000000000000000000 DUP2 MSTORE PUSH1 0x4 ADD DUP1 DUP1 PUSH1 0x20 ADD DUP3 DUP2 SUB DUP3 MSTORE PUSH1 0x11 DUP2 MSTORE PUSH1 0x20 ADD DUP1 PUSH32 0x556E697377617056323A204C4F434B4544000000000000000000000000000000 DUP2 MSTORE POP PUSH1 0x20 ADD SWAP2 POP POP PUSH1 0x40 MLOAD DUP1 SWAP2 SUB SWAP1 REVERT JUMPDEST PUSH1 0x0 PUSH1 0xB DUP2 SWAP1 SSTORE POP PUSH2 0x25DA PUSH1 0x5 PUSH1 0x0 SWAP1 SLOAD SWAP1 PUSH2 0x100 EXP SWAP1 DIV PUSH20 0xFFFFFFFFFFFFFFFFFFFFFFFFFFFFFFFFFFFFFFFF AND PUSH20 0xFFFFFFFFFFFFFFFFFFFFFFFFFFFFFFFFFFFFFFFF AND PUSH4 0x70A08231 ADDRESS PUSH1 0x40 MLOAD DUP3 PUSH4 0xFFFFFFFF AND PUSH1 0xE0 SHL DUP2 MSTORE PUSH1 0x4 ADD DUP1 DUP3 PUSH20 0xFFFFFFFFFFFFFFFFFFFFFFFFFFFFFFFFFFFFFFFF AND PUSH20 0xFFFFFFFFFFFFFFFFFFFFFFFFFFFFFFFFFFFFFFFF AND DUP2 MSTORE PUSH1 0x20 ADD SWAP2 POP POP PUSH1 0x20 PUSH1 0x40 MLOAD DUP1 DUP4 SUB DUP2 DUP7 DUP1 EXTCODESIZE ISZERO DUP1 ISZERO PUSH2 0x2486 JUMPI PUSH1 0x0 DUP1 REVERT JUMPDEST POP GAS STATICCALL ISZERO DUP1 ISZERO PUSH2 0x249A JUMPI RETURNDATASIZE PUSH1 0x0 DUP1 RETURNDATACOPY RETURNDATASIZE PUSH1 0x0 REVERT JUMPDEST POP POP POP POP PUSH1 0x40 MLOAD RETURNDATASIZE PUSH1 0x20 DUP2 LT ISZERO PUSH2 0x24B0 JUMPI PUSH1 0x0 DUP1 REVERT JUMPDEST DUP2 ADD SWAP1 DUP1 DUP1 MLOAD SWAP1 PUSH1 0x20 ADD SWAP1 SWAP3 SWAP2 SWAP1 POP POP POP PUSH1 0x6 PUSH1 0x0 SWAP1 SLOAD SWAP1 PUSH2 0x100 EXP SWAP1 DIV PUSH20 0xFFFFFFFFFFFFFFFFFFFFFFFFFFFFFFFFFFFFFFFF AND PUSH20 0xFFFFFFFFFFFFFFFFFFFFFFFFFFFFFFFFFFFFFFFF AND PUSH4 0x70A08231 ADDRESS PUSH1 0x40 MLOAD DUP3 PUSH4 0xFFFFFFFF AND PUSH1 0xE0 SHL DUP2 MSTORE PUSH1 0x4 ADD DUP1 DUP3 PUSH20 0xFFFFFFFFFFFFFFFFFFFFFFFFFFFFFFFFFFFFFFFF AND PUSH20 0xFFFFFFFFFFFFFFFFFFFFFFFFFFFFFFFFFFFFFFFF AND DUP2 MSTORE PUSH1 0x20 ADD SWAP2 POP POP PUSH1 0x20 PUSH1 0x40 MLOAD DUP1 DUP4 SUB DUP2 DUP7 DUP1 EXTCODESIZE ISZERO DUP1 ISZERO PUSH2 0x2560 JUMPI PUSH1 0x0 DUP1 REVERT JUMPDEST POP GAS STATICCALL ISZERO DUP1 ISZERO PUSH2 0x2574 JUMPI RETURNDATASIZE PUSH1 0x0 DUP1 RETURNDATACOPY RETURNDATASIZE PUSH1 0x0 REVERT JUMPDEST POP POP POP POP PUSH1 0x40 MLOAD RETURNDATASIZE PUSH1 0x20 DUP2 LT ISZERO PUSH2 0x258A JUMPI PUSH1 0x0 DUP1 REVERT JUMPDEST DUP2 ADD SWAP1 DUP1 DUP1 MLOAD SWAP1 PUSH1 0x20 ADD SWAP1 SWAP3 SWAP2 SWAP1 POP POP POP PUSH1 0x7 PUSH1 0x0 SWAP1 SLOAD SWAP1 PUSH2 0x100 EXP SWAP1 DIV PUSH14 0xFFFFFFFFFFFFFFFFFFFFFFFFFFFF AND PUSH1 0x7 PUSH1 0xE SWAP1 SLOAD SWAP1 PUSH2 0x100 EXP SWAP1 DIV PUSH14 0xFFFFFFFFFFFFFFFFFFFFFFFFFFFF AND PUSH2 0x2949 JUMP JUMPDEST PUSH1 0x1 PUSH1 0xB DUP2 SWAP1 SSTORE POP JUMP JUMPDEST PUSH1 0x0 PUSH1 0x60 DUP5 PUSH20 0xFFFFFFFFFFFFFFFFFFFFFFFFFFFFFFFFFFFFFFFF AND PUSH1 0x40 MLOAD DUP1 PUSH1 0x40 ADD PUSH1 0x40 MSTORE DUP1 PUSH1 0x19 DUP2 MSTORE PUSH1 0x20 ADD PUSH32 0x7472616E7366657228616464726573732C75696E743235362900000000000000 DUP2 MSTORE POP DUP1 MLOAD SWAP1 PUSH1 0x20 ADD KECCAK256 DUP6 DUP6 PUSH1 0x40 MLOAD PUSH1 0x24 ADD DUP1 DUP4 PUSH20 0xFFFFFFFFFFFFFFFFFFFFFFFFFFFFFFFFFFFFFFFF AND PUSH20 0xFFFFFFFFFFFFFFFFFFFFFFFFFFFFFFFFFFFFFFFF AND DUP2 MSTORE PUSH1 0x20 ADD DUP3 DUP2 MSTORE PUSH1 0x20 ADD SWAP3 POP POP POP PUSH1 0x40 MLOAD PUSH1 0x20 DUP2 DUP4 SUB SUB DUP2 MSTORE SWAP1 PUSH1 0x40 MSTORE SWAP1 PUSH28 0xFFFFFFFFFFFFFFFFFFFFFFFFFFFFFFFFFFFFFFFFFFFFFFFFFFFFFFFF NOT AND PUSH1 0x20 DUP3 ADD DUP1 MLOAD PUSH28 0xFFFFFFFFFFFFFFFFFFFFFFFFFFFFFFFFFFFFFFFFFFFFFFFFFFFFFFFF DUP4 DUP2 DUP4 AND OR DUP4 MSTORE POP POP POP POP PUSH1 0x40 MLOAD DUP1 DUP3 DUP1 MLOAD SWAP1 PUSH1 0x20 ADD SWAP1 DUP1 DUP4 DUP4 JUMPDEST PUSH1 0x20 DUP4 LT PUSH2 0x2711 JUMPI DUP1 MLOAD DUP3 MSTORE PUSH1 0x20 DUP3 ADD SWAP2 POP PUSH1 0x20 DUP2 ADD SWAP1 POP PUSH1 0x20 DUP4 SUB SWAP3 POP PUSH2 0x26EE JUMP JUMPDEST PUSH1 0x1 DUP4 PUSH1 0x20 SUB PUSH2 0x100 EXP SUB DUP1 NOT DUP3 MLOAD AND DUP2 DUP5 MLOAD AND DUP1 DUP3 OR DUP6 MSTORE POP POP POP POP POP POP SWAP1 POP ADD SWAP2 POP POP PUSH1 0x0 PUSH1 0x40 MLOAD DUP1 DUP4 SUB DUP2 PUSH1 0x0 DUP7 GAS CALL SWAP2 POP POP RETURNDATASIZE DUP1 PUSH1 0x0 DUP2 EQ PUSH2 0x2773 JUMPI PUSH1 0x40 MLOAD SWAP2 POP PUSH1 0x1F NOT PUSH1 0x3F RETURNDATASIZE ADD AND DUP3 ADD PUSH1 0x40 MSTORE RETURNDATASIZE DUP3 MSTORE RETURNDATASIZE PUSH1 0x0 PUSH1 0x20 DUP5 ADD RETURNDATACOPY PUSH2 0x2778 JUMP JUMPDEST PUSH1 0x60 SWAP2 POP JUMPDEST POP SWAP2 POP SWAP2 POP DUP2 DUP1 ISZERO PUSH2 0x27B8 JUMPI POP PUSH1 0x0 DUP2 MLOAD EQ DUP1 PUSH2 0x27B7 JUMPI POP DUP1 DUP1 PUSH1 0x20 ADD SWAP1 MLOAD PUSH1 0x20 DUP2 LT ISZERO PUSH2 0x27A5 JUMPI PUSH1 0x0 DUP1 REVERT JUMPDEST DUP2 ADD SWAP1 DUP1 DUP1 MLOAD SWAP1 PUSH1 0x20 ADD SWAP1 SWAP3 SWAP2 SWAP1 POP POP POP JUMPDEST JUMPDEST PUSH2 0x282A JUMPI PUSH1 0x40 MLOAD PUSH32 0x8C379A000000000000000000000000000000000000000000000000000000000 DUP2 MSTORE PUSH1 0x4 ADD DUP1 DUP1 PUSH1 0x20 ADD DUP3 DUP2 SUB DUP3 MSTORE PUSH1 0x1A DUP2 MSTORE PUSH1 0x20 ADD DUP1 PUSH32 0x556E697377617056323A205452414E534645525F4641494C4544000000000000 DUP2 MSTORE POP PUSH1 0x20 ADD SWAP2 POP POP PUSH1 0x40 MLOAD DUP1 SWAP2 SUB SWAP1 REVERT JUMPDEST POP POP POP POP POP JUMP JUMPDEST PUSH1 0x0 DUP1 DUP3 EQ DUP1 PUSH2 0x284E JUMPI POP DUP3 DUP3 DUP4 DUP6 MUL SWAP3 POP DUP3 DUP2 PUSH2 0x284B JUMPI INVALID JUMPDEST DIV EQ JUMPDEST PUSH2 0x28C0 JUMPI PUSH1 0x40 MLOAD PUSH32 0x8C379A000000000000000000000000000000000000000000000000000000000 DUP2 MSTORE PUSH1 0x4 ADD DUP1 DUP1 PUSH1 0x20 ADD DUP3 DUP2 SUB DUP3 MSTORE PUSH1 0x14 DUP2 MSTORE PUSH1 0x20 ADD DUP1 PUSH32 0x64732D6D6174682D6D756C2D6F766572666C6F77000000000000000000000000 DUP2 MSTORE POP PUSH1 0x20 ADD SWAP2 POP POP PUSH1 0x40 MLOAD DUP1 SWAP2 SUB SWAP1 REVERT JUMPDEST SWAP3 SWAP2 POP POP JUMP JUMPDEST PUSH1 0x0 DUP3 DUP3 DUP5 SUB SWAP2 POP DUP2 GT ISZERO PUSH2 0x2943 JUMPI PUSH1 0x40 MLOAD PUSH32 0x8C379A000000000000000000000000000000000000000000000000000000000 DUP2 MSTORE PUSH1 0x4 ADD DUP1 DUP1 PUSH1 0x20 ADD DUP3 DUP2 SUB DUP3 MSTORE PUSH1 0x15 DUP2 MSTORE PUSH1 0x20 ADD DUP1 PUSH32 0x64732D6D6174682D7375622D756E646572666C6F770000000000000000000000 DUP2 MSTORE POP PUSH1 0x20 ADD SWAP2 POP POP PUSH1 0x40 MLOAD DUP1 SWAP2 SUB SWAP1 REVERT JUMPDEST SWAP3 SWAP2 POP POP JUMP JUMPDEST PUSH32 0xFFFFFFFFFFFFFFFFFFFFFFFFFFFFFFFFFFFFFFFFFFFFFFFFFFFFFFFFFFFFFFFF PUSH14 0xFFFFFFFFFFFFFFFFFFFFFFFFFFFF AND DUP5 GT ISZERO DUP1 ISZERO PUSH2 0x29B9 JUMPI POP PUSH32 0xFFFFFFFFFFFFFFFFFFFFFFFFFFFFFFFFFFFFFFFFFFFFFFFFFFFFFFFFFFFFFFFF PUSH14 0xFFFFFFFFFFFFFFFFFFFFFFFFFFFF AND DUP4 GT ISZERO JUMPDEST PUSH2 0x2A2B JUMPI PUSH1 0x40 MLOAD PUSH32 0x8C379A000000000000000000000000000000000000000000000000000000000 DUP2 MSTORE PUSH1 0x4 ADD DUP1 DUP1 PUSH1 0x20 ADD DUP3 DUP2 SUB DUP3 MSTORE PUSH1 0x13 DUP2 MSTORE PUSH1 0x20 ADD DUP1 PUSH32 0x556E697377617056323A204F564552464C4F5700000000000000000000000000 DUP2 MSTORE POP PUSH1 0x20 ADD SWAP2 POP POP PUSH1 0x40 MLOAD DUP1 SWAP2 SUB SWAP1 REVERT JUMPDEST PUSH1 0x0 PUSH5 0x100000000 TIMESTAMP DUP2 PUSH2 0x2A3B JUMPI INVALID JUMPDEST MOD SWAP1 POP PUSH1 0x0 PUSH1 0x7 PUSH1 0x1C SWAP1 SLOAD SWAP1 PUSH2 0x100 EXP SWAP1 DIV PUSH4 0xFFFFFFFF AND DUP3 SUB SWAP1 POP PUSH1 0x0 DUP2 PUSH4 0xFFFFFFFF AND GT DUP1 ISZERO PUSH2 0x2A7E JUMPI POP PUSH1 0x0 DUP5 PUSH14 0xFFFFFFFFFFFFFFFFFFFFFFFFFFFF AND EQ ISZERO JUMPDEST DUP1 ISZERO PUSH2 0x2A9B JUMPI POP PUSH1 0x0 DUP4 PUSH14 0xFFFFFFFFFFFFFFFFFFFFFFFFFFFF AND EQ ISZERO JUMPDEST ISZERO PUSH2 0x2B7D JUMPI DUP1 PUSH4 0xFFFFFFFF AND PUSH2 0x2AE0 DUP6 PUSH2 0x2AB4 DUP7 PUSH2 0x33D6 JUMP JUMPDEST PUSH28 0xFFFFFFFFFFFFFFFFFFFFFFFFFFFFFFFFFFFFFFFFFFFFFFFFFFFFFFFF AND PUSH2 0x3401 SWAP1 SWAP2 SWAP1 PUSH4 0xFFFFFFFF AND JUMP JUMPDEST PUSH28 0xFFFFFFFFFFFFFFFFFFFFFFFFFFFFFFFFFFFFFFFFFFFFFFFFFFFFFFFF AND MUL PUSH1 0x8 PUSH1 0x0 DUP3 DUP3 SLOAD ADD SWAP3 POP POP DUP2 SWAP1 SSTORE POP DUP1 PUSH4 0xFFFFFFFF AND PUSH2 0x2B4E DUP5 PUSH2 0x2B22 DUP8 PUSH2 0x33D6 JUMP JUMPDEST PUSH28 0xFFFFFFFFFFFFFFFFFFFFFFFFFFFFFFFFFFFFFFFFFFFFFFFFFFFFFFFF AND PUSH2 0x3401 SWAP1 SWAP2 SWAP1 PUSH4 0xFFFFFFFF AND JUMP JUMPDEST PUSH28 0xFFFFFFFFFFFFFFFFFFFFFFFFFFFFFFFFFFFFFFFFFFFFFFFFFFFFFFFF AND MUL PUSH1 0x9 PUSH1 0x0 DUP3 DUP3 SLOAD ADD SWAP3 POP POP DUP2 SWAP1 SSTORE POP JUMPDEST DUP6 PUSH1 0x7 PUSH1 0x0 PUSH2 0x100 EXP DUP2 SLOAD DUP2 PUSH14 0xFFFFFFFFFFFFFFFFFFFFFFFFFFFF MUL NOT AND SWAP1 DUP4 PUSH14 0xFFFFFFFFFFFFFFFFFFFFFFFFFFFF AND MUL OR SWAP1 SSTORE POP DUP5 PUSH1 0x7 PUSH1 0xE PUSH2 0x100 EXP DUP2 SLOAD DUP2 PUSH14 0xFFFFFFFFFFFFFFFFFFFFFFFFFFFF MUL NOT AND SWAP1 DUP4 PUSH14 0xFFFFFFFFFFFFFFFFFFFFFFFFFFFF AND MUL OR SWAP1 SSTORE POP DUP2 PUSH1 0x7 PUSH1 0x1C PUSH2 0x100 EXP DUP2 SLOAD DUP2 PUSH4 0xFFFFFFFF MUL NOT AND SWAP1 DUP4 PUSH4 0xFFFFFFFF AND MUL OR SWAP1 SSTORE POP PUSH32 0x1C411E9A96E071241C2F21F7726B17AE89E3CAB4C78BE50E062B03A9FFFBBAD1 PUSH1 0x7 PUSH1 0x0 SWAP1 SLOAD SWAP1 PUSH2 0x100 EXP SWAP1 DIV PUSH14 0xFFFFFFFFFFFFFFFFFFFFFFFFFFFF AND PUSH1 0x7 PUSH1 0xE SWAP1 SLOAD SWAP1 PUSH2 0x100 EXP SWAP1 DIV PUSH14 0xFFFFFFFFFFFFFFFFFFFFFFFFFFFF AND PUSH1 0x40 MLOAD DUP1 DUP4 PUSH14 0xFFFFFFFFFFFFFFFFFFFFFFFFFFFF AND PUSH14 0xFFFFFFFFFFFFFFFFFFFFFFFFFFFF AND DUP2 MSTORE PUSH1 0x20 ADD DUP3 PUSH14 0xFFFFFFFFFFFFFFFFFFFFFFFFFFFF AND PUSH14 0xFFFFFFFFFFFFFFFFFFFFFFFFFFFF AND DUP2 MSTORE PUSH1 0x20 ADD SWAP3 POP POP POP PUSH1 0x40 MLOAD DUP1 SWAP2 SUB SWAP1 LOG1 POP POP POP POP POP POP JUMP JUMPDEST DUP1 PUSH1 0x2 PUSH1 0x0 DUP6 PUSH20 0xFFFFFFFFFFFFFFFFFFFFFFFFFFFFFFFFFFFFFFFF AND PUSH20 0xFFFFFFFFFFFFFFFFFFFFFFFFFFFFFFFFFFFFFFFF AND DUP2 MSTORE PUSH1 0x20 ADD SWAP1 DUP2 MSTORE PUSH1 0x20 ADD PUSH1 0x0 KECCAK256 PUSH1 0x0 DUP5 PUSH20 0xFFFFFFFFFFFFFFFFFFFFFFFFFFFFFFFFFFFFFFFF AND PUSH20 0xFFFFFFFFFFFFFFFFFFFFFFFFFFFFFFFFFFFFFFFF AND DUP2 MSTORE PUSH1 0x20 ADD SWAP1 DUP2 MSTORE PUSH1 0x20 ADD PUSH1 0x0 KECCAK256 DUP2 SWAP1 SSTORE POP DUP2 PUSH20 0xFFFFFFFFFFFFFFFFFFFFFFFFFFFFFFFFFFFFFFFF AND DUP4 PUSH20 0xFFFFFFFFFFFFFFFFFFFFFFFFFFFFFFFFFFFFFFFF AND PUSH32 0x8C5BE1E5EBEC7D5BD14F71427D1E84F3DD0314C0F7B2291E5B200AC8C7C3B925 DUP4 PUSH1 0x40 MLOAD DUP1 DUP3 DUP2 MSTORE PUSH1 0x20 ADD SWAP2 POP POP PUSH1 0x40 MLOAD DUP1 SWAP2 SUB SWAP1 LOG3 POP POP POP JUMP JUMPDEST PUSH2 0x2E04 DUP2 PUSH1 0x1 PUSH1 0x0 DUP7 PUSH20 0xFFFFFFFFFFFFFFFFFFFFFFFFFFFFFFFFFFFFFFFF AND PUSH20 0xFFFFFFFFFFFFFFFFFFFFFFFFFFFFFFFFFFFFFFFF AND DUP2 MSTORE PUSH1 0x20 ADD SWAP1 DUP2 MSTORE PUSH1 0x20 ADD PUSH1 0x0 KECCAK256 SLOAD PUSH2 0x28C6 SWAP1 SWAP2 SWAP1 PUSH4 0xFFFFFFFF AND JUMP JUMPDEST PUSH1 0x1 PUSH1 0x0 DUP6 PUSH20 0xFFFFFFFFFFFFFFFFFFFFFFFFFFFFFFFFFFFFFFFF AND PUSH20 0xFFFFFFFFFFFFFFFFFFFFFFFFFFFFFFFFFFFFFFFF AND DUP2 MSTORE PUSH1 0x20 ADD SWAP1 DUP2 MSTORE PUSH1 0x20 ADD PUSH1 0x0 KECCAK256 DUP2 SWAP1 SSTORE POP PUSH2 0x2E99 DUP2 PUSH1 0x1 PUSH1 0x0 DUP6 PUSH20 0xFFFFFFFFFFFFFFFFFFFFFFFFFFFFFFFFFFFFFFFF AND PUSH20 0xFFFFFFFFFFFFFFFFFFFFFFFFFFFFFFFFFFFFFFFF AND DUP2 MSTORE PUSH1 0x20 ADD SWAP1 DUP2 MSTORE PUSH1 0x20 ADD PUSH1 0x0 KECCAK256 SLOAD PUSH2 0x3461 SWAP1 SWAP2 SWAP1 PUSH4 0xFFFFFFFF AND JUMP JUMPDEST PUSH1 0x1 PUSH1 0x0 DUP5 PUSH20 0xFFFFFFFFFFFFFFFFFFFFFFFFFFFFFFFFFFFFFFFF AND PUSH20 0xFFFFFFFFFFFFFFFFFFFFFFFFFFFFFFFFFFFFFFFF AND DUP2 MSTORE PUSH1 0x20 ADD SWAP1 DUP2 MSTORE PUSH1 0x20 ADD PUSH1 0x0 KECCAK256 DUP2 SWAP1 SSTORE POP DUP2 PUSH20 0xFFFFFFFFFFFFFFFFFFFFFFFFFFFFFFFFFFFFFFFF AND DUP4 PUSH20 0xFFFFFFFFFFFFFFFFFFFFFFFFFFFFFFFFFFFFFFFF AND PUSH32 0xDDF252AD1BE2C89B69C2B068FC378DAA952BA7F163C4A11628F55A4DF523B3EF DUP4 PUSH1 0x40 MLOAD DUP1 DUP3 DUP2 MSTORE PUSH1 0x20 ADD SWAP2 POP POP PUSH1 0x40 MLOAD DUP1 SWAP2 SUB SWAP1 LOG3 POP POP POP JUMP JUMPDEST PUSH1 0x0 DUP1 PUSH1 0x4 PUSH1 0x0 SWAP1 SLOAD SWAP1 PUSH2 0x100 EXP SWAP1 DIV PUSH20 0xFFFFFFFFFFFFFFFFFFFFFFFFFFFFFFFFFFFFFFFF AND PUSH20 0xFFFFFFFFFFFFFFFFFFFFFFFFFFFFFFFFFFFFFFFF AND PUSH4 0x17E7E58 PUSH1 0x40 MLOAD DUP2 PUSH4 0xFFFFFFFF AND PUSH1 0xE0 SHL DUP2 MSTORE PUSH1 0x4 ADD PUSH1 0x20 PUSH1 0x40 MLOAD DUP1 DUP4 SUB DUP2 DUP7 DUP1 EXTCODESIZE ISZERO DUP1 ISZERO PUSH2 0x2FB1 JUMPI PUSH1 0x0 DUP1 REVERT JUMPDEST POP GAS STATICCALL ISZERO DUP1 ISZERO PUSH2 0x2FC5 JUMPI RETURNDATASIZE PUSH1 0x0 DUP1 RETURNDATACOPY RETURNDATASIZE PUSH1 0x0 REVERT JUMPDEST POP POP POP POP PUSH1 0x40 MLOAD RETURNDATASIZE PUSH1 0x20 DUP2 LT ISZERO PUSH2 0x2FDB JUMPI PUSH1 0x0 DUP1 REVERT JUMPDEST DUP2 ADD SWAP1 DUP1 DUP1 MLOAD SWAP1 PUSH1 0x20 ADD SWAP1 SWAP3 SWAP2 SWAP1 POP POP POP SWAP1 POP PUSH1 0x0 PUSH20 0xFFFFFFFFFFFFFFFFFFFFFFFFFFFFFFFFFFFFFFFF AND DUP2 PUSH20 0xFFFFFFFFFFFFFFFFFFFFFFFFFFFFFFFFFFFFFFFF AND EQ ISZERO SWAP2 POP PUSH1 0x0 PUSH1 0xA SLOAD SWAP1 POP DUP3 ISZERO PUSH2 0x310D JUMPI PUSH1 0x0 DUP2 EQ PUSH2 0x3108 JUMPI PUSH1 0x0 PUSH2 0x3073 PUSH2 0x306E DUP7 PUSH14 0xFFFFFFFFFFFFFFFFFFFFFFFFFFFF AND DUP9 PUSH14 0xFFFFFFFFFFFFFFFFFFFFFFFFFFFF AND PUSH2 0x2831 SWAP1 SWAP2 SWAP1 PUSH4 0xFFFFFFFF AND JUMP JUMPDEST PUSH2 0x3127 JUMP JUMPDEST SWAP1 POP PUSH1 0x0 PUSH2 0x3080 DUP4 PUSH2 0x3127 JUMP JUMPDEST SWAP1 POP DUP1 DUP3 GT ISZERO PUSH2 0x3105 JUMPI PUSH1 0x0 PUSH2 0x30B3 PUSH2 0x30A2 DUP4 DUP6 PUSH2 0x28C6 SWAP1 SWAP2 SWAP1 PUSH4 0xFFFFFFFF AND JUMP JUMPDEST PUSH1 0x0 SLOAD PUSH2 0x2831 SWAP1 SWAP2 SWAP1 PUSH4 0xFFFFFFFF AND JUMP JUMPDEST SWAP1 POP PUSH1 0x0 PUSH2 0x30DD DUP4 PUSH2 0x30CF PUSH1 0x5 DUP8 PUSH2 0x2831 SWAP1 SWAP2 SWAP1 PUSH4 0xFFFFFFFF AND JUMP JUMPDEST PUSH2 0x3461 SWAP1 SWAP2 SWAP1 PUSH4 0xFFFFFFFF AND JUMP JUMPDEST SWAP1 POP PUSH1 0x0 DUP2 DUP4 DUP2 PUSH2 0x30EA JUMPI INVALID JUMPDEST DIV SWAP1 POP PUSH1 0x0 DUP2 GT ISZERO PUSH2 0x3101 JUMPI PUSH2 0x3100 DUP8 DUP3 PUSH2 0x3189 JUMP JUMPDEST JUMPDEST POP POP POP JUMPDEST POP POP JUMPDEST PUSH2 0x311F JUMP JUMPDEST PUSH1 0x0 DUP2 EQ PUSH2 0x311E JUMPI PUSH1 0x0 PUSH1 0xA DUP2 SWAP1 SSTORE POP JUMPDEST JUMPDEST POP POP SWAP3 SWAP2 POP POP JUMP JUMPDEST PUSH1 0x0 PUSH1 0x3 DUP3 GT ISZERO PUSH2 0x3176 JUMPI DUP2 SWAP1 POP PUSH1 0x0 PUSH1 0x1 PUSH1 0x2 DUP5 DUP2 PUSH2 0x3143 JUMPI INVALID JUMPDEST DIV ADD SWAP1 POP JUMPDEST DUP2 DUP2 LT ISZERO PUSH2 0x3170 JUMPI DUP1 SWAP2 POP PUSH1 0x2 DUP2 DUP3 DUP6 DUP2 PUSH2 0x315F JUMPI INVALID JUMPDEST DIV ADD DUP2 PUSH2 0x3168 JUMPI INVALID JUMPDEST DIV SWAP1 POP PUSH2 0x3148 JUMP JUMPDEST POP PUSH2 0x3184 JUMP JUMPDEST PUSH1 0x0 DUP3 EQ PUSH2 0x3183 JUMPI PUSH1 0x1 SWAP1 POP JUMPDEST JUMPDEST SWAP2 SWAP1 POP JUMP JUMPDEST PUSH2 0x319E DUP2 PUSH1 0x0 SLOAD PUSH2 0x3461 SWAP1 SWAP2 SWAP1 PUSH4 0xFFFFFFFF AND JUMP JUMPDEST PUSH1 0x0 DUP2 SWAP1 SSTORE POP PUSH2 0x31F6 DUP2 PUSH1 0x1 PUSH1 0x0 DUP6 PUSH20 0xFFFFFFFFFFFFFFFFFFFFFFFFFFFFFFFFFFFFFFFF AND PUSH20 0xFFFFFFFFFFFFFFFFFFFFFFFFFFFFFFFFFFFFFFFF AND DUP2 MSTORE PUSH1 0x20 ADD SWAP1 DUP2 MSTORE PUSH1 0x20 ADD PUSH1 0x0 KECCAK256 SLOAD PUSH2 0x3461 SWAP1 SWAP2 SWAP1 PUSH4 0xFFFFFFFF AND JUMP JUMPDEST PUSH1 0x1 PUSH1 0x0 DUP5 PUSH20 0xFFFFFFFFFFFFFFFFFFFFFFFFFFFFFFFFFFFFFFFF AND PUSH20 0xFFFFFFFFFFFFFFFFFFFFFFFFFFFFFFFFFFFFFFFF AND DUP2 MSTORE PUSH1 0x20 ADD SWAP1 DUP2 MSTORE PUSH1 0x20 ADD PUSH1 0x0 KECCAK256 DUP2 SWAP1 SSTORE POP DUP2 PUSH20 0xFFFFFFFFFFFFFFFFFFFFFFFFFFFFFFFFFFFFFFFF AND PUSH1 0x0 PUSH20 0xFFFFFFFFFFFFFFFFFFFFFFFFFFFFFFFFFFFFFFFF AND PUSH32 0xDDF252AD1BE2C89B69C2B068FC378DAA952BA7F163C4A11628F55A4DF523B3EF DUP4 PUSH1 0x40 MLOAD DUP1 DUP3 DUP2 MSTORE PUSH1 0x20 ADD SWAP2 POP POP PUSH1 0x40 MLOAD DUP1 SWAP2 SUB SWAP1 LOG3 POP POP JUMP JUMPDEST PUSH1 0x0 DUP2 DUP4 LT PUSH2 0x32B2 JUMPI DUP2 PUSH2 0x32B4 JUMP JUMPDEST DUP3 JUMPDEST SWAP1 POP SWAP3 SWAP2 POP POP JUMP JUMPDEST PUSH2 0x330E DUP2 PUSH1 0x1 PUSH1 0x0 DUP6 PUSH20 0xFFFFFFFFFFFFFFFFFFFFFFFFFFFFFFFFFFFFFFFF AND PUSH20 0xFFFFFFFFFFFFFFFFFFFFFFFFFFFFFFFFFFFFFFFF AND DUP2 MSTORE PUSH1 0x20 ADD SWAP1 DUP2 MSTORE PUSH1 0x20 ADD PUSH1 0x0 KECCAK256 SLOAD PUSH2 0x28C6 SWAP1 SWAP2 SWAP1 PUSH4 0xFFFFFFFF AND JUMP JUMPDEST PUSH1 0x1 PUSH1 0x0 DUP5 PUSH20 0xFFFFFFFFFFFFFFFFFFFFFFFFFFFFFFFFFFFFFFFF AND PUSH20 0xFFFFFFFFFFFFFFFFFFFFFFFFFFFFFFFFFFFFFFFF AND DUP2 MSTORE PUSH1 0x20 ADD SWAP1 DUP2 MSTORE PUSH1 0x20 ADD PUSH1 0x0 KECCAK256 DUP2 SWAP1 SSTORE POP PUSH2 0x3366 DUP2 PUSH1 0x0 SLOAD PUSH2 0x28C6 SWAP1 SWAP2 SWAP1 PUSH4 0xFFFFFFFF AND JUMP JUMPDEST PUSH1 0x0 DUP2 SWAP1 SSTORE POP PUSH1 0x0 PUSH20 0xFFFFFFFFFFFFFFFFFFFFFFFFFFFFFFFFFFFFFFFF AND DUP3 PUSH20 0xFFFFFFFFFFFFFFFFFFFFFFFFFFFFFFFFFFFFFFFF AND PUSH32 0xDDF252AD1BE2C89B69C2B068FC378DAA952BA7F163C4A11628F55A4DF523B3EF DUP4 PUSH1 0x40 MLOAD DUP1 DUP3 DUP2 MSTORE PUSH1 0x20 ADD SWAP2 POP POP PUSH1 0x40 MLOAD DUP1 SWAP2 SUB SWAP1 LOG3 POP POP JUMP JUMPDEST PUSH1 0x0 PUSH15 0x10000000000000000000000000000 DUP3 PUSH14 0xFFFFFFFFFFFFFFFFFFFFFFFFFFFF AND MUL SWAP1 POP SWAP2 SWAP1 POP JUMP JUMPDEST PUSH1 0x0 DUP2 PUSH14 0xFFFFFFFFFFFFFFFFFFFFFFFFFFFF AND PUSH28 0xFFFFFFFFFFFFFFFFFFFFFFFFFFFFFFFFFFFFFFFFFFFFFFFFFFFFFFFF AND DUP4 PUSH28 0xFFFFFFFFFFFFFFFFFFFFFFFFFFFFFFFFFFFFFFFFFFFFFFFFFFFFFFFF AND DUP2 PUSH2 0x3458 JUMPI INVALID JUMPDEST DIV SWAP1 POP SWAP3 SWAP2 POP POP JUMP JUMPDEST PUSH1 0x0 DUP3 DUP3 DUP5 ADD SWAP2 POP DUP2 LT ISZERO PUSH2 0x34DE JUMPI PUSH1 0x40 MLOAD PUSH32 0x8C379A000000000000000000000000000000000000000000000000000000000 DUP2 MSTORE PUSH1 0x4 ADD DUP1 DUP1 PUSH1 0x20 ADD DUP3 DUP2 SUB DUP3 MSTORE PUSH1 0x14 DUP2 MSTORE PUSH1 0x20 ADD DUP1 PUSH32 0x64732D6D6174682D6164642D6F766572666C6F77000000000000000000000000 DUP2 MSTORE POP PUSH1 0x20 ADD SWAP2 POP POP PUSH1 0x40 MLOAD DUP1 SWAP2 SUB SWAP1 REVERT JUMPDEST SWAP3 SWAP2 POP POP JUMP INVALID SSTORE PUSH15 0x697377617056323A20494E53554646 0x49 NUMBER 0x49 GASLIMIT 0x4E SLOAD 0x5F 0x4F SSTORE SLOAD POP SSTORE SLOAD 0x5F COINBASE 0x4D 0x4F SSTORE 0x4E SLOAD SSTORE PUSH15 0x697377617056323A20494E53554646 0x49 NUMBER 0x49 GASLIMIT 0x4E SLOAD 0x5F 0x49 0x4E POP SSTORE SLOAD 0x5F COINBASE 0x4D 0x4F SSTORE 0x4E SLOAD SSTORE PUSH15 0x697377617056323A20494E53554646 0x49 NUMBER 0x49 GASLIMIT 0x4E SLOAD 0x5F 0x4C 0x49 MLOAD SSTORE 0x49 DIFFICULTY 0x49 SLOAD MSIZE SSTORE PUSH15 0x697377617056323A20494E53554646 0x49 NUMBER 0x49 GASLIMIT 0x4E SLOAD 0x5F 0x4C 0x49 MLOAD SSTORE 0x49 DIFFICULTY 0x49 SLOAD MSIZE 0x5F TIMESTAMP SSTORE MSTORE 0x4E GASLIMIT DIFFICULTY SSTORE PUSH15 0x697377617056323A20494E53554646 0x49 NUMBER 0x49 GASLIMIT 0x4E SLOAD 0x5F 0x4C 0x49 MLOAD SSTORE 0x49 DIFFICULTY 0x49 SLOAD MSIZE 0x5F 0x4D 0x49 0x4E SLOAD GASLIMIT DIFFICULTY LOG2 PUSH5 0x6970667358 0x22 SLT KECCAK256 0x2E PUSH17 0xFE774BE96EF3EC549DD4F345C563CA65A6 0x21 0x21 0xED EXP 0xB1 PUSH8 0xFF3D35390DABBC64 PUSH20 0x6F6C634300060600330000000000000000000000 "
				},
				"gasEstimates": {
					"creation": {
						"codeDepositCost": "2756000",
						"executionCost": "43871",
						"totalCost": "2799871"
					},
					"external": {
						"MINIMUM_LIQUIDITY()": "227",
						"allowance(address,address)": "1377",
						"approve(address,uint256)": "22498",
						"balanceOf(address)": "1192",
						"burn(address)": "infinite",
						"decimals()": "262",
						"factory()": "1119",
						"getReserves()": "2993",
						"initialize(address,address)": "42940",
						"kLast()": "1050",
						"mint(address)": "infinite",
						"name()": "infinite",
						"nonces(address)": "1236",
						"price0CumulativeLast()": "1094",
						"price1CumulativeLast()": "1116",
						"skim(address)": "infinite",
						"swap(uint256,uint256,address,bytes)": "infinite",
						"symbol()": "infinite",
						"sync()": "infinite",
						"token0()": "1165",
						"token1()": "1141",
						"totalSupply()": "1139",
						"transfer(address,uint256)": "infinite",
						"transferFrom(address,address,uint256)": "infinite"
					},
					"internal": {
						"_mintFee(uint112,uint112)": "infinite",
						"_safeTransfer(address,address,uint256)": "infinite",
						"_update(uint256,uint256,uint112,uint112)": "infinite"
					}
				},
				"methodIdentifiers": {
					"MINIMUM_LIQUIDITY()": "ba9a7a56",
					"allowance(address,address)": "dd62ed3e",
					"approve(address,uint256)": "095ea7b3",
					"balanceOf(address)": "70a08231",
					"burn(address)": "89afcb44",
					"decimals()": "313ce567",
					"factory()": "c45a0155",
					"getReserves()": "0902f1ac",
					"initialize(address,address)": "485cc955",
					"kLast()": "7464fc3d",
					"mint(address)": "6a627842",
					"name()": "06fdde03",
					"nonces(address)": "7ecebe00",
					"price0CumulativeLast()": "5909c0d5",
					"price1CumulativeLast()": "5a3d5493",
					"skim(address)": "bc25cf77",
					"swap(uint256,uint256,address,bytes)": "022c0d9f",
					"symbol()": "95d89b41",
					"sync()": "fff6cae9",
					"token0()": "0dfe1681",
					"token1()": "d21220a7",
					"totalSupply()": "18160ddd",
					"transfer(address,uint256)": "a9059cbb",
					"transferFrom(address,address,uint256)": "23b872dd"
				}
			},
			"storageLayout": {
				"storage": [
					{
						"astId": 23,
						"contract": "UniswapV2/UniswapV2Pair.sol:UniswapV2Pair",
						"label": "totalSupply",
						"offset": 0,
						"slot": "0",
						"type": "t_uint256"
					},
					{
						"astId": 28,
						"contract": "UniswapV2/UniswapV2Pair.sol:UniswapV2Pair",
						"label": "balanceOf",
						"offset": 0,
						"slot": "1",
						"type": "t_mapping(t_address,t_uint256)"
					},
					{
						"astId": 35,
						"contract": "UniswapV2/UniswapV2Pair.sol:UniswapV2Pair",
						"label": "allowance",
						"offset": 0,
						"slot": "2",
						"type": "t_mapping(t_address,t_mapping(t_address,t_uint256))"
					},
					{
						"astId": 39,
						"contract": "UniswapV2/UniswapV2Pair.sol:UniswapV2Pair",
						"label": "nonces",
						"offset": 0,
						"slot": "3",
						"type": "t_mapping(t_address,t_uint256)"
					},
					{
						"astId": 331,
						"contract": "UniswapV2/UniswapV2Pair.sol:UniswapV2Pair",
						"label": "factory",
						"offset": 0,
						"slot": "4",
						"type": "t_address"
					},
					{
						"astId": 334,
						"contract": "UniswapV2/UniswapV2Pair.sol:UniswapV2Pair",
						"label": "token0",
						"offset": 0,
						"slot": "5",
						"type": "t_address"
					},
					{
						"astId": 337,
						"contract": "UniswapV2/UniswapV2Pair.sol:UniswapV2Pair",
						"label": "token1",
						"offset": 0,
						"slot": "6",
						"type": "t_address"
					},
					{
						"astId": 339,
						"contract": "UniswapV2/UniswapV2Pair.sol:UniswapV2Pair",
						"label": "reserve0",
						"offset": 0,
						"slot": "7",
						"type": "t_uint112"
					},
					{
						"astId": 341,
						"contract": "UniswapV2/UniswapV2Pair.sol:UniswapV2Pair",
						"label": "reserve1",
						"offset": 14,
						"slot": "7",
						"type": "t_uint112"
					},
					{
						"astId": 343,
						"contract": "UniswapV2/UniswapV2Pair.sol:UniswapV2Pair",
						"label": "blockTimestampLast",
						"offset": 28,
						"slot": "7",
						"type": "t_uint32"
					},
					{
						"astId": 346,
						"contract": "UniswapV2/UniswapV2Pair.sol:UniswapV2Pair",
						"label": "price0CumulativeLast",
						"offset": 0,
						"slot": "8",
						"type": "t_uint256"
					},
					{
						"astId": 349,
						"contract": "UniswapV2/UniswapV2Pair.sol:UniswapV2Pair",
						"label": "price1CumulativeLast",
						"offset": 0,
						"slot": "9",
						"type": "t_uint256"
					},
					{
						"astId": 352,
						"contract": "UniswapV2/UniswapV2Pair.sol:UniswapV2Pair",
						"label": "kLast",
						"offset": 0,
						"slot": "10",
						"type": "t_uint256"
					},
					{
						"astId": 355,
						"contract": "UniswapV2/UniswapV2Pair.sol:UniswapV2Pair",
						"label": "unlocked",
						"offset": 0,
						"slot": "11",
						"type": "t_uint256"
					}
				],
				"types": {
					"t_address": {
						"encoding": "inplace",
						"label": "address",
						"numberOfBytes": "20"
					},
					"t_mapping(t_address,t_mapping(t_address,t_uint256))": {
						"encoding": "mapping",
						"key": "t_address",
						"label": "mapping(address => mapping(address => uint256))",
						"numberOfBytes": "32",
						"value": "t_mapping(t_address,t_uint256)"
					},
					"t_mapping(t_address,t_uint256)": {
						"encoding": "mapping",
						"key": "t_address",
						"label": "mapping(address => uint256)",
						"numberOfBytes": "32",
						"value": "t_uint256"
					},
					"t_uint112": {
						"encoding": "inplace",
						"label": "uint112",
						"numberOfBytes": "14"
					},
					"t_uint256": {
						"encoding": "inplace",
						"label": "uint256",
						"numberOfBytes": "32"
					},
					"t_uint32": {
						"encoding": "inplace",
						"label": "uint32",
						"numberOfBytes": "4"
					}
				}
			},
			"userdoc": {
				"methods": {}
			}
		}
	}
}